:020000040800F2
:10000000A05200205DC80008C12C0008C32C0008C5
:10001000C72C0008CB2C0008CF2C000800000000E3
:10002000000000000000000000000000D32C0008C9
:10003000D52C000800000000D72C0008D92C00089F
:1000400081C8000881C8000881C8000881C800086C
:1000500081C8000881C800081506000881C800088A
:1000600081C8000881C8000881C8000881C800084C
:1000700081C8000881C8000881C8000881C800083C
:1000800081C8000881C8000881C8000881C800082C
:1000900081C8000881C8000881C8000881C800081C
:1000A00081C8000881C8000881C8000881C800080C
:1000B000E12C00082B1C000881C8000881C800083A
:1000C00081C8000881C8000881C8000881C80008EC
:1000D00081C8000895260008A1180008E129000839
:1000E00081C8000881C8000881C8000881C80008CC
:1000F00081C8000881C8000881C8000881C80008BC
:1001000081C8000881C80008C510000881C800081F
:1001100081C8000881C8000881C8000881C800089B
:1001200081C8000881C8000881C8000881C800088B
:1001300081C8000881C8000881C8000881C800087B
:1001400081C8000881C8000881C80008E92C00089F
:1001500081C8000881C8000881C8000881C800085B
:1001600081C8000881C8000881C8000881C800084B
:1001700081C8000881C8000881C8000881C800083B
:1001800081C8000881C8000800F002F800F083F878
:100190000AA090E8000C82448344AAF10107DA45E2
:1001A00001D100F078F8AFF2090EBAE80F0013F0B1
:1001B000010F18BFFB1A43F001031847C4F20000F7
:1001C000E4F200000A444FF0000C10F8013B13F079
:1001D000070408BF10F8014B1D1108BF10F8015BA0
:1001E000641E05D010F8016B641E01F8016BF9D193
:1001F00013F0080F1EBF10F8014BAD1C0C1B09D1EA
:100200006D1E58BF01F801CBFAD505E014F8016B5B
:1002100001F8016B6D1EF9D59142D6D370470000ED
:100220000023002400250026103A28BF78C1FBD8FF
:10023000520728BF30C148BF0B60704766290EF0D7
:10024000CE8403681B0A28BF41F0800164290CF0AA
:10025000938378290CF00A84E4290CF0C98363297C
:100260000DF08D8173290DF09281002070471FB52C
:100270000EF06DFC0DF0E6F90400002000210EF0F8
:10028000A9FB401C6060002000210EF08DFBE060A7
:100290001FBD10B510BD0DF06BFC1146FFF7E7FF59
:1002A00000F01AF90DF092FC03B4FFF7F2FF03BC63
:1002B00002F0AEFA01B5F6490098086000BFF448B4
:1002C00000680028FBD108BD10B504460121204676
:1002D00000F026FF58B1A12001F0C1FAEDA00CF00A
:1002E000E5FAA12001F0BBFA0A2001F0B8FA0221D8
:1002F000204600F015FF58B1A12001F0B0FAE6A0A9
:100300000CF0D4FAA12001F0AAFA0A2001F0A7FA11
:100310000421204600F004FF58B1A12001F09FFA0B
:10032000DEA00CF0C3FAA12001F099FA0A2001F036
:1003300096FA0821204600F0F3FE58B1A12001F002
:100340008EFAD7A00CF0B2FAA12001F088FA0A20A8
:1003500001F085FA1021204600F0E2FE58B1A120FC
:1003600001F07DFACFA00CF0A1FAA12001F077FAFC
:100370000A2001F074FA2021204600F0D1FE58B185
:10038000A12001F06CFAC8A00CF090FAA12001F0B5
:1003900066FA0A2001F063FA4021204600F0C0FE10
:1003A00058B1A12001F05BFAC0A00CF07FFAA120A7
:1003B00001F055FA0A2001F052FA8021204600F09F
:1003C000AFFE58B1A12001F04AFAB9A00CF06EFAC4
:1003D000A12001F044FA0A2001F041FA4FF48071A3
:1003E000204600F09DFE58B1A12001F038FAB1A0DE
:1003F0000CF05CFAA12001F032FA0A2001F02FFA89
:1004000010BDF8B5044601F06FF9A12001F027FAFC
:10041000A9A00CF04BFAA12001F021FA0A2001F06A
:100420001EFA204602F0E8FE4FF47A726068B0FBD4
:10043000F2F1B1F1807F00D31DE021F07F40401E3A
:100440004FF0E022506150170F22002807DA1307FF
:100450001E0E9F4B00F00F052D1F5E5503E0130786
:100460001D0E9C4B1D5400BF00204FF0E0229061F8
:100470000720106100BF9848984B994A01210090CD
:10048000984809F07FF9984800F027FE944995486C
:1004900009F0ADFB6420FFF70DFF02F05BF902F0FD
:1004A00003FBA12001F0DBF990A00CF0FFF9A120E3
:1004B00001F0D5F90A2001F0D2F9E42001F0CFF9DA
:1004C0008CA00CF0F3F9E42001F0C9F90A2001F046
:1004D000C6F900F0F6FDF8BD9EB00025002601200B
:1004E0008849087005A8049000F0B0FF91E08548A5
:1004F000007890B16846FFF784FFA12001F0AFF9C2
:10050000232181A00CF0D2F9A12001F0A8F90A2042
:1005100001F0A5F900207B4908707C480068A0B173
:100520003046761CB0F5704F0FD36D496D4809F019
:100530005EFB6D4800F032FD0746FFF7C5FE6A48D6
:1005400000F02CFD0220FFF7B5FE714800687149EC
:10055000096888425DD005A8049901F018FE044698
:10056000002C56D0A12001F07AF96BA00CF09EF976
:10057000A12001F074F90A2001F071F9012C35D1A4
:1005800004A801F07CFE0546002D22DB05EB45109A
:10059000624A02EB8000D0F880100498884790B936
:1005A000A12001F05CF905EB45105C4A02EB8000EC
:1005B000411D5BA00CF07AF9A12001F050F90A204E
:1005C00001F04DF920E005A90DF146000CF0AFFC5B
:1005D0001AE0A12001F043F952A00CF067F9A12024
:1005E00001F03DF90A2001F03AF90DE0022C0BD19F
:1005F000A12001F034F950A00CF058F9A12001F02D
:100600002EF90A2001F02BF9232001F028F905A882
:1006100004906CE710B5012007F0CFFB00B3012078
:1006200007F021FC0021304A52689160D1602E4AC7
:100630005268116151619FED450A2B48406880ED79
:10064000060AE42001F00BF941A00CF02FF9E42098
:1006500001F005F90A2001F002F90120294908708A
:1006600010BD10B500242A4800682A49096888424C
:1006700076D001F099F804462B2C73D1364890EDD2
:10068000000ADFED360A30EE200A80ED000A8CE029
:100690000000002046522100494C21004D5221000B
:1006A0004D4C210042522100424C21005544210072
:1006B000525321004C53210053797374656D2049C6
:1006C0006E697469616C697A696E672E2E2E0000FE
:1006D00018ED00E000E400E01C0000201401002000
:1006E000000700205401002084070020446F6E653D
:1006F0002100000053797374656D2052656164793F
:100700000000000008000020256300000400002015
:1007100074000020780000200A00000038ED000876
:1007200025730000556E6B6E6F776E20436F6D6D95
:10073000616E642100000000496E76616C6964207E
:100740006368617261637465722100000000B442E5
:1007500053542030000000000C000020CDCCCC3DD4
:100760005BE0FFE72D2C09D1324890ED000A5FEDE8
:10077000050A30EE600A80ED000A16E0752C09D1FA
:100780002D4890ED000A5FED0B0A30EE200A80ED57
:10079000000A0AE0642C08D1274890ED000A5FEDBA
:1007A000110A30EE600A80ED000A234890ED000A3D
:1007B000F7EE000AB4EEE00AF1EE10FA03DDB7EE50
:1007C000000A80ED000A1C4890ED000AFFEE000AC6
:1007D000B4EEE00AF1EE10FA03D2BFEE000A80EDAB
:1007E000000A144890ED000AF7EE000AB4EEE00AA1
:1007F000F1EE10FA03DDB7EE000A80ED000A0D48B5
:1008000090ED000AFFEE000AB4EEE00AF1EE10FAF5
:1008100003D2BFEE000A80ED000A10BD00BFFEE764
:100820000648006820B105480068401E034908607A
:10083000704700000C000020100000200000002085
:1008400008B500214FF0006008F03DF84FF4A060BB
:1008500007F0CCFF1C208DF8000001208DF801006E
:100860008DF802008DF80300684607F0DAFF0121D9
:10087000084602F0A3FE08BD1CB504460121084647
:1008800002F0D6FD4FF4D850009003208DF80500FB
:1008900002208DF8040000208DF806008DF8070076
:1008A0006946744807F0A2FB0A220821714807F044
:1008B000DCFE0A2209216F4807F0D7FE0A220B212D
:1008C0006C4807F0D2FE0A220C216A4807F0CDFEE0
:1008D0004FF48060009001208DF806008DF807002D
:1008E00003208DF805006946624807F07FFB0A2265
:1008F0001146604807F0B9FE0121880302F087FE27
:100900000121802002F0BDFDFFF79AFF1CBD38B524
:1009100004464FF4C06007F069FF43208DF80000E3
:1009200001208DF8010003208DF8020001208DF8D0
:100930000300684607F075FF38BD70B505460C46E4
:1009400024B901214C4807F07AFD03E001214A480F
:1009500007F0A6FD70BD3EB5044600214FF0804073
:1009600003F0FEFC00220121880705F03BFB022C6E
:1009700002D10B20019004E0012C02D142F6DF608D
:1009800001900520ADF800000020ADF80800ADF89A
:10099000020069464FF0804003F048F901218807C2
:1009A00005F0BDFC0121880703F0E9FB0122114697
:1009B000900705F017FB0121880703F0D1FC3EBD2D
:1009C00070B505460C462D4805602046FFF7C3FF6D
:1009D00000BF2A4800680028FBD100214FF080406A
:1009E00003F0BEFC70BD10B5044601212046FFF7A0
:1009F000E7FF10BD1CB504460121042002F018FDDC
:100A00000120009003208DF8050001208DF80400DE
:100A100000208DF806008DF807006946164807F09B
:100A2000E5FA0121144807F00AFDC820FFF7DBFFB3
:100A30001CBD10B5044602212046FFF7C1FF10BDC2
:100A400010B50121880705F00DFC88B10121880748
:100A500005F065FC0948006828B108480068401E98
:100A60000649086004E000214FF0804003F078FC64
:100A700010BD0000000002400008024018000020E5
:100A8000704710B5A12000F0EAFEF6A00BF00EFFB3
:100A9000A12000F0E4FE0A2000F0E1FE10BD704746
:100AA00010B5A12000F0DBFEF2A00BF0FFFEA120AC
:100AB00000F0D5FE0A2000F0D2FE10BD704710B540
:100AC00004466CB9A12000F0CAFEEF49EFA00BF07C
:100AD000EDFEA12000F0C3FE0A2000F0C0FE2CE0D5
:100AE000012C0DD1A12000F0BAFEE949E7A00BF0DE
:100AF000DDFEA12000F0B3FE0A2000F0B0FE1CE0F5
:100B0000022C0DD1A12000F0AAFEE249DFA00BF0DB
:100B1000CDFEA12000F0A3FE0A2000F0A0FE0CE014
:100B2000A12000F09CFEDC49D8A00BF0BFFEA12064
:100B300000F095FE0A2000F092FE10BD70B504464C
:100B40002546A12000F08BFE2989D4A00BF0AEFE33
:100B5000A12000F084FE0A2000F081FEA12000F018
:100B60007EFE6989D0A00BF0A1FEA12000F077FEE7
:100B70000A2000F074FE70BD70472DE9F041064672
:100B80000C4617462546687908280DD1A12000F0AB
:100B900066FEC849C8A00BF089FEA12000F05FFEE8
:100BA0000A2000F05CFE0FE0687903280CD1A12038
:100BB00000F055FEC149B5A00BF078FEA12000F071
:100BC0004EFE0A2000F04BFEBDE8F08110B5044651
:100BD000A12000F044FE2146B9A00BF067FEA12041
:100BE00000F03DFE0A2000F03AFE10BD10B50446AC
:100BF000A12000F034FE2146B6A00BF057FEA12044
:100C000000F02DFE0A2000F02AFE10BD10B50446AB
:100C1000A12000F024FE2146B2A00BF047FEA12047
:100C200000F01DFE0A2000F01AFE10BD10B5A12034
:100C300000F015FEB0A00BF039FEA12000F00FFE71
:100C40000A2000F00CFE10BD10B5A12000F007FE38
:100C5000AEA00BF02BFEA12000F001FE0A2000F058
:100C6000FEFD10BD10B50024A12000F0F8FDAEA0DF
:100C70000BF01CFEA12000F0F2FD0A2000F0EFFDB9
:100C80000124204610BD70470020AC490870487010
:100C90000021AA4A9160D160116151619FEDA80ABB
:100CA000104680ED060A704770B52DED028B0446A4
:100CB0000D46B0EE408A9FEDA30A28EE000ADFED54
:100CC000A20A80EE201AF0EE418AB0EE680A0DF01A
:100CD00019FCDFED9E0A20EE200A10EE106A304665
:100CE0000DF03AFFC4E900019FED960A28EE000AD4
:100CF000DFED950A80EE201AF0EE418AB0EE680A28
:100D00000DF0A8FCDFED910A20EE200A10EE106A2B
:100D100030460DF021FFC5E90001BDEC028B70BD2E
:100D200005E0DFED8B0A70EE600AB0EE600AFDEEC2
:100D3000C00A10EE900AB0F5B47FF2DA05E0DFEDFC
:100D4000840A70EE200AB0EE600AFDEEC00A10EED2
:100D5000900A0028F3DB704770B52DED048B84B04A
:100D60000446207845B2684200EE100AB8EEC00A88
:100D7000DFED780A20EE200ADFED770A80EE201AF8
:100D80009FED730A21EE000AB0EE408A002D41D09B
:100D90006A48D0ED060AB0EE600A694602A8FFF77D
:100DA00083FF6649D1E90260DDE90212711A60EB46
:100DB0000200624AC2E902101046D0E90430DDE9BF
:100DC00000219A1A60EB01005C49C1E90420084641
:100DD000D0ED060A70EE880AB0EE600AFFF7A0FFB9
:100DE000F0EE408A694602A8FFF75EFF5348D0E95B
:100DF0000220DDE90231D21848415049C1E9022000
:100E00000846D0E90420DDE90031D21848414B49B9
:100E1000C1E904204948D0ED060A70EE880AB0EE18
:100E2000600AFFF77DFF454880ED060AE42000F0E8
:100E300016FD424890ED060A10EE101A08460DF015
:100E4000E5FD41EC190B53EC192B44A00BF02EFDE2
:100E5000E42000F004FD0A2000F001FD04B0BDEC28
:100E6000048B70BD44657669636520417474616369
:100E70006865640044657669636520446973636FDF
:100E80006E6E6563746564003DEC000825730000B8
:100E90005AEC000877EC000893EC0008564944200F
:100EA0003A20253034586800504944203A202530F3
:100EB00034586800A2EC000825730A00C2EC000850
:100EC0004D616E756661637475726572203A202596
:100ED0007300000050726F64756374203A202573AC
:100EE0000000000053657269616C204E756D62658B
:100EF00072203A2025730000456E756D657261742D
:100F0000696F6E20646F6E6521000000446576692C
:100F10006365206973206E6F7420737570706F72D3
:100F20007465642100000000555342485F555352D8
:100F30005F55736572496E7075742100A0070020BB
:100F40000000B442D80F49400000344300C0DA45E5
:100F50000000B4436F12033BDDEDAF424F7220251A
:100F6000322E316600000000704710B50446A12003
:100F700000F075FC214605A00BF098FCA12000F0C4
:100F80006EFC0A2000F06BFC10BD70474B657920A9
:100F9000636F6465202558200A00000070B505467F
:100FA00000246A4801683F208843044300F0E0F9C8
:100FB0006748B0F904006749884201DA44F0400408
:100FC0002C82686890ED060A10EE101A08460DF0A3
:100FD000C3FD614AC2E91601204670BD70B52DED12
:100FE000068B8EB00446E42000F039FC206890EDBA
:100FF000010A10EE101A08460DF008FD41EC180B1E
:10100000606890ED060A10EE101A08460DF0FEFC1E
:1010100041EC190B206890ED000A10EE101A0846FA
:101020000DF0F4FC41EC1A0BA06800F5FA50A16831
:1010300001F54051D1F8801E00EBC10003C8CDE995
:101040000C014FF47A50A168405801EBC00003C86E
:10105000CDE90A01208A08908DED068B8DED049B69
:101060008DED02AB606841690069CDE900016068FF
:10107000D0E902532A4639480BF018FCE42000F06E
:10108000EEFB0A2000F0EBFB0EB0BDEC068B70BD52
:101090007CB50446E42000F0E2FB60684169006929
:1010A000CDE900016068D0E902532A462CA00BF07C
:1010B000FDFBE42000F0D3FB0A2000F0D0FB7CBD58
:1010C0007047704710B502212A4805F0CBF818B1D7
:1010D0000221284805F023F910BD10B50446264822
:1010E0002060264860602648A0600020208200F032
:1010F000FCFDB7EE000A184880ED060AB2EE040ABD
:10110000204880ED060A4FF496701349086300F0FA
:10111000A5F900F071F800F087FA00F01AFF10BD91
:1011200010B50246184B1B78534001EA02042340D5
:10113000D8B202EA01031BB1134B1B880B4302E038
:10114000114B1B888B43104C238010BD10040240B0
:1011500066000020B4FBFFFF4009002034F40008C3
:10116000507820256C6C640A507920256C6C640AD8
:101170000A000000000C0040E0070020A00700204B
:10118000A8090020D80800206400002070B504469B
:101190000D4608218E4807F083F900BF02218D48D3
:1011A00008F0E2F90028F9D021468A4808F0C2F890
:1011B00000BF0121874808F0D7F90028F9D08548F9
:1011C00008F09EF800BF0221824808F0CDF90028FF
:1011D000F9D029467F4808F0ADF800BF01217D48CD
:1011E00008F0C2F90028F9D07A4808F089F80821F7
:1011F000774807F024F970BD00B587B001210803D6
:1012000002F005FA0121084602F012F9012110202E
:1012100002F00EF90020ADF808004FF48270ADF82E
:101220000A000020ADF80C000220ADF80E000120ED
:10123000ADF810004002ADF812003820ADF81400EF
:101240000020ADF816000120ADF81800614807F045
:1012500089FC02A95F4807F0B9FCE0200090022059
:101260008DF804008DF8050000208DF806008DF83B
:1012700007006946584806F0B9FE08200090012092
:101280008DF8040002208DF8050001208DF807007C
:1012900000208DF8060069464D4806F0A7FE05229D
:1012A00011464D4807F0E1F9052206214A4807F0AA
:1012B000DCF905220721484807F0D7F908214448FE
:1012C00007F0BDF80121434807F06CFE01212520FD
:1012D000FFF75CFFC9212320FFF758FF672120207B
:1012E000FFF754FF67212020FFF750FF67212020E0
:1012F000FFF74CFF20212420FFF748FF07B000BD77
:1013000010B504460821324807F0CAF844F08004BA
:1013100000BF02212F4808F027F90028F9D0214604
:101320002C4808F007F800BF01212A4808F01CF9F2
:101330000028F9D0274807F0E3FF00BF0221254825
:1013400008F012F90028F9D00021224807F0F2FF36
:1013500000BF01211F4808F007F90028F9D0082133
:101360001B4807F06CF81B4807F0CAFFC0B210BD5D
:1013700010B52820FFF7C4FF184908802920FFF77F
:10138000BFFF1649098841EA002000B213490880CE
:101390002A20FFF7B5FF114948802B20FFF7B0FF47
:1013A0000E49498841EA002000B20C4948802C20AF
:1013B000FFF7A6FF094988802D20FFF7A1FF074905
:1013C000898841EA002000B20449888010BD0000ED
:1013D0000010024000300140000002406600002082
:1013E00000B585B00121084602F022F801218803EA
:1013F00002F00DF900208DF810008DF81300012087
:10140000039003A9144806F0F1FD0021084607F0F7
:1014100001FB0120019000208DF8080008208DF8C4
:10142000090001208DF80A0001A806F0D7FB06206C
:101430008DF8000001208DF801008DF802008DF874
:101440000300684607F0EDF905B000BD10B5FFF7E1
:10145000C7FF00F01DF810BD000002401CB53F2082
:1014600000900121022001F0E3FF00208DF804002C
:101470008DF8060001208DF8070002208DF8050088
:101480006946024806F0B2FD1CBD0000000402409F
:101490001CB50121082001F0CBFF4FF470400090F3
:1014A00001208DF8040000208DF806008DF807005B
:1014B00003208DF805006946014806F097FD1CBD24
:1014C000000C0240014683484068401C48436422A7
:1014D000B0FBF2F0704710B52DED028BB0EE408AF4
:1014E000BDEEC80A10EE100AFFF7ECFF7A498860DB
:1014F0007A4802F07FFF0821784803F0B1FCBDEC88
:10150000028B10BD10B52DED028BB0EE408ABDEE02
:10151000C80A10EE100AFFF7D5FF6F4988606F48C0
:1015200003F02BF908216D4803F00EFDBDEC028B92
:1015300010BD10B52DED028BB0EE408ABDEEC80A8D
:1015400010EE100AFFF7BEFF63498860634803F09E
:1015500021F80821614803F0C1FCBDEC028B10BDED
:1015600010B52DED028BB0EE408ABDEEC80A10EE2C
:10157000100AFFF7A7FF58498860584803F0CDF9D3
:101580000821564803F024FDBDEC028B10BD1CB5AC
:101590000121082001F04CFF02220C21504807F0E5
:1015A00064F802220D214E4807F05FF802220E2156
:1015B0004B4807F05AF802220F21494807F055F826
:1015C0004FF47040009002208DF804008DF8050063
:1015D00001208DF807006946414806F007FD1CBD53
:1015E00010B560203C490880FFF7D1FF01203A493F
:1015F00048800020888110BD10B5044601210420D8
:1016000001F0DCFF002033490880488046F67D0069
:101610004860002008818872304802F007FB0121F1
:101620002E4802F09DFE10BD10B54FF4FA70FFF782
:10163000E3FFFFF7D5FF9FED2B0AFFF763FF9FED59
:10164000290AFFF748FF9FED270AFFF789FF9FED63
:10165000250AFFF76EFF10BD10B5044600EE104AD4
:10166000B8EEC00AFFF765FF00EE104AB8EEC00AF8
:10167000FFF776FF10BD10B50446002C15DA644262
:1016800000EE104AB8EEC00AFFF753FF00EE104A12
:10169000B8EEC00AFFF736FF9FED120AFFF760FFB2
:1016A0009FED100AFFF717FF13E000EE104AB8EEA7
:1016B000C00AFFF710FF00EE104AB8EEC00AFFF7AD
:1016C0004FFF9FED080AFFF734FF9FED060AFFF773
:1016D00019FF10BDD4070020C007002000080040FB
:1016E000000C02400000000000B587B00121084650
:1016F00001F09EFE07220221914806F0B6FF072264
:1017000003218F4806F0B1FF0C20059002208DF8D0
:10171000180000208DF81A0001208DF81B0003200E
:101720008DF8190005A9864806F060FC01214804DF
:1017300001F044FF834801900020ADF810000C2018
:10174000ADF80E000020ADF80C00ADF80A00ADF8C1
:10175000080001A97C4805F03CFB26208DF800001C
:1017600000208DF801008DF8020001208DF80300A3
:10177000684607F056F8012240F22551724806F0FB
:1017800002F80121704805F06DFC00206F490860E7
:101790006F4908606F4908606F4908606F490870B9
:1017A0006F49087007B000BD00BF69490968674A02
:1017B00012689142F9D064490C31098821F0200166
:1017C000614A0C321180614A11684A1C5F4B1A60F1
:1017D00001F03F02634B985C5B490C31098841F092
:1017E0002001594A0C32118070475C490978A9BB25
:1017F0005B49097871B954490C31098841F080017D
:10180000514A0C3211800121554A11704E49091D6F
:10181000088023E04C490C31098821F080014A4AB4
:101820000C3211804C4A11684A1C4B4B1A6001F073
:101830003F024D4B985448490968464A1268514046
:1018400001F03F0111B90121444A11703E490C31A8
:10185000098841F080013C4A0C321180704710B574
:1018600004460A2C07D100BF3C4800780028FBD171
:101870000D20FFF7BAFF00BF384800780028FBD1E1
:101880002046FFF7B2FF204610BD10B5044603E026
:101890002078FFF7E4FF641C20780028F8D110BD01
:1018A00008B5294800880090009800F02000D0B1C9
:1018B0002548008820F0200023490880234800683C
:1018C000403023490968884238D01F49091D0988DA
:1018D000CAB21F490868411C1D4B196000F03F0146
:1018E000204B5A542AE0009800F0800030B316488C
:1018F000008820F0800014490880164800681649C6
:10190000096888420FD013490868411C114A1160C8
:1019100000F03F01144A515C0B4A121D1180002057
:101920000E4908700AE000200D49087006480C3086
:10193000008820F0800004490C31088008BD0000B8
:101940000000024080841E0000440040740000201B
:10195000780000206C000020700000207C00002037
:101960007D0000202C080020EC07002010B52DED94
:10197000028B0446D4E9162110460DF075F800EEEE
:10198000100AD4ED150A30EEC00AB0EE408A94F881
:101990006400002866D194ED060A20EE080A84ED62
:1019A0000E0A94ED0E0AD4ED030A94ED111A31EEED
:1019B000081A00EE810A84ED0E0AE06CA0B194EDE5
:1019C0000B0AD4ED120A78EE600A20EE200AD4ED5C
:1019D000140A94ED0F1A00EE810AD4ED0E0A30EECF
:1019E000200A84ED0E0A0BE094ED0E0AD4ED0B0AEA
:1019F00094ED121A38EE411A00EE810A84ED0E0AB7
:101A000094ED0E0AD4ED100A30EE200A84ED0E0A91
:101A1000D4ED0E0A94ED0C0AB8EEC00AF4EEC00A3A
:101A2000F1EE10FA06DB94ED0C0AB8EEC00A84ED74
:101A30000E0A17E0D4ED0E0A94ED0D0AB8EEC00AB6
:101A4000F4EEC00AF1EE10FA06D894ED0D0AB8EEE5
:101A5000C00A84ED0E0A05E094ED110A30EE080A82
:101A600084ED110A94ED0E0A84ED0F0A84ED128ABA
:101A7000D4ED0E0A94ED0C0AB8EEC01A80EE810A7D
:101A8000BDEC028B10BD2DE9F0412DED048B044619
:101A90000D4616461F46304639460CF0E5FF09EE66
:101AA000100A204629460CF0DFFF00EE100AC9EEAE
:101AB000000AF0EE608AB0EE680A0CF073FCDFED0D
:101AC000FE0A20EE200A9FEDFD1AC0EE010A9FEDEE
:101AD000FA0A30EE600AB0EE408AB5EEC08AF1EE46
:101AE00010FA02D2B1EE480A01E0B0EE480AB0EEB8
:101AF000408A00210846611A75EB00000BDA0021CC
:101B00000846891BB84106DA9FEDEB0A30EE480A19
:101B1000B0EE408A34E000210846611A75EB0000FF
:101B20000CDA00210846711A77EB000006DA9FED07
:101B3000E20A38EE000AB0EE408A21E000210846B1
:101B4000091BA8410CDA00210846711A77EB000046
:101B500006DA9FEDDB0A30EE480AB0EE408A0FE06D
:101B6000002184EA01006940084309D1002186EA86
:101B700001007940084303D19FEDD20AB0EE408ABC
:101B8000BDEC048BBDE8F0812DE9F0412DED048B17
:101B9000CD48D0F8800E4FF47A71B0FBF1F201FB22
:101BA0001200CA4901EBC00030C8C748D0F8800E07
:101BB0004FF47A71B0FBF1F201FB1201C44800EB63
:101BC000C100C0C832463B4620462946FFF75BFFAE
:101BD000B0EE408ABF4880ED158ABF48406890ED5E
:101BE000060A10EE101A08460CF0B6FFB94AC2E910
:101BF0001601E420FFF733FEB64890ED150A10EE0B
:101C0000101A08460CF002FF41EC190B53EC192B8B
:101C1000B2A00AF04BFEE420FFF721FE0A20FFF7F6
:101C20001EFEBDEC048BBDE8F08110B52DED028BDE
:101C30000121AC4804F016FBB8B10121A94804F019
:101C40006EFBFFF7A1FFA348FFF790FEB0EE408ABE
:101C50009FEDA50A28EE000ABDEEC00A10EE100A9C
:101C6000FFF709FD0120A1490870BDEC028B10BDF2
:101C700000219E4A117047F6FF7101629FED910AA3
:101C800080ED0A0A4A42426201609FED8E0A80EDB1
:101C9000020A11464160490C01619FED8A0A80EDFC
:101CA000060A426101639FED870A80ED0E0A4263D6
:101CB0009FED840A80ED100A9FED820A80ED120AE2
:101CC0009FED800A80ED110A0021C1649FED7D0A1D
:101CD00080ED140A9FED7B0A80ED150A80F86410F0
:101CE0009FED780A80ED180A704700B58048FFF72D
:101CF000BFFF7848FFF7BCFF00217348C0F8801E83
:101D0000C0F8841E00BD1FB50121022001F056FC61
:101D100042F21070ADF804000020ADF806004FF458
:101D2000FA7002900020ADF80C008DF80E0001A9A9
:101D30006C4801F07BFF1D208DF8000000208DF81D
:101D4000010001208DF802008DF80300684606F0BE
:101D500068FD01221146634804F044F901216148FD
:101D600002F0FEFA1FBD6348C06CE8B1614890ED17
:101D7000181AF7EE001AC1EE810AD0ED0A1A90ED9A
:101D8000131AB8EEC11A81EE810A90ED0A1A70EEAC
:101D9000201A81EE212A80ED0B2A30EE201AC0EEA7
:101DA000011AC0ED141A08E0524890ED0A1AD0ED5D
:101DB000181A21EE211A80ED0B1A4E4890ED021AE6
:101DC000D0ED181A81EE212A80ED032A704770B5F4
:101DD0003D4CD4F8844E4FF47A75B4FBF5F605FB10
:101DE00016443A4D05EBC40403C4374CD4F8844E72
:101DF0004FF47A75B4FBF5F605FB1645344C04EB4D
:101E0000C5040CC4304CD4F8844E641C2E4DC5F867
:101E1000844E70BD10B5002400BF15E0204604EBD1
:101E2000D0714910A4EB410139B142F21072002384
:101E300018461946FFF7CBFF05E02F4AD31350424F
:101E40000021FFF7C4FF641CB4F5487FE6DB10BD3A
:101E500030B51D4DD5F8804E1C4D05EBC40503C5AE
:101E60001B4D05EBC4050CC530BD2DE9F0472DED2C
:101E7000028B1548D0F8800E4FF47A71B0FBF1F266
:101E800001FB1200114901EBC000D0E9002012490A
:101E90004968D1E90231D41A60EB01050A48D0F84B
:101EA000800E4FF47A71B0FBF1F201FB1201084889
:101EB00000EBC10022E0000000003443D80F49408D
:101EC0000000B44300000000A8390020A809002049
:101ED000E828002040090020840700204F522025D8
:101EE00066000000000400400000C8427E000020A0
:101EF000D808002070080020D08AFFFFD0E9003009
:101F000043494A68D2E904125E1A60EB020721468F
:101F1000A1FB01C805FB018804FB05883046A0FB36
:101F2000009A07FB00AA06FB07A11CEB090248EB7D
:101F3000010110460CF098FD08EE100AB0EE480AB8
:101F40000CF050FC334880ED150ABDEC028BBDE867
:101F5000F08710B5FFF75EFFFFF705FFFFF7D3FE31
:101F600000212D48C0F8801EC0F8841E10BD00203E
:101F70002A490870704700202849087070470FB43C
:101F800000B52DED0A8B8BB09DED2E0A10EE101AC8
:101F900008460CF03BFD41EC180B9DED240A10EEB9
:101FA000101A08460CF032FD41EC190B9DED200A89
:101FB00010EE101A08460CF029FD41EC1A0B9DEDAD
:101FC0001C0A10EE101A08460CF020FD41EC1B0B09
:101FD0009DED180A10EE101A08460CF017FD41ECA2
:101FE0001C0B9DF8BC000A908DED088B299806907B
:101FF0008DED049B8DED02AB8DED00BB53EC1C2BE6
:1020000007A00AF053FC0BB0BDEC0A8B5DF814FB83
:1020100084070020D8080020A83900207E00002076
:102020004B69203A25660A4B70203A25660A4B64B4
:10203000203A25660A55203A25660A4E203A25643C
:102040000A46726571203A25660A4D6F646F203A20
:1020500025640A0010B50446F248FEF7BFFF0120D0
:1020600010BD10B50446EF48FFF712F8012010BD6F
:102070007FB5044600256B4602AAEBA120460AF074
:10208000E5FD0546022D02DA002004B070BDDDE951
:102090000023DDE90201FFF79AFE0120F5E77FB595
:1020A000044600256B4602AAE4A120460AF0CEFDB4
:1020B0000546022D02DA002004B070BDDDE90023E0
:1020C000DDE90201FFF7C4FE0120F5E738B504465B
:1020D0006A46DFA120460AF0B9FD0546002D01DD64
:1020E000012038BD0020FCE710B50446FEF7E9FFEB
:1020F000012010BD70B505460C4607E0D649082002
:102100000AF013FF00222046641E2A54002CF5DC3E
:1021100070BD0146612903DB7A2901DC012070478B
:10212000412903DB5A2901DC0120F8E70020F6E70A
:102130000146302901DB392901DD002070470120EB
:10214000FCE70246002106E0C448405C904201D111
:1021500001207047491CC148405C0028F4D100BFF1
:10216000F7E700B503461846FFF7E2FF08B1012084
:1021700000BD1846FFF7CDFF08B10120F8E718466B
:10218000FFF7DFFF08B10120F2E70020F0E72DE9BB
:10219000F04105460F460026FFF706FB0446B0480F
:1021A0000068312810DB082C0ED00020AC490968EB
:1021B0006854ACA00AF07AFB2320FFF750FB3946A5
:1021C000AEA00AF073FB53E02046FFF7CAFF28B920
:1021D00002262146AAA00AF069FB49E0082C11D189
:1021E0009F480068002843DD9B4908200AF09DFEB7
:1021F00000209B490968685499480068401E984926
:10220000086035E01B2C08D1954801682846FFF787
:1022100071FF0020924908602AE0242C11D195F822
:10222000320020B998A00AF041FB032620E08C4838
:1022300001682846FFF75EFF394690A00AF036FB9A
:1022400016E00D2C01D00A2C07D100208449096822
:1022500068540126824908600AE0814800682C54CD
:102260002046FFF7FCFA7E480068401C7C49086065
:1022700016B100207A4908603046BDE8F0817CB58F
:1022800006460024356805E015F8012B2046641C3D
:102290000DF80020052C05DA2878202802D02878AF
:1022A0000028F1D114B100200DF8040000240BE047
:1022B00004EB44107C4A02EB800168460AF05CFEA5
:1022C00008B920467CBD641C04EB4410764911F823
:1022D00020000028ECD1681E054630604FF0FF302A
:1022E000F0E730B503460D46196800240878302819
:1022F00007D00878312804D00878202801D00020A1
:1023000030BD09E011F8012BA2F13000C2B20AB1D0
:10231000012A01D16400144408783028F2D00878EA
:102320003128EFD008782028ECD02C6019600120EB
:10233000E6E7F8B505460E462868009000BF00980D
:1023400010F8014B0090202C02D00CB12E2CF6D1AD
:102350000CB90020F8BD00BF009810F8014B0090A8
:102360002046FFF7E5FE18B144240098401E009077
:10237000482C07D0422C05D0442C03D0009800787C
:102380000028E9D1422C11D0442C08D0482C13D17C
:10239000324646A100980AF059FCC4B20EE032461B
:1023A00043A100980AF052FCC4B207E031466846E7
:1023B000FFF797FF044601E00020CBE700BF02E0F3
:1023C0000098401C009000980078202806D00098C3
:1023D000007818B1009800782E28F1D10098286074
:1023E0002046B7E770B50546002409E004EB441029
:1023F0002D4A02EB8000411D2EA00AF057FA641C02
:1024000004EB4410284901EB800040790028EDD10D
:10241000012070BD10B5044627A00AF047FA01203C
:1024200010BD0000840700204150205820256C6C0E
:1024300064205920256C6C64000000005343502038
:102440005820256C6C64205920256C6C64000000B9
:10245000534D202564000000980000202CED00085A
:10246000800000200A5741524E494E472120627594
:10247000666665722066756C6C210A002573000023
:10248000307825780A0000000A54797065206120B0
:1024900076616C696420636F6D6D616E642066693E
:1024A000727374210000000038ED0008256C58009C
:1024B000256C750025730A0056657273E36F203032
:1024C0002E312C204461766964204365726465690D
:1024D00072612C20677275706F20342C204C50492B
:1024E0003220554D204445492032303135210A00F3
:1024F00000B587B00121022000F09AFF07220621D3
:102500008A4806F0B2F807221146884806F0ADF86E
:10251000C020059002208DF8180000208DF81A00C8
:1025200001208DF81B0003208DF8190005A97F48B4
:1025300005F05CFD0121102001F069F84FF4E13055
:1025400001900020ADF810000C20ADF80E00002026
:10255000ADF80C00ADF80A00ADF8080001A9744808
:1025600004F037FC25208DF8000000208DF80100D4
:102570008DF8020001208DF80300684606F051F93D
:10258000012240F225516A4805F0FDF80121684812
:1025900004F068FD002067490860674908606749E2
:1025A000086067490860674908706749087007B0A4
:1025B00000BD00BF604909685E4A12689142F9D0C7
:1025C0005B49898921F02001594A9181594A116852
:1025D0004A1C584B1A6001F03F025C4B985C54490E
:1025E000898941F02001524A918170475549097803
:1025F00071BB5549097859B94D49898941F0800124
:102600004B4A91810121504A1170494988801FE04D
:102610004749898921F08001454A9181484A1168DA
:102620004A1C474B1A6001F03F02494B98544449F9
:102630000968424A1268514001F03F0111B9012175
:10264000404A11703A49898941F08001384A9181A4
:10265000704710B504460A2C07D100BF39480078EE
:102660000028FBD10D20FFF7C1FF00BF35480078DF
:102670000028FBD12046FFF7B9FF204610BD10B55A
:10268000044603E02078FFF7E4FF641C207800286C
:10269000F8D110BD08B5264800880090009800F0D9
:1026A0002000C8B12248008820F02000204908807E
:1026B00020480068403020490968884234D01C49CD
:1026C0008988CAB21C490868411C1B4B196000F07C
:1026D0003F011E4B5A5427E0009800F0800018B3C9
:1026E0001348008820F080001149088013480068D2
:1026F0001349096888420ED010490868411C0F4AE6
:10270000116000F03F01124A515C094A918000209B
:102710000C49087008E000200B49087004488089C3
:1027200020F080000249888108BD000000040240BA
:10273000001001408C000020900000208400002048
:1027400088000020940000209500002070480020A0
:102750003048002010B5FFF7CBFE0020FFF779FFCF
:102760000AA10C480AF0AEF810BD70B504460AA1E3
:1027700008480AF0A7F8FFF71CFF05463E2D04D1D4
:1027800022460AA103480AF09DF870BD0A41540A86
:1027900000000000A000002041542B434950534545
:1027A0004E443D302C203235350A0D0025730A0089
:1027B00070B504460D461748854203D1E0B2FFF7D5
:1027C00048FF70BD1448854203D1E0B200F0E7F83D
:1027D000F7E7E0B2FFF743F8F3E710B504460F4818
:1027E000844202D1FFF7E5FE10BD0D48844202D1BC
:1027F00000F07AF8F8E7FEF7D7FFF5E710B50446E2
:10280000E0B2FFF72CF810BD01464FF0FF307047E3
:1028100000BFFEE7A0000020A8000020A4000020C8
:10282000AC00002000B587B00121042000F000FEBC
:1028300007220A21924805F018FF07220B21904831
:1028400005F013FF4FF44060059002208DF818004A
:1028500000208DF81A0001208DF81B0003208DF850
:10286000190005A9864805F0C1FB0121880400F084
:10287000A5FE4FF4E13001900020ADF810000C20CF
:10288000ADF80E000020ADF80C00ADF80A00ADF870
:10289000080001A97B4804F09CFA27208DF800006D
:1028A00000208DF801008DF8020001208DF8030052
:1028B000684605F0B6FF012240F22551714804F048
:1028C00062FF01216F4804F0CDFB00206E490860D3
:1028D0006E4908606E4908606E4908606E4908706C
:1028E0006E49087007B000BD00BF68490968664AB4
:1028F00012689142F9D063490C31098821F0200116
:10290000604A0C321180604A11684A1C5E4B1A60A2
:1029100001F03F02624B985C5A490C31098841F042
:102920002001584A0C32118070475B490978A9BBD5
:102930005A49097871B953490C31098841F080012D
:10294000504A0C3211800121544A11704D49091D21
:10295000088023E04B490C31098821F08001494A65
:102960000C3211804B4A11684A1C4A4B1A6001F024
:102970003F024C4B985447490968454A12685140F8
:1029800001F03F0111B90121434A11703D490C3159
:10299000098841F080013B4A0C321180704710B524
:1029A00004460A2C07D100BF3B4800780028FBD121
:1029B0000D20FFF7BAFF00BF374800780028FBD191
:1029C0002046FFF7B2FF204610BD10B5044603E0D5
:1029D0002078FFF7E4FF641C20780028F8D110BDB0
:1029E00008B5284800880090009800F02000D0B179
:1029F0002448008820F020002249088022480068EE
:102A0000403022490968884238D01E49091D09888A
:102A1000CAB21E490868411C1C4B196000F03F01F6
:102A20001F4B5A542AE0009800F0800030B315483C
:102A3000008820F080001349088015480068154977
:102A4000096888420FD012490868411C104A116079
:102A500000F03F01134A515C0A4A121D1180002008
:102A60000D4908700AE000200C49087005480C3038
:102A7000008820F0800003490C31088008BD000068
:102A80000008024000480040B8000020BC000020C0
:102A9000B0000020B4000020C0000020C1000020D1
:102AA000F0480020B048002010B5FFF7BBFE10BD75
:102AB0000CB50020019000907648006840F480300A
:102AC0007449086000BF7348006800F4003000904B
:102AD0000198401C0190009818B90198B0F5A06FBA
:102AE000F1D16C48006800F4003010B10120009072
:102AF00001E0002000900098012846D16548403050
:102B0000006840F0805063494031086062480068C6
:102B100040F48040604908605E48083000685D49C4
:102B2000083108600846006840F400400860084624
:102B3000006840F4A05008605848091F0860081F4A
:102B4000006840F08070091F086000BF51480068AD
:102B500000F000700028F9D040F20560504908608C
:102B60004C480830006820F003004A4908310860EA
:102B70000846006840F00200086000BF4548083081
:102B8000006800F00C000828F8D10CBD10B54548CD
:102B9000006840F47000434908603E48006840F017
:102BA00001003C49086000203A4908310860394872
:102BB00000683D490840374908603C48091D0860E5
:102BC000081F006820F48020091F08600020314998
:102BD0000C310860FFF76CFF4FF00060314980391D
:102BE000086010BD70B500200022022300240221DD
:102BF000284D08352D6805F00C0020B1042806D0BA
:102C0000082834D107E02A4D2A4E356033E02A4D9A
:102C1000284E35602FE01F4D2D1D2D68C5F38054C3
:102C20001C4D2D1D2D6805F03F0154B1224DB5FB03
:102C3000F1F5184E361D3668C6F3881605FB06F208
:102C400009E01B4DB5FBF1F5124E361D3668C6F393
:102C5000881605FB06F20F4D2D1D2D68C5F30145A5
:102C60006D1C6B00B2FBF3F5124E356003E0104DA6
:102C7000104E356000BF00BF064D08352D68C5F306
:102C800003150E4E705D0B4D2D68C540094E356025
:102C900070BD00000038024000700040085440073A
:102CA000003C024088ED00E0FFFFF6FE10300024FB
:102CB00000B4C404C400002000127A00C800002040
:102CC000704700BFFEE700BFFEE700BFFEE700BFA2
:102CD000FEE770477047704710B5FDF7A1FD10BDC6
:102CE00010B5FDF7ADFE10BD10B5024809F05BFA56
:102CF00010BD000054010020F948006840F00100B8
:102D0000F74908600020F64908310860F448006877
:102D1000F4490840F2490860F348091D0860081F9B
:102D2000006820F48020091F08600020EC490C3165
:102D30000860704710B504461CB1012C01D0052C69
:102D400000D103E0F121E9A0FDF768FD0020E4498E
:102D5000891C08700846047010BD2DE9F041044636
:102D6000002500260027212C17D0312C15D0392C16
:102D700013D0412C11D0612C0FD0792C0DD07A2C8E
:102D80000BD07B2C09D07C2C07D07D2C05D07E2C41
:102D900003D07F2C01D03B2C00D104E040F29D6198
:102DA000D2A0FDF73BFD6511012D02D1CC4806688C
:102DB00008E0022D03D1CA487030066802E0C84816
:102DC0007430066804F01F050120A840304008B1A7
:102DD000012700E000273846BDE8F08138B5002023
:102DE00000900024002500BF3120FFF7B6FF054604
:102DF0000098401C00900098B0F5A06F01D0002D05
:102E0000F2D03120FFF7A9FF08B1012400E000242F
:102E1000204638BD70B5044600251F2C00DC04E0B8
:102E200040F22911B1A0FDF7F9FCAD48056825F085
:102E3000F80545EAC405056070BD10B504460CB13F
:102E4000012C00D104E04FF4A671A8A0FDF7E6FC28
:102E5000B548046010BD10B504461CB1012C01D06A
:102E6000042C00D104E040F26511A0A0FDF7D6FCCF
:102E700000209B49703108700870012C02D0042C8E
:102E80000AD104E0012096497031087005E0052060
:102E900093497031087000E000BF00BF10BD10B54D
:102EA00004460CB1012C00D104E040F28D118FA03A
:102EB000FDF7B4FC9D48046010BD2DE9F0410546C6
:102EC0000F4616461C46DDF8188015B1B5F5800F83
:102ED00000D104E04FF4DC7184A0FDF79FFC3F2F8C
:102EE00000D804E040F2B91180A0FDF797FCC02E95
:102EF00003D3B6F5D87F00D804E04FF4DD717BA092
:102F0000FDF78CFC022C05D0042C03D0062C01D03C
:102F1000082C00D104E040F2BB1174A0FDF77EFC48
:102F2000B8F1040F03D3B8F10F0F00D804E04FF449
:102F3000DE716EA0FDF772FC47EA86100121C1EB3D
:102F4000540140EA0140284340EA08606449091DF1
:102F50000860BDE8F08110B504460CB1012C00D129
:102F600004E040F2CF1161A0FDF758FC6E48046602
:102F700010BD70B505460C46C02D03D3B5F5D87FFE
:102F800000D804E040F2E91158A0FDF747FC022CFC
:102F900002D3072C00D804E04FF4F57153A0FDF7DD
:102FA0003DFCA80140EA04704D498431086070BDC1
:102FB00010B504460CB1012C00D104E04FF4FC71B3
:102FC0004AA0FDF72BFC5848846610BD10B5044696
:102FD0000CB1012C00D104E040F20A2143A0FDF71E
:102FE0001DFC5148C46410BD70B505460C46002652
:102FF00045B1B5F5001F05D0B5F5800F02D0B5F588
:10300000C00F00D104E040F2252138A0FDF706FCF6
:103010005CB1B4F1806F08D0B4F1A06F05D0B4F109
:10302000C06F02D0B4F1E06F00D104E040F226217D
:103030002EA0FDF7F3FB2A480830066826F0EC6660
:1030400045EA0400064326480830066070BD70B5A6
:1030500005460C46002645B1B5F1804F05D0B5F1C7
:10306000004F02D0B5F1404F00D104E040F24B21B7
:103070001EA0FDF7D3FB5CB1B4F1005F08D0B4F142
:10308000205F05D0B4F1405F02D0B4F1605F00D1A1
:1030900004E04FF4137115A0FDF7C0FB1048083091
:1030A000066826F0784645EA040006430C480830D6
:1030B000066070BD70B5044600251CB1012C01D01E
:1030C000022C00D104E040F2B52108A0FDF7A6FBD8
:1030D00003480830056825F003052543056070BDE9
:1030E00000380240FFFFF6FE103000242E2E5C4C0C
:1030F00069627261726965735C53544D3332463450
:1031000078785F5374645065726970685F4472695F
:103110007665725C7372635C73746D333266347897
:10312000785F7263632E630000004742800E47425F
:10313000F948006800F00C00704770B5044600259F
:103140007CB1802C0DD0902C0BD0A02C09D0B02CB1
:1031500007D0C02C05D0D02C03D0E02C01D0F02C0F
:1031600000D105E040F2EA21AFF28000FDF756FB06
:10317000E948056825F0F0052543056070BD70B588
:10318000044600255CB1B4F5805F08D0B4F5A05FBB
:1031900005D0B4F5C05F02D0B4F5E05F00D105E022
:1031A00040F20A31AFF2BC00FDF738FBDA4805689F
:1031B00025F4E0552543056070BD70B50446002533
:1031C0005CB1B4F5805F08D0B4F5A05F05D0B4F56C
:1031D000C05F02D0B4F5E05F00D105E040F22931D4
:1031E000AFF2F800FDF71AFBCB48056825F46045FF
:1031F00045EAC405056070BDF0B500210022002439
:10320000022500260223C44F3F6807F00C0121B1BC
:10321000042905D0082937D105E0C04F076036E002
:10322000BF4F076033E0BC4F3F1F3F68C7F3805676
:10323000B94F3F1F3F6807F03F036EB1B84FB7FB70
:10324000F3F7DFF8D4C2ACF1040CDCF800C0CCF327
:10325000881C07FB0CF40CE0B04FB7FBF3F7DFF86A
:10326000B8C2ACF1040CDCF800C0CCF3881C07FB3E
:103270000CF4A94F3F1F3F68C7F301477F1C7D0037
:10328000B4FBF5F7076002E0A44F076000BF00BF82
:10329000A14F3F6807F0F0010909A24F7A5C076867
:1032A000D74047609C4F3F6807F4E051890A9D4F23
:1032B0007A5C4768D7408760974F3F6807F4604162
:1032C000490B984F7A5C4768D740C760F0BD70B52E
:1032D00004460025B4F5807F5CD0B4F5007F59D05A
:1032E0009148844256D09148844253D090488442B9
:1032F00050D0904884424DD08F4884424AD08F4865
:10330000844247D08E48844244D08E48844241D083
:103310008D4884423ED08D4884423BD08C488442C4
:1033200038D08C48844235D08B48844232D08B4888
:1033300084422FD08A4884422CD08A48844229D0A3
:103340008948844226D08948844223D088488442D0
:1033500020D0884884421DD0874884421AD08748AC
:10336000844217D08648844214D08648844211D0C3
:10337000854884420ED0854884420BD084488442DC
:1033800008D08448844205D08348844202D08348D0
:10339000844200D105E040F2DA31AFF2B020FDF70F
:1033A0003DFA04F44070B0F5407F09D15A480568F1
:1033B00025F4F8157A4904EA0100054356480560EA
:1033C000554868300068C4F30B010843524968311E
:1033D000086070BD10B504460CB1012C00D105E0A9
:1033E0004FF47E71AFF2FC20FDF718FA6D480460CF
:1033F00010BD10B504460CB1012C00D105E040F21F
:103400000941AFF21830FDF709FA6648001D046063
:1034100010BD10B504460CB1012C00D105E040F2FE
:103420001A41AFF23830FDF7F9F95F48046010BD7A
:1034300070B504460D465D48204008B904B105E06A
:1034400040F24141AFF25C30FDF7E8F90DB1012DDA
:1034500000D105E040F24341AFF27030FDF7DEF9F4
:103460003DB12D482830006820432B4928310860A1
:1034700006E0294828300068A04327492831086021
:1034800070BD70B504460D4624F0F10008B904B1D2
:1034900005E040F26141AFF2AC30FDF7BFF90DB18C
:1034A000012D00D105E040F26241AFF2C030FDF7DE
:1034B000B5F93DB118482C300068204316492C312D
:1034C000086006E014482C300068A04312492C31F3
:1034D000086070BD70B504460D4624F0010008B9BF
:1034E00004B105E040F27C41AFF20040FDF796F9EF
:1034F0000DB1012D00D105E040F27D41AFF2144045
:10350000FDF78CF93DB10448303000682043024992
:103510003031086051E04BE00838024000B4C40488
:1035200000127A00D800002000030200000303000C
:103530000003040000030500000306000003070069
:10354000000308000003090000030A0000030B0049
:1035500000030C0000030D0000030E0000030F0029
:103560000003100000031100000312000003130009
:1035700000031400000315000003160000031700E9
:10358000000318000003190000031A0000031B00C9
:1035900000031C0000031D0000031E0000031F00A9
:1035A000FFFCFF0F3C0E47425C01474200EE8B815F
:1035B000F8480068A043F749086070BD70B504463C
:1035C0000D46F548204008B904B105E040F2AE418F
:1035D000AFF2E840FDF722F90DB1012D00D105E071
:1035E00040F2AF41AFF2FC40FDF718F93DB1E948B8
:1035F000083000682043E7490831086006E0E548E4
:1036000008300068A043E3490831086070BD70B518
:1036100004460D46E148204008B904B105E040F2F7
:10362000D641AFF23850FDF7F9F80DB1012D00D1B8
:1036300005E040F2D741AFF24C50FDF7EFF83DB155
:10364000D4480C3000682043D2490C31086006E0B1
:10365000D0480C300068A043CE490C31086070BDE2
:1036600070B504460D46CE48204008B904B105E0C7
:1036700040F2FD41AFF28C50FDF7D0F80DB1012DB5
:1036800000D105E040F2FE41AFF2A050FDF7C6F8D0
:103690003DB1C048283800682043BE492839086039
:1036A00006E0BC4828380068A043BA4928390860B9
:1036B00070BD70B504460D4624F0F10008B904B1A0
:1036C00005E040F21A51AFF2DC50FDF7A7F80DB15A
:1036D000012D00D105E040F21B51AFF2F050FDF793
:1036E0009DF83DB1AB48243800682043A9492439EE
:1036F000086006E0A74824380068A043A54924399B
:10370000086070BD70B504460D4624F0010008B98C
:1037100004B105E040F23251AFF23060FDF77EF8BF
:103720000DB1012D00D105E040F23351AFF24460FC
:10373000FDF774F83DB1974820380068204395495B
:103740002039086006E0934820380068A04391497A
:103750002039086070BD70B504460D468E48204083
:1037600008B904B105E040F26151AFF28060FDF7A5
:1037700055F80DB1012D00D105E040F26251AFF2D4
:103780009460FDF74BF83DB182481838006820433B
:1037900080491839086006E07E4818380068A04360
:1037A0007C491839086070BD70B504460D467D48E7
:1037B000204008B904B105E040F28551AFF2D46071
:1037C000FDF72CF80DB1012D00D105E040F2865136
:1037D000AFF2E860FDF722F83DB16E48143800689A
:1037E00020436C491439086006E06A4814380068C0
:1037F000A04368491439086070BD70B504460D4691
:103800006948204008B904B105E040F2B351AFF275
:103810002470FDF703F80DB1012D00D105E040F251
:10382000B451AFF23870FCF7F9FF3DB15948183088
:103830000068204357491831086006E055481830A1
:103840000068A04353491831086070BD70B5044644
:103850000D4624F0F10008B904B105E040F2D3515F
:10386000AFF27870FCF7DAFF0DB1012D00D105E061
:1038700040F2D451AFF28C70FCF7D0FF3DB1454817
:103880001C300068204343491C31086006E0414871
:103890001C300068A0433F491C31086070BD70B502
:1038A00004460D4624F0010008B904B105E040F2D9
:1038B000EE51AFF2C870FCF7B1FF0DB1012D00D190
:1038C00005E040F2EF51AFF2DC70FCF7A7FF3DB12D
:1038D00030482030006820432E492031086006E03F
:1038E0002C4820300068A0432A492031086070BD70
:1038F00070B504460D462848204008B904B105E0DB
:103900004FF4C461AFF61C00FCF788FF0DB1012D28
:1039100000D105E040F22161AFF63000FCF77EFFF8
:103920003DB11C482830006820431A4928310860FE
:1039300006E0184828300068A0431649283108607E
:1039400070BD70B504460D461448204008B904B156
:1039500005E04FF4C961AFF66C00FCF75FFF0DB1F5
:10396000012D00D105E040F24961AFF68000FCF77F
:1039700055FF3DB107482C300068204305492C31E4
:10398000086006E003482C300068A04301492C3150
:10399000086070BD38380240003601C9CCA0F8FF7D
:1039A00000EE9FDDCCA6F8FF006E988170B504464E
:1039B0000D4604F0C00008B904B105E040F275619D
:1039C000AFF6D800FCF72AFF0DB1012D00D105E0BC
:1039D00040F27661AFF6EC00FCF720FF2DB12448F1
:1039E000007820432249087004E021480078A04371
:1039F0001F49087070BD1E486730006840F0807035
:103A00001B4967310860704770B504460025012CDA
:103A10000BD0022C09D0042C07D0082C05D0102C78
:103A200003D0802C01D0202C00D105E040F2DB61D6
:103A3000AFF64810FCF7F2FE0D48401E006820402B
:103A400008B1012500E00025284670BD10B50446E8
:103A500004F0400008B904B105E040F2FA61AFF6A5
:103A60007410FCF7DBFE0248401C047010BD00001F
:103A70000D38024010B50446FE48844226D0B4F109
:103A8000804F23D0FC48844220D0FC4884421DD083
:103A9000FB4884421AD0FB48844217D0FA4884423B
:103AA00014D0FA48844211D0F94884420ED0F94823
:103AB00084420BD0F848844208D0F848844205D0AC
:103AC000F748844202D0F748844200D103E0C6217F
:103AD000F5A0FCF7A3FEE748844208D1012108467F
:103AE000FFF762FE00210120FFF75EFE9DE0B4F1CA
:103AF000804F08D101210846FFF72DFE002101204B
:103B0000FFF729FE91E0DC48844208D10121022020
:103B1000FFF721FE00210220FFF71DFE85E0D748B8
:103B2000844208D101210420FFF715FE0021042062
:103B3000FFF711FE79E0D248844208D10121082024
:103B4000FFF709FE00210820FFF705FE6DE0CD48D4
:103B5000844208D101211020FFF7FDFD0021102033
:103B6000FFF7F9FD61E0C848844208D10121202017
:103B7000FFF7F1FD00212020FFF7EDFD55E0C348E0
:103B8000844208D101210220FFF70EFE002102200D
:103B9000FFF70AFE49E0BE48844209D1012108042A
:103BA000FFF702FE00214FF48030FFF7FDFD3CE0FF
:103BB000B848844209D101214804FFF7F5FD0021EE
:103BC0004FF40030FFF7F0FD2FE0B348844209D1F5
:103BD00001218804FFF7E8FD00214FF48020FFF762
:103BE000E3FD22E0AD48844208D101214020FFF7E7
:103BF000B2FD00214020FFF7AEFD16E0A848844248
:103C000008D101218020FFF7A6FD00218020FFF7C9
:103C1000A2FD0AE0A348844207D101218015FFF7E5
:103C20009AFD0021A015FFF796FD10BD70B5044662
:103C30000D4600268F48844226D0B4F1804F23D011
:103C40008D48844220D08D4884421DD08C488442C7
:103C50001AD08C48844217D08B48844214D08B48A9
:103C6000844211D08A4884420ED08A4884420BD0C4
:103C70008948844208D08948844205D088488442D3
:103C800002D08848844200D104E04FF4907186A0AD
:103C9000FCF7C4FD688858B16888102808D0688887
:103CA000202805D06888402802D06888602800D184
:103CB00004E040F221117CA0FCF7B0FD288938B166
:103CC0002889B0F5807F03D02889B0F5007F00D126
:103CD00004E04FF4917174A0FCF7A0FD26886548BC
:103CE00084420ED0694884420BD0B4F1804F08D092
:103CF0006148844205D06148844202D060488442D1
:103D000004D14FF68F700640688806435D488442B0
:103D100007D05D48844204D04FF6FF400640288912
:103D2000064326806868E0622888208551488442DE
:103D300002D05648844201D1A87A20860120A08270
:103D400070BD4FF0FF314160002101800181418051
:103D50008172704770B504460E4615464548844248
:103D600026D0B4F1804F23D04348844220D043482A
:103D700084421DD0424884421AD04248844217D01F
:103D80004148844214D04148844211D04048844282
:103D90000ED0404884420BD03F48844208D03F4870
:103DA000844205D03E48844202D03E48844200D13D
:103DB00004E04FF4B3713CA0FCF730FD0DB1012DD0
:103DC00000D104E040F2671137A0FCF727FD2685FB
:103DD000A58270BD70B504460D4600262548844274
:103DE0000ED0B4F1804F0BD02348844208D0234832
:103DF000844205D02248844202D02448844200D123
:103E000004E040F27F1128A0FCF708FD3DB1102D21
:103E100005D0202D03D0402D01D0602D00D104E02D
:103E20004FF4C07120A0FCF7F9FC26884FF68F7084
:103E300006402E43268070BD70B504460D460D48E1
:103E400084425FD0B4F1804F5CD00B48844259D09B
:103E50000A48844256D00A48844253D009488442D2
:103E600050D0094884424DD0084884424AD008487E
:103E7000844237E000000140000400400008004098
:103E8000000C0040001000400014004000040140FD
:103E9000004001400044014000480140001800403B
:103EA000001C0040002000402E2E5C4C69627261B4
:103EB000726965735C53544D3332463478785F537E
:103EC00074645065726970685F4472697665725C8B
:103ED0007372635C73746D3332663478785F7469BF
:103EE0006D2E63000ED0FE4884420BD0FD48844204
:103EF00008D0FD48844205D0FC48844202D0FC48EA
:103F0000844200D105E040F29711AFF26400FCF763
:103F100085FC656270BD70B504460D46F548844267
:103F200026D0B4F1804F23D0F348844220D0F34808
:103F300084421DD0F24884421AD0F248844217D0FD
:103F4000F148844214D0F148844211D0F0488442B0
:103F50000ED0E34884420BD0E248844208D0E248C5
:103F6000844205D0E148844202D0E148844200D135
:103F700005E04FF4D371AFF2D000FCF74FFCE562DF
:103F800070BD10B50446DB48844226D0B4F1804FA2
:103F900023D0D948844220D0D84884421DD0D84864
:103FA00084421AD0D748844217D0D748844214D0CC
:103FB000D648844211D0D64884420ED0C8488442A4
:103FC0000BD0C848844208D0C748844205D0C748AF
:103FD000844202D0C648844200D105E04FF4DA7131
:103FE000AFF23C10FCF71AFC606A10BD10B5044635
:103FF000C048844226D0B4F1804F23D0BE488442CA
:1040000020D0BE4884421DD0BD4884421AD0BD484D
:10401000844217D0BC48844214D0BC48844211D09A
:10402000BB4884420ED0AE4884420BD0AD48844297
:1040300008D0AD48844205D0AC48844202D0AC4898
:10404000844200D105E04FF4E171AFF2A410FCF717
:10405000E5FB208D10BD70B504460D46A548844291
:1040600026D0B4F1804F23D0A348844220D0A34867
:1040700084421DD0A24884421AD0A248844217D05C
:10408000A148844214D0A148844211D0A04884425F
:104090000ED0934884420BD09248844208D0924874
:1040A000844205D09148844202D09148844200D194
:1040B00005E04FF4E971AFF21020FCF7AFFB0DB152
:1040C000012D00D105E040F2D311AFF22420FCF71E
:1040D000A5FB25B1208840F00200208004E0208864
:1040E0004FF6FD710840208070BD70B504460D4646
:1040F0008048844226D0B4F1804F23D07E48844249
:1041000020D07E4884421DD07D4884421AD07D480C
:10411000844217D07C48844214D07C48844211D019
:104120007B4884420ED06E4884420BD06D48844256
:1041300008D06D48844205D06C48844202D06C4857
:10414000844200D105E040F2EF11AFF2A420FCF769
:1041500065FB0DB1012D00D105E04FF4F871AFF210
:10416000B820FCF75BFB25B1208840F004002080DC
:1041700004E020884FF6FB710840208070BD70B5C8
:1041800004460D465B48844226D0B4F1804F23D0CC
:104190005948844220D0594884421DD0584884420E
:1041A0001AD05848844217D05748844214D05748F0
:1041B000844211D0564884420ED0494884420BD0E4
:1041C0004848844208D04848844205D04748844241
:1041D00002D04748844200D105E04FF40271AFF2AB
:1041E0003830FCF71BFB0DB1012D00D105E040F28A
:1041F0000921AFF24C30FCF711FB25B1208840F0CB
:104200008000208004E020884FF67F7108402080E5
:1042100070BD70B504460D463648844226D0B4F1D0
:10422000804F23D03448844220D0344884421DD06B
:10423000334884421AD03348844217D032488442EB
:1042400014D03248844211D0314884420ED02448E0
:1042500084420BD02348844208D02348844205D0AE
:104260002248844202D02248844200D105E040F234
:104270002321AFF2CC30FCF7D1FA082D00D005B9DC
:1042800005E04FF40971AFF2E030FCF7C7FA20887F
:104290004FF6F7710840208020882843208070BDA9
:1042A00070B504460D46134884423BD0B4F1804FAC
:1042B00038D01148844235D01048844232D010485A
:1042C00084422FD0114884422CD01148844229D0F6
:1042D0000348844226D00348844223D0024819E090
:1042E000004401400048014000180040001C00400C
:1042F0000020004000000140000400400008004091
:10430000000C004000100040001400400004014078
:1043100000400140844205D0FE48844202D0FE485D
:10432000844200D105E040F23A21AFF28440FCF72C
:1043300075FA2DB1B5F5807F02D0B5F5007F00D1BB
:1043400005E040F23B21AFF2A040FCF767FA20887D
:104350004FF6FF410840208020882843208070BD10
:1043600070B504460D46ED48844226D0B4F1804F26
:1043700023D0EB48844220D0EA4884421DD0EA484A
:1043800084421AD0E948844217D0E948844214D0C4
:10439000E848844211D0E84884420ED0E74884427D
:1043A0000BD0E748844208D0E648844205D0D9487B
:1043B000844202D0D848844200D105E040F24E2128
:1043C000AFF21C50FCF72AFA0DB1012D00D105E027
:1043D00040F24F21AFF23050FCF720FA25B120888F
:1043E00040F00100208004E020884FF6FE71084074
:1043F000208070BD2DE9F04105460C464FF00008C5
:1044000000260027C548854220D0B5F1804F1DD039
:10441000C34885421AD0C348854217D0C248854256
:1044200014D0C448854211D0C34885420ED0C34839
:1044300085420BD0C248854208D0C248854205D08B
:10444000B448854202D0B448854200D105E040F22C
:104450009F21AFF2AC50FCF7E1F9208870B12088C1
:1044600010280BD02088202808D02088302805D09C
:104470002088602802D02088702800D105E04FF401
:104480002871AFF2DC50FCF7C9F9608810B1608880
:10449000012800D105E040F2A121AFF2F450FCF771
:1044A000BDF9A08910B1A089022800D105E040F231
:1044B000A221AFF20C60FCF7B1F9288C4FF6FE7127
:1044C000084028842E8CAF88B5F818804FF68F707E
:1044D00008EA0008881E08EA0008208840EA080860
:1044E000481E0640A0890643608806438B488542E3
:1044F00002D09048854245D1A08810B1A0880428F8
:1045000000D105E040F2BF21AFF26460FCF786F90C
:10451000E08910B1E089082800D105E04FF430713E
:10452000AFF27C60FCF77AF9608AB0F5007F01D0C9
:10453000608A00B905E040F2C121AFF29460FCF757
:104540006DF9208AB0F5807F01D0208A00B905E09E
:1045500040F2C221AFF2B060FCF760F94FF6F7709D
:104560000640E08906434FF6FB700640A0880643EC
:104570004FF6FF6007404FF6FF500740208A074381
:10458000608A0743AF80A5F81880A06868632E840E
:10459000BDE8F0812DE9F04105460C464FF00008DA
:1045A000002600275D48854214D0B5F1804F11D018
:1045B0005B4885420ED05B4885420BD05A48854205
:1045C00008D05C48854205D05B48854202D05D48F2
:1045D000854200D105E04FF43C71AFF23470FCF736
:1045E0001DF9208870B1208810280BD02088202841
:1045F00008D02088302805D02088602802D0208864
:10460000702800D105E040F2F121AFF26470FCF7B0
:1046100005F9608810B16088012800D105E040F2FA
:10462000F221AFF27C70FCF7F9F8A08910B1A089F3
:10463000022800D105E040F2F321AFF29470FCF7BC
:10464000EDF8288C4FF6EF71084028842E8CAF8847
:10465000B5F8188048F6FF7008EA00084FF6FF40EA
:1046600008EA000820884FF6FF7101EA002040EABE
:1046700008084FF6DF700640A08901EA00100643E3
:10468000608801EA001006432448854202D0294888
:1046900085426AD1A08810B1A088042800D105E025
:1046A00040F21131AFF60000FCF7B8F8E08910B124
:1046B000E089082800D105E040F21231AFF6180079
:1046C000FCF7ACF8608AB0F5007F01D0608A00B9D1
:1046D00005E040F21331AFF63000FCF79FF8208A76
:1046E000B0F5807F01D0208A00B905E04FF4457114
:1046F000AFF64C00FCF792F84FF67F700640E08969
:104700004FF6FF7101EA001006434FF6BF700640F6
:10471000A08819E0001C004000200040000001407B
:104720000004004000080040000C00400010004061
:1047300000140040000401400040014000440140DA
:10474000004801400018004001EA001006434FF6FF
:10475000FF3007404FF2FF700740208A01EA8000D7
:104760000743608A01EA80000743AF80A5F81880FC
:10477000A068A8632E84BDE8F0812DE9F0410546CC
:104780000C464FF0000800260027FE4885420ED058
:10479000B5F1804F0BD0FC48854208D0FB488542DC
:1047A00005D0FB48854202D0FA48854200D105E099
:1047B00040F24131AFF61010FCF730F8208870B1AC
:1047C000208810280BD02088202808D02088302866
:1047D00005D02088602802D02088702800D105E00C
:1047E00040F24231AFF64010FCF718F8608810B183
:1047F0006088012800D105E040F24331AFF658103F
:10480000FCF70CF8A08910B1A089022800D105E0BE
:104810004FF45171AFF67010FCF700F8288C4FF68A
:10482000FF61084028842E8CAF88B5F81C804FF6B5
:104830008F7008EA00084FF6FC7008EA000820882C
:1048400040EA08084FF6FF500640A0894FF6FF7176
:1048500001EA00200643608801EA00200643C948B7
:10486000854202D0CB4885424FD1A08810B1A088A4
:10487000042800D105E040F26131AFF6D410FBF717
:10488000CDFFE08910B1E089082800D105E040F2B1
:104890006231AFF6EC10FBF7C1FF608AB0F5007F24
:1048A00001D0608A00B905E040F26331AFF608201C
:1048B000FBF7B4FF208AB0F5807F01D0208A00B9D1
:1048C00005E04FF45971AFF62020FBF7A7FF4FF238
:1048D000FF700640E0894FF6FF7101EA00200643B1
:1048E0004FF6FF300640A08801EA002006434EF64E
:1048F000FF7007404DF6FF700740208A01EA001064
:104900000743608A01EA00100743AF80A5F81C80C6
:10491000A068E8632E84BDE8F0812DE9F0410446EB
:104920000D4600270026B046964884420ED0B4F1CA
:10493000804F0BD09448844208D09448844205D0DC
:104940009348844202D09348844200D105E040F26B
:104950009131AFF6AC20FBF761FF288870B1288851
:1049600010280BD02888202808D02888302805D087
:104970002888602802D02888702800D105E040F2FD
:104980009231AFF6DC20FBF749FF688810B16888E8
:10499000012800D105E040F29331AFF6F420FBF797
:1049A0003DFFA88910B1A889022800D105E04FF485
:1049B0006571AFF60C30FBF731FF208C4EF6FF71BE
:1049C00008402084268CB4F80480A78B48F6FF703A
:1049D00007404FF6FF40074028884FF6FF7101EA75
:1049E000002007434DF6FF700640A88901EA003019
:1049F0000643688801EA003006436248844202D0D8
:104A00006448844217D1288AB0F5807F01D0288A73
:104A100000B905E040F2B231AFF67430FBF7FEFEAC
:104A20004BF6FF7008EA0008288A4FF6FF7101EA8A
:104A3000801040EA0808A4F80480A783A8682064CE
:104A40002684BDE8F0810021018041808180816061
:104A50008181C1810182418270472DE9F041044684
:104A60000F4615460026B0464648844220D0B4F191
:104A7000804F1DD0444884421AD04448844217D005
:104A80004348844214D04348844211D0424884426F
:104A90000ED0424884420BD04148844208D041485D
:104AA000844205D04048844202D04048844200D12C
:104AB00005E040F2F531AFF61040FBF7AFFE2FB145
:104AC000042F03D0082F01D00C2F00D105E040F2B5
:104AD000F631AFF62C40FBF7A1FE6DB1102D0BD0D7
:104AE000202D09D0302D07D0602D05D0702D03D09A
:104AF000502D01D0402D00D105E040F2F731AFF646
:104B00005840FBF78BFE264618360120B8401FFAA6
:104B100080F8208C20EA080020840FB1082F0AD1E9
:104B200006EB670630684FF68F71084030603068DA
:104B3000284330600FE0381FC0F34E000644306851
:104B400048F6FF710840306030684FF6FF7101EAA7
:104B5000052108433060BDE8F08170B504460D467C
:104B60000848844237D0B4F1804F34D0064884429C
:104B700031D0064884422ED0054884422BD00548C7
:104B8000844215E00000014000040040000800409D
:104B9000000C00400004014000400140004401407E
:104BA0000048014000180040001C00400020004068
:104BB00011D0FB4884420ED0FA4884420BD0FA4808
:104BC000844208D0F948844205D0F948844202D092
:104BD000F848844200D105E04FF48461AFF63850C4
:104BE000FBF71CFE656370BD70B504460D46F248C8
:104BF000844214D0B4F1804F11D0F04884420ED0DA
:104C0000EF4884420BD0EF48844208D0EE488442FB
:104C100005D0E348844202D0E448844200D105E054
:104C20004FF48661AFF68050FBF7F8FDA56370BDC9
:104C300070B504460D46E04884420ED0B4F1804F72
:104C40000BD0DE48844208D0DD48844205D0DD48E0
:104C5000844202D0DC48844200D105E040F23F416A
:104C6000AFF6BC50FBF7DAFDE56370BD70B50446E6
:104C70000D46D14884420ED0B4F1804F0BD0CF48BE
:104C8000844208D0CE48844205D0CE48844202D027
:104C9000CD48844200D105E040F24E41AFF6F850D5
:104CA000FBF7BCFD256470BD70B504460D460026BB
:104CB000C148844220D0B4F1804F1DD0BF48844207
:104CC0001AD0BF48844217D0BE48844214D0BE4890
:104CD000844211D0B24884420ED0B24884420BD0F4
:104CE000B148844208D0B148844205D0B0488442DB
:104CF00002D0B048844200D105E040F26241AFF6F4
:104D00005860FBF78BFD502D01D0402D00D105E000
:104D100040F26341AFF67060FBF780FD268B4FF6E3
:104D20008F7006402E43268370BD70B504460D4635
:104D30000026A148844214D0B4F1804F11D09F487E
:104D400084420ED09E4884420BD09E48844208D0B4
:104D50009D48844205D09248844202D093488442C0
:104D600000D105E040F27F41AFF6C460FBF756FD8D
:104D7000502D01D0402D00D105E04FF49061AFF6E9
:104D8000D860FBF74BFD268B48F6FF7006404FF6C8
:104D9000FF7000EA05200643268370BD70B5044607
:104DA0000D460026844884420ED0B4F1804F0BD0CB
:104DB0008248844208D08248844205D08148844297
:104DC00002D08148844200D105E040F29B41AFF619
:104DD0002870FBF723FD502D01D0402D00D105E0B8
:104DE00040F29C41AFF64070FBF718FDA68B4FF6E2
:104DF0008F7006402E43A68370BD70B504460D46E5
:104E000000266D4884420ED0B4F1804F0BD06B4821
:104E1000844208D06A48844205D06A48844202D05D
:104E20006948844200D105E04FF49761AFF688707D
:104E3000FBF7F4FC502D01D0402D00D105E040F2ED
:104E4000B941AFF69C70FBF7E9FCA68B48F6FF7002
:104E500006404FF6FF7000EA05200643A68370BDAA
:104E600070B504460D4600265348844220D0B4F164
:104E7000804F1DD0514884421AD05148844217D0E7
:104E80005048844214D05048844211D0444884424F
:104E90000ED0444884420BD04348844208D0434853
:104EA000844205D04248844202D04248844200D124
:104EB00004E040F2D4414548FBF7B0FC082D00D097
:104EC00005B904E040F2D5414048FBF7A7FC268B2A
:104ED0004FF6F77006402E43268370BD70B504462A
:104EE0000D4600263448844214D0B4F1804F11D0CE
:104EF000324884420ED0324884420BD0314884423A
:104F000008D03148844205D02548844202D0274841
:104F1000844200D104E040F2F2412C48FBF77EFCD1
:104F2000082D00D005B904E040F2F3412748FBF713
:104F300075FC268B4FF2FF7006404FF6FF7000EABB
:104F400005200643268370BD70B504460D46002635
:104F5000194884420ED0B4F1804F0BD017488442D8
:104F600008D01748844205D01648844202D016481B
:104F7000844200D104E040F20F511448FBF74EFC8C
:104F8000082D00D005B904E04FF4A2610F48FBF7EB
:104F900045FCA68B4FF6F77006402E43A68370BDE6
:104FA000004001400044014000480140001800401A
:104FB000001C0040002000400000014000040040B0
:104FC00000080040000C004000040140A83E00081A
:104FD00070B504460D460026F94884420ED0B4F15F
:104FE000804F0BD0F748844208D0F748844205D060
:104FF000F648844202D0F648844200D104E040F2F0
:105000002C51F448FBF70AFC082D00D005B904E048
:1050100040F22D51EF48FBF701FCA68B4FF2FF70D9
:1050200006404FF6FF7000EA05200643A68370BDD8
:1050300070B504460D460026E148844220D0B4F104
:10504000804F1DD0DF4884421AD0DF48844217D0F9
:10505000DE48844214D0DE48844211D0DE488442C7
:105060000ED0DE4884420BD0DD48844208D0DD48B3
:10507000844205D0DC48844202D0DC48844200D11E
:1050800004E040F24951D348FBF7C8FB042D00D09F
:1050900005B904E040F24A51CE48FBF7BFFB268B2E
:1050A0004FF6FB7006402E43268370BD70B5044654
:1050B0000D460026C248844214D0B4F1804F11D06E
:1050C000C04884420ED0C04884420BD0BF488442BE
:1050D00008D0BF48844205D0BF48844202D0C148AE
:1050E000844200D104E04FF4AD61BA48FBF796FB6F
:1050F000042D00D005B904E040F26951B548FBF732
:105100008DFB268B4FF6FF3006404FF6FF7000EA0E
:1051100005200643268370BD70B504460D46002663
:10512000A74884420ED0B4F1804F0BD0A5488442EA
:1051300008D0A548844205D0A448844202D0A4489F
:10514000844200D104E040F28651A248FBF766FB9E
:10515000042D00D005B904E040F287519D48FBF7CB
:105160005DFBA68B4FF6FB7006402E43A68370BDF9
:1051700070B504460D460026914884420ED0B4F125
:10518000804F0BD08F48844208D08F48844205D08E
:105190008E48844202D08E48844200D104E040F21E
:1051A000A4518C48FBF73AFB042D00D005B904E06C
:1051B00040F2A5518748FBF731FBA68B4FF6FF3035
:1051C00006404FF6FF7000EA05200643A68370BD37
:1051D00070B504460D4600267948844220D0B4F1CB
:1051E000804F1DD0774884421AD07748844217D028
:1051F0007648844214D07648844211D0764884425E
:105200000ED0764884420BD07548844208D0754849
:10521000844205D07448844202D07448844200D14C
:1052200004E040F2C2516B48FBF7F8FA802D00D041
:1052300005B904E040F2C3516648FBF7EFFA268B4C
:105240004FF67F7006402E43268370BD70B504462E
:105250000D4600265A48844214D0B4F1804F11D034
:10526000584884420ED0584884420BD05748844254
:1052700008D05748844205D05748844202D0594844
:10528000844200D104E04FF4BC615248FBF7C6FAF7
:10529000802D00D005B904E040F2E1514D48FBF704
:1052A000BDFA268BC6F30E064FF6FF7000EA052006
:1052B0000643268370BD70B504460D46002640485F
:1052C00084420ED0B4F1804F0BD03E48844208D0C7
:1052D0003D48844205D03D48844202D03C48844247
:1052E00000D104E040F2FD513A48FBF797FA802DD7
:1052F00000D005B904E040F2FE513648FBF78EFAC3
:10530000A68B4FF67F7006402E43A68370BD70B506
:1053100004460D4600262A4884420ED0B4F1804F40
:105320000BD02848844208D02748844205D027481B
:10533000844202D02648844200D104E040F21A613F
:105340002448FBF76BFA802D00D005B904E040F249
:105350001B612048FBF762FAA68BC6F30E064FF6D8
:10536000FF7000EA05200643A68370BD70B50446B1
:105370000D4600261248844220D0B4F1804F1DD043
:10538000104884421AD01048844217D00F488442F3
:1053900014D00F48844211D00F4884420ED00F48D9
:1053A00084420BD00E48844208D00E48844205D077
:1053B0000D48844202D00D48844219D11DE00000FE
:1053C000000001400004004000080040000C0040C4
:1053D00000040140A83E0008004001400044014094
:1053E0000048014000180040001C00400020004020
:1053F00040F23761FA48FBF711FA0DB1022D00D1E6
:1054000004E04FF4C761F648FBF708FA268C4FF624
:10541000FD7006402E43268470BD70B504460D46CF
:105420000026F048844202D0EF48844200D104E0D4
:1054300040F25161EA48FBF7F1F90DB1082D00D1B6
:1054400004E040F25261E648FBF7E8F9268C4FF69B
:10545000F77006402E43268470BD70B504460D4695
:105460000026E048844214D0B4F1804F11D0DF48C8
:1054700084420ED0DE4884420BD0DE48844208D0FD
:10548000D948844205D0DC48844202D0DB488442BB
:1054900000D104E040F26D61D148FBF7BFF90DB1D6
:1054A000022D00D104E040F26E61CD48FBF7B6F961
:1054B000268C4FF6DF7006404FF6FF7000EA0510AD
:1054C0000643268470BD70B504460D460026C548C7
:1054D000844202D0C448844200D104E04FF4D16138
:1054E000BF48FBF79BF90DB1082D00D104E040F255
:1054F0008961BB48FBF792F9268C4FF67F70064016
:105500004FF6FF7000EA05100643268470BD70B5A3
:1055100004460D460026B34884420ED0B4F1804FB5
:105520000BD0B248844208D0B148844205D0B1487B
:10553000844202D0AC48844200D104E040F2A3612E
:10554000A748FBF76BF90DB1022D00D104E040F242
:10555000A461A348FBF762F9268C4FF6FF50064082
:105560004FF6FF7000EA05200643268470BD70B533
:1055700004460D4600269B48844202D09A48844245
:1055800000D104E040F2BE619548FBF747F90DB148
:10559000082D00D104E040F2BF619148FBF73EF9CD
:1055A000268C4FF2FF7006404FF6FF7000EA052090
:1055B0000643268470BD70B504460D460026894812
:1055C00084420ED0B4F1804F0BD08848844208D07A
:1055D0008748844205D08748844202D0824884426A
:1055E00000D104E040F2D9617D48FBF717F90DB115
:1055F000022D00D104E040F2DA617948FBF70EF9A0
:10560000268C4DF6FF7006404FF6FF7000EA05301D
:105610000643268470BD2DE9F04104460D4616462A
:1056200000277048844220D0B4F1804F1DD06F48CD
:1056300084421AD06E48844217D06E48844214D0F7
:105640006948844211D06C4884420ED06C48844230
:105650000BD06C48844208D06848844205D06A4820
:10566000844202D06948844200D104E04FF4DF61F3
:105670005B48FBF7D3F82DB1042D03D0082D01D0E2
:105680000C2D00D104E040F2F9615548FBF7C6F853
:10569000012E00D006B904E040F2FA615048FBF751
:1056A000BDF80120A84087B2208CB8432084208C0C
:1056B00006FA05F189B208432084BDE8F0812DE99E
:1056C000F04104460D46164600274648844202D063
:1056D0004548844200D104E040F216714048FBF78F
:1056E0009DF81DB1042D01D0082D00D104E040F239
:1056F00017713B48FBF792F8042E00D006B904E07E
:105700004FF4E3613648FBF789F80420A84087B2DC
:10571000208CB8432084208C06FA05F189B2084316
:105720002084BDE8F08170B504460D462D488442C2
:105730000ED0B4F1804F0BD02C48844208D02C48B6
:10574000844205D02B48844202D02748844200D1AD
:1057500004E040F672012248FBF760F82DB1042DF9
:1057600003D0082D01D00C2D00D104E040F67301C8
:105770001B48FBF753F8A08B4FF2FF310840A08382
:10578000A08B4FF6FF7101EA05210843A08370BD8D
:10579000F0B50C461546002100220026078C4EF677
:1057A000FF7C07EA0C070784818B028C4FF6FF779A
:1057B00007EA043640F6FF4739404FF6FF7707EA1D
:1057C000052739434FF6FF7707EA0337394345F694
:1057D000FF773A4046F480573A4381830284F0BD14
:1057E000A83E000800000140000401400004004001
:1057F00000080040000C004000400140001800403C
:105800000044014000480140001C004000200040CE
:1058100070B504460D46FD4884420ED0B4F1804F69
:105820000BD0FB48844208D0FA48844205D0FA489D
:10583000844202D0F948844200D104E040F65A0183
:10584000F748FAF7EBFF2DB1042D03D0082D01D056
:105850000C2D00D104E040F65B01F148FAF7DEFFC1
:10586000A08B4FF6F3710840A083A08B2843A08340
:1058700070BDF0B50C461546002100220026078CAD
:105880004FF6FF6C07EA0C070784818B028C4FF6FA
:10589000FF7707EA04264FF60C7739404FF6FF777B
:1058A00007EA03172F4339434FF2FF573A4046F4B4
:1058B00080773A4381830284F0BD70B504460D467B
:1058C000D248844214D0B4F1804F11D0D0488442E1
:1058D0000ED0D04884420BD0CF48844208D0CF4865
:1058E000844205D0CF48844202D0CF48844200D1C0
:1058F00004E040F64201CA48FAF790FF2DB1042DAA
:1059000003D0082D01D00C2D00D104E040F6430156
:10591000C348FAF783FF208B4FF2FF310840208302
:10592000208B4FF6FF7101EA05210843208370BDEB
:10593000F0B50C461546002100220026078C4FF6D4
:10594000EF7C07EA0C070784018B028C4FF6FF7788
:1059500007EA041640F6FF4739404FF6FF7707EA9B
:10596000033739434FF6FF7707EA052739434FF6E8
:105970005F773A4046F010073A4301830284F0BD56
:1059800070B504460D46A148844220D0B4F1804F42
:105990001DD09F4884421AD09E48844217D09E480A
:1059A000844214D09D48844211D09E4884420ED037
:1059B0009E4884420BD09E48844208D09A48844234
:1059C00005D09C48844202D09B48844200D104E028
:1059D00040F629019248FAF721FF2DB1042D03D09A
:1059E000082D01D00C2D00D104E040F62A018C488E
:1059F000FAF714FF208B4FF6F37108402083208BB9
:105A00002843208370BDF0B50C46154600210022C6
:105A1000068C4FF6FE773E400684018B028C4FF6D3
:105A20000C7631407E1C06EA03162E4331434FF6B6
:105A3000F576324044F00106324301830284F0BD22
:105A400070B504460D467148844220D0B4F1804FB1
:105A50001DD06F4884421AD06E48844217D06E48D9
:105A6000844214D06D48844211D06E4884420ED0D6
:105A70006E4884420BD06E48844208D06A48844203
:105A800005D06C48844202D06B48844200D104E0C7
:105A900040F266716248FAF7C1FE688828B16888EA
:105AA000022802D068880A2800D104E040F2677119
:105AB0005B48FAF7B3FEA888012805D0A888022819
:105AC00002D0A888032800D104E04FF4ED615448C7
:105AD000FAF7A4FEE88840B1E888042805D0E888F1
