:020000040800F2
:1000000050520020C5B50008151C0008171C000838
:10001000191C00081B1C00081D1C00080000000023
:100020000000000000000000000000001F1C00088D
:10003000211C000800000000231C0008251C0008EB
:10004000E9B50008E9B50008E9B50008E9B5000818
:10005000E9B50008E9B5000879080008E9B5000825
:10006000E9B50008E9B50008E9B50008E9B50008F8
:10007000E9B50008E9B50008E9B50008E9B50008E8
:10008000E9B50008E9B50008E9B50008E9B50008D8
:10009000E9B50008E9B50008E9B50008E9B50008C8
:1000A000E9B50008E9B50008E9B50008E9B50008B8
:1000B000291C00080DB80008E9B50008E9B50008DA
:1000C000E9B50008E9B50008E9B50008E9B5000898
:1000D000E9B50008A3C70008D1C9000867C5000832
:1000E000E9B50008E9B50008E9B50008E9B5000878
:1000F000E9B50008E9B50008E9B50008E9B5000868
:10010000E9B50008E9B500088BC20008E9B50008A8
:10011000E9B50008E9B50008E9B50008E9B5000847
:10012000E9B50008E9B50008E9B50008E9B5000837
:10013000E9B50008E9B50008E9B50008E9B5000827
:10014000E9B50008E9B50008E9B500082D1C00086C
:10015000E9B50008E9B50008E9B50008E9B5000807
:10016000E9B50008E9B50008E9B50008E9B50008F7
:10017000E9B50008E9B50008E9B50008E9B50008E7
:10018000E9B50008E9B5000800F002F800F083F8CE
:100190000AA090E8000C82448344AAF10107DA45E2
:1001A00001D100F078F8AFF2090EBAE80F0013F0B1
:1001B000010F18BFFB1A43F00103184754F6000063
:1001C00074F600000A444FF0000C10F8013B13F0E5
:1001D000070408BF10F8014B1D1108BF10F8015BA0
:1001E000641E05D010F8016B641E01F8016BF9D193
:1001F00013F0080F1EBF10F8014BAD1C0C1B09D1EA
:100200006D1E58BF01F801CBFAD505E014F8016B5B
:1002100001F8016B6D1EF9D59142D6D370470000ED
:100220000023002400250026103A28BF78C1FBD8FF
:10023000520728BF30C148BF0B60704766290EF0D7
:10024000EC8603681B0A28BF41F0800164290CF08A
:10025000B18578290CF02886E4290CF0E78563291C
:100260000DF0AB8373290DF0B083002070471FB5EC
:100270000EF08BFE0DF004FC0400002000210EF0B7
:10028000C7FD401C6060002000210EF0ABFDE06067
:100290001FBD10B510BD0DF089FE1146FFF7E7FF39
:1002A00000F011F90DF0B0FE03B4FFF7F2FF03BC4C
:1002B00001F0F4FA01B4FD480099016101690029D7
:1002C000FCD101B0704710B5044601210CF018F8BC
:1002D00058B1A1200CF04EFBF5A00CF005FDA120BB
:1002E0000CF048FB0A200CF045FB022120460CF0E4
:1002F00007F858B1A1200CF03DFBEEA00CF0F4FC87
:10030000A1200CF037FB0A200CF034FB042120461E
:100310000BF0F6FF58B1A1200CF02CFBE6A00CF07E
:10032000E3FCA1200CF026FB0A200CF023FB0821A3
:1003300020460BF0E5FF58B1A1200CF01BFBDFA01D
:100340000CF0D2FCA1200CF015FB0A200CF012FBE3
:10035000102120460BF0D4FF58B1A1200CF00AFB6D
:10036000D7A00CF0C1FCA1200CF004FB0A200CF07B
:1003700001FB202120460BF0C3FF58B1A1200CF057
:10038000F9FAD0A00CF0B0FCA1200CF0F3FA0A208E
:100390000CF0F0FA402120460BF0B2FF58B1A1203A
:1003A0000CF0E8FAC8A00CF09FFCA1200CF0E2FAD7
:1003B0000A200CF0DFFA802120460BF0A1FF58B193
:1003C000A1200CF0D7FAC1A00CF08EFCA1200CF0FB
:1003D000D1FA0A200CF0CEFA4FF4807120460BF0CF
:1003E0008FFF002808BF10BDA1200CF0C3FAB8A0F1
:1003F0000CF07AFCA1200CF0BDFABDE810400A20F8
:100400000CF0B8BA38B504460CF018FAA1200CF07C
:10041000B1FAB0A00CF068FCA1200CF0ABFA0A20F5
:100420000CF0A8FA204601F05FFE60684FF47A7184
:10043000B0FBF1F0B0F1807F0DD220F07F40411E83
:100440004FF0E0204161A94AF02182F8141D0021FB
:10045000816107210161A648A74A0090A54B0121AF
:10046000A2F2AC5008F094FBA4480BF01DFFA24987
:10047000A1F2AC5008F0B3FC8C48642100910161FA
:1004800001690029FCD10BF071FF01F011FAA120E4
:100490000CF070FA9AA00CF027FCA1200CF06AFA7C
:1004A0000A200CF067FAE4200CF064FA96A00CF035
:1004B0001BFCE4200CF05EFA0A200CF05BFABDE8AD
:1004C00038400BF0E1BE794CA2B00120207001AEA3
:1004D00000251A9600F012FFDFF83CA2DFF83CB2CC
:1004E0006427A946207800286BD00DF170080CF025
:1004F000A5F9A1200CF03EFA76A00CF0F5FBA120A6
:100500000CF038FA0A200CF035FA404601F0ECFD08
:100510001D994FF47A70B1FBF0F0B0F1807F0DD2ED
:1005200020F07F40411E4FF0E02041616F4AF021F2
:1005300082F8141DC0F81890072101616C486E4ABA
:1005400000906C4B0121A2F2AC5008F021FB6B48EB
:100550000BF0AAFE6849A1F2AC5008F040FC0097ED
:10056000276120690028FCD10BF000FF01F0A0F901
:10057000A1200CF0FFF962A00CF0B6FBA1200CF05A
:10058000F9F90A200CF0F6F9E4200CF0F3F95EA07A
:100590000CF0AAFBE4200CF0EDF90A200CF0EAF9CB
:1005A0000BF072FEA1200CF0E5F923215CA00CF009
:1005B0009BFBA1200CF0DEF90A200CF0DBF984F89B
:1005C00000906068002800F0F38028466D1CB0F5AC
:1005D000704FC0F0ED804849A1F2AC5008F0FFFB2D
:1005E00046480BF0D1FD804601210BF089FE58B141
:1005F000A1200CF0BFF92EA00CF076FBA1200CF08E
:10060000B9F90A200CF0B6F9022140460BF078FE49
:1006100058B1A1200CF0AEF926A00CF065FBA1208A
:100620000CF0A8F90A200CF0A5F9042140460BF0C3
:1006300067FE58B1A1200CF09DF91FA00CF054FBEF
:10064000A1200CF097F90A200CF094F908214046FB
:100650000BF056FE58B1A1200CF08CF917A00CF04D
:1006600043FBA1200CF086F90A200CF083F910213D
:1006700040460BF045FE58B1A1200CF07BF910A0CC
:100680000CF032FBA1200CF075F90A200CF072F985
:10069000202140460BF034FE38B1A1200CF06AF95D
:1006A00008A00CF021FBA1203CE040E0000000206D
:1006B00046522100494C21004D5221004D4C210051
:1006C00042522100424C2100554421005253210046
:1006D0004C53210053797374656D20496E697469B8
:1006E000616C697A696E672E2E2E00000FE000E0C3
:1006F00018000020C8000020F80600207C07002019
:10070000446F6E652100000053797374656D20524B
:1007100065616479000000003C0100204001002078
:10072000256300000CF026F90A200CF023F9402183
:1007300040460BF0E5FD60B1A1200CF01BF9AFF2D3
:1007400078000CF0D1FAA1200CF014F90A200CF07A
:1007500011F9802140460BF0D3FD60B1A1200CF0CF
:1007600009F9AFF298000CF0BFFAA1200CF002F9E1
:100770000A200CF0FFF84FF4807140460BF0C0FDEA
:1007800060B1A1200CF0F6F8AFF2BC000CF0ACFAAE
:10079000A1200CF0EFF80A200CF0ECF879480BF0EF
:1007A000F3FC02200090206120690028FCD100BFEA
:1007B000DAF80010DBF8000081423FF493AE01A8A4
:1007C0001A9900F084FE5FEA00083FF48BAEA12086
:1007D0000CF0D0F86CA00CF087FAA1200CF0CAF84D
:1007E0000A200CF0C7F8B8F1010F03D0B8F1020FDE
:1007F00031D03CE01AA800F0FAFE00281EDB00EB26
:100800004011624800EB81081A98D8F88010884798
:1008100028B101A906F132000CF0A7FD27E0A120C4
:100820000CF0A8F808F1050159A00CF05DFAA12020
:100830000CF0A0F80A200CF09DF818E0A1200CF0B4
:1008400099F854A00CF050FAA1200CF093F80A206B
:100850000CF090F80BE0A1200CF08CF852A00CF0FA
:1008600043FAA1200CF086F80A200CF083F823202C
:100870000CF080F81A9635E610B5012006F0CEFC93
:10088000002808BF10BD012006F017FD3D480021DB
:100890004368C3E902114368C3E904119FED470AA5
:1008A000406880ED060AE4200CF064F844A00CF0E7
:1008B0001BFAE4200CF05EF80A200CF05BF84249C9
:1008C0000120087010BD414810B500684049096812
:1008D000884208BF10BD0CF008F83B499FED3D0A67
:1008E0002B2804BFD1ED020A30EE800A15D02D2846
:1008F00004BFD1ED020A30EEC00A0ED0752804BF45
:10090000D1ED030A30EE800A0AD0642804BFD1ED8D
:10091000030A30EEC00A03D004E081ED020A01E0D0
:1009200081ED030AC868B0F17E5F0CDCC86810F185
:10093000814F0DD88868B0F17E5F0EDC886810F1B9
:10094000814F0FD810BDB7EE000A81ED030AEDE725
:10095000BFEE000A81ED030AECE7B7EE000A81ED75
:10096000020AEBE7BFEE000A81ED020A10BDFEE7C6
:1009700015480169002908BF70470169491E0161D6
:10098000704700007C0700200A000000C8F0000843
:1009900025730000556E6B6E6F776E20436F6D6D23
:1009A000616E642100000000496E76616C6964200C
:1009B0006368617261637465722100000000B44273
:1009C0005354203000000000000000203C010020B3
:1009D00040010020CDCCCC3D70B5012184B008464B
:1009E00001F0B3FC4FF4D850032500908DF805506A
:1009F00002208DF8040000208DF80600A44E8DF82A
:100A000007006946304606F024FD0A2208213046D8
:100A100007F0E4F80A220921304607F0DFF80A223D
:100A20000B21304607F0DAF80A220C21304607F095
:100A3000D5F8012430158DF8064000908DF8074058
:100A40008DF805506946304606F003FD0A2211462E
:100A5000304607F0C3F80121880301F0F2FC0121C0
:100A6000802001F091FC0021E00607F0B0F94FF47E
:100A7000A06007F045F91C208DF808008DF80940AA
:100A80008DF80A408DF80B4002A807F054F90121B7
:100A9000084601F0B7FC04B070BD08B54FF4C06063
:100AA00007F02EF943208DF8000001208DF8010099
:100AB00003218DF802108DF80300684607F03BF91A
:100AC00008BD744800294FF0010101D006F066BF4F
:100AD00006F026BF10B5704C84B0206000214FF0A6
:100AE000804002F0F7FB01210022880704F0ADFBF3
:100AF00042F6DF6001900520ADF800000020ADF85F
:100B00000800ADF8020069464FF0804001F07BFF1D
:100B10000121880704F08FFD0121880702F0C3FA44
:100B200001221146900704F090FB0121880702F092
:100B3000D1FB20680028FCD104B00021BDE81040A2
:100B40004FF0804002F0C6BB30B585B001210420D3
:100B500001F0FBFB032101208DF805108DF8040046
:100B600000254C4C00908DF806508DF807506946D2
:100B7000204606F06EFC0121204606F0D1FE464CD0
:100B8000C82020600021C00602F0A4FB0121002241
:100B9000880704F05AFB42F6DF6003900520ADF8A9
:100BA0000800ADF81050ADF80A5002A9800701F016
:100BB0002AFF0121880704F03EFD0121880702F089
:100BC00072FA01221146900704F03FFB01218807C9
:100BD00002F080FB20680028FCD100214FF080400B
:100BE00002F078FB05B030BD10B52B4C84B020600E
:100BF00000214FF0804002F06DFB012100228807A8
:100C000004F023FB0B2001900520ADF8000000202C
:100C1000ADF80800ADF8020069464FF0804001F0E1
:100C2000F2FE0121880704F006FD0121880702F089
:100C30003AFA01221146900704F007FB01218807C8
:100C400002F048FB20680028FCD104B00021BDE878
:100C500010404FF0804002F03DBB10B501218807E5
:100C600004F07BFC002808BF10BD0121880704F0B8
:100C7000E2FC0948016819B10168491E016010BD14
:100C8000BDE8104000214FF0804002F023BB00007F
:100C9000000002400008024014000020704710B518
:100CA000A1200BF067FEFEA00CF01EF8A1200BF0B7
:100CB00061FEBDE810400A200BF05CBE704710B525
:100CC000A1200BF057FEFAA00CF00EF8A1200BF0BB
:100CD00051FEBDE810400A200BF04CBE704710B525
:100CE00098B1012820D002284FF0A1002BD00BF0A2
:100CF00041FEF449F4A00BF0F7FFA1200BF03AFEFF
:100D0000BDE810400A200BF035BEA1200BF032FEEA
:100D1000EE49EDA00BF0E8FFA1200BF02BFEBDE8A3
:100D200010400A200BF026BEA1200BF023FEE8495C
:100D3000E5A00BF0D9FFA1200BF01CFEBDE8104090
:100D40000A200BF017BE0BF015FEE249DEA00BF0F7
:100D5000CBFFA1200BF00EFEBDE810400A200BF0E7
:100D600009BE10B50446A1200BF004FE2189DAA0CB
:100D70000BF0BAFFA1200BF0FDFD0A200BF0FAFDED
:100D8000A1200BF0F7FD6189D6A00BF0ADFFA120EB
:100D90000BF0F0FDBDE810400A200BF0EBBD7047F2
:100DA00010B54879082811D0032818BF10BDA1201C
:100DB0000BF0E0FDCE49C4A00BF096FFA1200BF094
:100DC000D9FDBDE810400A200BF0D4BDA1200BF0E6
:100DD000D1FDC849C8A00BF087FFA1200BF0CAFDC8
:100DE000BDE810400A200BF0C5BD10B50446A12097
:100DF0000BF0C0FD2146C1A00BF076FFA1200BF047
:100E0000B9FDBDE810400A200BF0B4BD10B5044692
:100E1000A1200BF0AFFD2146BDA00BF065FFA12086
:100E20000BF0A8FDBDE810400A200BF0A3BD10B5E3
:100E30000446A1200BF09EFD2146B9A00BF054FF03
:100E4000A1200BF097FDBDE810400A200BF092BDE9
:100E500010B5A1200BF08EFDB6A00BF045FFA12030
:100E60000BF088FDBDE810400A200BF083BD10B5E3
:100E7000A1200BF07FFDB4A00BF036FFA1200BF0FA
:100E800079FDBDE810400A200BF074BD10B5A1201B
:100E90000BF070FDB3A00BF027FFA1200BF06AFD53
:100EA0000A200BF067FD012010BD7047B2480021F9
:100EB00001704170C0E902119FEDB00AC0E9041150
:100EC00080ED060A704770B50C462DED028B054685
:100ED000DFEDAB0A60EE200A9FEDAA0A80EE808A61
:100EE000B0EE480A0DF02CFDDFEDA78A20EE280AAF
:100EF00010EE100A0EF04EF8C5E90001B0EE480AF7
:100F00000DF0C6FD20EE280A10EE100A0EF042F891
:100F1000C4E90001BDEC028B70BDFDEEC00A10EE0D
:100F2000900ADFED9A0AB0F5B47F08DB30EE600A74
:100F3000BDEEC01A11EE100AB0F5B47FF6DABDEEC0
:100F4000C01A11EE100A0028A8BF704730EE200A20
:100F5000BDEEC01A11EE100A0028F7DB70472DE92C
:100F6000F0412DED068B90F90060002E7DD0824C73
:100F700094ED060A9FED829A20EE090ADFED819A30
:100F800080EE298AB0EE480A0DF0DAFCDFED7E8AA9
:100F900020EE280A10EE100A0DF0FCFF0D46074661
:100FA000B0EE480A0DF074FD20EE280A10EE100A8B
:100FB0000DF0F0FF0246D4E90230DB1B60EB0500C8
:100FC000C4E90230D4E9043C981A6CEB0101C4E98D
:100FD0000401704200EE100AB8EEC00ADFED6C0AA0
:100FE00060EE200A9FED6B1A80EE810A9FED678A02
:100FF00020EE08AA94ED060A30EE0A0AFDEEC00AB9
:1010000010EE900AB0F5B47F09DB00BF30EE480A5D
:10101000FDEEC00A10EE900AB0F5B47FF6DAFDEEF0
:10102000C00A10EE900A002808DA00BF30EE080A65
:10103000FDEEC00A10EE900A0028F7DB20EE090A48
:1010400080EE299AB0EE490A0DF07AFC20EE280ACB
:1010500010EE100A0DF09EFF05460E46B0EE490A4E
:101060000DF016FD20EE280A00E0B9E010EE100A9F
:101070000DF090FF0A46D4E902315B197141C4E9D1
:101080000231D4E9043C18184CEB0201C4E9040114
:1010900094ED060A30EE0A0AFDEEC00A7CE000007C
:1010A00044657669636520417474616368656400B2
:1010B00044657669636520446973636F6E6E65632A
:1010C0007465640074F00008257300001EF00008C9
:1010D0003BF0000858F00008564944203A202530DB
:1010E00034586800504944203A202530345868006C
:1010F000A3F0000883F0000825730A004D616E75A7
:101100006661637475726572203A20257300000071
:1011100050726F64756374203A20257300000000DC
:1011200053657269616C204E756D626572203A205C
:1011300025730000456E756D65726174696F6E2070
:10114000646F6E65210000004465766963652069FF
:1011500073206E6F7420737570706F727465642184
:1011600000000000555342485F5553525F55736568
:1011700072496E7075742100980700200000B44217
:10118000D80F49400000344300C0DA450000B443A2
:101190006F12033BDDEDAF4210EE900AB0F5B47F65
:1011A00009DB00BF30EE480AFDEEC00A10EE900ADF
:1011B000B0F5B47FF6DAFDEEC00A10EE900A002812
:1011C00008DA00BF30EE080AFDEEC00A10EE900A01
:1011D0000028F7DB84ED060ABDEC068BBDE8F08144
:1011E000224842F2107301464268B1F900109A4257
:1011F000C8BF491C04DC12F57A7FB8BF491E00DA6B
:101200000180B0F900000A3015283CBFBDEC068B08
:10121000BDE8F081A1200BF0ADFB15A00BF064FD43
:10122000A1200BF0A7FB0A200BF0A4FB32200AF050
:1012300009FF4FF47A70FFF73DF86FF031000AF0C4
:1012400001FFF3E7704710B50446A1200BF092FBB5
:1012500021460DA00BF048FDA1200BF08BFBBDE853
:1012600010400A200BF086BB704700006000002091
:1012700050414E494321204C4F535420524546453E
:1012800052454E43452100004B657920636F6465EC
:10129000202558200A00000030B5012187B00846FB
:1012A00001F053F80121880301F0CBF800258DF8F7
:1012B000145001248DF8175004A92B48049406F00B
:1012C000C8F80021084606F00DFE8DF804500820ED
:1012D0008DF8050000948DF80640684605F0CFFEB5
:1012E00006208DF808008DF809408DF80A408DF829
:1012F0000B4002A806F01FFD07B030BD30B501213C
:1013000087B0084601F021F80121880301F099F81F
:1013100000258DF8145001248DF8175004A91248A7
:10132000049406F096F80021084606F0DBFD8DF8DF
:10133000045008208DF8050000948DF8064068469A
:1013400005F09DFE06208DF808008DF809408DF807
:101350000A408DF80B4002A806F0EDFC07B0BDE88E
:10136000304000F003B800000000024000B583B038
:101370000121082000F0E9FF4FF4704000900120A7
:101380008DF8040000208DF806008DF8070003207A
:101390008DF805006946024806F05BF803B000BD11
:1013A000000C024010B5F7480AF00AFF012010BDFA
:1013B00010B5F4480AF04EFF012010BD00B585B00D
:1013C00002AB6A46F0A10BF05FFE0228BEBF002010
:1013D00005B000BD9DE80F000AF06CFB05B00120D0
:1013E00000BD00B585B002AB6A46ECA10BF04CFE27
:1013F0000228BEBF002005B000BD9DE80F000AF026
:10140000D8FB05B0012000BD08B56A46E8A10BF085
:101410003BFE0028CCBF0120002008BD10B50AF01B
:1014200033FF012010BD2DE9F04107460C460D1E8B
:10143000D8BFBDE8F0810126012DACBF4FF00008F8
:10144000BDE8F081DC4908200BF08DFF07F804802F
:10145000641E761CB542F5DABDE8F081A0F16101A9
:10146000192985BF413819280120002070473038DC
:101470000A282CBF0020012070470021CF4A137892
:1014800043B1535C834201D101207047491C535C36
:10149000002BF6D100207047A0F130010A2924BFAB
:1014A000A0F16101192984BFA0F14101192906D9D0
:1014B000C24900220B7843B18B5C834201D10120E9
:1014C0007047521C8B5C002BF6D1002070472DE931
:1014D000F047894605464FF000080BF006FAB84E73
:1014E00000273468312C09DB082807D02F55B5A018
:1014F0000BF0FAFB23200BF03DFA68E0A0F130017D
:101500000A2920D3A0F16102192A84BFA0F1410168
:10151000192918D9A94A0021034692F800C0BCF144
:10152000000F09D012F801C09C450CD0491C12F8DC
:1015300001C0BCF1000FF5D14FF002081946A7A079
:101540000BF0D2FB2EE0082810D01B2818D024283E
:101550002AD00D2818BF0A2844D028550BF00AFAC3
:101560003068401C30604046BDE8F087002CFADD52
:10157000914908200BF0F7FE30682F54401EF1E728
:10158000AA46251E0EDD4FF00109012D0ADB8A490E
:1015900008200BF0E8FE0AF80470641E09F1010946
:1015A0004D45F4DA3760DEE795F83200A0B1AA467F
:1015B000251E0CDD0126012D09DB7F4908200BF0DB
:1015C000D2FE0AF80470641E761CB542F5DA49466C
:1015D00084A00BF089FBC6E783A00BF085FB4FF0DE
:1015E0000308DFE72F554FF001083760DAE7F0B561
:1015F000074683B000206A463D6804E01154401C51
:101600006D1C052804DA2978202918BF0029F5D196
:101610000021002818BF115400247B4E307870B18F
:1016200004EB441006EB800168460BF0C3FE60B18A
:10163000641C04EB441016F820000028F0D1681E4A
:10164000386003B04FF0FF30F0BD03B02046F0BD6E
:101650000268002392F800C0BCF1300F18BFBCF143
:10166000310F04D0BCF1200F1CBF002070470CF0DC
:10167000FF0C521CACF1300C1CF0FF0C14BFBCF181
:10168000010F0CEB430392F800C0BCF1300F1CBFFC
:10169000BCF1310FBCF1200FE9D00B6002600120DA
:1016A000704770B50468054614F8010B202804D073
:1016B000002808BF70BD2E28F6D101225FF000037C
:1016C00014F8010BA0F1300CBCF10A0F09D3482823
:1016D0001ED042280DD0442804D020780028EFD115
:1016E00070BD641E0A4649A120460BF0CDFCC2B273
:1016F00025E094F800C00020BCF1300F18BFBCF109
:10170000310F0CD0BCF1200F18BF1A4607D016E0DD
:101710000A463FA120460BF0B7FCC2B20FE014F816
:10172000013B303B13F0FF0314BF012B03EB4000E0
:101730002378302B1CBF312B202BF0D00860207871
:10174000202818BF002803D02E2818BF641CF6D10B
:1017500010462C6070BD70B52B4C0025607978B1B7
:1017600005EB451004EB8000411D2AA00BF0BCFAEC
:101770006D1C05EB451004EB800040790028EFD18B
:10178000012070BD7C0700204150205820256C6C42
:1017900064205920256C6C640000000053435020E5
:1017A0005820256C6C64205920256C6C6400000066
:1017B000534D2025640000006C000020BCF00008A0
:1017C000680000200A5741524E494E472120627559
:1017D000666665722066756C6C210A003078257823
:1017E0000A000000257300000A547970652061200A
:1017F00076616C696420636F6D6D616E64206669EB
:101800007273742100000000C8F00008256C750098
:10181000256C580025730A0010B502A00BF064FA7D
:10182000012010BD56657273E36F20302E312C20DD
:1018300044617669642043657264656972612C2035
:10184000677275706F20342C204C50493220554DF2
:10185000204445492032303135210A00104A914256
:1018600002D1C0B20AF06FBF0E4AC0B2914201D19C
:101870000AF04BBE0BF07EB80B49884201D10AF04A
:101880001EBF0A49884201D10AF0FABD0BF02DB8FB
:10189000C0B20BF06FB84FF0FF307047FEE70000AA
:1018A0007000002078000020740000207C000020E0
:1018B0000AF08CBD10B50446D4E916010DF0F2FA19
:1018C00000EE100AD4ED150A94F8640030EEC01A48
:1018D00094ED0C0A002845D1D4ED060A94ED112AA6
:1018E000D4ED031A60EE810A32EE012A41EE820A3B
:1018F000C4ED0E0AD4ED122AE06CD4ED0B1A71EE91
:10190000622A002808BF41EEA20A09D061EEA21A9D
:10191000D4ED142A94ED0F3A42EE831A71EEA00A28
:10192000C4ED0E0AD4ED101A70EEA11AF8EEC00A3A
:10193000C4ED0E1AF4EEE01AF1EE10FAA8BFF8EEBC
:10194000C00A0DDAD4ED0D0AF8EEE02AF4EEE21A40
:10195000F1EE10FA94BFF8EEE00A84ED112A01D8F6
:10196000C4ED0E0AD4ED0E0AC4ED0F0A84ED121A6E
:10197000B8EEC01A80EE810A10BD30B585B00121E5
:10198000022000F03FFD42F21070ADF8000000248C
:101990004FF4FA702F4D0190ADF80840ADF80240B9
:1019A0008DF80A406946284601F02DF81D208DF873
:1019B0000C008DF80D4001218DF80E108DF80F10E0
:1019C00003A806F0B8F901221146284603F03DFCB1
:1019D0000121284601F07EFC05B030BD0FB4A120E6
:1019E0002DE9F04F8BB00AF0C5FF2C980DF02CFAC2
:1019F0008046894622980DF027FA83460F461E98A6
:101A00000DF022FA06468A461A980DF01DFA044691
:101A10000D4616980DF018FA41EC100B9DF8B40025
:101A2000CDF82080CDE90990279853EC102BCDE913
:101A300005708DE8700C08A00BF056F9A1200AF093
:101A400099FF0BB00A20BDE8F00F5DF814EB0AF027
:101A500091BF0000000400404B69203A25660A4B04
:101A600070203A25660A4B64203A25660A55203ACA
:101A700025660A4E203A25640A46726571203A2589
:101A8000660A4D6F646F203A25640A00534882B09D
:101A9000016841F4700101605148016841F00101A1
:101AA0000160504900230B60026822F4102222F0EA
:101AB0008072026000F1040C4B4ACCF800200268EE
:101AC00022F4802202600A1D1360019300930268D1
:101AD00042F480320260026802F400320092019AFD
:101AE000521C0192009A1AB9019AB2F5A06FF2D174
:101AF000026812F4003F08BF009331D00122009227
:101B00003A4A136843F080531360394A136843F428
:101B1000804313600A680A600A6842F400420A605F
:101B20000A6842F4A0520A60324ACCF800200268E7
:101B300042F080720260026812F0007FFBD02E4AF1
:101B400040F205601060086820F003000860086833
:101B500040F002000860086800F00C000828FAD184
:101B600026494FF00060086002B07047DFF874C08B
:101B700030B4DCF80000224B10F00C01214806D0F4
:101B8000214C042908BF046002D008290CD003604E
:101B9000DCF800101D4AC1F30311515C026822FAFF
:101BA00001F1016030BC704719490A68C2F38055E1
:101BB0000A68002D02F03F0214BFB4FBF2F2B3FB3F
:101BC000F2F20B680968C3F388135A43C1F3014169
:101BD000491C4900B2FBF1F10160D9E788ED00E052
:101BE00000380240083802401030002440380240DB
:101BF0000070004008544007003C024008ED00E03F
:101C000000B4C4048000002000127A008400002088
:101C1000043802407047FEE7FEE7FEE7FEE7704744
:101C200070477047FEF7A4BEFFF717B8014809F0E8
:101C30004EBA00004C010020FC48016841F001014F
:101C40000160FB4A00211160026822F4102222F098
:101C500080720260031DF74A1A60026822F4802233
:101C60000260F5480160704710B504001CBF012CEC
:101C7000052C03D0F121F1A0FEF779FEFE480021EA
:101C80000170047010BD70B500250446212818BFEE
:101C9000312C19D0392C18BF412C15D0612C18BF0C
:101CA000792C11D07A2C18BF7B2C0DD07C2C18BF2E
:101CB0007D2C09D07E2C1CBF7F2C3B2C04D040F205
:101CC0009D61EEA0FEF753FE6009012804BFD748CE
:101CD000006804D002280CBFF748F848006804F0F8
:101CE0001F01012202FA01F1014218BF0125284615
:101CF00070BD81B00020CD49009000200A6812F428
:101D0000003F18BF0120009A521C0092B2F5A06F4C
:101D100001D00028F1D0086810F4003018BF01206D
:101D200001B0704710B504461F2804D940F22911AC
:101D3000C2A0FEF71CFEBD48016821F0F80141EA8F
:101D4000C401016010BD10B5040018BF012C04D0FF
:101D50004FF4A671B9A0FEF70AFED948046010BD81
:101D600010B504001CBF012C042C04D040F26511F6
:101D7000B2A0FEF7FCFDD048002101700170012CDB
:101D800008BF012103D0042C0CBF052110BD017038
:101D900010BD10B5040018BF012C04D040F28D1105
:101DA000A6A0FEF7E4FDC748046010BD2DE9F04190
:101DB0001C46DDF8188016460F46050018BFB5F51D
:101DC000800F04D04FF4DC719CA0FEF7D0FD3F2FB4
:101DD00004D940F2B91199A0FEF7C9FDA6F1C000DF
:101DE000F02804D94FF4DD7194A0FEF7C0FD022C59
:101DF00018BF042C08D0062C18BF082C04D040F2C1
:101E0000BB118EA0FEF7B3FDA8F104000B2804D986
:101E10004FF4DE7189A0FEF7AAFDAB4A610847EADC
:101E2000861002EB01410843A849284340EA0860B4
:101E30000860BDE8F08110B5040018BF012C04D083
:101E400040F2CF117DA0FEF792FD9D48046610BDC3
:101E500070B50546C0380C46F02804D940F2E911A7
:101E600076A0FEF784FDA01E052804D94FF4F57175
:101E700072A0FEF77CFD9649A80140EA0470086054
:101E800070BD10B5040018BF012C04D04FF4FC71D4
:101E90006AA0FEF76CFD8A48846610BD10B5040088
:101EA00018BF012C04D040F20A2164A0FEF75FFDA8
:101EB0008348C46410BD70B50C46050018BFB5F565
:101EC000001F0AD0B5F5800F18BFB5F5C00F04D0BC
:101ED00040F2252159A0FEF74AFD002C18BFB4F1AD
:101EE000806F0CD0B4F1A06F1CBFB4F1C06FB4F11F
:101EF000E06F04D040F2262150A0FEF738FD4C4898
:101F0000016845EA040221F0EC611143016070BDF3
:101F100070B50C46050018BFB5F1804F0AD0B5F179
:101F2000004F18BFB5F1404F04D040F24B2143A001
:101F3000FEF71DFD002C18BFB4F1005F0CD0B4F10A
:101F4000205F1CBFB4F1405FB4F1605F04D04FF478
:101F500013713AA0FEF70BFD3548016845EA04020B
:101F600021F078411143016070BD10B504001CBF21
:101F7000012C022C04D040F2B52130A0FEF7F7FC72
:101F80002B48016821F003012143016010BD28485E
:101F9000006800F00C00704710B5040018BF802CDA
:101FA00011D0902C18BFA02C0DD0B02C18BFC02C75
:101FB00009D0D02C1CBFE02CF02C04D040F2EA2138
:101FC0001EA0FEF7D4FC1A48016821F0F00121435D
:101FD000016010BD10B5040018BFB4F5805F0CD0CF
:101FE000B4F5A05F1CBFB4F5C05FB4F5E05F04D0EA
:101FF00040F20A3111A0FEF7BAFC0D48016821F445
:10200000E0512143016010BD10B5040018BFB4F5C4
:10201000805F61D0B4F5A05F1CBFB4F5C05FB4F5BC
:10202000E05F59D040F2293104A053E0003802406B
:1020300008380240103000240C3802402E2E5C4C30
:1020400069627261726965735C53544D3332463410
:1020500078785F5374645065726970685F44726920
:102060007665725C7372635C73746D333266347858
:10207000785F7263632E6300023802402E2E5C4C40
:1020800069627261726965735C53544D33324634D0
:1020900078785F5374645065726970685F447269E0
:1020A0007665725C7372635C73746D333266347818
:1020B000785F7263632E63007038024074380240A8
:1020C00000004742800E47420000FFFF04380240F4
:1020D00084380240FEF74BFCF948016821F4604166
:1020E00041EAC401016010BDF54A30B41168F54BF6
:1020F00011F00C0106D0F44C042908BF046002D092
:1021000008291ED0036011680F2303EA1111EF4B59
:10211000595CD0F800C02CFA01F14160D2F800C03F
:10212000072404EA9C2C13F80CC021FA0CFCC0F81C
:1021300008C0126804EA52329A5CD140C16030BCD7
:102140007047E349D1F800C0CCF38055D1F800C006
:10215000002D0CF03F0C14BFB4FBFCF3B3FBFCF3FD
:10216000D1F800C00968CCF3881C03FB0CF3C1F361
:102170000141491C4900B3FBF1F10160C3E710B50F
:102180000446B0F5807F18BFB4F5007F7CD0A4F57D
:102190000030B0F540701CBFA4F54030B0F5407081
:1021A00072D0A4F58020B0F540701CBFA4F5A0202B
:1021B000B0F5407068D0A4F5C020B0F540701CBFE9
:1021C000A4F5E020B0F540707FD0A4F50020B0F574
:1021D00040701CBFA4F51020B0F5407075D0A4F578
:1021E0002020B0F540701CBFA4F53020B0F5407041
:1021F0006BD0A4F54020B0F540701CBFA4F5502072
:10220000B0F5407061D0A4F56020B0F540701CBFFF
:10221000A4F57020B0F5407057D0A4F58010B0F54B
:1022200040701CBFA4F58810B0F540704DD0A4F5E7
:102230009010B0F540701CBFA4F59810B0F5407038
:1022400043D0A4F5A010B0F540701CBFA4F5A810B1
:10225000B0F5407039D0A4F5B010B0F540701CBF97
:10226000A4F5B810B0F540702FD0A4F5C010B0F5AB
:1022700040701CBFA4F5C810B0F5407025D0A4F57F
:10228000D010B0F5407000E01FE01CBFA4F5D810DE
:10229000B0F5407019D0A4F5E010B0F540701CBF47
:1022A000A4F5E810B0F540700FD0A4F5F010B0F52B
:1022B00040701CBFA4F5F810B0F5407005D040F296
:1022C000DA31AFF28820FEF752FB4FF44070A043A2
:1022D00009D17B48016824F4407221F4F81122F0FE
:1022E0007042114301607B480168C4F30B02114343
:1022F000016010BD10B5040018BF012C05D04FF4CB
:102300007E71AFF2C820FEF732FB7348046010BD47
:1023100010B5040018BF012C05D040F20941AFF2FE
:10232000E420FEF724FB6D48046010BD10B50400E6
:1023300018BF012C05D040F21A41AFF20030FEF771
:1023400016FB6748C0F85C4110BD70B5054665488E
:102350000E46054200D12DB940F24141AFF2243082
:10236000FEF705FB604C002E04BF2068A84309D08F
:10237000012E05D040F24341AFF24030FEF7F7FAAC
:1023800020682843206070BD70B505460E4630F0C9
:10239000F10000D12DB940F26141AFF26030FEF79B
:1023A000E6FA524C002E04BF2068A84309D0012E43
:1023B00005D040F26241AFF27C30FEF7D8FA2068D7
:1023C0002843206070BD70B505460E4630F0010010
:1023D00000D12DB940F27C41AFF2A030FEF7C7FA30
:1023E000434C002E04BF2068A84309D0012E05D01D
:1023F00040F27D41AFF2BC30FEF7B9FA20682843C5
:10240000206070BD70B505463A480E46054200D1C1
:102410002DB940F2AE41AFF2DC30FEF7A8FA364CEF
:10242000002E04BF2068A84309D0012E05D040F239
:10243000AF41AFF2F830FEF79AFA206828432060E7
:1024400070BD70B505462D480E46054200D12DB928
:1024500040F2D641AFF21C40FEF789FA284C002E1C
:1024600004BF2068A84309D0012E05D040F2D7410F
:10247000AFF23840FEF77BFA20682843206070BD39
:1024800070B505461F480E46054200D12DB940F2F1
:10249000FD41AFF25840FEF76AFA1B4C002E04BF14
:1024A0002068A84309D0012E05D040F2FE41AFF2CA
:1024B0007440FEF75CFA20682843206070BD00007D
:1024C0000838024000B4C40400127A0094000020CE
:1024D00004380240703802403C0E4742400E4742EA
:1024E0000000474200EE8B81303802403438024011
:1024F00038380240003601C940380240CCA0F8FF0D
:102500004438024000EE9FDD1038024070B50546A9
:102510000E4630F0F10000D12DB940F21A51AFF261
:10252000E440FEF724FAAD4C002E04BF2068A84317
:1025300009D0012E05D040F21B51AFF20050FEF73A
:1025400016FA20682843206070BD70B505460E4617
:1025500030F0010000D12DB940F23251AFF22450D9
:10256000FEF705FA9E4C002E04BF2068A84309D050
:10257000012E05D040F23351AFF24050FEF7F7F98B
:1025800020682843206070BD70B5054695480E460A
:10259000054200D12DB940F26151AFF26050FEF713
:1025A000E6F9914C002E04BF2068A84309D0012E03
:1025B00005D040F26251AFF27C50FEF7D8F92068A6
:1025C0002843206070BD70B5054688480E46054218
:1025D00000D12DB940F28551AFF2A050FEF7C7F9F6
:1025E000834C002E04BF2068A84309D0012E05D0DB
:1025F00040F28651AFF2BC50FEF7B9F9206828438B
:10260000206070BD70B505467A480E46054200D17F
:102610002DB940F2B351AFF2DC50FEF7A8F9764C79
:10262000002E04BF2068A84309D0012E05D040F237
:10263000B451AFF2F850FEF79AF9206828432060B1
:1026400070BD70B505460E4630F0F10000D12DB9D1
:1026500040F2D351AFF21C60FEF789F9674C002EAF
:1026600004BF2068A84309D0012E05D040F2D45100
:10267000AFF23860FEF77BF920682843206070BD18
:1026800070B505460E4630F0010000D12DB940F27C
:10269000EE51AFF25860FEF76AF9594C002E04BFB4
:1026A0002068A84309D0012E05D040F2EF51AFF2C7
:1026B0007460FEF75CF920682843206070BD70B537
:1026C000054648480E46054200D12DB94FF4C46175
:1026D000AFF29860FEF74BF94A4C002E04BF206819
:1026E000A84309D0012E05D040F22161AFF2B460B9
:1026F000FEF73DF920682843206070BD70B505469F
:1027000041480E46054200D12DB94FF4C961AFF2E0
:10271000D460FEF72CF93D4C002E04BF2068A8437E
:1027200009D0012E05D040F24961AFF2F060FEF70A
:102730001EF920682843206070BD70B50E4605461E
:1027400010F0C00F00D12DB940F27561AFF21470D6
:10275000FEF70DF92E4C002E04BF2078A84309D0B7
:10276000012E05D040F27661AFF23070FEF7FFF82F
:1027700020782843207070BD2648016841F08071A0
:102780000160704770B500250446012818BF022C6F
:102790000ED0042C18BF082C0AD0102C1CBF802C83
:1027A000202C05D040F2DB61AFF27070FEF7DFF84D
:1027B00019480068204218BF0125284670BD10B591
:1027C000044610F0400F00D12CB940F2FA61AFF28C
:1027D0009470FEF7CCF81148047010BD1438024014
:1027E00018380240003601C920380240CCA6F8FF54
:1027F00024380240006E988150380240543802401C
:102800005838024060380240CCA0F8FF64380240DB
:102810000D380240743802400C3802400E38024035
:102820002DE9F05F0446A0F18040B0F580304DD036
:10283000B4F1804F40D0DFF8F4B3FD4DFD4EFE4FB4
:10284000DFF8F883DFF8F893DFF8F8A35C4518BFEA
:10285000AC4225D0B44218BFBC4221D0444518BF79
:102860004C451DD054451CBFA4F18040B0F5A230AA
:1028700016D0A4F18040B0F5A4301FBFA4F1804071
:10288000B0F5C050A4F18040B0F5E05008D0A4F1FC
:102890008040B0F500507DD0C621EBA0FEF767F870
:1028A0005C451DD101210220FFF76EFEBDE8F05FFF
:1028B00000210220FFF768BE01210846FFF764FEF1
:1028C000BDE8F05F00210120FFF75EBE0121084650
:1028D000FFF779FEBDE8F05F00210120FFF773BE2E
:1028E000AC4209D101210420FFF74EFEBDE8F05FA4
:1028F00000210420FFF748BEB44209D1012108207D
:10290000FFF742FEBDE8F05F00210820FFF73CBE64
:10291000BC4209D101211020FFF736FEBDE8F05F6F
:1029200000211020FFF730BE444509D101212020AD
:10293000FFF72AFEBDE8F05F00212020FFF724BE4C
:102940004C4509D101210220FFF73DFEBDE8F05FB3
:1029500000210220FFF737BE54450AD101210804A7
:10296000FFF731FEBDE8F05F00214FF48030FFF744
:102970002ABEA4F18040B0F5A2301AD0B0F5806034
:1029800022D010F598302AD0B0F5806031D0B0F563
:10299000806000E002E018BFBDE8F09F012108025E
:1029A000FFF7F2FDBDE8F05F00214FF48070FFF704
:1029B000EBBD01214804FFF706FEBDE8F05F0021F2
:1029C0004FF40030FFF7FFBD01218804FFF7FBFD46
:1029D000BDE8F05F00214FF48020FFF7F4BD012136
:1029E0004020FFF7D1FDBDE8F05F00214020FFF758
:1029F000CBBD01218020FFF7C7FDBDE8F05F0021BE
:102A00008020FFF7C1BD2DE9F05F9E4EDFF81C82EC
:102A1000DFF81C92DFF81CA2894F0D4604464FEAEE
:102A2000B64BB04218BFB4F1804F31D0444518BF07
:102A30004C452DD0544518BF5C4529D0A4F18040A9
:102A4000B0F5A05018BFBC4222D0A4F18040B0F530
:102A5000A0301CBFA4F18040B0F5A23018D0A4F182
:102A60008040B0F5A4301CBFA4F18040B0F5C05048
:102A70000ED0A4F18040B0F5E0501CBFA4F180401E
:102A8000B0F5005004D04FF490716FA0FDF76FFFC8
:102A90006888002818BF102809D020281CBF4028AB
:102AA000602804D040F2211167A0FDF760FF28895B
:102AB00000281CBFB0F5807FB0F5007F04D04FF434
:102AC000917161A0FDF753FF2088B44218BFBC424A
:102AD00008D0B4F1804F18BF444503D04C4518BF0F
:102AE000544503D1698820F0700008435C451CBF41
:102AF000A4F18041B1F5A05103D0298920F44070A0
:102B0000084320806868E06228882085B44212BFAC
:102B1000BC42A87A20860120A082BDE8F09F4FF039
:102B2000FF31416000210180018141808172704745
:102B300070B50446A0F1804015460E46B0F58030D1
:102B400018BFB4F1804F40D0A4F18040B0F5806050
:102B50001CBFA4F18040B0F5006036D0A4F18040E5
:102B6000B0F540601CBFA4F18040B0F580502CD07F
:102B7000A4F18040B0F5A0501CBFA4F18040B0F596
:102B8000823022D0A4F18040B0F5A0301CBFA4F167
:102B90008040B0F5A23018D0A4F18040B0F5A43048
:102BA0001CBFA4F18040B0F5C0500ED0A4F180400D
:102BB000B0F5E0501CBFA4F18040B0F5005004D047
:102BC0004FF4B37120A0FDF7D2FE002D18BF012DE8
:102BD00004D040F267111CA0FDF7C9FE2685A5822E
:102BE00070BD70B50446A0F180400D46B0F5803050
:102BF00018BFB4F1804F18D0A4F18040B0F58060C8
:102C00001CBFA4F18040B0F500600ED0A4F180405C
:102C1000B0F540601CBFA4F18040B0F5823004D014
:102C200040F27F1108A0FDF7A2FE2DE00004004055
:102C300000080040000C004000100040001400405C
:102C400000040140004001402E2E5C4C696272611C
:102C5000726965735C53544D3332463478785F53F0
:102C600074645065726970685F4472697665725CFD
:102C70007372635C73746D3332663478785F746931
:102C80006D2E630000000140002D18BF102D0AD0EA
:102C9000202D1CBF402D602D05D04FF4C071AFF228
:102CA0005800FDF764FE208820F070002843208043
:102CB00070BD70B50446A0F180400D46B0F580307F
:102CC00018BFB4F1804F41D0A4F18040B0F58060CE
:102CD0001CBFA4F18040B0F5006037D0A4F1804063
:102CE000B0F540601CBFA4F18040B0F580502DD0FD
:102CF000A4F18040B0F5A0501CBFA4F18040B0F515
:102D0000823023D0A4F18040B0F5A0301CBFA4F1E4
:102D10008040B0F5A23019D0A4F18040B0F5A430C5
:102D20001CBFA4F18040B0F5C0500FD0A4F180408A
:102D3000B0F5E0501CBFA4F18040B0F5005005D0C4
:102D400040F29711AFF20010FDF711FE656270BD01
:102D500070B50446A0F180400D46B0F5803018BF34
:102D6000B4F1804F41D0A4F18040B0F580601CBF29
:102D7000A4F18040B0F5006037D0A4F18040B0F5F8
:102D800040601CBFA4F18040B0F580502DD0A4F16C
:102D90008040B0F5A0501CBFA4F18040B0F5823057
:102DA00023D0A4F18040B0F5A0301CBFA4F1804036
:102DB000B0F5A23019D0A4F18040B0F5A4301CBF0A
:102DC000A4F18040B0F5C0500FD0A4F18040B0F520
:102DD000E0501CBFA4F18040B0F5005005D04FF486
:102DE000D371AFF29C10FDF7C2FDE56270BD10B566
:102DF0000446A0F18040B0F5803018BFB4F1804F98
:102E000041D0A4F18040B0F580601CBFA4F18040A7
:102E1000B0F5006037D0A4F18040B0F540601CBF31
:102E2000A4F18040B0F580502DD0A4F18040B0F5E1
:102E3000A0501CBFA4F18040B0F5823023D0A4F193
:102E40008040B0F5A0301CBFA4F18040B0F5A230A6
:102E500019D0A4F18040B0F5A4301CBFA4F180408B
:102E6000B0F5C0500FD0A4F18040B0F5E0501CBFC9
:102E7000A4F18040B0F5005005D04FF4DA71AFF204
:102E80003820FDF774FD606A10BD10B50446A0F14E
:102E90008040B0F5803018BFB4F1804F41D0A4F12C
:102EA0008040B0F580601CBFA4F18040B0F50060A8
:102EB00037D0A4F18040B0F540601CBFA4F1804041
:102EC000B0F580502DD0A4F18040B0F5A0501CBFCB
:102ED000A4F18040B0F5823023D0A4F18040B0F559
:102EE000A0301CBFA4F18040B0F5A23019D0A4F1ED
:102EF0008040B0F5A4301CBFA4F18040B0F5C050B4
:102F00000FD0A4F18040B0F5E0501CBFA4F1804088
:102F1000B0F5005005D04FF4E171AFF2D420FDF7C9
:102F200026FD208D10BD70B50446A0F180400D46F1
:102F3000B0F5803018BFB4F1804F41D0A4F180408B
:102F4000B0F580601CBFA4F18040B0F5006037D0C0
:102F5000A4F18040B0F540601CBFA4F18040B0F502
:102F600080502DD0A4F18040B0F5A0501CBFA4F13A
:102F70008040B0F5823023D0A4F18040B0F5A0307D
:102F80001CBFA4F18040B0F5A23019D0A4F180405C
:102F9000B0F5A4301CBFA4F18040B0F5C0500FD0F4
:102FA000A4F18040B0F5E0501CBFA4F18040B0F522
:102FB000005005D04FF4E971AFF27430FDF7D7FC43
:102FC000002D04BF208820F002000AD0012D05D07A
:102FD00040F2D311AFF29030FDF7C9FC208840F0E9
:102FE0000200208070BD70B50446A0F180400D46FF
:102FF000B0F5803018BFB4F1804F41D0A4F18040CB
:10300000B0F580601CBFA4F18040B0F5006037D0FF
:10301000A4F18040B0F540601CBFA4F18040B0F541
:1030200080502DD0A4F18040B0F5A0501CBFA4F179
:103030008040B0F5823023D0A4F18040B0F5A030BC
:103040001CBFA4F18040B0F5A23019D0A4F180409B
:10305000B0F5A4301CBFA4F18040B0F5C0500FD033
:10306000A4F18040B0F5E0501CBFA4F18040B0F561
:10307000005005D040F2EF11AFF23440FDF777FC7D
:10308000002D04BF208820F004000AD0012D05D0B7
:103090004FF4F871AFF25040FDF769FC208840F022
:1030A0000400208070BD70B50446A0F180400D463C
:1030B000B0F5803018BFB4F1804F41D0A4F180400A
:1030C000B0F580601CBFA4F18040B0F5006037D03F
:1030D000A4F18040B0F540601CBFA4F18040B0F581
:1030E00080502DD0A4F18040B0F5A0501CBFA4F1B9
:1030F0008040B0F5823023D0A4F18040B0F5A030FC
:103100001CBFA4F18040B0F5A23019D0A4F18040DA
:10311000B0F5A4301CBFA4F18040B0F5C0500FD072
:10312000A4F18040B0F5E0501CBFA4F18040B0F5A0
:10313000005005D04FF40271AFF2F440FDF717FCD8
:10314000002D04BF208820F080000AD0012D05D07A
:1031500040F20921AFF21050FDF709FC208840F041
:103160008000208070BD70B50446A0F180400D46FF
:10317000B0F5803018BFB4F1804F41D0A4F1804049
:10318000B0F580601CBFA4F18040B0F5006037D07E
:10319000A4F18040B0F540601CBFA4F18040B0F5C0
:1031A00080502DD0A4F18040B0F5A0501CBFA4F1F8
:1031B0008040B0F5823023D0A4F18040B0F5A0303B
:1031C0001CBFA4F18040B0F5A23019D0A4F180401A
:1031D000B0F5A4301CBFA4F18040B0F5C0500FD0B2
:1031E000A4F18040B0F5E0501CBFA4F18040B0F5E0
:1031F000005005D040F22321AFF2B450FDF7B7FBE9
:10320000082D18BF002D05D04FF40971AFF2C8503A
:10321000FDF7ADFB208820F008002080208828439F
:10322000208070BD70B50446A0F180400D46B0F519
:10323000803018BFB4F1804F37D0A4F18040B0F592
:1032400080601CBFA4F18040B0F500602DD0A4F1D7
:103250008040B0F540601CBFA4F18040B0F58230E2
:1032600023D0A4F18040B0F5A0301CBFA4F1804071
:10327000B0F5A23019D0A4F18040B0F5A4301CBF45
:10328000A4F18040B0F5C0500FD0A4F18040B0F55B
:10329000E0501CBFA4F18040B0F5005005D040F2D2
:1032A0003A21AFF25C60FDF762FB002D1CBFB5F563
:1032B000807FB5F5007F05D040F23B21AFF278600A
:1032C000FDF755FB208820F440702080208828439B
:1032D000208070BD70B50446A0F180400D46B0F569
:1032E000803018BFB4F1804F41D0A4F18040B0F5D8
:1032F00080601CBFA4F18040B0F5006037D0A4F11D
:103300008040B0F540601CBFA4F18040B0F5805013
:103310002DD0A4F18040B0F5A0501CBFA4F1804096
:10332000B0F5823023D0A4F18040B0F5A0301CBFAE
:10333000A4F18040B0F5A23019D0A4F18040B0F5DE
:10334000A4301CBFA4F18040B0F5C0500FD0A4F150
:103350008040B0F5E0501CBFA4F18040B0F50050B3
:1033600005D040F24E21AFF22070FDF700FB002D9A
:1033700004BF208820F001000AD0012D05D040F2C2
:103380004F21AFF23C70FDF7F2FA208840F00100C7
:10339000208070BD2DE9F047DFF8C48CDFF8C49CB5
:1033A0000D460446404518BFB4F1804F34D0A4F117
:1033B0008040B0F580601CBFA4F18040B0F5006093
:1033C0002AD0A4F18040B0F5406018BF4C4523D00E
:1033D000A4F18040B0F5A0301CBFA4F18040B0F54E
:1033E000A23019D0A4F18040B0F5A4301CBFA4F1E4
:1033F0008040B0F5C0500FD0A4F18040B0F5E0504F
:103400001CBFA4F18040B0F5005005D040F29F21D0
:10341000AFF2CC70FDF7ABFA2888002818BF10284F
:103420000DD0202818BF302809D0602818BF702878
:1034300005D04FF42871AFF2F070FDF798FA688864
:10344000002818BF012805D040F2A121AFF60800DE
:10345000FDF78DFAA889002818BF022805D040F290
:10346000A221AFF61C00FDF782FA208C20F00100AB
:103470002084208CA788218B2A8821F0730142EABE
:10348000010AA98920F0020008436988444541EAFD
:10349000000618BF4C453DD1A888002818BF042855
:1034A00005D040F2BF21AFF66000FDF760FAE88971
:1034B000002818BF082805D04FF43071AFF6780007
:1034C000FDF755FA688AB0F5007F18BF002805D0CF
:1034D00040F2C121AFF69000FDF749FA288AB0F515
:1034E000807F18BF002805D040F2C221AFF6A800A7
:1034F000FDF73DFAE98926F008000843A98820F085
:10350000040041EA0006298A27F440700843698ACA
:1035100041EA0007A780A4F818A0A8686063268481
:10352000BDE8F0872DE9F05FDFF8349BDFF834ABBE
:103530000D460446484518BFB4F1804F20D0A4F191
:103540008040B0F580601CBFA4F18040B0F5006001
:1035500016D0A4F18040B0F5406018BF54450FD09C
:10356000A4F18040B0F5A0301CBFA4F18040B0F5BC
:10357000C05005D04FF43C71AFF63410FDF7F7F9A9
:103580002888002818BF10280DD0202818BF302800
:1035900009D0602818BF702805D040F2F121AFF69D
:1035A0005810FDF7E4F96888002818BF012805D0F5
:1035B00040F2F221AFF67010FDF7D9F9A889002882
:1035C00018BF022805D040F2F321AFF68410FDF7B2
:1035D000CEF9208C20F010002084208CB4F80480D8
:1035E000218B2A884FF6FF7621F4E64106EA022273
:1035F00042EA010BA98920F0200006EA01110843E4
:1036000069884C4506EA011141EA000718BF544594
:1036100045D1A888002818BF042805D040F21131F0
:10362000AFF6DC10FDF7A3F9E889002818BF0828D9
:1036300005D040F21231AFF6F010FDF798F9688A24
:10364000B0F5007F18BF002805D040F21331AFF667
:103650000820FDF78CF9288AB0F5807F18BF002874
:1036600005D04FF44571AFF62020FDF780F9E989C8
:1036700027F0800006EA01110843A98820F04000E5
:1036800006EA011141EA0007298A28F4406006EAA7
:1036900081010843698A06EA810141EA0008A4F829
:1036A0000480A4F818B0A868A0632784BDE8F09F40
:1036B0002DE9F05FDFF8A899DFF8A8A90D460446C8
:1036C000484518BFB4F1804F16D0A4F18040B0F542
:1036D00080601CBFA4F18040B0F500600CD0A4F164
:1036E0008040B0F5406018BF544505D040F24131EC
:1036F000AFF6AC20FDF73BF92888002818BF10284A
:103700000DD0202818BF302809D0602818BF702895
:1037100005D040F24231AFF6D020FDF728F9688895
:10372000002818BF012805D040F24331AFF6E82049
:10373000FDF71DF9A889002818BF022805D04FF40D
:103740005171AFF6FC20FDF712F9208C20F4807047
:103750002084208CB4F80480A18B2A8821F0730186
:1037600042EA010BA9894FF6FF7620F4007006EAC1
:103770000121084369884C4506EA012141EA000716
:1037800018BF544545D1A888002818BF042805D083
:1037900040F26131AFF65030FDF7E9F8E8890028D2
:1037A00018BF082805D040F26231AFF66430FDF74B
:1037B000DEF8688AB0F5007F18BF002805D040F217
:1037C0006331AFF67C30FDF7D2F8288AB0F5807F00
:1037D00018BF002805D04FF45971AFF69430FDF7AB
:1037E000C6F8E98927F4006006EA01210843A988A0
:1037F00020F4806006EA012141EA0007298A28F4C2
:10380000405006EA01110843698A06EA011141EABB
:103810000008A4F80480A4F81CB0A868E06327841A
:10382000BDE8F09F2DE9F05FDFF83488DFF83498C9
:103830000D460446404518BFB4F1804F16D0A4F1A0
:103840008040B0F580601CBFA4F18040B0F50060FE
:103850000CD0A4F18040B0F5406018BF4C4505D0B5
:1038600040F29131AFF62040FDF781F8288800281A
:1038700018BF10280DD0202818BF302809D0602884
:1038800018BF702805D040F29231AFF64440FDF7E2
:103890006EF86888002818BF012805D040F29331DF
:1038A000AFF65C40FDF763F8A889002818BF02282E
:1038B00005D04FF46571AFF67040FDF758F8208CD5
:1038C00020F480502084208CA788A18B2A884FF672
:1038D000FF7621F4E64106EA022242EA010AA989BA
:1038E00020F4005006EA013108436988444506EA9D
:1038F000013141EA000B18BF4C4512D1288AB0F5BE
:10390000807F18BF002805D040F2B231AFF6C84022
:10391000FDF72DF8298A27F4804006EA811141EA53
:103920000007A780A4F81CA0A8682064A4F820B011
:10393000BDE8F09F0021018041808180816081810C
:10394000C18101824182704770B50446A0F1804078
:1039500015460E46B0F5803018BFB4F1804F37D011
:10396000A4F18040B0F580601CBFA4F18040B0F5A8
:1039700000602DD0A4F18040B0F540601CBFA4F1E0
:103980008040B0F5823023D0A4F18040B0F5A03063
:103990001CBFA4F18040B0F5A23019D0A4F1804042
:1039A000B0F5A4301CBFA4F18040B0F5C0500FD0DA
:1039B000A4F18040B0F5E0501CBFA4F18040B0F508
:1039C000005005D040F2F531AFF68450FCF7CFFF40
:1039D000002E18BF042E09D0082E18BF0C2E05D0BB
:1039E00040F2F631AFF6A050FCF7C1FF002D18BF32
:1039F000102D11D0202D18BF302D0DD0602D18BFE7
:103A0000702D09D0502D18BF402D05D040F2F73150
:103A1000AFF6CC50FCF7ABFF0121228C04F118006B
:103A2000B14022EA01012184002E18BF082E10D0D7
:103A3000311FC1F34E010844016848F6FF7211407E
:103A4000016001684FF6FF7202EA0522114301602E
:103A500070BD00EB560001684FF68F721140016097
:103A600001682943F3E770B50446A0F180400D4694
:103A7000B0F5803018BFB4F1804F37D0A4F180404A
:103A8000B0F580601CBFA4F18040B0F500602DD07F
:103A9000A4F18040B0F540601CBFA4F18040B0F5B7
:103AA000823023D0A4F18040B0F5A0301CBFA4F137
:103AB0008040B0F5A23019D0A4F18040B0F5A43018
:103AC0001CBFA4F18040B0F5C0500FD0A4F18040DD
:103AD000B0F5E0501CBFA4F18040B0F5005005D017
:103AE0004FF48461AFF6A060FCF741FF656370BDE1
:103AF00070B50446A0F180400D46B0F5803018BF87
:103B0000B4F1804F23D0A4F18040B0F580601CBF99
:103B1000A4F18040B0F5006019D0A4F18040B0F568
:103B200040601CBFA4F18040B0F582300FD0A4F1FA
:103B30008040B0F5A0301CBFA4F18040B0F5C0506B
:103B400005D04FF48661AFF60070FCF710FFA56357
:103B500070BD70B50446A0F180400D46B0F58030D0
:103B600018BFB4F1804F19D0A4F18040B0F5806047
:103B70001CBFA4F18040B0F500600FD0A4F18040DC
:103B8000B0F540601CBFA4F18040B0F5823005D094
:103B900040F23F41AFF65070FCF7E9FEE56370BDBF
:103BA00070B50446A0F180400D46B0F5803018BFD6
:103BB000B4F1804F19D0A4F18040B0F580601CBFF3
:103BC000A4F18040B0F500600FD0A4F18040B0F5C2
:103BD00040601CBFA4F18040B0F5823005D040F2B7
:103BE0004E41AFF69C70FCF7C2FE256470BD70B507
:103BF0000446A0F180400D46B0F5803018BFB4F106
:103C0000804F36D0A4F18040B0F580601CBFA4F195
:103C10008040B0F500602CD0A4F18040B0F5406049
:103C20001CBFA4F18040B0F5823022D0A4F18040C6
:103C3000B0F5A0301CBFA4F18040B0F5A23018D080
:103C4000A4F18040B0F5A4301CBFA4F18040B0F5D1
:103C5000C0500ED0A4F18040B0F5E0501CBFA4F1DC
:103C60008040B0F5005004D040F26241FE48FCF7BD
:103C70007EFE502D18BF402D04D040F26341FA481B
:103C8000FCF775FE208B20F070002843208370BD68
:103C900070B50446A0F180400D46B0F5803018BFE5
:103CA000B4F1804F22D0A4F18040B0F580601CBFF9
:103CB000A4F18040B0F5006018D0A4F18040B0F5C8
:103CC00040601CBFA4F18040B0F582300ED0A4F15A
:103CD0008040B0F5A0301CBFA4F18040B0F5C050CA
:103CE00004D040F27F41E048FCF741FE502D18BF60
:103CF000402D04D04FF49061DB48FCF738FE208B58
:103D00004FF6FF7120F4E04001EA052108432083CB
:103D100070BD70B50446A0F180400D46B0F580300E
:103D200018BFB4F1804F18D0A4F18040B0F5806086
:103D30001CBFA4F18040B0F500600ED0A4F180401B
:103D4000B0F540601CBFA4F18040B0F5823004D0D3
:103D500040F29B41C448FCF70AFE502D18BF402D8D
:103D600004D040F29C41C048FCF701FEA08B20F03B
:103D700070002843A08370BD70B50446A0F1804058
:103D80000D46B0F5803018BFB4F1804F18D0A4F1C3
:103D90008040B0F580601CBFA4F18040B0F50060A9
:103DA0000ED0A4F18040B0F540601CBFA4F180406B
:103DB000B0F5823004D04FF49761AB48FCF7D7FDE3
:103DC000502D18BF402D04D040F2B941A648FCF751
:103DD000CEFDA08B4FF6FF7120F4E04001EA0521F3
:103DE0000843A08370BD70B50446A0F180400D4625
:103DF000B0F5803018BFB4F1804F36D0A4F18040C8
:103E0000B0F580601CBFA4F18040B0F500602CD0FC
:103E1000A4F18040B0F540601CBFA4F18040B0F533
:103E2000823022D0A4F18040B0F5A0301CBFA4F1B4
:103E30008040B0F5A23018D0A4F18040B0F5A43095
:103E40001CBFA4F18040B0F5C0500ED0A4F180405A
:103E5000B0F5E0501CBFA4F18040B0F5005004D094
:103E600040F2D4418048FCF782FD082D18BF002D98
:103E700004D040F2D5417C48FCF779FD208B20F03E
:103E800008002843208370BD70B50446A0F180402F
:103E90000D46B0F5803018BFB4F1804F22D0A4F1A8
:103EA0008040B0F580601CBFA4F18040B0F5006098
:103EB00018D0A4F18040B0F540601CBFA4F1804050
:103EC000B0F582300ED0A4F18040B0F5A0301CBF18
:103ED000A4F18040B0F5C05004D040F2F2416248F5
:103EE000FCF745FD082D18BF002D04D040F2F3412A
:103EF0005D48FCF73CFD208B4FF6FF7120F400601D
:103F000001EA05210843208370BD70B50446A0F185
:103F100080400D46B0F5803018BFB4F1804F18D006
:103F2000A4F18040B0F580601CBFA4F18040B0F5E2
:103F300000600ED0A4F18040B0F540601CBFA4F139
:103F40008040B0F5823004D040F20F514648FCF773
:103F50000EFD082D18BF002D04D04FF4A261424879
:103F6000FCF705FDA08B20F008002843A08370BD5E
:103F700070B50446A0F180400D46B0F5803018BF02
:103F8000B4F1804F18D0A4F18040B0F580601CBF20
:103F9000A4F18040B0F500600ED0A4F18040B0F5EF
:103FA00040601CBFA4F18040B0F5823004D040F2E4
:103FB0002C512D48FCF7DBFC082D18BF002D04D038
:103FC00040F22D512848FCF7D2FCA08B4FF6FF7130
:103FD00020F4006001EA05210843A08370BD70B59C
:103FE0000446A0F180400D46B0F5803018BFB4F112
:103FF000804F3DD0A4F18040B0F580601CBFA4F19B
:104000008040B0F5006033D0A4F18040B0F540604E
:104010001CBFA4F18040B0F5823029D0A4F18040CB
:10402000B0F5A0301CBFA4F18040B0F5A2301FD085
:10403000A4F18040B0F5A4301CBFA4F18040B0F5DD
:10404000C05015D0A4F18040B0F5E0501CBFA4F1E1
:104050008040B0F500500BD040F24951024805E0D5
:104060000000014000040140482C0008FCF77FFCE0
:10407000042D18BF002D04D040F24A51FE48FCF731
:1040800076FC208B20F004002843208370BD70B59F
:104090000446A0F180400D46B0F5803018BFB4F161
:1040A000804F22D0A4F18040B0F580601CBFA4F105
:1040B0008040B0F5006018D0A4F18040B0F54060B9
:1040C0001CBFA4F18040B0F582300ED0A4F1804036
:1040D000B0F5A0301CBFA4F18040B0F5C05004D0B2
:1040E0004FF4AD61E448FCF742FC042D18BF002DED
:1040F00004D040F26951E048FCF739FC208B4FF6C0
:10410000FF7120F4806001EA05210843208370BD1F
:1041100070B50446A0F180400D46B0F5803018BF60
:10412000B4F1804F18D0A4F18040B0F580601CBF7E
:10413000A4F18040B0F500600ED0A4F18040B0F54D
:1041400040601CBFA4F18040B0F5823004D040F242
:104150008651C948FCF70BFC042D18BF002D04D074
:1041600040F28751C448FCF702FCA08B20F0040009
:104170002843A08370BD70B50446A0F180400D4671
:10418000B0F5803018BFB4F1804F18D0A4F1804052
:10419000B0F580601CBFA4F18040B0F500600ED087
:1041A000A4F18040B0F540601CBFA4F18040B0F5A0
:1041B000823004D040F2A451AF48FCF7D8FB042D64
:1041C00018BF002D04D040F2A551AB48FCF7CFFB3F
:1041D000A08B4FF6FF7120F4806001EA05210843AF
:1041E000A08370BD70B50446A0F180400D46B0F5C7
:1041F000803018BFB4F1804F36D0A4F18040B0F5C4
:1042000080601CBFA4F18040B0F500602CD0A4F108
:104210008040B0F540601CBFA4F18040B0F5823012
:1042200022D0A4F18040B0F5A0301CBFA4F18040A2
:10423000B0F5A23018D0A4F18040B0F5A4301CBF76
:10424000A4F18040B0F5C0500ED0A4F18040B0F58C
:10425000E0501CBFA4F18040B0F5005004D040F203
:10426000C2518548FCF783FB802D18BF002D04D078
:1042700040F2C3518048FCF77AFB208B20F080008D
:104280002843208370BD70B50446A0F180400D46E0
:10429000B0F5803018BFB4F1804F22D0A4F1804037
:1042A000B0F580601CBFA4F18040B0F5006018D06C
:1042B000A4F18040B0F540601CBFA4F18040B0F58F
:1042C00082300ED0A4F18040B0F5A0301CBFA4F124
:1042D0008040B0F5C05004D04FF4BC616648FCF794
:1042E00046FB802D18BF002D04D040F2E1516248FA
:1042F000FCF73DFB208B4FF6FF71C0F30E0001EA87
:1043000005210843208370BD70B50446A0F18040AC
:104310000D46B0F5803018BFB4F1804F18D0A4F12D
:104320008040B0F580601CBFA4F18040B0F5006013
:104330000ED0A4F18040B0F540601CBFA4F18040D5
:10434000B0F5823004D040F2FD514B48FCF70FFB32
:10435000802D18BF002D04D040F2FE514648FCF7D6
:1043600006FBA08B20F080002843A08370BD70B5B1
:104370000446A0F180400D46B0F5803018BFB4F17E
:10438000804F18D0A4F18040B0F580601CBFA4F12C
:104390008040B0F500600ED0A4F18040B0F54060E0
:1043A0001CBFA4F18040B0F5823004D040F21A6105
:1043B0003148FCF7DCFA802D18BF002D04D040F204
:1043C0001B612D48FCF7D3FAA08B4FF6FF71C0F3A9
:1043D0000E0001EA05210843A08370BD70B50446B4
:1043E000A0F180400D46B0F5803018BFB4F1804F89
:1043F00036D0A4F18040B0F580601CBFA4F18040AD
:10440000B0F500602CD0A4F18040B0F540601CBF36
:10441000A4F18040B0F5823022D0A4F18040B0F504
:10442000A0301CBFA4F18040B0F5A23018D0A4F198
:104430008040B0F5A4301CBFA4F18040B0F5C0505E
:104440000ED0A4F18040B0F5E0501CBFA4F1804034
:10445000B0F5005004D040F237610748FCF787FA06
:10446000002D18BF022D04D04FF4C7610248FCF79D
:104470007EFA208C02E00000482C000820F00200A8
:104480002843208470BD70B50446A0F180400D46DD
:10449000B0F580301CBFA4F18040B0F5823004D06C
:1044A00040F25161FE48FCF762FA002D18BF082D5A
:1044B00004D040F25261FA48FCF759FA208C20F0FF
:1044C00008002843208470BD70B50446A0F18040E8
:1044D0000D46B0F5803018BFB4F1804F22D0A4F162
:1044E0008040B0F580601CBFA4F18040B0F5006052
:1044F00018D0A4F18040B0F540601CBFA4F180400A
:10450000B0F582300ED0A4F18040B0F5A0301CBFD1
:10451000A4F18040B0F5C05004D040F26D61E04895
:10452000FCF725FA002D18BF022D04D040F26E6171
:10453000DB48FCF71CFA208C4FF6FF7120F02000BE
:1045400001EA05110843208470BD70B50446A0F14E
:1045500080400D46B0F580301CBFA4F18040B0F51E
:10456000823004D04FF4D161CD48FCF700FA002D21
:1045700018BF082D04D040F28961C948FCF7F7F94B
:10458000208C4FF6FF7120F0800001EA05110843EE
:10459000208470BD70B50446A0F180400D46B0F592
:1045A000803018BFB4F1804F18D0A4F18040B0F52E
:1045B00080601CBFA4F18040B0F500600ED0A4F173
:1045C0008040B0F540601CBFA4F18040B0F582305F
:1045D00004D040F2A361B248FCF7C9F9002D18BF1E
:1045E000022D04D040F2A461AD48FCF7C0F9208C44
:1045F0004FF6FF7120F4007001EA05210843208482
:1046000070BD70B50446A0F180400D46B0F5803015
:104610001CBFA4F18040B0F5823004D040F2BE61EE
:104620009F48FCF7A4F9002D18BF082D04D040F2D4
:10463000BF619B48FCF79BF9208C4FF6FF7120F47B
:10464000006001EA05210843208470BD70B504466E
:10465000A0F180400D46B0F5803018BFB4F1804F16
:1046600018D0A4F18040B0F580601CBFA4F1804058
:10467000B0F500600ED0A4F18040B0F540601CBFE2
:10468000A4F18040B0F5823004D040F2D961844872
:10469000FCF76DF9002D18BF022D04D040F2DA614D
:1046A0007F48FCF764F9208C4FF6FF7120F400502E
:1046B00001EA05310843208470BD70B50446A0F1BD
:1046C000804016460D46B0F5803018BFB4F1804FDB
:1046D00036D0A4F18040B0F580601CBFA4F18040CA
:1046E000B0F500602CD0A4F18040B0F540601CBF54
:1046F000A4F18040B0F5823022D0A4F18040B0F522
:10470000A0301CBFA4F18040B0F5A23018D0A4F1B5
:104710008040B0F5A4301CBFA4F18040B0F5C0507B
:104720000ED0A4F18040B0F5E0501CBFA4F1804051
:10473000B0F5005004D04FF4DF615948FCF717F989
:10474000002D18BF042D08D0082D18BF0C2D04D043
:1047500040F2F9615248FCF70AF9012E18BF002E09
:1047600004D040F2FA614E48FCF701F90120218C97
:10477000A84021EA00002084218C06FA05F00843B5
:10478000208470BD70B50446A0F1804016460D46E9
:10479000B0F580301CBFA4F18040B0F5823004D069
:1047A00040F216713E48FCF7E2F8002D1CBF042DC4
:1047B000082D04D040F217713948FCF7D8F8042EC0
:1047C00018BF002E04D04FF4E3613548FCF7CFF852
:1047D0000420218CA84021EA00002084218C06FAC4
:1047E00005F00843208470BD70B50446A0F18040F8
:1047F0000D46B0F5803018BFB4F1804F18D0A4F149
:104800008040B0F580601CBFA4F18040B0F500602E
:104810000ED0A4F18040B0F540601CBFA4F18040F0
:10482000B0F5823004D040F672011EA0FCF79FF86C
:10483000002D18BF042D08D0082D18BF0C2D04D052
:1048400040F6730117A0FCF792F8A08B20F44060AB
:10485000A083A08B4FF6FF7101EA05210843A083D6
:1048600070BD70B50446A0F180400D46B0F58030B3
:1048700018BFB4F1804F3AD0A4F18040B0F5806009
:104880001CBFA4F18040B0F5006030D0A4F180409E
:10489000B0F540601CBFA4F18040B0F582301FE04D
:1048A000482C00082E2E5C4C696272617269657337
:1048B0005C53544D3332463478785F53746450659A
:1048C000726970685F4472697665725C7372635C6A
:1048D00073746D3332663478785F74696D2E63005B
:1048E00005D040F65A01AFF24400FCF740F8002D25
:1048F00018BF042D09D0082D18BF0C2D05D040F687
:104900005B01AFF26000FCF732F8A08B20F00C00E6
:10491000A083A08B2843A08370BD70B50446A0F18E
:1049200080400D46B0F5803018BFB4F1804F23D0E1
:10493000A4F18040B0F580601CBFA4F18040B0F5C8
:10494000006019D0A4F18040B0F540601CBFA4F114
:104950008040B0F582300FD0A4F18040B0F5A03097
:104960001CBFA4F18040B0F5C05005D040F6420114
:10497000AFF2D000FBF7FBFF002D18BF042D09D0CC
:10498000082D18BF0C2D05D040F64301AFF2EC0006
:10499000FBF7EDFF208B20F440602083208B4FF647
:1049A000FF7101EA05210843208370BD70B50446FC
:1049B000A0F180400D46B0F5803018BFB4F1804FB3
:1049C00037D0A4F18040B0F580601CBFA4F18040D6
:1049D000B0F500602DD0A4F18040B0F540601CBF60
:1049E000A4F18040B0F5823023D0A4F18040B0F52E
:1049F000A0301CBFA4F18040B0F5A23019D0A4F1C2
:104A00008040B0F5A4301CBFA4F18040B0F5C05088
:104A10000FD0A4F18040B0F5E0501CBFA4F180405D
:104A2000B0F5005005D040F62901AFF28810FBF731
:104A30009EFF002D18BF042D09D0082D18BF0C2D86
:104A400005D040F62A01AFF2A410FBF790FF208BAF
:104A500020F00C002083208B2843208370BD2DE99B
:104A6000F05FDFF8FCB3FF4FDFF8FC83DFF8FC9367
:104A7000DFF8FCA30D460446584518BFB4F1804F3B
:104A80002BD0BC4218BF444527D04C4518BF5445D5
:104A900023D0A4F18040B0F5A0301CBFA4F1804029
:104AA000B0F5A23019D0A4F18040B0F5A4301CBFFD
:104AB000A4F18040B0F5C0500FD0A4F18040B0F513
:104AC000E0501CBFA4F18040B0F5005005D040F28A
:104AD0006671AFF23020FBF74AFF688800281CBFE0
:104AE00002280A2805D040F26771AFF24820FBF790
:104AF0003EFFA88801281CBF0228032805D04FF4D8
:104B0000ED61AFF26020FBF732FFE888002818BFA4
:104B1000042809D0082818BF0C2805D040F2697174
:104B2000AFF28020FBF723FF28890F2805D940F238
:104B30006A71AFF29020FBF71AFF28884FF6FF76D4
:104B4000002860D004287CD0082800F0B8805C459C
:104B500018BFB4F1804F0DD0BC4218BF444509D0F6
:104B60004C4518BF544505D040F28C71AFF2CC20B3
:104B7000FBF7FDFE95F802C02979287A228C22F4F1
:104B800080522284A28B238C22F4734206EA0121F4
:104B9000114306EA0030084306EA0C3C23F42041A6
:104BA00041EA0C0141F48051A0832184ED885C45E9
:104BB00018BFB4F1804F0DD0BC4218BF444509D096
:104BC0004C4518BF544505D040F67201AFF22C3069
:104BD000FBF7CDFE002D18BF042D09D0082D18BFFE
:104BE0000C2D05D040F67301AFF24830FBF7BFFE45
:104BF000A08B20F44060A083A08B06EA0521084327
:104C0000A083BDE8F09F6A88A8882989238C23F0B7
:104C100001032384B4F818C0238C06EA0111084369
:104C20002CF0F30C23F00A0140EA0C00114341F090
:104C3000010120832184E9882046BDE8F05FB5E6C4
:104C4000FFE75C4518BFB4F1804F17D0BC4218BFD6
:104C5000444513D04C4518BF54450FD0A4F18040B3
:104C6000B0F5A0301CBFA4F18040B0F5C05005D015
:104C70004FF4EF61AFF2D430FBF779FE6A882979FF
:104C8000287A238C23F010032384B4F818C0238CD3
:104C90002CF4734C06EA003040EA0C0006EA0121CD
:104CA000084306EA021223F0A001114341F010016B
:104CB00020832184E9882046BDE8F05F2DE65C452D
:104CC00018BFB4F1804F0DD0BC4218BF444509D085
:104CD0004C4518BF544505D040F28271AFF23C40BC
:104CE000FBF745FE95F802C0A9882889228C22F49A
:104CF00080722284A28B238C06EA0010084306EA05
:104D00000C2C22F0F30223F42061104341EA0C0141
:104D100041F48071A0832184ED885C4518BFB4F113
:104D2000804F0DD0BC4218BF444509D04C4518BF38
:104D3000544505D040F65A01AFF29840FBF717FEF4
:104D4000002D18BF042D09D0082D18BF0C2D05D03B
:104D500040F65B01AFF2B440FBF709FEA08B20F0F8
:104D60000C00A083A08B28434AE7002101804180EA
:104D700001228280C180018170472DE9F041044603
:104D80000127A0F180400D464FF00008B0F58030BB
:104D900018BFB4F1804F23D0A4F18040B0F58060FB
:104DA0001CBFA4F18040B0F5006019D0A4F1804090
:104DB000B0F540601CBFA4F18040B0F582300FD048
:104DC000A4F18040B0F5A0301CBFA4F18040B0F544
:104DD000C05005D040F2B471AFF23850FBF7C7FDB8
:104DE0006888002808BF4FF00208A988012908BF79
:104DF00002272A884FF6FF76002A41D02A7A238C90
:104E000023F010032384238BB4F820C023F47343CE
:104E100006EA02321A4306EA0121114306EA0010AB
:104E20002CF0A002104340F0100021832084E98878
:104E30002046FFF772FD2989208C20F00100208494
:104E4000228B208C06EA011122F0F302394320F074
:104E50000A00114340EA080040F00100218309E004
:104E6000000001400004004000080040000C004029
:104E7000000401402084E9882046BDE8F04195E522
:104E80002A89238C23F001032384238BB4F820C0C8
:104E900006EA0212114323F0F30319432CF00A022D
:104EA000104340F0010021832084E9882046FFF769
:104EB0007DFD287A218C21F010012184218B228C08
:104EC00021F4734106EA0030084306EA072108434B
:104ED00006EA081322F0A001194341F010012083D3
:104EE0002184E9882046BDE8F04116E510B5044666
:104EF000A0F18040B0F5803018BFB4F1804F37D0BA
:104F0000A4F18040B0F580601CBFA4F18040B0F5F2
:104F100000602DD0A4F18040B0F540601CBFA4F12A
:104F20008040B0F5823023D0A4F18040B0F5A030AD
:104F30001CBFA4F18040B0F5A23019D0A4F180408C
:104F4000B0F5A4301CBFA4F18040B0F5C0500FD024
:104F5000A4F18040B0F5E0501CBFA4F18040B0F552
:104F6000005005D040F2EA71AFF2C860FBF7FFFCD9
:104F7000606B10BD10B50446A0F18040B0F58030E4
:104F800018BFB4F1804F23D0A4F18040B0F5806009
:104F90001CBFA4F18040B0F5006019D0A4F180409E
:104FA000B0F540601CBFA4F18040B0F582300FD056
:104FB000A4F18040B0F5A0301CBFA4F18040B0F552
:104FC000C05005D040F2F971AFF22870FBF7CFFC6A
:104FD000A06B10BD10B50446A0F18040B0F5803044
:104FE00018BFB4F1804F19D0A4F18040B0F58060B3
:104FF0001CBFA4F18040B0F500600FD0A4F1804048
:10500000B0F540601CBFA4F18040B0F5823005D0FF
:1050100040F60701AFF27470FBF7A9FCE06B10BD1E
:1050200010B50446A0F18040B0F5803018BFB4F14F
:10503000804F19D0A4F18040B0F580601CBFA4F16E
:105040008040B0F500600FD0A4F18040B0F5406022
:105050001CBFA4F18040B0F5823005D040F61501A8
:10506000AFF2C070FBF783FC206C10BD70B5054635
:10507000A0F180400C46B0F580301CBFA5F1804007
:10508000B0F5823005D040F6A701AFF2E870FBF72B
:105090006EFC2088B0F5006F18BF002805D040F6E0
:1050A000A801AFF60000FBF762FC6088B0F5806FE6
:1050B00018BF002805D040F6A901AFF61800FBF78D
:1050C00056FCA088002818BFB0F5807F0BD0B0F543
:1050D000007F18BFB0F5407F05D040F6AA01AFF6BB
:1050E0003C00FBF744FC2089B0F5805F18BF002826
:1050F00005D040F6AB01AFF65400FBF738FC6089F1
:10510000002818BFB0F5005F05D040F6AC01AFF63F
:105110006C00FBF72CFCA089B0F5804F18BF00286D
:1051200005D040F6AD01AFF68400FBF720FC2088E7
:105130006188E2880843A188114308432189084314
:1051400061890843A1890843A5F8440070BD002186
:10515000018041808180C1800181418181817047CE
:1051600070B50446A0F180400D46B0F580301CBFFC
:10517000A4F18040B0F5823005D040F6D301AFF6FF
:10518000DC00FBF7F4FB002D04BFB4F84400C0F3CF
:105190000E000BD0012D05D040F6D401AFF6FC0077
:1051A000FBF7E5FBB4F8440040F40040A4F84400E9
:1051B00070BD70B50446A0F180400D46B0F580305A
:1051C0001CBFA4F18040B0F5823005D040F6EC0160
:1051D000AFF63010FBF7CBFB002D04BFA08820F00A
:1051E00004000AD0012D05D040F6ED01AFF64C10B9
:1051F000FBF7BDFBA08840F00400A08070BD70B537
:105200000446A0F180400D46B0F580301CBFA4F1EB
:105210008040B0F5823005D040F60511AFF67C1025
:10522000FBF7A5FB002D04BFA08820F001000AD0E9
:10523000012D05D040F60611AFF69810FBF797FB4D
:10524000A08840F00100A08070BD70B50446A0F1B8
:10525000804016460D46B0F5803018BFB4F1804F3F
:1052600041D0A4F18040B0F580601CBFA4F1804023
:10527000B0F5006037D0A4F18040B0F540601CBFAD
:10528000A4F18040B0F580502DD0A4F18040B0F55D
:10529000A0501CBFA4F18040B0F5823023D0A4F10F
:1052A0008040B0F5A0301CBFA4F18040B0F5A23022
:1052B00019D0A4F18040B0F5A4301CBFA4F1804007
:1052C000B0F5C0500FD0A4F18040B0F5E0501CBF45
:1052D000A4F18040B0F5005005D040F63E11AFF685
:1052E0003C20FBF744FB15F47F4F00D12DB940F66D
:1052F0003F11AFF65020FBF73AFB002E04BFA08908
:10530000A84309D0012E05D04FF41461AFF66C20EC
:10531000FBF72DFBA0892843A08170BD70B5044622
:10532000A0F180400D46B0F5803018BFB4F1804F39
:1053300041D0A4F18040B0F580601CBFA4F1804052
:10534000B0F5006037D0A4F18040B0F540601CBFDC
:10535000A4F18040B0F580502DD0A4F18040B0F58C
:10536000A0501CBFA4F18040B0F5823023D0A4F13E
:105370008040B0F5A0301CBFA4F18040B0F5A23051
:1053800019D0A4F18040B0F5A4301CBFA4F1804036
:10539000B0F5C0500FD0A4F18040B0F5E0501CBF74
:1053A000A4F18040B0F5005005D040F66411AFF68E
:1053B0000C30FBF7DCFA15F47F4F00D12DB940F625
:1053C0006511AFF62030FBF7D2FAA58270BD70B53B
:1053D00004460026A0F180400D46B0F5803018BF8D
:1053E000B4F1804F41D0A4F18040B0F580601CBF83
:1053F000A4F18040B0F5006037D0A4F18040B0F552
:1054000040601CBFA4F18040B0F580502DD0A4F1C5
:105410008040B0F5A0501CBFA4F18040B0F58230B0
:1054200023D0A4F18040B0F5A0301CBFA4F180408F
:10543000B0F5A23019D0A4F18040B0F5A4301CBF63
:10544000A4F18040B0F5C0500FD0A4F18040B0F579
:10545000E0501CBFA4F18040B0F5005005D040F6EC
:105460008611AFF6C030FBF782FA012D18BF022D6E
:105470001DD0042D18BF082D19D0102D18BF202DB8
:1054800015D0402D18BF802D11D0B5F5007F18BF65
:10549000B5F5806F0BD0B5F5006F18BFB5F5805F1F
:1054A00005D040F68711AFF60440FBF760FA208A7A
:1054B000284218BF0126304670BD70B50446A0F1E1
:1054C00080400D46B0F5803018BFB4F1804F41D018
:1054D000A4F18040B0F580601CBFA4F18040B0F51D
:1054E000006037D0A4F18040B0F540601CBFA4F14B
:1054F0008040B0F580502DD0A4F18040B0F5A05090
:105500001CBFA4F18040B0F5823023D0A4F18040CC
:10551000B0F5A0301CBFA4F18040B0F5A23019D086
:10552000A4F18040B0F5A4301CBFA4F18040B0F5D8
:10553000C0500FD0A4F18040B0F5E0501CBFA4F1E2
:105540008040B0F5005005D040F6AF11AFF6AC404A
:10555000FBF70DFAE843208270BD70B504460026C3
:10556000A0F180400D46B0F5803018BFB4F1804FF7
:1055700041D0A4F18040B0F580601CBFA4F1804010
:10558000B0F5006037D0A4F18040B0F540601CBF9A
:10559000A4F18040B0F580502DD0A4F18040B0F54A
:1055A000A0501CBFA4F18040B0F5823023D0A4F1FC
:1055B0008040B0F5A0301CBFA4F18040B0F5A2300F
:1055C00019D0A4F18040B0F5A4301CBFA4F18040F4
:1055D000B0F5C0500FD0A4F18040B0F5E0501CBF32
:1055E000A4F18040B0F5005005D040F6CD11AFF6E3
:1055F0004C50FBF7BCF9012D18BF022D11D0042D22
:1056000018BF082D0DD0102D18BF202D09D0402D0A
:1056100018BF802D05D040F6CE11AFF67850FBF7BD
:10562000A6F9208AA189284201EA05011CBF0029A8
:105630000126304670BD70B50446A0F180400D468D
:10564000B0F5803018BFB4F1804F41D0A4F1804054
:10565000B0F580601CBFA4F18040B0F5006037D089
:10566000A4F18040B0F540601CBFA4F18040B0F5CB
:1056700080502DD0A4F18040B0F5A0501CBFA4F103
:105680008040B0F5823023D0A4F18040B0F5A03046
:105690001CBFA4F18040B0F5A23019D0A4F1804025
:1056A000B0F5A4301CBFA4F18040B0F5C0500FD0BD
:1056B000A4F18040B0F5E0501CBFA4F18040B0F5EB
:1056C000005005D040F6F411AFF62860FBF74FF913
:1056D000E843208270BD70B50646A0F180401546B3
:1056E0000C46B0F5803018BFB6F1804F19D0A6F146
:1056F0008040B0F580601CBFA6F18040B0F500602E
:105700000FD0A6F18040B0F540601CBFA6F18040EC
:10571000B0F5823005D040F61921AFF67860FBF77E
:1057200026F9002C18BF012C29D0022C18BF032CFD
:1057300025D0042C18BF052C21D0062C18BF072C0F
:105740001DD0082C18BF092C19D00A2C18BF0B2CFF
:1057500015D00C2C18BF0D2C11D00E2C18BF0F2CEF
:105760000DD0102C18BF112C09D0122C18BF132CDF
:1057700005D040F61A21AFF6D460FBF7F8F8002DFB
:1057800018BFB5F5807F35D0B5F5007F18BFB5F5EA
:10579000407F2FD0B5F5806F18BFB5F5A06F29D029
:1057A000B5F5C06F18BFB5F5E06F23D0B5F5006F44
:1057B00018BFB5F5106F1DD0B5F5206F18BFB5F542
:1057C000306F17D0B5F5406F18BFB5F5506F11D0D9
:1057D000B5F5606F18BFB5F5706F0BD0B5F5805F8C
:1057E00018BFB5F5885F05D040F61B21AFF64C70A9
:1057F000FBF7BDF844EA0500A6F8480070BD70B597
:105800000446A0F1804016460D46B0F5803018BF22
:10581000B4F1804F23D0A4F18040B0F580601CBF6C
:10582000A4F18040B0F5006019D0A4F18040B0F53B
:1058300040601CBFA4F18040B0F580500FD0A4F1AF
:105840008040B0F5A0501CBFA4F18040B0F582307C
:1058500005D040F63421AFF6B470FBF788F835F484
:10586000FE4000D12DB940F63521AFF6C870FBF7E8
:105870007EF8002E04BFA089A84309D0012E05D0D0
:1058800040F63621AFF6E470FBF771F8A0892843A3
:10589000A08170BD70B50446A0F180400D46B0F502
:1058A000803018BFB4F1804F18D0A4F18040B0F51B
:1058B00080601CBFA4F18040B0F500600ED0A4F160
:1058C0008040B0F540601CBFA4F18040B0F582304C
:1058D00004D040F64E21FE48FBF749F8002D04BFE6
:1058E000A08820F0080009D0012D04D040F64F21F7
:1058F000F748FBF73CF8A08840F00800A08070BD96
:1059000010B50446A0F18040B0F5803018BFB4F166
:10591000804F22D0A4F18040B0F580601CBFA4F17C
:105920008040B0F5006018D0A4F18040B0F5406030
:105930001CBFA4F18040B0F582300ED0A4F18040AD
:10594000B0F5A0301CBFA4F18040B0F5C05004D029
:1059500040F67521DE48FBF70AF8208920F00700A1
:10596000208110BD70B50446A0F180400D46B0F511
:10597000803018BFB4F1804F36D0A4F18040B0F52C
:1059800080601CBFA4F18040B0F500602CD0A4F171
:105990008040B0F540601CBFA4F18040B0F582307B
:1059A00022D0A4F18040B0F5A0301CBFA4F180400B
:1059B000B0F5A23018D0A4F18040B0F5A4301CBFDF
:1059C000A4F18040B0F5C0500ED0A4F18040B0F5F5
:1059D000E0501CBFA4F18040B0F5005004D040F668
:1059E0004531BB48FAF7C3FF002D18BF102D10D06A
:1059F000202D18BF302D0CD0402D18BF502D08D0B1
:105A0000602D18BF702D04D040F64631B048FAF72B
:105A1000AEFF208920F070002843208170BD70B552
:105A20000446A0F180400D46B0F5803018BFB4F1B7
:105A3000804F22D0A4F18040B0F580601CBFA4F15B
:105A40008040B0F5006018D0A4F18040B0F540600F
:105A50001CBFA4F18040B0F582300ED0A4F180408C
:105A6000B0F5A0301CBFA4F18040B0F5C05004D008
:105A700040F68A219648FAF77AFF002D18BF102DBC
:105A800008D0202D18BF302D04D040F68B2190482F
:105A9000FAF76DFF29462046FFF764FF208940F0A2
:105AA0000700208170BD2DE9F0410446A0F180403F
:105AB0001E4615460F46B0F5803018BFB4F1804F32
:105AC00036D0A4F18040B0F580601CBFA4F18040C6
:105AD000B0F500602CD0A4F18040B0F540601CBF50
