:020000040800F2
:100000009819002069A40008DD150008DF15000814
:10001000E1150008E3150008E515000800000000E0
:10002000000000000000000000000000E7150008CC
:10003000E915000800000000EB150008ED150008A8
:100040008DA400088DA400088DA400088DA40008CC
:100050008DA400088DA40008AB0A00088DA4000838
:100060008DA400088DA400088DA400088DA40008AC
:100070008DA400088DA400088DA400088DA400089C
:100080008DA400088DA400088DA400088DA400088C
:100090008DA400088DA400088DA400088DA400087C
:1000A0008DA400088DA400088DA400088DA400086C
:1000B000F115000819A700088DA400088DA40008F8
:1000C0008DA400088DA400088DA400088DA400084C
:1000D0008DA400086DB600089DB8000833B4000870
:1000E0008DA400088DA400088DA400088DA400082C
:1000F0008DA400088DA400088DA400088DA400081C
:100100008DA400088DA40008E5B100088DA40008A6
:100110008DA400088DA400088DA400088DA40008FB
:100120008DA400088DA400088DA400088DA40008EB
:100130008DA400088DA400088DA400088DA40008DB
:100140008DA400088DA400088DA40008F5150008F2
:100150008DA400088DA400088DA400088DA40008BB
:100160008DA400088DA400088DA400088DA40008AB
:100170008DA400088DA400088DA400088DA400089B
:100180008DA400088DA4000800F002F800F083F8A8
:100190000AA090E8000C82448344AAF10107DA45E2
:1001A00001D100F078F8AFF2090EBAE80F0013F0B1
:1001B000010F18BFFB1A43F001031847C4E8000001
:1001C000E4E800000A444FF0000C10F8013B13F083
:1001D000070408BF10F8014B1D1108BF10F8015BA0
:1001E000641E05D010F8016B641E01F8016BF9D193
:1001F00013F0080F1EBF10F8014BAD1C0C1B09D1EA
:100200006D1E58BF01F801CBFAD505E014F8016B5B
:1002100001F8016B6D1EF9D59142D6D370470000ED
:100220000023002400250026103A28BF78C1FBD8FF
:10023000520728BF30C148BF0B60704766290DF0D8
:10024000808703681B0A28BF41F0800164290BF0F6
:10025000458678290BF0BC86E4290BF07B86632960
:100260000CF03F8473290CF04484002070471FB5C4
:100270000DF01FFF0CF098FC0400002000210DF091
:100280005BFE401C6060002000210DF03FFEE0603E
:100290001FBD10B510BD0CF01DFF1146FFF7E7FFA5
:1002A00000F014FA0CF044FF03B4FFF7F2FF03BCB4
:1002B00001F0CFF810B50446D4E916010DF086FE22
:1002C00000EE100AD4ED150A94F8640030EEC01A5E
:1002D00094ED0C0A002845D1D4ED060A94ED112ABC
:1002E000D4ED031A60EE810A32EE012A41EE820A51
:1002F000C4ED0E0AD4ED122AE06CD4ED0B1A71EEA7
:10030000622A002808BF41EEA20A09D061EEA21AB3
:10031000D4ED142A94ED0F3A42EE831A71EEA00A3E
:10032000C4ED0E0AD4ED101A70EEA11AF8EEC00A50
:10033000C4ED0E1AF4EEE01AF1EE10FAA8BFF8EED2
:10034000C00A0DDAD4ED0D0AF8EEE02AF4EEE21A56
:10035000F1EE10FA94BFF8EEE00A84ED112A01D80C
:10036000C4ED0E0AD4ED0E0AC4ED0F0A84ED121A84
:10037000B8EEC01A80EE810A10BD30B585B00121FB
:10038000022001F023FD42F21070ADF800000024BD
:100390004FF4FA70564D0190ADF80840ADF80240A8
:1003A0008DF80A406946284602F011F81D208DF8A4
:1003B0000C008DF80D4001218DF80E108DF80F10F6
:1003C00003A807F09CF901221146284604F021FCFD
:1003D0000121284602F062FC05B030BDC16CD0EDB1
:1003E000180A90ED0A0A002904BF20EE200A80EDC9
:1003F0000B0A13D0B7EE001AC1EE201A01EE101A44
:10040000B8EEC12A80EE021A71EE211A80EE212A7E
:1004100081EE210A80ED0B2A80ED140A90ED020A8C
:1004200080EE201A80ED031A7047324900239FEDB9
:10043000320A0B7047F6FF71016280ED0A0A4A42E8
:100440004262016080ED020A4260016180ED060AAD
:100450004261016380ED0E0A426380ED100A80ED77
:10046000120A80ED110AC36480ED140A80ED150AAA
:1004700080F8643080ED180A70470FB4A1202DE990
:10048000F04F8BB00BF0C4F82C980DF071FD804646
:10049000894622980DF06CFD83460F461E980DF09C
:1004A00067FD06468A461A980DF062FD04460D4621
:1004B00016980DF05DFD41EC100B9DF8B400CDF8E1
:1004C0002080CDE90990279853EC102BCDE90570D9
:1004D0008DE8700C09A00BF0A5FCA1200BF098F89A
:1004E0000BB00A20BDE8F00F5DF814EB0BF090B8EC
:1004F0000004004000000020000000004B69203A8A
:1005000025660A4B70203A25660A4B64203A256618
:100510000A55203A25660A4E203A25640A46726535
:1005200071203A25660A4D6F646F203A25640A00EF
:10053000FE480BF077BC01B4FD48009901610169E8
:100540000029FCD101B0704738B5044601F0B0FA7B
:1005500060684FF47A71B0FBF1F0B0F1807F0DD29A
:1005600020F07F40411E4FF0E0204161F14AF02130
:1005700082F8141D00218161072101610AF0ACFF9E
:10058000EB4C207800281CBFE8480BF04BFCA12066
:100590000BF03EF8E8A00BF045FCA1200BF038F87A
:1005A0000A200BF035F8A1200BF032F8E8A00BF090
:1005B00039FCA1200BF02CF80A200BF029F8E948AF
:1005C0000AF094FDA1200BF023F8E7A00BF02AFC21
:1005D000A1200BF01DF80A200BF01AF8A1200BF057
:1005E00017F8E4A00BF01EFCA1200BF011F80A2074
:1005F0000BF00EF8A1200BF00BF8E4A00BF012FCAE
:10060000A1200BF005F80A200BF002F8A1200AF057
:10061000FFFFE1A00BF006FCA1200AF0F9FF0A2081
:100620000AF0F6FFA1200AF0F3FFE2A00BF0FAFBBC
:10063000A1200AF0EDFF0A200AF0EAFFA1200AF04B
:10064000E7FFE2A00BF0EEFBA1200AF0E1FF0A2099
:100650000AF0DEFFE848EA4A0090E84B0121A2F2E6
:10066000AC5007F0E7F9E649A1F2AC5007F009FBFE
:1006700064200090206120690028FCD1A1200AF0AC
:10068000C7FFE0A00BF0CEFBA1200AF0C1FF0A20BB
:100690000AF0BEFFA1200AF0BBFFDCA00BF0C2FBFA
:1006A000A1200AF0B5FF0A200AF0B2FFE4200AF008
:1006B000AFFFDBA00BF0B6FBE4200AF0A9FF0A2095
:1006C0000AF0A6FFBDE838400AF08BBD984C9EB0FA
:1006D0000126667000256F46CDF864D000F0FFFB60
:1006E000D348006910F0010F18BF267000F00EFC0F
:1006F000DFF84093DFF840A3DFF840834FF0000BB2
:10070000607888B11AA8FFF71FFFA1200AF080FFC8
:100710002321CBA00BF086FBA1200AF079FF0A2051
:100720000AF076FF84F801B0606868B128466D1C55
:10073000B0F5704F08D3B249A1F2AC5007F0A1FA5E
:1007400088480AF0E4FC0025D9F80000DAF8001027
:100750008842D5D06846199900F0BFFC0600CFD07A
:10076000A1200AF055FFB7A00BF05CFBA1200AF016
:100770004FFF0A200AF04CFF012E02D0022E2FD08C
:100780003AE019A800F038FD00281CDB00EB40100F
:1007900008EB80061998D6F88010884728B169467A
:1007A00007F132000BF075FE26E0A1200AF030FFC1
:1007B000711DA5A00BF036FBA1200AF029FF0A202D
:1007C0000AF026FF18E0A1200AF022FF9FA00BF0FC
:1007D00029FBA1200AF01CFF0A200AF019FF0BE0F8
:1007E000A1200AF015FF9EA00BF01CFBA1200AF02F
:1007F0000FFF0A200AF00CFF23200BF021F81997B5
:100800007EE710B5044601210AF0FBFC58B1A12097
:100810000AF0FEFE97A00BF005FBA1200AF0F8FEFF
:100820000A200AF0F5FE022120460AF0EAFC58B13F
:10083000A1200AF0EDFE90A00BF0F4FAA1200AF03E
:10084000E7FE0A200AF0E4FE042120460AF0D9FC63
:1008500058B1A1200AF0DCFE88A00BF0E3FAA12039
:100860000AF0D6FE0A200AF0D3FE082120460AF03C
:10087000C8FC58B1A1200AF0CBFE81A00BF0D2FA3F
:10088000A1200AF0C5FE0A200AF0C2FE102120466F
:100890000AF0B7FC58B1A1200AF0BAFE79A00BF01B
:1008A000C1FAA1200AF0B4FE0A200AF0B1FE20210C
:1008B00020460AF0A6FC58B1A1200AF0A9FE72A0B9
:1008C0000BF0B0FAA1200AF0A3FE0A200AF0A0FE65
:1008D000402120460AF095FC58B1A1200AF098FE6C
:1008E0006AA00BF09FFAA1200AF092FE0A200AF0FB
:1008F0008FFE802120460AF084FC58B1A1200AF026
:1009000087FE63A00BF08EFAA1200AF081FE0A2078
:100910000AF07EFE4FF4807120460AF072FC002837
:1009200008BF10BDA1200AF073FEB3E0ECE8000898
:10093000040000200FE000E053797374656D2049D6
:100940006E697469616C697A696E672E2E2E00007B
:10095000496E697469616C697A696E672043617276
:1009600000000000800700204361722052756E6E07
:10097000696E6700496E697469616C697A696E674E
:100980002053656E736F7273000000005353656EE1
:1009900073696E6700000000496E697469616C6973
:1009A0007A696E6720576972656C65737320436F4F
:1009B0006D7300004E6F206F6E6520746F20746140
:1009C0006C6B20746F2E2E2E00000000496E69742F
:1009D00069616C697A696E6720416476616E6365EE
:1009E0006420506F736974696F6E20436F6E747208
:1009F0006F6C20556E697400000100206C000020AF
:100A0000FC060020446F6E6521000000416C6C20E4
:100A1000736563746F7273206E6F6D696E616C00C5
:100A200053797374656D205265616479000000002C
:100A300000000240E4000020E800002054E100082B
:100A4000256300000A00000025730000556E6B6EE0
:100A50006F776E20436F6D6D616E64210000000042
:100A6000496E76616C696420636861726163746564
:100A70007221000046522100494C21004D522100B4
:100A80004D4C210042522100424C2100554421008E
:100A90005253210047A00BF0C5F9A1200AF0B8FD80
:100AA000BDE810400A200AF0B3BD10B5012006F0E1
:100AB00099F8002808BF10BD012006F0E2F83E4872
:100AC00000219FED3E0A4368C3E902114368C3E970
:100AD0000411406880ED060AE4200AF099FD38A070
:100AE0000BF0A0F9E4200AF093FD0A200AF090FD33
:100AF00035490120487010BD344810B500683449AC
:100B00000968884208BF10BD0AF055FE2E499FEDC6
:100B1000310A2B2804BFD1ED020A30EE800A15D02D
:100B20002D2804BFD1ED020A30EEC00A0ED0752880
:100B300004BFD1ED030A30EE800A0AD0642804BF56
:100B4000D1ED030A30EEC00A03D004E081ED020AC1
:100B500001E081ED030AC868B0F17E5F0CDCC86873
:100B600010F1814F0DD88868B0F17E5F0EDC886887
:100B700010F1814F0FD810BDB7EE000A81ED030AC6
:100B8000EDE7BFEE000A81ED030AECE7B7EE000ADD
:100B900081ED020AEBE7BFEE000A81ED020A10BD0B
:100BA000FEE709480169002908BF70470169491E2D
:100BB000016170474C532100800700200000B442BF
:100BC000535420300000000004000020F8000020F2
:100BD000FC000020CDCCCC3D70B5012184B008468E
:100BE00001F097F84FF4D850032500908DF8055088
:100BF00002208DF8040000208DF80600A44E8DF828
:100C000007006946304606F008F90A2208213046F6
:100C100006F0C8FC0A220921304606F0C3FC0A226D
:100C20000B21304606F0BEFC0A220C21304606F0AD
:100C3000B9FC012430158DF8064000908DF807406E
:100C40008DF805506946304606F0E7F80A2211464D
:100C5000304606F0A7FC0121880301F0D6F80121F7
:100C6000802001F075F80021E00606F094FD4FF4B5
:100C7000A06006F029FD1C208DF808008DF80940C1
:100C80008DF80A408DF80B4002A806F038FD0121CE
:100C9000084601F09BF804B070BD08B54FF4C06081
:100CA00006F012FD43208DF8000001208DF80100B0
:100CB00003218DF802108DF80300684606F01FFD31
:100CC00008BD744800294FF0010101D006F04ABB6D
:100CD00006F00ABB10B5704C84B0206000214FF0C4
:100CE000804001F0DBFF01210022880703F091FF23
:100CF00042F6DF6001900520ADF800000020ADF85D
:100D00000800ADF8020069464FF0804001F05FFB3B
:100D10000121880704F073F90121880701F0A7FE7B
:100D200001221146900703F074FF0121880701F0AA
:100D3000B5FF20680028FCD104B00021BDE81040B8
:100D40004FF0804001F0AABF30B585B001210420EA
:100D500000F0DFFF032101208DF805108DF804005D
:100D600000254C4C00908DF806508DF807506946D0
:100D7000204606F052F80121204606F0B5FA464C0E
:100D8000C82020600021C00601F088FF0121002258
:100D9000880703F03EFF42F6DF6003900520ADF8C0
:100DA0000800ADF81050ADF80A5002A9800701F014
:100DB0000EFB0121880704F022F90121880701F0C8
:100DC00056FE01221146900703F023FF01218807F8
:100DD00001F064FF20680028FCD100214FF0804022
:100DE00001F05CFF05B030BD10B52B4C84B0206025
:100DF00000214FF0804001F051FF012100228807BF
:100E000003F007FF0B2001900520ADF80000002043
:100E1000ADF80800ADF8020069464FF0804001F0DF
:100E2000D6FA0121880704F0EAF80121880701F0C9
:100E30001EFE01221146900703F0EBFE01218807F8
:100E400001F02CFF20680028FCD104B00021BDE88F
:100E500010404FF0804001F021BF10B501218807FC
:100E600004F05FF8002808BF10BD0121880704F0D6
:100E7000C6F80948016819B10168491E016010BD32
:100E8000BDE8104000214FF0804001F007BF000096
:100E900000000240000802401800002010B50021A8
:100EA00084B0084606F002FD00208DF804000820FA
:100EB00001248DF8050000948DF80640684605F081
:100EC000C2FD06208DF808008DF809408DF80A4013
:100ED0008DF80B4002A806F012FC04B010BD00B55E
:100EE000012183B0084600F014FF0121880300F0BF
:100EF0008CFF00208DF804008DF807000120009081
:100F000069461C4805F089FF03B000BD30B583B0C9
:100F100000F032F80121084600F0FBFE01218803B1
:100F200000F073FF00258DF8045001248DF8075060
:100F300069461048009405F070FF0021084606F04D
:100F4000B5FC8DF8045008208DF8050000948DF84C
:100F50000640684605F077FD06208DF808008DF8FC
:100F600009408DF80A408DF80B4002A806F0C7FB37
:100F700003B030BD0000024000B583B0012108205D
:100F800000F0C7FE4FF47040009001208DF804007F
:100F900000208DF806008DF8070003208DF805006D
:100FA0006946024805F039FF03B000BD000C02405D
:100FB00010B5F7480AF0C4F8012010BD10B5F44888
:100FC0000AF0F5F8012010BD00B585B002AB6A4605
:100FD000F0A10BF0EDF80228BEBF002005B000BD67
:100FE0009DE80F0009F0B0FC05B0012000BD00B580
:100FF00085B002AB6A46ECA10BF0DAF80228BEBF5E
:10100000002005B000BD9DE80F0009F08BFD05B084
:10101000012000BD08B56A46E8A10BF0C9F8002818
:10102000CCBF0120002008BD10B50AF0DAF801207D
:1010300010BD2DE9F04107460C460D1ED8BFBDE896
:10104000F0810126012DACBF4FF00008BDE8F08112
:10105000DC4908200BF01BFA07F80480641E761C9C
:10106000B542F5DABDE8F081A0F16101192985BF2B
:101070004138192801200020704730380A282CBF39
:101080000020012070470021CF4A137843B1535C00
:10109000834201D101207047491C535C002BF6D1DB
:1010A00000207047A0F130010A2924BFA0F161019E
:1010B000192984BFA0F14101192906D9C24900228A
:1010C0000B7843B18B5C834201D101207047521CE5
:1010D0008B5C002BF6D1002070472DE9F047894644
:1010E00005464FF000080AF04FFAB84E0027346862
:1010F000312C09DB082807D02F55B5A00AF092FE45
:1011000023200AF085FA67E0A0F130010A2920D3F4
:10111000A0F16102192A84BFA0F14101192918D94F
:10112000A94A0021034692F800C0BCF1000F09D083
:1011300012F801C09C450CD0491C12F801C0BCF14A
:10114000000FF5D14FF002081946A7A00AF06AFE79
:101150002DE0082810D01B2817D0242829D00D28CE
:1011600018BF0A2843D028550AF052FA3068401CAC
:1011700030604046BDE8F087002CFADD08200AF018
:1011800047FA30682F54401EF2E7AA46251E0EDDAE
:101190004FF00109012D0ADB8A4908200BF077F98D
:1011A0000AF80470641E09F101094D45F4DA37604C
:1011B000DFE795F83200A0B1AA46251E0CDD012616
:1011C000012D09DB7F4908200BF061F90AF8047052
:1011D000641E761CB542F5DA494685A00AF022FE67
:1011E000C7E784A00AF01EFE4FF00308DFE72F5583
:1011F0004FF001083760DAE7F0B5074683B000200A
:101200006A463D6804E01154401C6D1C052804DA50
:101210002978202918BF0029F5D10021002818BFFE
:10122000115400247B4E307878B100BF04EB441099
:1012300006EB800168460BF051F960B1641C04EBC9
:10124000441016F820000028F0D1681E386003B062
:101250004FF0FF30F0BD03B02046F0BD0268002320
:1012600092F800C0BCF1300F18BFBCF1310F04D0B0
:10127000BCF1200F1CBF002070470CF0FF0C521C6B
:10128000ACF1300C1CF0FF0C14BFBCF1010F0CEBE7
:10129000430392F800C0BCF1300F1CBFBCF1310F0A
:1012A000BCF1200FE9D00B6002600120704770B5DF
:1012B0000468054614F8010B202804D0002808BF54
:1012C00070BD2E28F6D101225FF0000314F8010B47
:1012D000A0F1300CBCF10A0F09D348281ED04228D7
:1012E0000DD0442804D020780028EFD170BD641EB2
:1012F0000A4649A120460AF05BFFC2B225E094F8F5
:1013000000C00020BCF1300F18BFBCF1310F0CD071
:10131000BCF1200F18BF1A4607D016E00A463FA1BD
:1013200020460AF045FFC2B20FE014F8013B303B03
:1013300013F0FF0314BF012B03EB40002378302B85
:101340001CBF312B202BF0D008602078202818BF3C
:10135000002803D02E2818BF641CF6D110462C603C
:1013600070BD70B52B4C0025607978B105EB451048
:1013700004EB8000411D2AA00AF054FD6D1C05EB12
:10138000451004EB800040790028EFD1012070BDAA
:10139000800700204150205820256C6C6420592083
:1013A000256C6C6400000000534350205820256CCD
:1013B0006C64205920256C6C64000000534D20257E
:1013C000640000002000002048E100081C0000200C
:1013D0000A5741524E494E47212062756666657232
:1013E0002066756C6C210A00307825780A000000B0
:1013F000257300000A5479706520612076616C695C
:101400006420636F6D6D616E642066697273742110
:101410000000000054E10008256C7500256C5800A0
:1014200025730A0010B502A00AF0FCFC012010BDD3
:1014300056657273E36F20302E310A00C0B20AF095
:10144000E7B80AF0A1B8C0B20AF0E2B84FF0FF3036
:101450007047FEE7534882B0016841F470010160B3
:101460005148016841F001010160504900230B60BF
:10147000026822F4102222F08072026000F1040C53
:101480004B4ACCF80020026822F4802202600A1D38
:10149000136001930093026842F480320260026894
:1014A00002F400320092019A521C0192009A1AB979
:1014B000019AB2F5A06FF2D1026812F4003F08BFA2
:1014C000009331D0012200923A4A136843F08053CE
:1014D0001360394A136843F4804313600A680A6052
:1014E0000A6842F400420A600A6842F4A0520A60A4
:1014F000324ACCF80020026842F080720260026832
:1015000012F0007FFBD02E4A40F2056010600868A0
:1015100020F003000860086840F0020008600868D6
:1015200000F00C000828FAD126494FF0006008604E
:1015300002B07047DFF874C030B4DCF80000224B12
:1015400010F00C01214806D0214C042908BF04608A
:1015500002D008290CD00360DCF800101D4AC1F34A
:101560000311515C026822FA01F1016030BC70473E
:1015700019490A68C2F380550A68002D02F03F023B
:1015800014BFB4FBF2F2B3FBF2F20B680968C3F3C9
:1015900088135A43C1F30141491C4900B2FBF1F1E0
:1015A0000160D9E788ED00E00038024008380240C9
:1015B00010300024403802400070004008544007BA
:1015C000003C024008ED00E000B4C4042400002008
:1015D00000127A0028000020043802407047FEE71D
:1015E000FEE7FEE7FEE7704770477047FFF7D9BA9E
:1015F000FFF733BC014808F0BCBC000050010020DC
:10160000FC48016841F001010160FB4A00211160C2
:10161000026822F4102222F080720260031DF74A51
:101620001A60026822F480220260F5480160704767
:1016300010B504001CBF012C052C03D0F121F1A032
:10164000FFF7AEFAFE4800210170047010BD70B5BE
:1016500000250446212818BF312C19D0392C18BF79
:10166000412C15D0612C18BF792C11D07A2C18BFC1
:101670007B2C0DD07C2C18BF7D2C09D07E2C1CBF60
:101680007F2C3B2C04D040F29D61EEA0FFF788FA3E
:101690006009012804BFD748006804D002280CBFA5
:1016A000F748F848006804F01F01012202FA01F12E
:1016B000014218BF0125284670BD81B00020CD49E8
:1016C000009000200A6812F4003F18BF0120009A21
:1016D000521C0092B2F5A06F01D00028F1D008682A
:1016E00010F4003018BF012001B0704710B5044657
:1016F0001F2804D940F22911C2A0FFF751FABD48B2
:10170000016821F0F80141EAC401016010BD10B583
:10171000040018BF012C04D04FF4A671B9A0FFF744
:101720003FFAD948046010BD10B504001CBF012C5D
:10173000042C04D040F26511B2A0FFF731FAD04872
:10174000002101700170012C08BF012103D0042C7D
:101750000CBF052110BD017010BD10B5040018BFED
:10176000012C04D040F28D11A6A0FFF719FAC7484A
:10177000046010BD2DE9F0411C46DDF818801646C6
:101780000F46050018BFB5F5800F04D04FF4DC718B
:101790009CA0FFF705FA3F2F04D940F2B91199A098
:1017A000FFF7FEF9A6F1C000F02804D94FF4DD716F
:1017B00094A0FFF7F5F9022C18BF042C08D0062CD2
:1017C00018BF082C04D040F2BB118EA0FFF7E8F937
:1017D000A8F104000B2804D94FF4DE7189A0FFF7AB
:1017E000DFF9AB4A610847EA861002EB0141084382
:1017F000A849284340EA08600860BDE8F08110B5B8
:10180000040018BF012C04D040F2CF117DA0FFF7D7
:10181000C7F99D48046610BD70B50546C0380C4632
:10182000F02804D940F2E91176A0FFF7B9F9A01E1B
:10183000052804D94FF4F57172A0FFF7B1F9964964
:10184000A80140EA0470086070BD10B5040018BF1C
:10185000012C04D04FF4FC716AA0FFF7A1F98A486B
:10186000846610BD10B5040018BF012C04D040F2EE
:101870000A2164A0FFF794F98348C46410BD70B5D1
:101880000C46050018BFB5F5001F0AD0B5F5800F4E
:1018900018BFB5F5C00F04D040F2252159A0FFF7BD
:1018A0007FF9002C18BFB4F1806F0CD0B4F1A06F99
:1018B0001CBFB4F1C06FB4F1E06F04D040F2262138
:1018C00050A0FFF76DF94C48016845EA040221F089
:1018D000EC611143016070BD70B50C46050018BF86
:1018E000B5F1804F0AD0B5F1004F18BFB5F1404FA8
:1018F00004D040F24B2143A0FFF752F9002C18BF4F
:10190000B4F1005F0CD0B4F1205F1CBFB4F1405FB4
:10191000B4F1605F04D04FF413713AA0FFF740F9BF
:101920003548016845EA040221F07841114301601D
:1019300070BD10B504001CBF012C022C04D040F275
:10194000B52130A0FFF72CF92B48016821F00301E5
:101950002143016010BD2848006800F00C0070476A
:1019600010B5040018BF802C11D0902C18BFA02CEB
:101970000DD0B02C18BFC02C09D0D02C1CBFE02C2F
:10198000F02C04D040F2EA211EA0FFF709F91A4812
:10199000016821F0F0012143016010BD10B5040081
:1019A00018BFB4F5805F0CD0B4F5A05F1CBFB4F5D0
:1019B000C05FB4F5E05F04D040F20A3111A0FFF738
:1019C000EFF80D48016821F4E0512143016010BD9A
:1019D00010B5040018BFB4F5805F61D0B4F5A05F06
:1019E0001CBFB4F5C05FB4F5E05F59D040F22931B7
:1019F00004A053E0003802400838024010300024B0
:101A00000C3802402E2E5C4C6962726172696573FB
:101A10005C53544D3332463478785F537464506568
:101A2000726970685F4472697665725C7372635C38
:101A300073746D3332663478785F7263632E63003B
:101A4000023802402E2E5C4C6962726172696573C5
:101A50005C53544D3332463478785F537464506528
:101A6000726970685F4472697665725C7372635CF8
:101A700073746D3332663478785F7263632E6300FB
:101A8000703802407438024000004742800E4742DE
:101A90000000FFFF0438024084380240FFF780F85E
:101AA000F948016821F4604141EAC401016010BDB8
:101AB000F54A30B41168F54B11F00C0106D0F44C26
:101AC000042908BF046002D008291ED003601168F1
:101AD0000F2303EA1111EF4B595CD0F800C02CFA28
:101AE00001F14160D2F800C0072404EA9C2C13F8ED
:101AF0000CC021FA0CFCC0F808C0126804EA52328B
:101B00009A5CD140C16030BC7047E349D1F800C055
:101B1000CCF38055D1F800C0002D0CF03F0C14BF61
:101B2000B4FBFCF3B3FBFCF3D1F800C00968CCF3C1
:101B3000881C03FB0CF3C1F30141491C4900B3FBB2
:101B4000F1F10160C3E710B50446B0F5807F18BF1E
:101B5000B4F5007F7CD0A4F50030B0F540701CBF18
:101B6000A4F54030B0F5407072D0A4F58020B0F5F7
:101B700040701CBFA4F5A020B0F5407068D0A4F55B
:101B8000C020B0F540701CBFA4F5E020B0F5407057
:101B90007FD0A4F50020B0F540701CBFA4F5102044
:101BA000B0F5407075D0A4F52020B0F540701CBF92
:101BB000A4F53020B0F540706BD0A4F54020B0F50E
:101BC00040701CBFA4F55020B0F5407061D0A4F562
:101BD0006020B0F540701CBFA4F57020B0F54070D7
:101BE00057D0A4F58010B0F540701CBFA4F5881044
:101BF000B0F540704DD0A4F59010B0F540701CBF0A
:101C0000A4F59810B0F5407043D0A4F5A010B0F53D
:101C100040701CBFA4F5A810B0F5407039D0A4F5F1
:101C2000B010B0F540701CBFA4F5B810B0F540700E
:101C30002FD0A4F5C010B0F540701CBFA4F5C8109B
:101C4000B0F5407025D0A4F5D010B0F5407000E09C
:101C50001FE01CBFA4F5D810B0F5407019D0A4F552
:101C6000E010B0F540701CBFA4F5E810B0F540706E
:101C70000FD0A4F5F010B0F540701CBFA4F5F8101B
:101C8000B0F5407005D040F2DA31AFF28820FEF7AF
:101C900087FF4FF44070A04309D17B48016824F4CA
:101CA000407221F4F81122F07042114301607B4828
:101CB0000168C4F30B021143016010BD10B50400AC
:101CC00018BF012C05D04FF47E71AFF2C820FEF78B
:101CD00067FF7348046010BD10B5040018BF012CE5
:101CE00005D040F20941AFF2E420FEF759FF6D48FC
:101CF000046010BD10B5040018BF012C05D040F2DF
:101D00001A41AFF20030FEF74BFF6748C0F85C4164
:101D100010BD70B5054665480E46054200D12DB987
:101D200040F24141AFF22430FEF73AFF604C002E02
:101D300004BF2068A84309D0012E05D040F24341DA
:101D4000AFF24030FEF72CFF20682843206070BDC2
:101D500070B505460E4630F0F10000D12DB940F2C5
:101D60006141AFF26030FEF71BFF524C002E04BF02
:101D70002068A84309D0012E05D040F26241AFF29D
:101D80007C30FEF70DFF20682843206070BD70B5E1
:101D900005460E4630F0010000D12DB940F27C41DD
:101DA000AFF2A030FEF7FCFE434C002E04BF2068CB
:101DB000A84309D0012E05D040F27D41AFF2BC30DE
:101DC000FEF7EEFE20682843206070BD70B5054622
:101DD0003A480E46054200D12DB940F2AE41AFF26D
:101DE000DC30FEF7DDFE364C002E04BF2068A84331
:101DF00009D0012E05D040F2AF41AFF2F830FEF726
:101E0000CFFE20682843206070BD70B505462D4880
:101E10000E46054200D12DB940F2D641AFF21C402A
:101E2000FEF7BEFE284C002E04BF2068A84309D050
:101E3000012E05D040F2D741AFF23840FEF7B0FE98
:101E400020682843206070BD70B505461F480E46C7
:101E5000054200D12DB940F2FD41AFF25840FEF7E6
:101E60009FFE1B4C002E04BF2068A84309D0012E02
:101E700005D040F2FE41AFF27440FEF791FE2068BB
:101E80002843206070BD00000838024000B4C4043C
:101E900000127A00380000200438024070380240F6
:101EA0003C0E4742400E47420000474200EE8B8105
:101EB000303802403438024038380240003601C918
:101EC00040380240CCA0F8FF4438024000EE9FDDCD
:101ED0001038024070B505460E4630F0F10000D1D2
:101EE0002DB940F21A51AFF2E440FEF759FEAD4C65
:101EF000002E04BF2068A84309D0012E05D040F26F
:101F00001B51AFF20050FEF74BFE206828432060C3
:101F100070BD70B505460E4630F0010000D12DB9F8
:101F200040F23251AFF22450FEF73AFE9E4C002EA2
:101F300004BF2068A84309D0012E05D040F23351D8
:101F4000AFF24050FEF72CFE20682843206070BDA1
:101F500070B5054695480E46054200D12DB940F2B0
:101F60006151AFF26050FEF71BFE914C002E04BF92
:101F70002068A84309D0012E05D040F26251AFF28B
:101F80007C50FEF70DFE20682843206070BD70B5C0
:101F9000054688480E46054200D12DB940F28551CC
:101FA000AFF2A050FEF7FCFD834C002E04BF20686A
:101FB000A84309D0012E05D040F28651AFF2BC50A3
:101FC000FEF7EEFD20682843206070BD70B5054621
:101FD0007A480E46054200D12DB940F2B351AFF216
:101FE000DC50FEF7DDFD764C002E04BF2068A843D0
:101FF00009D0012E05D040F2B451AFF2F850FEF7EF
:10200000CFFD20682843206070BD70B505460E46A0
:1020100030F0F10000D12DB940F2D351AFF21C6085
:10202000FEF7BEFD674C002E04BF2068A84309D010
:10203000012E05D040F2D451AFF23860FEF7B0FD6A
:1020400020682843206070BD70B505460E4630F00C
:10205000010000D12DB940F2EE51AFF25860FEF709
:102060009FFD594C002E04BF2068A84309D0012EC3
:1020700005D040F2EF51AFF27460FEF791FD206899
:102080002843206070BD70B5054648480E4605429D
:1020900000D12DB94FF4C461AFF29860FEF780FD16
:1020A0004A4C002E04BF2068A84309D0012E05D059
:1020B00040F22161AFF2B460FEF772FD2068284360
:1020C000206070BD70B5054641480E46054200D1FE
:1020D0002DB94FF4C961AFF2D460FEF761FD3D4CFC
:1020E000002E04BF2068A84309D0012E05D040F27D
:1020F0004961AFF2F060FEF753FD2068284320608D
:1021000070BD70B50E46054610F0C00F00D12DB958
:1021100040F27561AFF21470FEF742FD2E4C002EB6
:1021200004BF2078A84309D0012E05D040F2766183
:10213000AFF23070FEF734FD20782843207070BD78
:102140002648016841F080710160704770B5002534
:102150000446012818BF022C0ED0042C18BF082CEE
:102160000AD0102C1CBF802C202C05D040F2DB6143
:10217000AFF27070FEF714FD19480068204218BFD6
:102180000125284670BD10B5044610F0400F00D15F
:102190002CB940F2FA61AFF29470FEF701FD1148DC
:1021A000047010BD1438024018380240003601C9CE
:1021B00020380240CCA6F8FF24380240006E9881F7
:1021C00050380240543802405838024060380240CB
:1021D000CCA0F8FF643802400D3802407438024049
:1021E0000C3802400E3802402DE9F05F0446A0F1A1
:1021F0008040B0F580304DD0B4F1804F40D0DFF852
:10220000F4B3FD4DFD4EFE4FDFF8F883DFF8F89391
:10221000DFF8F8A35C4518BFAC4225D0B44218BF24
:10222000BC4221D0444518BF4C451DD054451CBF6D
:10223000A4F18040B0F5A23016D0A4F18040B0F5F2
:10224000A4301FBFA4F18040B0F5C050A4F180407D
:10225000B0F5E05008D0A4F18040B0F500507DD03A
:10226000C621EBA0FEF79CFC5C451DD1012102209C
:10227000FFF76EFEBDE8F05F00210220FFF768BEA9
:1022800001210846FFF764FEBDE8F05F0021012050
:10229000FFF75EBE01210846FFF779FEBDE8F05F5B
:1022A00000210120FFF773BEAC4209D101210420B7
:1022B000FFF74EFEBDE8F05F00210420FFF748BEA7
:1022C000B44209D101210820FFF742FEBDE8F05FCA
:1022D00000210820FFF73CBEBC4209D1012110209B
:1022E000FFF736FEBDE8F05F00211020FFF730BE9B
:1022F000444509D101212020FFF72AFEBDE8F05F07
:1023000000212020FFF724BE4C4509D101210220E5
:10231000FFF73DFEBDE8F05F00210220FFF737BE6A
:1023200054450AD101210804FFF731FEBDE8F05FF2
:1023300000214FF48030FFF72ABEA4F18040B0F5B1
:10234000A2301AD0B0F5806022D010F598302AD093
:10235000B0F5806031D0B0F5806000E002E018BFD9
:10236000BDE8F09F01210802FFF7F2FDBDE8F05F34
:1023700000214FF48070FFF7EBBD01214804FFF707
:1023800006FEBDE8F05F00214FF40030FFF7FFBD0F
:1023900001218804FFF7FBFDBDE8F05F00214FF449
:1023A0008020FFF7F4BD01214020FFF7D1FDBDE8FB
:1023B000F05F00214020FFF7CBBD01218020FFF717
:1023C000C7FDBDE8F05F00218020FFF7C1BD2DE90A
:1023D000F05F9E4EDFF81C82DFF81C92DFF81CA233
:1023E000894F0D4604464FEAB64BB04218BFB4F1D0
:1023F000804F31D0444518BF4C452DD0544518BFAF
:102400005C4529D0A4F18040B0F5A05018BFBC4273
:1024100022D0A4F18040B0F5A0301CBFA4F18040D0
:10242000B0F5A23018D0A4F18040B0F5A4301CBFA4
:10243000A4F18040B0F5C0500ED0A4F18040B0F5BA
:10244000E0501CBFA4F18040B0F5005004D04FF420
:1024500090716FA0FEF7A4FB6888002818BF1028B1
:1024600009D020281CBF4028602804D040F2211148
:1024700067A0FEF795FB288900281CBFB0F5807F78
:10248000B0F5007F04D04FF4917161A0FEF788FB96
:102490002088B44218BFBC4208D0B4F1804F18BFA6
:1024A000444503D04C4518BF544503D1698820F0FA
:1024B000700008435C451CBFA4F18041B1F5A051F8
:1024C00003D0298920F44070084320806868E062C6
:1024D00028882085B44212BFBC42A87A20860120F9
:1024E000A082BDE8F09F4FF0FF31416000210180E4
:1024F000018141808172704770B50446A0F180402F
:1025000015460E46B0F5803018BFB4F1804F40D06C
:10251000A4F18040B0F580601CBFA4F18040B0F50C
:10252000006036D0A4F18040B0F540601CBFA4F13B
:102530008040B0F580502CD0A4F18040B0F5A05080
:102540001CBFA4F18040B0F5823022D0A4F18040BD
:10255000B0F5A0301CBFA4F18040B0F5A23018D077
:10256000A4F18040B0F5A4301CBFA4F18040B0F5C8
:10257000C0500ED0A4F18040B0F5E0501CBFA4F1D3
:102580008040B0F5005004D04FF4B37120A0FEF7A6
:1025900007FB002D18BF012D04D040F267111CA0CD
:1025A000FEF7FEFA2685A58270BD70B50446A0F13F
:1025B00080400D46B0F5803018BFB4F1804F18D080
:1025C000A4F18040B0F580601CBFA4F18040B0F55C
:1025D00000600ED0A4F18040B0F540601CBFA4F1B3
:1025E0008040B0F5823004D040F27F1108A0FEF7A1
:1025F000D7FA2DE00004004000080040000C004025
:102600000010004000140040000401400040014060
:102610002E2E5C4C69627261726965735C53544D15
:102620003332463478785F537464506572697068E9
:102630005F4472697665725C7372635C73746D3348
:1026400032663478785F74696D2E63000000014053
:10265000002D18BF102D0AD0202D1CBF402D602D3D
:1026600005D04FF4C071AFF25800FEF799FA2088F8
:1026700020F070002843208070BD70B50446A0F1A2
:1026800080400D46B0F5803018BFB4F1804F41D086
:10269000A4F18040B0F580601CBFA4F18040B0F58B
:1026A000006037D0A4F18040B0F540601CBFA4F1B9
:1026B0008040B0F580502DD0A4F18040B0F5A050FE
:1026C0001CBFA4F18040B0F5823023D0A4F180403B
:1026D000B0F5A0301CBFA4F18040B0F5A23019D0F5
:1026E000A4F18040B0F5A4301CBFA4F18040B0F547
:1026F000C0500FD0A4F18040B0F5E0501CBFA4F151
:102700008040B0F5005005D040F29711AFF20010B4
:10271000FEF746FA656270BD70B50446A0F18040D0
:102720000D46B0F5803018BFB4F1804F41D0A4F110
:102730008040B0F580601CBFA4F18040B0F500601F
:1027400037D0A4F18040B0F540601CBFA4F18040B8
:10275000B0F580502DD0A4F18040B0F5A0501CBF42
:10276000A4F18040B0F5823023D0A4F18040B0F5D0
:10277000A0301CBFA4F18040B0F5A23019D0A4F164
:102780008040B0F5A4301CBFA4F18040B0F5C0502B
:102790000FD0A4F18040B0F5E0501CBFA4F1804000
:1027A000B0F5005005D04FF4D371AFF29C10FEF796
:1027B000F7F9E56270BD10B50446A0F18040B0F5B0
:1027C000803018BFB4F1804F41D0A4F18040B0F503
:1027D00080601CBFA4F18040B0F5006037D0A4F148
:1027E0008040B0F540601CBFA4F18040B0F580503F
:1027F0002DD0A4F18040B0F5A0501CBFA4F18040C2
:10280000B0F5823023D0A4F18040B0F5A0301CBFD9
:10281000A4F18040B0F5A23019D0A4F18040B0F509
:10282000A4301CBFA4F18040B0F5C0500FD0A4F17B
:102830008040B0F5E0501CBFA4F18040B0F50050DE
:1028400005D04FF4DA71AFF23820FEF7A9F9606ACB
:1028500010BD10B50446A0F18040B0F5803018BF1F
:10286000B4F1804F41D0A4F18040B0F580601CBF2E
:10287000A4F18040B0F5006037D0A4F18040B0F5FD
:1028800040601CBFA4F18040B0F580502DD0A4F171
:102890008040B0F5A0501CBFA4F18040B0F582305C
:1028A00023D0A4F18040B0F5A0301CBFA4F180403B
:1028B000B0F5A23019D0A4F18040B0F5A4301CBF0F
:1028C000A4F18040B0F5C0500FD0A4F18040B0F525
:1028D000E0501CBFA4F18040B0F5005005D04FF48B
:1028E000E171AFF2D420FEF75BF9208D10BD70B519
:1028F0000446A0F180400D46B0F5803018BFB4F119
:10290000804F41D0A4F18040B0F580601CBFA4F19D
:102910008040B0F5006037D0A4F18040B0F5406051
:102920001CBFA4F18040B0F580502DD0A4F18040B0
:10293000B0F5A0501CBFA4F18040B0F5823023D088
:10294000A4F18040B0F5A0301CBFA4F18040B0F5E8
:10295000A23019D0A4F18040B0F5A4301CBFA4F17E
:102960008040B0F5C0500FD0A4F18040B0F5E050E9
:102970001CBFA4F18040B0F5005005D04FF4E971C0
:10298000AFF27430FEF70CF9002D04BF208820F060
:1029900002000AD0012D05D040F2D311AFF29030E1
:1029A000FEF7FEF8208840F00200208070BD70B570
:1029B0000446A0F180400D46B0F5803018BFB4F158
:1029C000804F41D0A4F18040B0F580601CBFA4F1DD
:1029D0008040B0F5006037D0A4F18040B0F5406091
:1029E0001CBFA4F18040B0F580502DD0A4F18040F0
:1029F000B0F5A0501CBFA4F18040B0F5823023D0C8
:102A0000A4F18040B0F5A0301CBFA4F18040B0F527
:102A1000A23019D0A4F18040B0F5A4301CBFA4F1BD
:102A20008040B0F5C0500FD0A4F18040B0F5E05028
:102A30001CBFA4F18040B0F5005005D040F2EF116A
:102A4000AFF23440FEF7ACF8002D04BF208820F030
:102A500004000AD0012D05D04FF4F871AFF25040B8
:102A6000FEF79EF8208840F00400208070BD70B50D
:102A70000446A0F180400D46B0F5803018BFB4F197
:102A8000804F41D0A4F18040B0F580601CBFA4F11C
:102A90008040B0F5006037D0A4F18040B0F54060D0
:102AA0001CBFA4F18040B0F580502DD0A4F180402F
:102AB000B0F5A0501CBFA4F18040B0F5823023D007
:102AC000A4F18040B0F5A0301CBFA4F18040B0F567
:102AD000A23019D0A4F18040B0F5A4301CBFA4F1FD
:102AE0008040B0F5C0500FD0A4F18040B0F5E05068
:102AF0001CBFA4F18040B0F5005005D04FF4027126
:102B0000AFF2F440FEF74CF8002D04BF208820F00F
:102B100080000AD0012D05D040F20921AFF21050FB
:102B2000FEF73EF8208840F08000208070BD70B530
:102B30000446A0F180400D46B0F5803018BFB4F1D6
:102B4000804F41D0A4F18040B0F580601CBFA4F15B
:102B50008040B0F5006037D0A4F18040B0F540600F
:102B60001CBFA4F18040B0F580502DD0A4F180406E
:102B7000B0F5A0501CBFA4F18040B0F5823023D046
:102B8000A4F18040B0F5A0301CBFA4F18040B0F5A6
:102B9000A23019D0A4F18040B0F5A4301CBFA4F13C
:102BA0008040B0F5C0500FD0A4F18040B0F5E050A7
:102BB0001CBFA4F18040B0F5005005D040F22321A5
:102BC000AFF2B450FDF7ECFF082D18BF002D05D073
:102BD0004FF40971AFF2C850FDF7E2FF208820F0F2
:102BE0000800208020882843208070BD70B50446EE
:102BF000A0F180400D46B0F5803018BFB4F1804F91
:102C000037D0A4F18040B0F580601CBFA4F18040B3
:102C1000B0F500602DD0A4F18040B0F540601CBF3D
:102C2000A4F18040B0F5823023D0A4F18040B0F50B
:102C3000A0301CBFA4F18040B0F5A23019D0A4F19F
:102C40008040B0F5A4301CBFA4F18040B0F5C05066
:102C50000FD0A4F18040B0F5E0501CBFA4F180403B
:102C6000B0F5005005D040F23A21AFF25C60FDF7BC
:102C700097FF002D1CBFB5F5807FB5F5007F05D00F
:102C800040F23B21AFF27860FDF78AFF208820F404
:102C90004070208020882843208070BD70B5044695
:102CA000A0F180400D46B0F5803018BFB4F1804FE0
:102CB00041D0A4F18040B0F580601CBFA4F18040F9
:102CC000B0F5006037D0A4F18040B0F540601CBF83
:102CD000A4F18040B0F580502DD0A4F18040B0F533
:102CE000A0501CBFA4F18040B0F5823023D0A4F1E5
:102CF0008040B0F5A0301CBFA4F18040B0F5A230F8
:102D000019D0A4F18040B0F5A4301CBFA4F18040DC
:102D1000B0F5C0500FD0A4F18040B0F5E0501CBF1A
:102D2000A4F18040B0F5005005D040F24E21AFF242
:102D30002070FDF735FF002D04BF208820F0010032
:102D40000AD0012D05D040F24F21AFF23C70FDF7C3
:102D500027FF208840F00100208070BD2DE9F0475A
:102D6000DFF8C48CDFF8C49C0D460446404518BF0C
:102D7000B4F1804F34D0A4F18040B0F580601CBF26
:102D8000A4F18040B0F500602AD0A4F18040B0F5F5
:102D9000406018BF4C4523D0A4F18040B0F5A0306E
:102DA0001CBFA4F18040B0F5A23019D0A4F180403E
:102DB000B0F5A4301CBFA4F18040B0F5C0500FD0D6
:102DC000A4F18040B0F5E0501CBFA4F18040B0F504
:102DD000005005D040F29F21AFF2CC70FDF7E0FE2D
:102DE0002888002818BF10280DD0202818BF3028A8
:102DF00009D0602818BF702805D04FF42871AFF2B1
:102E0000F070FDF7CDFE6888002818BF012805D0B6
:102E100040F2A121AFF60800FDF7C2FEA889002804
:102E200018BF022805D040F2A221AFF61C00FDF722
:102E3000B7FE208C20F001002084208CA788218BF5
:102E40002A8821F0730142EA010AA98920F00200D0
:102E500008436988444541EA000618BF4C453DD106
:102E6000A888002818BF042805D040F2BF21AFF67B
:102E70006000FDF795FEE889002818BF082805D0F6
:102E80004FF43071AFF67800FDF78AFE688AB0F52E
:102E9000007F18BF002805D040F2C121AFF6900096
:102EA000FDF77EFE288AB0F5807F18BF002805D088
:102EB00040F2C221AFF6A800FDF772FEE98926F0C4
:102EC00008000843A98820F0040041EA0006298A86
:102ED00027F440700843698A41EA0007A780A4F8F4
:102EE00018A0A86860632684BDE8F0872DE9F05F2C
:102EF000DFF8349BDFF834AB0D460446484518BF75
:102F0000B4F1804F20D0A4F18040B0F580601CBFA8
:102F1000A4F18040B0F5006016D0A4F18040B0F577
:102F2000406018BF54450FD0A4F18040B0F5A030E8
:102F30001CBFA4F18040B0F5C05005D04FF43C71E7
:102F4000AFF63410FDF72CFE2888002818BF102893
:102F50000DD0202818BF302809D0602818BF70284D
:102F600005D040F2F121AFF65810FDF719FE688840
:102F7000002818BF012805D040F2F221AFF67010EA
:102F8000FDF70EFEA889002818BF022805D040F2E0
:102F9000F321AFF68410FDF703FE208C20F0100023
:102FA0002084208CB4F80480218B2A884FF6FF7689
:102FB00021F4E64106EA022242EA010BA98920F047
:102FC000200006EA0111084369884C4506EA011110
:102FD00041EA000718BF544545D1A888002818BF0A
:102FE000042805D040F21131AFF6DC10FDF7D8FD12
:102FF000E889002818BF082805D040F21231AFF642
:10300000F010FDF7CDFD688AB0F5007F18BF0028ED
:1030100005D040F21331AFF60820FDF7C1FD288A34
:10302000B0F5807F18BF002805D04FF44571AFF68A
:103030002020FDF7B5FDE98927F0800006EA01119F
:103040000843A98820F0400006EA011141EA000780
:10305000298A28F4406006EA81010843698A06EA61
:10306000810141EA0008A4F80480A4F818B0A86817
:10307000A0632784BDE8F09F2DE9F05FDFF8A899F1
:10308000DFF8A8A90D460446484518BFB4F1804FA3
:1030900016D0A4F18040B0F580601CBFA4F1804040
:1030A000B0F500600CD0A4F18040B0F5406018BFCE
:1030B000544505D040F24131AFF6AC20FDF770FD2C
:1030C0002888002818BF10280DD0202818BF3028C5
:1030D00009D0602818BF702805D040F24231AFF601
:1030E000D020FDF75DFD6888002818BF012805D0B5
:1030F00040F24331AFF6E820FDF752FDA8890028E1
:1031000018BF022805D04FF45171AFF6FC20FDF72F
:1031100047FD208C20F480702084208CB4F804803B
:10312000A18B2A8821F0730142EA010BA9894FF68D
:10313000FF7620F4007006EA0121084369884C45B7
:1031400006EA012141EA000718BF544545D1A88885
:10315000002818BF042805D040F26131AFF6503086
:10316000FDF71EFDE889002818BF082805D040F2A9
:103170006231AFF66430FDF713FD688AB0F5007F69
:1031800018BF002805D040F26331AFF67C30FDF760
:1031900007FD288AB0F5807F18BF002805D04FF4BE
:1031A0005971AFF69430FDF7FBFCE98927F4006014
:1031B00006EA01210843A98820F4806006EA01217B
:1031C00041EA0007298A28F4405006EA0111084321
:1031D000698A06EA011141EA0008A4F80480A4F80B
:1031E0001CB0A868E0632784BDE8F09F2DE9F05F7C
:1031F000DFF83488DFF834980D460446404518BFA0
:10320000B4F1804F16D0A4F18040B0F580601CBFAF
:10321000A4F18040B0F500600CD0A4F18040B0F57E
:10322000406018BF4C4505D040F29131AFF62040C8
:10323000FDF7B6FC2888002818BF10280DD02028DC
:1032400018BF302809D0602818BF702805D040F278
:103250009231AFF64440FDF7A3FC6888002818BF00
:10326000012805D040F29331AFF65C40FDF798FCA1
:10327000A889002818BF022805D04FF46571AFF661
:103280007040FDF78DFC208C20F480502084208C31
:10329000A788A18B2A884FF6FF7621F4E64106EA3B
:1032A000022242EA010AA98920F4005006EA01310B
:1032B00008436988444506EA013141EA000B18BF1A
:1032C0004C4512D1288AB0F5807F18BF002805D060
:1032D00040F2B231AFF6C840FDF762FC298A27F40C
:1032E000804006EA811141EA0007A780A4F81CA0EB
:1032F000A8682064A4F820B0BDE8F09F00210180F8
:103300004180818081608181C181018241827047D9
:1033100070B50446A0F1804015460E46B0F58030E9
:1033200018BFB4F1804F37D0A4F18040B0F5806071
:103330001CBFA4F18040B0F500602DD0A4F1804006
:10334000B0F540601CBFA4F18040B0F5823023D0BE
:10335000A4F18040B0F5A0301CBFA4F18040B0F5CE
:10336000A23019D0A4F18040B0F5A4301CBFA4F164
:103370008040B0F5C0500FD0A4F18040B0F5E050CF
:103380001CBFA4F18040B0F5005005D040F2F531EB
:10339000AFF68450FDF704FC002E18BF042E09D0B0
:1033A000082E18BF0C2E05D040F2F631AFF6A05013
:1033B000FDF7F6FB002D18BF102D11D0202D18BFE2
:1033C000302D0DD0602D18BF702D09D0502D18BF95
:1033D000402D05D040F2F731AFF6CC50FDF7E0FBC1
:1033E0000121228C04F11800B14022EA010121845C
:1033F000002E18BF082E10D0311FC1F34E01084413
:10340000016848F6FF721140016001684FF6FF72D3
:1034100002EA05221143016070BD00EB560001680D
:103420004FF68F721140016001682943F3E770B5D0
:103430000446A0F180400D46B0F5803018BFB4F1CD
:10344000804F37D0A4F18040B0F580601CBFA4F15C
:103450008040B0F500602DD0A4F18040B0F5406010
:103460001CBFA4F18040B0F5823023D0A4F180408D
:10347000B0F5A0301CBFA4F18040B0F5A23019D047
:10348000A4F18040B0F5A4301CBFA4F18040B0F599
:10349000C0500FD0A4F18040B0F5E0501CBFA4F1A3
:1034A0008040B0F5005005D04FF48461AFF6A060C5
:1034B000FDF776FB656370BD70B50446A0F18040F2
:1034C0000D46B0F5803018BFB4F1804F23D0A4F181
:1034D0008040B0F580601CBFA4F18040B0F5006072
:1034E00019D0A4F18040B0F540601CBFA4F1804029
:1034F000B0F582300FD0A4F18040B0F5A0301CBFF1
:10350000A4F18040B0F5C05005D04FF48661AFF60D
:103510000070FDF745FBA56370BD70B50446A0F1D2
:1035200080400D46B0F5803018BFB4F1804F19D0FF
:10353000A4F18040B0F580601CBFA4F18040B0F5DC
:1035400000600FD0A4F18040B0F540601CBFA4F132
:103550008040B0F5823005D040F23F41AFF6507068
:10356000FDF71EFBE56370BD70B50446A0F1804019
:103570000D46B0F5803018BFB4F1804F19D0A4F1DA
:103580008040B0F580601CBFA4F18040B0F50060C1
:103590000FD0A4F18040B0F540601CBFA4F1804082
:1035A000B0F5823005D040F24E41AFF69C70FDF789
:1035B000F7FA256470BD70B50446A0F180400D4651
:1035C000B0F5803018BFB4F1804F36D0A4F1804000
:1035D000B0F580601CBFA4F18040B0F500602CD035
:1035E000A4F18040B0F540601CBFA4F18040B0F56C
:1035F000823022D0A4F18040B0F5A0301CBFA4F1ED
:103600008040B0F5A23018D0A4F18040B0F5A430CD
:103610001CBFA4F18040B0F5C0500ED0A4F1804092
:10362000B0F5E0501CBFA4F18040B0F5005004D0CC
:1036300040F26241FE48FDF7B3FA502D18BF402D0D
:1036400004D040F26341FA48FDF7AAFA208B20F03B
:1036500070002843208370BD70B50446A0F18040FF
:103660000D46B0F5803018BFB4F1804F22D0A4F1E0
:103670008040B0F580601CBFA4F18040B0F50060D0
:1036800018D0A4F18040B0F540601CBFA4F1804088
:10369000B0F582300ED0A4F18040B0F5A0301CBF50
:1036A000A4F18040B0F5C05004D040F27F41E04822
:1036B000FDF776FA502D18BF402D04D04FF49061DD
:1036C000DB48FDF76DFA208B4FF6FF7120F4E040E8
:1036D00001EA05210843208370BD70B50446A0F1BE
:1036E00080400D46B0F5803018BFB4F1804F18D03F
:1036F000A4F18040B0F580601CBFA4F18040B0F51B
:1037000000600ED0A4F18040B0F540601CBFA4F171
:103710008040B0F5823004D040F29B41C448FDF7B0
:103720003FFA502D18BF402D04D040F29C41C048B4
:10373000FDF736FAA08B20F070002843A08370BDFF
:1037400070B50446A0F180400D46B0F5803018BF3A
:10375000B4F1804F18D0A4F18040B0F580601CBF58
:10376000A4F18040B0F500600ED0A4F18040B0F527
:1037700040601CBFA4F18040B0F5823004D04FF40B
:103780009761AB48FDF70CFA502D18BF402D04D0BF
:1037900040F2B941A648FDF703FAA08B4FF6FF713E
:1037A00020F4E04001EA05210843A08370BD70B514
:1037B0000446A0F180400D46B0F5803018BFB4F14A
:1037C000804F36D0A4F18040B0F580601CBFA4F1DA
:1037D0008040B0F500602CD0A4F18040B0F540608E
:1037E0001CBFA4F18040B0F5823022D0A4F180400B
:1037F000B0F5A0301CBFA4F18040B0F5A23018D0C5
:10380000A4F18040B0F5A4301CBFA4F18040B0F515
:10381000C0500ED0A4F18040B0F5E0501CBFA4F120
:103820008040B0F5005004D040F2D4418048FDF70C
:10383000B7F9082D18BF002D04D040F2D5417C48BF
:10384000FDF7AEF9208B20F008002843208370BDDF
:1038500070B50446A0F180400D46B0F5803018BF29
:10386000B4F1804F22D0A4F18040B0F580601CBF3D
:10387000A4F18040B0F5006018D0A4F18040B0F50C
:1038800040601CBFA4F18040B0F582300ED0A4F19E
:103890008040B0F5A0301CBFA4F18040B0F5C0500E
:1038A00004D040F2F2416248FDF77AF9082D18BFC2
:1038B000002D04D040F2F3415D48FDF771F9208BF3
:1038C0004FF6FF7120F4006001EA052108432083D0
:1038D00070BD70B50446A0F180400D46B0F5803053
:1038E00018BFB4F1804F18D0A4F18040B0F58060CB
:1038F0001CBFA4F18040B0F500600ED0A4F1804060
:10390000B0F540601CBFA4F18040B0F5823004D017
:1039100040F20F514648FDF743F9082D18BF002D1E
:1039200004D04FF4A2614248FDF73AF9A08B20F091
:1039300008002843A08370BD70B50446A0F1804004
:103940000D46B0F5803018BFB4F1804F18D0A4F107
:103950008040B0F580601CBFA4F18040B0F50060ED
:103960000ED0A4F18040B0F540601CBFA4F18040AF
:10397000B0F5823004D040F22C512D48FDF710F9FB
:10398000082D18BF002D04D040F22D512848FDF716
:1039900007F9A08B4FF6FF7120F4006001EA0521C2
:1039A0000843A08370BD70B50446A0F180400D4669
:1039B000B0F5803018BFB4F1804F3DD0A4F1804005
:1039C000B0F580601CBFA4F18040B0F5006033D03A
:1039D000A4F18040B0F540601CBFA4F18040B0F578
:1039E000823029D0A4F18040B0F5A0301CBFA4F1F2
:1039F0008040B0F5A2301FD0A4F18040B0F5A430D3
:103A00001CBFA4F18040B0F5C05015D0A4F1804097
:103A1000B0F5E0501CBFA4F18040B0F500500BD0D1
:103A200040F24951024805E0000001400004014015
:103A300010260008FDF7B4F8042D18BF002D04D09F
:103A400040F24A51FE48FDF7ABF8208B20F004000D
:103A50002843208370BD70B50446A0F180400D4618
:103A6000B0F5803018BFB4F1804F22D0A4F180406F
:103A7000B0F580601CBFA4F18040B0F5006018D0A4
:103A8000A4F18040B0F540601CBFA4F18040B0F5C7
:103A900082300ED0A4F18040B0F5A0301CBFA4F15C
:103AA0008040B0F5C05004D04FF4AD61E448FDF75C
:103AB00077F8042D18BF002D04D040F26951E0487A
:103AC000FDF76EF8208B4FF6FF7120F4806001EA5D
:103AD00005210843208370BD70B50446A0F18040E5
:103AE0000D46B0F5803018BFB4F1804F18D0A4F166
:103AF0008040B0F580601CBFA4F18040B0F500604C
:103B00000ED0A4F18040B0F540601CBFA4F180400D
:103B1000B0F5823004D040F28651C948FDF740F834
:103B2000042D18BF002D04D040F28751C448FDF782
:103B300037F8A08B20F004002843A08370BD70B537
:103B40000446A0F180400D46B0F5803018BFB4F1B6
:103B5000804F18D0A4F18040B0F580601CBFA4F164
:103B60008040B0F500600ED0A4F18040B0F5406018
:103B70001CBFA4F18040B0F5823004D040F2A451C3
:103B8000AF48FDF70DF8042D18BF002D04D040F20A
:103B9000A551AB48FDF704F8A08B4FF6FF7120F458
:103BA000806001EA05210843A08370BD70B504461A
:103BB000A0F180400D46B0F5803018BFB4F1804FC1
:103BC00036D0A4F18040B0F580601CBFA4F18040E5
:103BD000B0F500602CD0A4F18040B0F540601CBF6F
:103BE000A4F18040B0F5823022D0A4F18040B0F53D
:103BF000A0301CBFA4F18040B0F5A23018D0A4F1D1
:103C00008040B0F5A4301CBFA4F18040B0F5C05096
:103C10000ED0A4F18040B0F5E0501CBFA4F180406C
:103C2000B0F5005004D040F2C2518548FCF7B8FF0F
:103C3000802D18BF002D04D040F2C3518048FCF7FE
:103C4000AFFF208B20F080002843208370BD70B52B
:103C50000446A0F180400D46B0F5803018BFB4F1A5
:103C6000804F22D0A4F18040B0F580601CBFA4F149
:103C70008040B0F5006018D0A4F18040B0F54060FD
:103C80001CBFA4F18040B0F582300ED0A4F180407A
:103C9000B0F5A0301CBFA4F18040B0F5C05004D0F6
:103CA0004FF4BC616648FCF77BFF802D18BF002DE8
:103CB00004D040F2E1516248FCF772FF208B4FF6CE
:103CC000FF71C0F30E0001EA05210843208370BD97
:103CD00070B50446A0F180400D46B0F5803018BFA5
:103CE000B4F1804F18D0A4F18040B0F580601CBFC3
:103CF000A4F18040B0F500600ED0A4F18040B0F592
:103D000040601CBFA4F18040B0F5823004D040F286
:103D1000FD514B48FCF744FF802D18BF002D04D007
:103D200040F2FE514648FCF73BFFA08B20F080009C
:103D30002843A08370BD70B50446A0F180400D46B5
:103D4000B0F5803018BFB4F1804F18D0A4F1804096
:103D5000B0F580601CBFA4F18040B0F500600ED0CB
:103D6000A4F18040B0F540601CBFA4F18040B0F5E4
:103D7000823004D040F21A613148FCF711FF802DE7
:103D800018BF002D04D040F21B612D48FCF708FF3E
:103D9000A08B4FF6FF71C0F30E0001EA0521084326
:103DA000A08370BD70B50446A0F180400D46B0F50B
:103DB000803018BFB4F1804F36D0A4F18040B0F508
:103DC00080601CBFA4F18040B0F500602CD0A4F14D
:103DD0008040B0F540601CBFA4F18040B0F5823057
:103DE00022D0A4F18040B0F5A0301CBFA4F18040E7
:103DF000B0F5A23018D0A4F18040B0F5A4301CBFBB
:103E0000A4F18040B0F5C0500ED0A4F18040B0F5D0
:103E1000E0501CBFA4F18040B0F5005004D040F247
:103E200037610748FCF7BCFE002D18BF022D04D0F7
:103E30004FF4C7610248FCF7B3FE208C02E000009B
:103E40001026000820F002002843208470BD70B5C1
:103E50000446A0F180400D46B0F580301CBFA4F1AF
:103E60008040B0F5823004D040F25161FE48FCF74A
:103E700097FE002D18BF082D04D040F25261FA4879
:103E8000FCF78EFE208C20F008002843208470BDB3
:103E900070B50446A0F180400D46B0F5803018BFE3
:103EA000B4F1804F22D0A4F18040B0F580601CBFF7
:103EB000A4F18040B0F5006018D0A4F18040B0F5C6
:103EC00040601CBFA4F18040B0F582300ED0A4F158
:103ED0008040B0F5A0301CBFA4F18040B0F5C050C8
:103EE00004D040F26D61E048FCF75AFE002D18BF87
:103EF000022D04D040F26E61DB48FCF751FE208CAD
:103F00004FF6FF7120F0200001EA051108432084DC
:103F100070BD70B50446A0F180400D46B0F580300C
:103F20001CBFA4F18040B0F5823004D04FF4D161C1
:103F3000CD48FCF735FE002D18BF082D04D040F207
:103F40008961C948FCF72CFE208C4FF6FF7120F0E8
:103F5000800001EA05110843208470BD70B5044655
:103F6000A0F180400D46B0F5803018BFB4F1804F0D
:103F700018D0A4F18040B0F580601CBFA4F180404F
:103F8000B0F500600ED0A4F18040B0F540601CBFD9
:103F9000A4F18040B0F5823004D040F2A361B24871
:103FA000FCF7FEFD002D18BF022D04D040F2A461E5
:103FB000AD48FCF7F5FD208C4FF6FF7120F4007042
:103FC00001EA05210843208470BD70B50446A0F1C4
:103FD00080400D46B0F580301CBFA4F18040B0F5A4
:103FE000823004D040F2BE619F48FCF7D9FD002D1D
:103FF00018BF082D04D040F2BF619B48FCF7D0FDEC
:10400000208C4FF6FF7120F4006001EA052108437F
:10401000208470BD70B50446A0F180400D46B0F517
:10402000803018BFB4F1804F18D0A4F18040B0F5B3
:1040300080601CBFA4F18040B0F500600ED0A4F1F8
:104040008040B0F540601CBFA4F18040B0F58230E4
:1040500004D040F2D9618448FCF7A2FD002D18BFBE
:10406000022D04D040F2DA617F48FCF799FD208CE4
:104070004FF6FF7120F4005001EA05310843208417
:1040800070BD70B50446A0F1804016460D46B0F5EF
:10409000803018BFB4F1804F36D0A4F18040B0F525
:1040A00080601CBFA4F18040B0F500602CD0A4F16A
:1040B0008040B0F540601CBFA4F18040B0F5823074
:1040C00022D0A4F18040B0F5A0301CBFA4F1804004
:1040D000B0F5A23018D0A4F18040B0F5A4301CBFD8
:1040E000A4F18040B0F5C0500ED0A4F18040B0F5EE
:1040F000E0501CBFA4F18040B0F5005004D04FF454
:10410000DF615948FCF74CFD002D18BF042D08D085
:10411000082D18BF0C2D04D040F2F9615248FCF76D
:104120003FFD012E18BF002E04D040F2FA614E4828
:10413000FCF736FD0120218CA84021EA00002084F4
:10414000218C06FA05F00843208470BD70B5044642
:10415000A0F1804016460D46B0F580301CBFA4F19A
:104160008040B0F5823004D040F216713E48FCF732
:1041700017FD002D1CBF042D082D04D040F217712F
:104180003948FCF70DFD042E18BF002E04D04FF463
:10419000E3613548FCF704FD0420218CA84021EAA6
:1041A00000002084218C06FA05F00843208470BDAD
:1041B00070B50446A0F180400D46B0F5803018BFC0
:1041C000B4F1804F18D0A4F18040B0F580601CBFDE
:1041D000A4F18040B0F500600ED0A4F18040B0F5AD
:1041E00040601CBFA4F18040B0F5823004D040F69E
:1041F00072011EA0FCF7D4FC002D18BF042D08D0BE
:10420000082D18BF0C2D04D040F6730117A0FCF741
:10421000C7FCA08B20F44060A083A08B4FF6FF71F9
:1042200001EA05210843A08370BD70B50446A0F1E2
:1042300080400D46B0F5803018BFB4F1804F3AD0C1
:10424000A4F18040B0F580601CBFA4F18040B0F5BF
:10425000006030D0A4F18040B0F540601CBFA4F1F4
:104260008040B0F582301FE0102600082E2E5C4CF6
:1042700069627261726965735C53544D33324634BE
:1042800078785F5374645065726970685F447269CE
:104290007665725C7372635C73746D333266347806
:1042A000785F74696D2E630005D040F65A01AFF255
:1042B0004400FCF775FC002D18BF042D09D0082D13
:1042C00018BF0C2D05D040F65B01AFF26000FCF783
:1042D00067FCA08B20F00C00A083A08B2843A08358
:1042E00070BD70B50446A0F180400D46B0F5803039
:1042F00018BFB4F1804F23D0A4F18040B0F58060A6
:104300001CBFA4F18040B0F5006019D0A4F180403A
:10431000B0F540601CBFA4F18040B0F582300FD0F2
:10432000A4F18040B0F5A0301CBFA4F18040B0F5EE
:10433000C05005D040F64201AFF2D000FCF730FC8F
:10434000002D18BF042D09D0082D18BF0C2D05D045
:1043500040F64301AFF2EC00FCF722FC208B20F486
:1043600040602083208B4FF6FF7101EA052108434E
:10437000208370BD70B50446A0F180400D46B0F5B5
:10438000803018BFB4F1804F37D0A4F18040B0F531
:1043900080601CBFA4F18040B0F500602DD0A4F176
:1043A0008040B0F540601CBFA4F18040B0F5823081
:1043B00023D0A4F18040B0F5A0301CBFA4F1804010
:1043C000B0F5A23019D0A4F18040B0F5A4301CBFE4
:1043D000A4F18040B0F5C0500FD0A4F18040B0F5FA
:1043E000E0501CBFA4F18040B0F5005005D040F66D
:1043F0002901AFF28810FCF7D3FB002D18BF042D64
:1044000009D0082D18BF0C2D05D040F62A01AFF2B7
:10441000A410FCF7C5FB208B20F00C002083208B20
:104420002843208370BD2DE9F05FDFF8FCB3FF4F18
:10443000DFF8FC83DFF8FC93DFF8FCA30D460446AD
:10444000584518BFB4F1804F2BD0BC4218BF44452B
:1044500027D04C4518BF544523D0A4F18040B0F577
:10446000A0301CBFA4F18040B0F5A23019D0A4F157
:104470008040B0F5A4301CBFA4F18040B0F5C0501E
:104480000FD0A4F18040B0F5E0501CBFA4F18040F3
:10449000B0F5005005D040F26671AFF23020FCF765
:1044A0007FFB688800281CBF02280A2805D040F23C
:1044B0006771AFF24820FCF773FBA88801281CBF86
:1044C0000228032805D04FF4ED61AFF26020FCF71D
:1044D00067FBE888002818BF042809D0082818BFFF
:1044E0000C2805D040F26971AFF28020FCF758FB30
:1044F00028890F2805D940F26A71AFF29020FCF7A5
:104500004FFB28884FF6FF76002860D004287CD027
:10451000082800F0B8805C4518BFB4F1804F0DD07A
:10452000BC4218BF444509D04C4518BF544505D07E
:1045300040F28C71AFF2CC20FCF732FB95F802C050
:104540002979287A228C22F480522284A28B238C0F
:1045500022F4734206EA0121114306EA00300843BF
:1045600006EA0C3C23F4204141EA0C0141F480515D
:10457000A0832184ED885C4518BFB4F1804F0DD035
:10458000BC4218BF444509D04C4518BF544505D01E
:1045900040F67201AFF22C30FCF702FB002D18BF81
:1045A000042D09D0082D18BF0C2D05D040F673013D
:1045B000AFF24830FCF7F4FAA08B20F44060A083FF
:1045C000A08B06EA05210843A083BDE8F09F6A8816
:1045D000A8882989238C23F001032384B4F818C008
:1045E000238C06EA011108432CF0F30C23F00A0196
:1045F00040EA0C00114341F0010120832184E98845
:104600002046BDE8F05FB5E6FFE75C4518BFB4F1B2
:10461000804F17D0BC4218BF444513D04C4518BF3B
:1046200054450FD0A4F18040B0F5A0301CBFA4F1D8
:104630008040B0F5C05005D04FF4EF61AFF2D430F8
:10464000FCF7AEFA6A882979287A238C23F01003C4
:104650002384B4F818C0238C2CF4734C06EA003081
:1046600040EA0C0006EA0121084306EA021223F0A0
:10467000A001114341F0100120832184E9882046E4
:10468000BDE8F05F2DE65C4518BFB4F1804F0DD05A
:10469000BC4218BF444509D04C4518BF544505D00D
:1046A00040F28271AFF23C40FCF77AFA95F802C012
:1046B000A9882889228C22F480722284A28B238CE0
:1046C00006EA0010084306EA0C2C22F0F30223F459
:1046D0002061104341EA0C0141F48071A0832184E0
:1046E000ED885C4518BFB4F1804F0DD0BC4218BFB7
:1046F000444509D04C4518BF544505D040F65A01F1
:10470000AFF29840FCF74CFA002D18BF042D09D0E9
:10471000082D18BF0C2D05D040F65B01AFF2B44058
:10472000FCF73EFAA08B20F00C00A083A08B28435E
:104730004AE700210180418001228280C1800181FD
:1047400070472DE9F04104460127A0F180400D4655
:104750004FF00008B0F5803018BFB4F1804F23D07F
:10476000A4F18040B0F580601CBFA4F18040B0F59A
:10477000006019D0A4F18040B0F540601CBFA4F1E6
:104780008040B0F582300FD0A4F18040B0F5A03069
:104790001CBFA4F18040B0F5C05005D040F2B47108
:1047A000AFF23850FCF7FCF96888002808BF4FF0DA
:1047B0000208A988012908BF02272A884FF6FF7638
:1047C000002A41D02A7A238C23F010032384238BE0
:1047D000B4F820C023F4734306EA02321A4306EA0F
:1047E0000121114306EA00102CF0A002104340F012
:1047F000100021832084E9882046FFF772FD298973
:10480000208C20F001002084228B208C06EA0111EC
:1048100022F0F302394320F00A00114340EA080075
:1048200040F00100218309E0000001400004004045
:1048300000080040000C0040000401402084E9888A
:104840002046BDE8F04195E52A89238C23F0010339
:104850002384238BB4F820C006EA0212114323F00C
:10486000F30319432CF00A02104340F001002183A6
:104870002084E9882046FFF77DFD287A218C21F0ED
:1048800010012184218B228C21F4734106EA00302F
:10489000084306EA0721084306EA081322F0A001AC
:1048A000194341F0100120832184E9882046BDE8A6
:1048B000F04116E510B50446A0F18040B0F5803017
:1048C00018BFB4F1804F37D0A4F18040B0F58060BC
:1048D0001CBFA4F18040B0F500602DD0A4F1804051
:1048E000B0F540601CBFA4F18040B0F5823023D009
:1048F000A4F18040B0F5A0301CBFA4F18040B0F519
:10490000A23019D0A4F18040B0F5A4301CBFA4F1AE
:104910008040B0F5C0500FD0A4F18040B0F5E05019
:104920001CBFA4F18040B0F5005005D040F2EA7100
:10493000AFF2C860FCF734F9606B10BD10B50446E7
:10494000A0F18040B0F5803018BFB4F1804F23D083
:10495000A4F18040B0F580601CBFA4F18040B0F5A8
:10496000006019D0A4F18040B0F540601CBFA4F1F4
:104970008040B0F582300FD0A4F18040B0F5A03077
:104980001CBFA4F18040B0F5C05005D040F2F971D1
:10499000AFF22870FCF704F9A06B10BD10B5044607
:1049A000A0F18040B0F5803018BFB4F1804F19D02D
:1049B000A4F18040B0F580601CBFA4F18040B0F548
:1049C00000600FD0A4F18040B0F540601CBFA4F19E
:1049D0008040B0F5823005D040F60701AFF2747028
:1049E000FCF7DEF8E06B10BD10B50446A0F1804086
:1049F000B0F5803018BFB4F1804F19D0A4F18040D9
:104A0000B0F580601CBFA4F18040B0F500600FD00D
:104A1000A4F18040B0F540601CBFA4F18040B0F527
:104A2000823005D040F61501AFF2C070FCF7B8F83F
:104A3000206C10BD70B50546A0F180400C46B0F565
:104A400080301CBFA5F18040B0F5823005D040F623
:104A5000A701AFF2E870FCF7A3F82088B0F5006F6B
:104A600018BF002805D040F6A801AFF60000FCF7FB
:104A700097F86088B0F5806F18BF002805D040F621
:104A8000A901AFF61800FCF78BF8A088002818BF22
:104A9000B0F5807F0BD0B0F5007F18BFB0F5407F38
:104AA00005D040F6AA01AFF63C00FCF779F8208962
:104AB000B0F5805F18BF002805D040F6AB01AFF617
:104AC0005400FCF76DF86089002818BFB0F5005F4E
:104AD00005D040F6AC01AFF66C00FCF761F8A08998
:104AE000B0F5804F18BF002805D040F6AD01AFF6F5
:104AF0008400FCF755F820886188E2880843A18883
:104B0000114308432189084361890843A189084367
:104B1000A5F8440070BD0021018041808180C180E2
:104B2000018141818181704770B50446A0F18040C8
:104B30000D46B0F580301CBFA4F18040B0F5823046
:104B400005D040F6D301AFF6DC00FCF729F8002DC4
:104B500004BFB4F84400C0F30E000BD0012D05D003
:104B600040F6D401AFF6FC00FCF71AF8B4F84400A4
:104B700040F40040A4F8440070BD70B50446A0F1B4
:104B800080400D46B0F580301CBFA4F18040B0F5E8
:104B9000823005D040F6EC01AFF63010FCF700F89B
:104BA000002D04BFA08820F004000AD0012D05D0FC
:104BB00040F6ED01AFF64C10FBF7F2FFA08840F095
:104BC0000400A08070BD70B50446A0F180400D4681
:104BD000B0F580301CBFA4F18040B0F5823005D024
:104BE00040F60511AFF67C10FBF7DAFF002D04BF8D
:104BF000A08820F001000AD0012D05D040F6061152
:104C0000AFF69810FBF7CCFFA08840F00100A08021
:104C100070BD70B50446A0F1804016460D46B0F553
:104C2000803018BFB4F1804F41D0A4F18040B0F57E
:104C300080601CBFA4F18040B0F5006037D0A4F1C3
:104C40008040B0F540601CBFA4F18040B0F58050BA
:104C50002DD0A4F18040B0F5A0501CBFA4F180403D
:104C6000B0F5823023D0A4F18040B0F5A0301CBF55
:104C7000A4F18040B0F5A23019D0A4F18040B0F585
:104C8000A4301CBFA4F18040B0F5C0500FD0A4F1F7
:104C90008040B0F5E0501CBFA4F18040B0F500505A
:104CA00005D040F63E11AFF63C20FBF779FF15F436
:104CB0007F4F00D12DB940F63F11AFF65020FBF7E2
:104CC0006FFF002E04BFA089A84309D0012E05D094
:104CD0004FF41461AFF66C20FBF762FFA089284304
:104CE000A08170BD70B50446A0F180400D46B0F5BE
:104CF000803018BFB4F1804F41D0A4F18040B0F5AE
:104D000080601CBFA4F18040B0F5006037D0A4F1F2
:104D10008040B0F540601CBFA4F18040B0F58050E9
:104D20002DD0A4F18040B0F5A0501CBFA4F180406C
:104D3000B0F5823023D0A4F18040B0F5A0301CBF84
:104D4000A4F18040B0F5A23019D0A4F18040B0F5B4
:104D5000A4301CBFA4F18040B0F5C0500FD0A4F126
:104D60008040B0F5E0501CBFA4F18040B0F5005089
:104D700005D040F66411AFF60C30FBF711FF15F4C7
:104D80007F4F00D12DB940F66511AFF62030FBF70B
:104D900007FFA58270BD70B504460026A0F18040D3
:104DA0000D46B0F5803018BFB4F1804F41D0A4F16A
:104DB0008040B0F580601CBFA4F18040B0F5006079
:104DC00037D0A4F18040B0F540601CBFA4F1804012
:104DD000B0F580502DD0A4F18040B0F5A0501CBF9C
:104DE000A4F18040B0F5823023D0A4F18040B0F52A
:104DF000A0301CBFA4F18040B0F5A23019D0A4F1BE
:104E00008040B0F5A4301CBFA4F18040B0F5C05084
:104E10000FD0A4F18040B0F5E0501CBFA4F1804059
:104E2000B0F5005005D040F68611AFF6C030FBF764
:104E3000B7FE012D18BF022D1DD0042D18BF082D5F
:104E400019D0102D18BF202D15D0402D18BF802D42
:104E500011D0B5F5007F18BFB5F5806F0BD0B5F553
:104E6000006F18BFB5F5805F05D040F68711AFF62B
:104E70000440FBF795FE208A284218BF01263046E1
:104E800070BD70B50446A0F180400D46B0F580308D
:104E900018BFB4F1804F41D0A4F18040B0F58060DC
:104EA0001CBFA4F18040B0F5006037D0A4F1804071
:104EB000B0F540601CBFA4F18040B0F580502DD00B
:104EC000A4F18040B0F5A0501CBFA4F18040B0F523
:104ED000823023D0A4F18040B0F5A0301CBFA4F1F3
:104EE0008040B0F5A23019D0A4F18040B0F5A430D4
:104EF0001CBFA4F18040B0F5C0500FD0A4F1804099
:104F0000B0F5E0501CBFA4F18040B0F5005005D0D2
:104F100040F6AF11AFF6AC40FBF742FEE84320820B
:104F200070BD70B504460026A0F180400D46B0F576
:104F3000803018BFB4F1804F41D0A4F18040B0F56B
:104F400080601CBFA4F18040B0F5006037D0A4F1B0
:104F50008040B0F540601CBFA4F18040B0F58050A7
:104F60002DD0A4F18040B0F5A0501CBFA4F180402A
:104F7000B0F5823023D0A4F18040B0F5A0301CBF42
:104F8000A4F18040B0F5A23019D0A4F18040B0F572
:104F9000A4301CBFA4F18040B0F5C0500FD0A4F1E4
:104FA0008040B0F5E0501CBFA4F18040B0F5005047
:104FB00005D040F6CD11AFF64C50FBF7F1FD012DB9
:104FC00018BF022D11D0042D18BF082D0DD0102DA3
:104FD00018BF202D09D0402D18BF802D05D040F6D8
:104FE000CE11AFF67850FBF7DBFD208AA18928426D
:104FF00001EA05011CBF00290126304670BD70B5CD
:105000000446A0F180400D46B0F5803018BFB4F1E1
:10501000804F41D0A4F18040B0F580601CBFA4F166
:105020008040B0F5006037D0A4F18040B0F540601A
:105030001CBFA4F18040B0F580502DD0A4F1804079
:10504000B0F5A0501CBFA4F18040B0F5823023D051
:10505000A4F18040B0F5A0301CBFA4F18040B0F5B1
:10506000A23019D0A4F18040B0F5A4301CBFA4F147
:105070008040B0F5C0500FD0A4F18040B0F5E050B2
:105080001CBFA4F18040B0F5005005D040F6F411EB
:10509000AFF62860FBF784FDE843208270BD70B551
:1050A0000646A0F1804015460C46B0F5803018BF8A
:1050B000B6F1804F19D0A6F18040B0F580601CBFDA
:1050C000A6F18040B0F500600FD0A6F18040B0F5A9
:1050D00040601CBFA6F18040B0F5823005D040F69C
:1050E0001921AFF67860FBF75BFD002C18BF012C8F
:1050F00029D0022C18BF032C25D0042C18BF052C56
:1051000021D0062C18BF072C1DD0082C18BF092C45
:1051100019D00A2C18BF0B2C15D00C2C18BF0D2C35
:1051200011D00E2C18BF0F2C0DD0102C18BF112C25
:1051300009D0122C18BF132C05D040F61A21AFF657
:10514000D460FBF72DFD002D18BFB5F5807F35D05D
:10515000B5F5007F18BFB5F5407F2FD0B5F5806F4E
:1051600018BFB5F5A06F29D0B5F5C06F18BFB5F55C
:10517000E06F23D0B5F5006F18BFB5F5106F1DD0E7
:10518000B5F5206F18BFB5F5306F17D0B5F5406F86
:1051900018BFB5F5506F11D0B5F5606F18BFB5F5F4
:1051A000706F0BD0B5F5805F18BFB5F5885F05D07F
:1051B00040F61B21AFF64C70FBF7F2FC44EA050009
:1051C000A6F8480070BD70B50446A0F180401646B0
:1051D0000D46B0F5803018BFB4F1804F23D0A4F154
:1051E0008040B0F580601CBFA4F18040B0F5006045
:1051F00019D0A4F18040B0F540601CBFA4F18040FC
:10520000B0F580500FD0A4F18040B0F5A0501CBF85
:10521000A4F18040B0F5823005D040F63421AFF6DD
:10522000B470FBF7BDFC35F4FE4000D12DB940F65B
:105230003521AFF6C870FBF7B3FC002E04BFA08980
:10524000A84309D0012E05D040F63621AFF6E47010
:10525000FBF7A6FCA0892843A08170BD70B5044669
:10526000A0F180400D46B0F5803018BFB4F1804FFA
:1052700018D0A4F18040B0F580601CBFA4F180403C
:10528000B0F500600ED0A4F18040B0F540601CBFC6
:10529000A4F18040B0F5823004D040F64E21FE48A3
:1052A000FBF77EFC002D04BFA08820F0080009D089
:1052B000012D04D040F64F21F748FBF771FCA08880
:1052C00040F00800A08070BD10B50446A0F18040F9
:1052D000B0F5803018BFB4F1804F22D0A4F18040E7
:1052E000B0F580601CBFA4F18040B0F5006018D01C
:1052F000A4F18040B0F540601CBFA4F18040B0F53F
:1053000082300ED0A4F18040B0F5A0301CBFA4F1D3
:105310008040B0F5C05004D040F67521DE48FBF760
:105320003FFC208920F00700208110BD70B50446A5
:10533000A0F180400D46B0F5803018BFB4F1804F29
:1053400036D0A4F18040B0F580601CBFA4F180404D
:10535000B0F500602CD0A4F18040B0F540601CBFD7
:10536000A4F18040B0F5823022D0A4F18040B0F5A5
:10537000A0301CBFA4F18040B0F5A23018D0A4F139
:105380008040B0F5A4301CBFA4F18040B0F5C050FF
:105390000ED0A4F18040B0F5E0501CBFA4F18040D5
:1053A000B0F5005004D040F64531BB48FBF7F8FBA0
:1053B000002D18BF102D10D0202D18BF302D0CD06F
:1053C000402D18BF502D08D0602D18BF702D04D06F
:1053D00040F64631B048FBF7E3FB208920F070002F
:1053E0002843208170BD70B50446A0F180400D4671
:1053F000B0F5803018BFB4F1804F22D0A4F18040C6
:10540000B0F580601CBFA4F18040B0F5006018D0FA
:10541000A4F18040B0F540601CBFA4F18040B0F51D
:1054200082300ED0A4F18040B0F5A0301CBFA4F1B2
:105430008040B0F5C05004D040F68A219648FBF772
:10544000AFFB002D18BF102D08D0202D18BF302D18
:1054500004D040F68B219048FBF7A2FB294620465A
:10546000FFF764FF208940F00700208170BD2DE91F
:10547000F0410446A0F180401E4615460F46B0F5A7
:10548000803018BFB4F1804F36D0A4F18040B0F521
:1054900080601CBFA4F18040B0F500602CD0A4F166
:1054A0008040B0F540601CBFA4F18040B0F5823070
:1054B00022D0A4F18040B0F5A0301CBFA4F1804000
:1054C000B0F5A23018D0A4F18040B0F5A4301CBFD4
:1054D000A4F18040B0F5C0500ED0A4F18040B0F5EA
:1054E000E0501CBFA4F18040B0F5005004D040F65D
:1054F000A9216948FBF754FB002D1CBF022D0A2D82
:1055000004D040F6AA216448FBF74AFB0F2E04D9C9
:1055100040F6AB216048FBF743FB218C4FF6FF7050
:10552000602F1CD021F001012184228B218C00EA04
:10553000061022F0F30240F00100104321F00A01AE
:10554000294341F001012083218439462046FFF799
:10555000EDFE208940F007002081BDE8F08121F0B8
:1055600010012184218B228C00EA051321F4734160
:1055700000EA0630084322F0A00140F4807019438D
:1055800041F0100120832184DFE72DE9F04104463A
:10559000A0F180401F4616460D46B0F5803018BF7A
:1055A000B4F1804F18D0A4F18040B0F580601CBFEA
:1055B000A4F18040B0F500600ED0A4F18040B0F5B9
:1055C00040601CBFA4F18040B0F5823004D040F6AA
:1055D000BE313148FBF7E4FA002D18BFB5F5805F06
:1055E0000AD0B5F5005F18BFB5F5405F04D040F6AE
:1055F000BF312948FBF7D4FAB6F5004F18BF002E8B
:1056000004D04FF43C612448FBF7CAFA0F2F04D9A9
:1056100040F6C1312048FBF7C3FA20894FF6FF71ED
:1056200001EA07213143C0B2294308432081BDE884
:10563000F0812DE9F0410446A0F180401F46164656
:105640000D46B0F5803018BFB4F1804F18D0A4F1EA
:105650008040B0F580601CBFA4F18040B0F50060D0
:105660000ED0A4F18040B0F540601CBFA4F1804092
:10567000B0F5823004D040F6D3210748FBF790FA0A
:10568000002D18BFB5F5805F0DD0B5F5005F18BFD0
:10569000B5F5405F07D001E06C42000840F6D42128
:1056A000FE48FBF77DFAB6F5004F18BF002E04D078
:1056B00040F6D521F948FBF773FA0F2F04D940F6CD
:1056C000D621F648FBF76CFA3B463246294620467F
:1056D000FFF75BFF208940F077002081BDE8F08173
:1056E0002DE9F0410446A0F180401F4616460D46C4
:1056F000B0F5803018BFB4F1804F18D0A4F18040CD
:10570000B0F580601CBFA4F18040B0F500600ED001
:10571000A4F18040B0F540601CBFA4F18040B0F51A
:10572000823004D04FF43061DC48FBF739FA002DA9
:1057300018BFB5F5805F0AD0B5F5005F18BFB5F5A5
:10574000405F04D040F60131D448FBF729FAB6F5A2
:10575000004F18BF002E04D040F60231CF48FBF7AF
:105760001FFA0F2F04D940F60331CC48FBF718FA83
:105770003B46324629462046FFF707FF208940F482
:1057800080402081BDE8F08170B50446A0F18040E2
:105790000D46B0F5803018BFB4F1804F22D0A4F18F
:1057A0008040B0F580601CBFA4F18040B0F500607F
:1057B00018D0A4F18040B0F540601CBFA4F1804037
:1057C000B0F580500ED0A4F18040B0F5A0501CBFC1
:1057D000A4F18040B0F5823004D040F66E31AF487D
:1057E000FBF7DEF9002D18BF102D10D0202D18BFAB
:1057F000302D0CD0402D18BF502D08D0602D18BF73
:10580000702D04D040F66F31A448FBF7C9F9A08889
:1058100020F07000A080A0882843A08070BD70B5E3
:105820000446A0F180400D46B0F5803018BFB4F1B9
:10583000804F22D0A4F18040B0F580601CBFA4F15D
:105840008040B0F5006018D0A4F18040B0F5406011
:105850001CBFA4F18040B0F582300ED0A4F180408E
:10586000B0F5A0301CBFA4F18040B0F5C05004D00A
:1058700040F686318948FBF793F9042D18BF052DB2
:1058800008D0062D18BF072D04D040F68731834875
:10589000FBF786F9208920F0070020812089284322
:1058A000208170BD70B50446A0F180400D46B0F572
:1058B000803018BFB4F1804F22D0A4F18040B0F501
:1058C00080601CBFA4F18040B0F5006018D0A4F146
:1058D0008040B0F540601CBFA4F18040B0F582303C
:1058E0000ED0A4F18040B0F5A0301CBFA4F18040E0
:1058F000B0F5C05004D040F69D316848FBF750F930
:10590000802D18BF002D04D040F69E316348FBF770
:1059100047F9208920F080002081208928432081B8
:1059200070BD2DE9F0410446A0F180401D461646A9
:105930000F46B0F5803018BFB4F1804F22D0A4F1EB
:105940008040B0F580601CBFA4F18040B0F50060DD
:1059500018D0A4F18040B0F540601CBFA4F1804095
:10596000B0F582300ED0A4F18040B0F5A0301CBF5D
:10597000A4F18040B0F5C05004D040F6FA31474859
:10598000FBF70EF9012F1CBF022F032F04D040F6A6
:10599000FB314248FBF704F9002E1CBF022E0A2EF1
:1059A00004D040F6FC313D48FBF7FAF8002D1CBF4F
:1059B000022D0A2D04D040F6FD313848FBF7F0F8EF
:1059C0002189208B228C20F0030020F4407040F2CB
:1059D0000113184321F007014FF6FF73394303EA1F
:1059E000051322F0220233431A43218120832284AB
:1059F000BDE8F08170B50446A0F180400D46B0F5D9
:105A0000803018BFB4F1804F22D0A4F18040B0F5AF
:105A100080601CBFA4F18040B0F5006018D0A4F1F4
:105A20008040B0F540601CBFA4F18040B0F58230EA
:105A30000ED0A4F18040B0F5A0301CBFA4F180408E
:105A4000B0F5C05004D040F629411448FBF7A8F83F
:105A5000002D04BFA08820F0800009D0012D04D0C3
:105A600040F62A410D48FBF79BF8A08840F08000E3
:105A7000A08070BD70B50C460546B0F1804F1FBFC9
:105A8000A5F18040B0F54060A5F18040B0F5A430AC
:105A900008D040F65C41014802E000006C4200087A
:105AA000FBF77EF8002C18BFB4F5806F12D0B4F568
:105AB000006F18BFB4F5406F0CD0402C18BF802C7D
:105AC00008D0C02C18BF022C04D040F65D4103481A
:105AD000FBF766F8A5F8504070BD00006C42000866
