:020000040800F2
:100000005052002091CC0008E1320008E332000891
:10001000E5320008E7320008E9320008000000007D
:10002000000000000000000000000000EB320008AB
:10003000ED32000800000000EF320008F132000845
:10004000B5CC0008B5CC0008B5CC0008B5CC00088C
:10005000B5CC0008B5CC000879080008B5CC00087C
:10006000B5CC0008B5CC0008B5CC0008B5CC00086C
:10007000B5CC0008B5CC0008B5CC0008B5CC00085C
:10008000B5CC0008B5CC0008B5CC0008B5CC00084C
:10009000B5CC0008B5CC0008B5CC0008B5CC00083C
:1000A000B5CC0008B5CC0008B5CC0008B5CC00082C
:1000B000F5320008AD200008B5CC0008B5CC00082A
:1000C000B5CC0008B5CC0008B5CC0008B5CC00080C
:1000D000B5CC0008EF2B0008091E0008D72E000839
:1000E000B5CC0008B5CC0008B5CC0008B5CC0008EC
:1000F000B5CC0008B5CC0008B5CC0008B5CC0008DC
:10010000B5CC0008B5CC00089B130008B5CC00089E
:10011000B5CC0008B5CC0008B5CC0008B5CC0008BB
:10012000B5CC0008B5CC0008B5CC0008B5CC0008AB
:10013000B5CC0008B5CC0008B5CC0008B5CC00089B
:10014000B5CC0008B5CC0008B5CC0008F9320008E1
:10015000B5CC0008B5CC0008B5CC0008B5CC00087B
:10016000B5CC0008B5CC0008B5CC0008B5CC00086B
:10017000B5CC0008B5CC0008B5CC0008B5CC00085B
:10018000B5CC0008B5CC000800F002F800F083F808
:100190000AA090E8000C82448344AAF10107DA45E2
:1001A00001D100F078F8AFF2090EBAE80F0013F0B1
:1001B000010F18BFFB1A43F0010318474CF600006B
:1001C0006CF600000A444FF0000C10F8013B13F0ED
:1001D000070408BF10F8014B1D1108BF10F8015BA0
:1001E000641E05D010F8016B641E01F8016BF9D193
:1001F00013F0080F1EBF10F8014BAD1C0C1B09D1EA
:100200006D1E58BF01F801CBFAD505E014F8016B5B
:1002100001F8016B6D1EF9D59142D6D370470000ED
:100220000023002400250026103A28BF78C1FBD8FF
:10023000520728BF30C148BF0B60704766290EF0D7
:10024000E88603681B0A28BF41F0800164290CF08E
:10025000AD8578290CF02486E4290CF0E385632928
:100260000DF0A78373290DF0AC83002070471FB5F4
:100270000EF087FE0DF000FC0400002000210EF0BF
:10028000C3FD401C6060002000210EF0A7FDE0606F
:100290001FBD10B510BD0DF085FE1146FFF7E7FF3D
:1002A00000F011F90DF0ACFE03B4FFF7F2FF03BC50
:1002B00002F03AFD01B4FD4800990161016900298D
:1002C000FCD101B0704710B50446012101F0A0F83F
:1002D00058B1A12001F06AFDF5A00CF001FDA120AC
:1002E00001F064FD0A2001F061FD0221204601F0C9
:1002F0008FF858B1A12001F059FDEEA00CF0F0FCF0
:10030000A12001F053FD0A2001F050FD04212046F8
:1003100001F07EF858B1A12001F048FDE6A00CF0F4
:10032000DFFCA12001F042FD0A2001F03FFD082181
:10033000204601F06DF858B1A12001F037FDDFA093
:100340000CF0CEFCA12001F031FD0A2001F02EFDC1
:100350001021204601F05CF858B1A12001F026FDE3
:10036000D7A00CF0BDFCA12001F020FD0A2001F077
:100370001DFD2021204601F04BF858B1A12001F0CD
:1003800015FDD0A00CF0ACFCA12001F00FFD0A205F
:1003900001F00CFD4021204601F03AF858B1A120AF
:1003A00001F004FDC8A00CF09BFCA12001F0FEFCB4
:1003B0000A2001F0FBFC8021204601F029F858B109
:1003C000A12001F0F3FCC1A00CF08AFCA12001F0F7
:1003D000EDFC0A2001F0EAFC4FF48071204601F0A8
:1003E00017F8002808BF10BDA12001F0DFFCB8A05D
:1003F0000CF076FCA12001F0D9FCBDE810400A20E9
:1004000001F0D4BC38B5044601F034FCA12001F061
:10041000CDFCB0A00CF064FCA12001F0C7FC0A20C8
:1004200001F0C4FC204603F0C5F960684FF47A710E
:10043000B0FBF1F0B0F1807F0DD220F07F40411E83
:100440004FF0E0204161A94AF02182F8141D0021FB
:10045000816107210161A648A74A0090A54B0121AF
:10046000A2F2AC5009F0FAFEA44800F0A5FFA249A0
:10047000A1F2AC500AF019F88C4864210091016196
:1004800001690029FCD102F0FFFB02F077FDA120F9
:1004900001F08CFC9AA00CF023FCA12001F086FC5A
:1004A0000A2001F083FCE42001F080FC96A00CF00F
:1004B00017FCE42001F07AFC0A2001F077FCBDE88B
:1004C000384000F069BF794CA2B00120207001AE25
:1004D00000251A9601F01EF9DFF83CA2DFF83CB2C5
:1004E0006427A946207800286BD00DF1700801F030
:1004F000C1FBA12001F05AFC76A00CF0F1FBA12079
:1005000001F054FC0A2001F051FC404603F052F97E
:100510001D994FF47A70B1FBF0F0B0F1807F0DD2ED
:1005200020F07F40411E4FF0E02041616F4AF021F2
:1005300082F8141DC0F81890072101616C486E4ABA
:1005400000906C4B0121A2F2AC5009F087FE6B4881
:1005500000F032FF6849A1F2AC5009F0A6FF009705
:10056000276120690028FCD102F08EFB02F006FD15
:10057000A12001F01BFC62A00CF0B2FBA12001F055
:1005800015FC0A2001F012FCE42001F00FFC5EA033
:100590000CF0A6FBE42001F009FC0A2001F006FCA7
:1005A00000F0FAFEA12001F001FC23215CA00CF078
:1005B00097FBA12001F0FAFB0A2001F0F7FB84F879
:1005C00000906068002800F0F38028466D1CB0F5AC
:1005D000704FC0F0ED804849A1F2AC5009F065FFC2
:1005E000464800F059FE8046012100F011FF58B145
:1005F000A12001F0DBFB2EA00CF072FBA12001F08A
:10060000D5FB0A2001F0D2FB0221404600F000FF9A
:1006100058B1A12001F0CAFB26A00CF061FBA1207B
:1006200001F0C4FB0A2001F0C1FB0421404600F0A8
:10063000EFFE58B1A12001F0B9FB1FA00CF050FB58
:10064000A12001F0B3FB0A2001F0B0FB08214046D5
:1006500000F0DEFE58B1A12001F0A8FB17A00CF0BD
:100660003FFBA12001F0A2FB0A2001F09FFB10211B
:10067000404600F0CDFE58B1A12001F097FB10A03C
:100680000CF02EFBA12001F091FB0A2001F08EFB63
:100690002021404600F0BCFE38B1A12001F086FBCD
:1006A00008A00CF01DFBA1203CE040E00000002071
:1006B00046522100494C21004D5221004D4C210051
:1006C00042522100424C2100554421005253210046
:1006D0004C53210053797374656D20496E697469B8
:1006E000616C697A696E672E2E2E00000FE000E0C3
:1006F0001800002010010020F80600207C070020D0
:10070000446F6E652100000053797374656D20524B
:1007100065616479000000007C00002080000020FA
:100720002563000001F042FB0A2001F03FFB40215D
:10073000404600F06DFE60B1A12001F037FBAFF242
:1007400078000CF0CDFAA12001F030FB0A2001F076
:100750002DFB8021404600F05BFE60B1A12001F03E
:1007600025FBAFF298000CF0BBFAA12001F01EFBB4
:100770000A2001F01BFB4FF48071404600F048FE58
:1007800060B1A12001F012FBAFF2BC000CF0A8FA9E
:10079000A12001F00BFB0A2001F008FB794800F0D2
:1007A0007BFD02200090206120690028FCD100BF61
:1007B000DAF80010DBF8000081423FF493AE01A8A4
:1007C0001A9901F082FF5FEA00083FF48BAEA12086
:1007D00001F0ECFA6CA00CF083FAA12001F0E6FA2B
:1007E0000A2001F0E3FAB8F1010F03D0B8F1020FCB
:1007F00031D03CE01AA801F0F8FF00281EDB00EB26
:100800004011624800EB81081A98D8F88010884798
:1008100028B101A906F132000CF0A3FD27E0A120C8
:1008200001F0C4FA08F1050159A00CF059FAA12011
:1008300001F0BCFA0A2001F0B9FA18E0A12001F099
:10084000B5FA54A00CF04CFAA12001F0AFFA0A203E
:1008500001F0ACFA0BE0A12001F0A8FA52A00CF0D4
:100860003FFAA12001F0A2FA0A2001F09FFA23200A
:1008700001F09CFA1A9635E610B5012008F034F81C
:10088000002808BF10BD012008F07DF83D48002178
:100890004368C3E902114368C3E904119FED470AA5
:1008A000406880ED060AE42001F080FA44A00CF0D4
:1008B00017FAE42001F07AFA0A2001F077FA4249A7
:1008C0000120087010BD414810B500684049096812
:1008D000884208BF10BD01F024FA3B499FED3D0A54
:1008E0002B2804BFD1ED020A30EE800A15D02D2846
:1008F00004BFD1ED020A30EEC00A0ED0752804BF45
:10090000D1ED030A30EE800A0AD0642804BFD1ED8D
:10091000030A30EEC00A03D004E081ED020A01E0D0
:1009200081ED030AC868B0F17E5F0CDCC86810F185
:10093000814F0DD88868B0F17E5F0EDC886810F1B9
:10094000814F0FD810BDB7EE000A81ED030AEDE725
:10095000BFEE000A81ED030AECE7B7EE000A81ED75
:10096000020AEBE7BFEE000A81ED020A10BDFEE7C6
:1009700015480169002908BF70470169491E0161D6
:10098000704700007C0700200A000000C0F000084B
:1009900025730000556E6B6E6F776E20436F6D6D23
:1009A000616E642100000000496E76616C6964200C
:1009B0006368617261637465722100000000B44273
:1009C0005354203000000000000000207C00002074
:1009D00080000020CDCCCC3D70B5012184B008460C
:1009E00003F019F84FF4D850032500908DF8055006
:1009F00002208DF8040000208DF80600A44E8DF82A
:100A000007006946304608F08AF80A220821304675
:100A100008F04AFC0A220921304608F045FC0A2267
:100A20000B21304608F040FC0A220C21304608F029
:100A30003BFC012430158DF8064000908DF80740EE
:100A40008DF805506946304608F069F80A221146CB
:100A5000304608F029FC0121880303F058F80121F1
:100A6000802002F0F7FF0021E00608F016FD4FF4A9
:100A7000A06008F0ABFC1C208DF808008DF8094040
:100A80008DF80A408DF80B4002A808F0BAFC01214D
:100A9000084603F01DF804B070BD08B54FF4C060FF
:100AA00008F094FC43208DF8000001208DF801002F
:100AB00003218DF802108DF80300684608F0A1FCB0
:100AC00008BD744800294FF0010101D008F0CCBAEC
:100AD00008F08CBA10B5704C84B0206000214FF043
:100AE000804003F05DFF01210022880705F013FF1D
:100AF00042F6DF6001900520ADF800000020ADF85F
:100B00000800ADF8020069464FF0804003F0E1FABA
:100B10000121880706F0F5F80121880703F029FE76
:100B200001221146900705F0F6FE0121880703F027
:100B300037FF20680028FCD104B00021BDE8104038
:100B40004FF0804003F02CBF30B585B00121042068
:100B500002F061FF032101208DF805108DF80400DB
:100B600000254C4C00908DF806508DF807506946D2
:100B7000204607F0D4FF0121204608F037FA464C02
:100B8000C82020600021C00603F00AFF01210022D6
:100B9000880705F0C0FE42F6DF6003900520ADF83F
:100BA0000800ADF81050ADF80A5002A9800703F014
:100BB00090FA0121880706F0A4F80121880703F0C4
:100BC000D8FD01221146900705F0A5FE01218807F6
:100BD00003F0E6FE20680028FCD100214FF08040A1
:100BE00003F0DEFE05B030BD10B52B4C84B02060A4
:100BF00000214FF0804003F0D3FE0121002288073E
:100C000005F089FE0B2001900520ADF800000020C2
:100C1000ADF80800ADF8020069464FF0804003F0DF
:100C200058FA0121880706F06CF80121880703F0C3
:100C3000A0FD01221146900705F06DFE01218807F5
:100C400003F0AEFE20680028FCD104B00021BDE80E
:100C500010404FF0804003F0A3BE10B5012188077B
:100C600005F0E1FF002808BF10BD0121880706F04C
:100C700048F80948016819B10168491E016010BDB2
:100C8000BDE8104000214FF0804003F089BE000015
:100C9000000002400008024014000020704710B518
:100CA000A12001F083F8FEA00CF01AF8A12001F0B9
:100CB0007DF8BDE810400A2001F078B8704710B503
:100CC000A12001F073F8FAA00CF00AF8A12001F0BD
:100CD0006DF8BDE810400A2001F068B8704710B503
:100CE00098B1012820D002284FF0A1002BD001F0AC
:100CF0005DF8F449F4A00BF0F3FFA12001F056F8E1
:100D0000BDE810400A2001F051B8A12001F04EF8D2
:100D1000EE49EDA00BF0E4FFA12001F047F8BDE89B
:100D200010400A2001F042B8A12001F03FF8E84944
:100D3000E5A00BF0D5FFA12001F038F8BDE8104088
:100D40000A2001F033B801F031F8E249DEA00BF0DF
:100D5000C7FFA12001F02AF8BDE810400A2001F0E9
:100D600025B810B50446A12001F020F82189DAA0A9
:100D70000BF0B6FFA12001F019F80A2001F016F8D7
:100D8000A12001F013F86189D6A00BF0A9FFA120E2
:100D900001F00CF8BDE810400A2001F007B87047D8
:100DA00010B54879082811D0032818BF10BDA1201C
:100DB00000F0FCFFCE49C4A00BF092FFA12000F090
:100DC000F5FFBDE810400A2000F0F0BFA12000F0C0
:100DD000EDFFC849C8A00BF083FFA12000F0E6FF9B
:100DE000BDE810400A2000F0E1BF10B50446A12084
:100DF00000F0DCFF2146C1A00BF072FFA12000F043
:100E0000D5FFBDE810400A2000F0D0BF10B5044661
:100E1000A12000F0CBFF2146BDA00BF061FFA12077
:100E200000F0C4FFBDE810400A2000F0BFBF10B5BD
:100E30000446A12000F0BAFF2146B9A00BF050FFF4
:100E4000A12000F0B3FFBDE810400A2000F0AEBFC3
:100E500010B5A12000F0AAFFB6A00BF041FFA12021
:100E600000F0A4FFBDE810400A2000F09FBF10B5BD
:100E7000A12000F09BFFB4A00BF032FFA12000F0F6
:100E800095FFBDE810400A2000F090BF10B5A120EA
:100E900000F08CFFB3A00BF023FFA12000F086FF31
:100EA0000A2000F083FF012010BD7047B2480021E6
:100EB00001704170C0E902119FEDB00AC0E9041150
:100EC00080ED060A704770B50C462DED028B054685
:100ED000DFEDAB0A60EE200A9FEDAA0A80EE808A61
:100EE000B0EE480A0DF028FDDFEDA78A20EE280AB3
:100EF00010EE100A0EF04AF8C5E90001B0EE480AFB
:100F00000DF0C2FD20EE280A10EE100A0EF03EF899
:100F1000C4E90001BDEC028B70BDFDEEC00A10EE0D
:100F2000900ADFED9A0AB0F5B47F08DB30EE600A74
:100F3000BDEEC01A11EE100AB0F5B47FF6DABDEEC0
:100F4000C01A11EE100A0028A8BF704730EE200A20
:100F5000BDEEC01A11EE100A0028F7DB70472DE92C
:100F6000F0412DED068B90F90060002E7DD0824C73
:100F700094ED060A9FED829A20EE090ADFED819A30
:100F800080EE298AB0EE480A0DF0D6FCDFED7E8AAD
:100F900020EE280A10EE100A0DF0F8FF0D46074665
:100FA000B0EE480A0DF070FD20EE280A10EE100A8F
:100FB0000DF0ECFF0246D4E90230DB1B60EB0500CC
:100FC000C4E90230D4E9043C981A6CEB0101C4E98D
:100FD0000401704200EE100AB8EEC00ADFED6C0AA0
:100FE00060EE200A9FED6B1A80EE810A9FED678A02
:100FF00020EE08AA94ED060A30EE0A0AFDEEC00AB9
:1010000010EE900AB0F5B47F09DB00BF30EE480A5D
:10101000FDEEC00A10EE900AB0F5B47FF6DAFDEEF0
:10102000C00A10EE900A002808DA00BF30EE080A65
:10103000FDEEC00A10EE900A0028F7DB20EE090A48
:1010400080EE299AB0EE490A0DF076FC20EE280ACF
:1010500010EE100A0DF09AFF05460E46B0EE490A52
:101060000DF012FD20EE280A00E0B9E010EE100AA3
:101070000DF08CFF0A46D4E902315B197141C4E9D5
:101080000231D4E9043C18184CEB0201C4E9040114
:1010900094ED060A30EE0A0AFDEEC00A7CE000007C
:1010A00044657669636520417474616368656400B2
:1010B00044657669636520446973636F6E6E65632A
:1010C000746564006CF000082573000016F00008D9
:1010D00033F0000850F00008564944203A202530EB
:1010E00034586800504944203A202530345868006C
:1010F0009BF000087BF0000825730A004D616E75B7
:101100006661637475726572203A20257300000071
:1011100050726F64756374203A20257300000000DC
:1011200053657269616C204E756D626572203A205C
:1011300025730000456E756D65726174696F6E2070
:10114000646F6E65210000004465766963652069FF
:1011500073206E6F7420737570706F727465642184
:1011600000000000555342485F5553525F55736568
:1011700072496E7075742100980700200000B44217
:10118000D80F49400000344300C0DA450000B443A2
:101190006F12033BDDEDAF4210EE900AB0F5B47F65
:1011A00009DB00BF30EE480AFDEEC00A10EE900ADF
:1011B000B0F5B47FF6DAFDEEC00A10EE900A002812
:1011C00008DA00BF30EE080AFDEEC00A10EE900A01
:1011D0000028F7DB84ED060ABDEC068BBDE8F08144
:1011E000224842F2107301464268B1F900109A4257
:1011F000C8BF491C04DC12F57A7FB8BF491E00DA6B
:101200000180B0F900000A3015283CBFBDEC068B08
:10121000BDE8F081A12000F0C9FD15A00BF060FD34
:10122000A12000F0C3FD0A2000F0C0FD322000F034
:101230007FFC4FF47A70FFF73DF86FF0310000F05B
:1012400077FCF3E7704710B50446A12000F0AEFD2F
:1012500021460DA00BF044FDA12000F0A7FDBDE844
:1012600010400A2000F0A2BD70470000600000207E
:1012700050414E494321204C4F535420524546453E
:1012800052454E43452100004B657920636F6465EC
:10129000202558200A00000070B505466748006800
:1012A0003F2121EA000400F0D6F9654840F24C41A4
:1012B000B0F90400C842B8BF44F040042C8268680A
:1012C00080690DF063FE5F4AC2E91601204670BDD9
:1012D0002DE9F04780468EB0E42000F067FDD8F895
:1012E00000A0DAF804000DF0ABFDD8F80490064633
:1012F0000F46D9F818000DF0A3FD04460D46DAF8A4
:1013000000000DF09DFD02460B46D8F808004FF492
:101310007A514FF4FA5C09580CEBC10C844400EB91
:10132000C101DCE900ACCDE90CACD1E90001CDE9AB
:101330000A01B8F81000CDE9077002A880E87C0027
:10134000D9E90401CDE90001D9E902233E480BF0B7
:10135000C7FCE42000F02AFD0EB00A20BDE8F047EB
:1013600000F024BD10B5044682B0E42000F01EFD5C
:101370006068D0E90412CDE90012D0E9022333A05D
:101380000BF0AEFCE42000F011FD02B00A20BDE835
:10139000104000F00BBD7047704710B5304C022173
:1013A000204605F040FC002808BF10BD0221204661
:1013B000BDE8104005F0A5BC10B52A4901602A49D6
:1013C00041602A4981600021018200F023FF1D480D
:1013D000B0EE000A274980ED060AB1EE000A80ED62
:1013E000020A9FED230AF2EE040A80ED0A0AC1ED1B
:1013F000060A4FF49672026381ED150A00F0C2F9F5
:1014000000F072F800F0DAFABDE8104001F02FB8F1
:10141000194B10B41A8801EA000480EA020C0CEAA5
:10142000040C0CF0FF0C084214BF42EA010022EA4F
:101430000100188010BC6046704700001004024094
:101440006A00002038090020BCF7000850782025E9
:101450006C6C640A507920256C6C640A0A000000E8
:10146000000C0040D807002098070020A0090020A9
:1014700000000000D0080020680000202DE9F041A5
:10148000874D0E4607460821284607F0EDFD854C9E
:101490000221204608F0DFFD0028F9D03946204619
:1014A00008F0BBFC0121204608F0D5FD0028F9D04A
:1014B000204608F092FC0221204608F0CCFD0028CE
:1014C000F9D03146204608F0A8FC0121204608F05A
:1014D000C2FD0028F9D0204608F07FFC2846BDE870
:1014E000F041082107F082BD2DE9F041012188B0CB
:1014F000080302F00CFB0121084602F08CFA0121DE
:10150000102002F088FA0024ADF808404FF48270F1
:1015100002250126ADF80A00ADF810602802ADF8EA
:1015200012003820ADF814005E4FADF80C40ADF855
:101530000E50ADF81640ADF81860384608F0D6F8F1
:1015400002A9384608F005F98DF80450E0208DF81E
:101550000550DFF8548100908DF806408DF8074063
:101560006946404607F0DBFA8DF804608DF80550B7
:101570008DF807608DF806400820494C00906946B8
:10158000204607F0CCFA05221146404607F08CFEB3
:1015900005220621404607F087FE05220721404626
:1015A00007F082FE0821204607F020FD0121384681
:1015B00008F053FA01212520FFF760FFC9212320FD
:1015C000FFF75CFF67212020FFF758FF67212020ED
:1015D000FFF754FF67212020FFF750FF2021242030
:1015E000FFF74CFF08B0BDE8F08170B52C4D044604
:1015F0000821284607F038FD44F08006294C0221D6
:10160000204608F028FD0028F9D03146204608F091
:1016100004FC0121204608F01EFD0028F9D02046D8
:1016200008F0DBFB0221204608F015FD0028F9D068
:101630000021204608F0F1FB0121204608F00BFDB7
:101640000028F9D00821284607F0D0FC204608F0F1
:10165000C4FBC0B270BD10B52820FFF7C6FF134C05
:1016600020802920FFF7C1FF218841EA0020208047
:101670002A20FFF7BAFF60802B20FFF7B6FF6188B2
:1016800041EA002060802C20FFF7AFFFA0802D20D2
:10169000FFF7ABFFA18841EA0020A08010BD000049
:1016A0000010024000300140000002406A000020AB
:1016B00030B5012187B0084602F0ADF90121880359
:1016C00002F025FA00258DF8145001248DF81750EA
:1016D00004A92B48049407F022FA0021084607F0D9
:1016E00067FF8DF8045008208DF8050000948DF8F0
:1016F0000640684607F029F806208DF808008DF8A6
:1017000009408DF80A408DF80B4002A807F079FED9
:1017100007B030BD30B5012187B0084602F07BF933
:101720000121880302F0F3F900258DF814500124FB
:101730008DF8175004A91248049407F0F0F900211D
:10174000084607F035FF8DF8045008208DF8050095
:1017500000948DF80640684606F0F7FF06208DF8E5
:1017600008008DF809408DF80A408DF80B4002A85A
:1017700007F047FE07B0BDE8304000F01FB800009A
:101780000000024000B583B03F20009001210220FC
:1017900002F041F900208DF804008DF806000120C8
:1017A0008DF8070002208DF805006946024807F011
:1017B000B6F903B000BD00000004024000B583B0DC
:1017C0000121082002F027F94FF470400090012019
:1017D0008DF8040000208DF806008DF80700032026
:1017E0008DF805006946024807F099F903B000BD7D
:1017F000000C0240FE494968491C4843FD49A1FBD1
:10180000001040097047BDEEC00AF94910B510EE4E
:10181000100A4968F94C491C4843F649A1FB0010DD
:10182000F54940098860204603F01AF92046BDE8D2
:101830001040082103F03DBEBDEEC00AEC4910B5D2
:1018400010EE100A4968ED4C491C4843E949A1FBD8
:101850000010E94940098860204603F08FFA2046CD
:10186000BDE81040082103F0B6BEBDEEC00AE04955
:1018700010B510EE100A4968E04C491C4843DD4998
:10188000A1FB0010DC4940098860204603F0B0F954
:101890002046BDE81040082103F05CBEBDEEC00A42
:1018A000D34910B510EE100A4968D44C491C48437E
:1018B000D049A1FB0010D04940098860204603F0C0
:1018C00017FB2046BDE81040082103F0B7BE10B555
:1018D00082B00121082002F09EF8C94C02220C219E
:1018E000204607F0E1FC02220D21204607F0DCFC37
:1018F00002220E21204607F0D7FC02220F212046AB
:1019000007F0D2FC02214FF470408DF804100090D3
:101910008DF8051001208DF807006946204607F074
:10192000FEF802B010BD70B5B34C82B060202080CC
:101930000121082002F06FF8B14E02220C2130463E
:1019400007F0B2FC02220D21304607F0ADFC022266
:101950000E21304607F0A8FC02220F21304607F086
:10196000A3FC02218DF804104FF470408DF805108F
:10197000009001258DF807506946304607F0CFF8F2
:1019800065800020A08102B070BD10B50121042047
:1019900002F09EF89648002146F67D0201804180C3
:1019A000426001818172954C0146204602F091FB14
:1019B0002046BDE81040012102F0F2BF2DE9F041C0
:1019C00082B00121042002F083F88948002446F601
:1019D0007D010480448041600481884F8472014607
:1019E000384602F076FB0121384602F0D9FF824DDD
:1019F000602001212880082002F00DF8DFF8008225
:101A000002220C21404607F04FFC02220D214046E5
:101A100007F04AFC02220E21404607F045FC022254
:101A20000F21404607F040FC02218DF804104FF4CE
:101A300070408DF80510009001268DF8076069460A
:101A4000404607F06CF86E80AC8129463846AC60A1
:101A500003F094F90821384603F0BDFD29463846C5
:101A6000AC6002F0FDFF0821384603F022FD294654
:101A70003846AC6003F03CFA0821384603F0DEFD3E
:101A800029463846AC6003F0B3F802B03846BDE8EA
:101A9000F041082103F05EBD2DE9F041044600EE5F
:101AA000104A534EDFF84C81B8EEC00A7168A6F1B7
:101AB0001405491CBDEEC00A504F10EE100A4843F1
:101AC000A8FB00104009A8602946384603F090F8AA
:101AD0000821384603F03EFD00EE104A7168B8EE6A
:101AE000C00A491CBDEEC00A10EE100A4843A8FB0C
:101AF00000104009A8602946384603F0F9F908218A
:101B0000384603F09BFD002429463846AC6002F0BD
:101B1000A7FF0821384603F0CCFC29463846AC60C4
:101B200003F02CF93846BDE8F041082103F053BD1D
:101B30002DE9F047DFF8B88006002E4FD8F80400F2
:101B4000DFF8B8904FF00004A8F1140500F101008F
:101B500041D5764200EE106AB8EEC00ABDEEC00A6A
:101B600010EE101A4843A7FB00104009A860294650
:101B7000484603F03DF80821484603F0EBFC00EE30
:101B8000106AD8F80410B8EEC00A491CBDEEC00AAD
:101B900010EE100A4843A7FB00104009A860294630
:101BA000484603F0EBF80821484603F014FD2946A7
:101BB0004846AC6003F09CF90821484603F03EFD1E
:101BC00029464846AC6002F04BFF4846BDE8F04766
:101BD000082103F06EBC00EE106AB8EEC00ABDEE3C
:101BE000C00A10EE101A4843A7FB0010400909E094
:101BF000CC0700201F85EB51B807002000080040EB
:101C0000000C0240A8601A49484602F029FF08214A
:101C1000484603F04EFC00EE106AD8F80410B8EE07
:101C2000C00A491CBDEEC00A10EE100A4843A7FBCB
:101C300000104009A8600E49484603F059F90821F0
:101C4000484603F0FBFC0A494846AC6002F0D0FF6E
:101C50000821484603F07EFC05494846AC6003F085
:101C60008DF84846BDE8F047082103F0B4BC0000F9
:101C7000B8070020F0B5012187B0084601F0CBFE7F
:101C8000844F07220221384607F00EFB072203216A
:101C9000384607F009FB02208DF8140000248DF867
:101CA000164001268DF8176003200C258DF81500CD
:101CB000049504A9384606F032FF0121480401F0DA
:101CC00007FFADF80A507448744D0090ADF8064017
:101CD000ADF80C40ADF80840ADF804406946284620
:101CE00005F0E7FD26208DF818008DF819408DF8D5
:101CF0001A408DF81B6006A807F083FB012240F212
:101D00002551284606F028FB0121284605F0FEFE55
:101D10006348C4600461446084600470447007B028
:101D2000F0BD5F480169C2689142FBD05D490A88F5
:101D300022F020020A80C268DFF86CC102F03F0383
:101D4000521CC26013F80C000A8842F020020A807C
:101D50007047534A1178002918BF704753784FF0E5
:101D6000010C504943B90B8843F080030B8082F883
:101D700001C04E490880704730B40B8823F08003BF
:101D80000B8093684A4D03F03F045B1C93606055E1
:101D900090685368584010F03F0F08BF82F800C0A9
:101DA000088840F08000088030BC704730B53C4C5B
:101DB00005460A2805D121780029FCD10D20FFF71E
:101DC000C8FF21780029FCD12846FFF7C2FF28462A
:101DD00030BD70B504460078002814BF304D70BD8A
:101DE00026780A2E05D128780028FCD10D20FFF78F
:101DF000B0FF28780028FCD13046FFF7AAFF14F87E
:101E0000010F0028ECD170BD244918B40888009057
:101E100010F0200F224801F1040216D00B8823F0A5
:101E200020030B80C16803694031994204BF18BC8C
:101E300070471288016901F03F03DFF86CC0491C4C
:101E4000016103F80C2018BC7047009B13F0800F51
:101E500004BF18BC70470B8823F080030B804168D7
:101E6000D0F808C0002361450BD04168104C01F048
:101E70003F0C491C41601CF804101180037018BC11
:101E8000704743700748018821F08001018018BC29
:101E9000704700000000024080841E0000440040A3
:101EA000700000200C44004024080020044400403E
:101EB000E407002070B5FE484FF47A7CD0F8804EDD
:101EC000B4FBFCF00CFB1041FA4800EBC101D1E976
:101ED0000056F9494968D1E90223AA1AB4FBFCF576
:101EE0000CFB154C00EBCC004FF4FA5C66EB0303E3
:101EF0005CF8004000F58050D0F844CFD1E90401EF
:101F0000201A6CEB0101A2FB02C403FB024402FB9A
:101F10000342A0FB003401FB004400FB01411CEB29
:101F2000030051410CF0BAFF00EE900AB1EEE00A56
:101F3000B4EE400AF1EE10FA1CBFB0EE600A0CF0ED
:101F40006BFE10EE100A0DF021F8DC4AC2E9160112
:101F500070BD2DE9F04107460D462DED028B16466A
:101F60001C46104619460CF099FF08EE100A384638
:101F700029460CF093FF00EE900A88EE200A0CF040
:101F80002BFCDFEDCF0A20EE201ADFEDCE1A81EE1A
:101F9000210A30EEC00AB5EEC00AF1EE10FA38BFE1
:101FA000B1EE400A002D0BDA00200146801B71EBD8
:101FB0000400BEBF30EEC00ABDEC028BBDE8F0816C
:101FC000002DBFBF002C30EE200ABDEC028BBDE817
:101FD000F08100200146C01B71EB0500BFBF002C43
:101FE000DFEDB90A30EEC00ABDEC028BB8BFBDE828
:101FF000F08147EA060045EA0401084308BF9FED67
:10200000B30ABDEC028BBDE8F08170B5A8484FF46F
:102010007A72A84BD0F880CEBCFBF2F002FB10C065
:10202000BCFBF2F403EBC00102FB14C2D1E90001D6
:1020300003EBC2034FF4FA52D25803F58053D3F89E
:10204000443FFFF786FFA24C9B4D84ED150A68685C
:1020500080690CF09BFFC4E91601E420FFF7A6FE9F
:10206000606D0CF0EDFE41EC100B9AA053EC102BC0
:102070000AF036FEE420FFF799FE0A20FFF796FEED
:10208000E420FFF793FE686880690CF0D9FE41EC0C
:10209000100B92A053EC102B0AF022FEE420FFF765
:1020A00085FEBDE870400A20FFF780BE2DE9F041B3
:1020B0008C4C0121204604F0B6FD002808BFBDE885
:1020C000F0810121204604F01CFEFFF79EFF8048AE
:1020D00000F056FF10EE100A8349784D744C884288
:1020E00054DA10EE100A814988424FD8D4F8806E35
:1020F0004FF47A71B6FBF1F001FB1060A4F5405C7F
:102100000CEBC000D0E900286B484068D0E90237EA
:10211000D21A68EB0703B6FBF1F701FB17610CEB72
:10212000C1014FF4FA5C5CF8016001F58051D1F80F
:10213000447FD0E9041C701A67EB0C01A2FB02C6B5
:1021400003FB026602FB0362A0FB003601FB006694
:1021500000FB01611CEB030051410CF09FFE00EEFF
:10216000900AB1EEE00AB4EE400AF1EE10FA1CBF9C
:10217000B0EE600A0CF050FD10EE100A0CF006FFF5
:10218000C5E916014D4800F0FBFE09E0DFED580AF5
:1021900020EE200ABDEEC00A10EE100AFFF7C8FCC0
:1021A000A86CB0F1804F08DAD4F8841ED4F8800E01
:1021B00088421CBF401CC4F8800E01204D490870A5
:1021C000BDE8F0814B4900230B7047F6FF719FED8E
:1021D0003F0A016280ED0A0A4A424262016080EDD4
:1021E000020A4260016180ED060A4261016380EDEE
:1021F0000E0A426380ED100A80ED120A80ED110A8A
:10220000C36480ED140A80ED150A80F8643080ED17
:10221000180A70473748002347F6FF7103702748B4
:102220009FED2A0A4A42016280ED0A0A4262016079
:1022300080ED020A4260016180ED060A426101639D
:1022400080ED0E0A426380ED100A80ED120A80EDE7
:10225000110AC36480ED140A80ED150A80F8643019
:1022600080ED180A6830016280ED0A0A426201605E
:1022700080ED020A4260016180ED060A426101635D
:1022800080ED0E0A426380ED100A80ED120A80EDA7
:10229000110AC36480ED140A80ED150A80F86430D9
:1022A00080ED180A0248C0F8803EC0F8843E7047AE
:1022B000A0390020A00900207C070020D0080020C1
:1022C00000003443D80F49400000B4430000000030
:1022D000380900204F522025660000004F7220254B
:1022E0006600000000040040CDCCCC3DCDCCCCBD80
:1022F0000000C84284000020A4480246C16CD2ED10
:10230000180A92ED0A0A002904BF20EE200A80ED87
:102310000B0A13D0B7EE001AC1EE201A01EE101A04
:10232000B8EEC12A80EE021A71EE211A80EE212A3F
:1023300081EE210A80ED0B2A80ED140A90ED020A4D
:1023400080EE201A80ED031A704770B4DFF840C2A7
:102350004FF47A74DCF8845EB5FBF4F604FB165691
:10236000ACF5405505EBC606C6E90001DCF8840E65
:10237000B0FBF4F104FB110005EBC000E1000A50D2
:1023800000F58050C0F8443FDCF8840E401CCCF8C7
:10239000840E70BC70472DE9F0017E4A00214FF495
:1023A0007A7302F5405000BF4FF0000511F0010FA5
:1023B0002E4621D0D0F8847E4FF0FF3CB7FBF3F8D7
:1023C00003FB187702EBC707734CC7E90056D0F838
:1023D000845EB5FBF3F603FB165502EBC50505F568
:1023E0008056C6F844CFC6F8404FD0F884CE0CF1E2
:1023F000010CC0F884CE21E0D0F8847E4FF0000CB0
:10240000B7FBF3F803FB187702EBC70742F210742F
:10241000C7E90056D0F8845EB5FBF3F603FB16550A
:1024200002EBC50505F58056C6F844CFC6F8404F07
:10243000D0F884CE0CF1010CC0F884CE491CB1F563
:10244000487FB1DBBDE8F001704710B4DFF840C150
:10245000504CDCF880CE04EBCC0CCCE900010CF540
:102460008050C0F8443FC0F8402F10BC70472DE9A1
:10247000F041484900204FF47A7201F5405400BF02
:1024800010F0010F23D0D4F8847E0023B7FBF2F8BC
:1024900002FB187701EBC7075E1EC7E90033D4F8CB
:1024A000843EDFF8F4C0B3FBF2F502FB153301EB19
:1024B000C3034FF4FA5545F803C003F58053C3F83E
:1024C000446FD4F8843E5B1CC4F8843E20E0D4F80A
:1024D000847E0026B7FBF2F802FB187701EBC707F2
:1024E0003546C7E90066D4F884CE42F21073BCFBCF
:1024F000F2F602FB16CC01EBCC0C0CF58056C6F8BC
:10250000445FC6F8403FD4F8843E5B1CC4F8843E68
:10251000401CB0F5487FB3DB1C480246C16CD2EDCD
:10252000180A92ED0A0A002904BF20EE200A80ED65
:102530000B0A13D0B7EE001AC1EE201A01EE101AE2
:10254000B8EEC12A80EE021A71EE211A80EE212A1D
:1025500081EE210A80ED0B2A80ED140A90ED020A2B
:1025600080EE201A80ED031A00F06DFD0020C4F803
:10257000800EC4F8840EBDE8F08108490020087080
:102580007047064900200870704700006808002066
:10259000A0390020A0090020F0D8FFFF840000200F
:1025A00010B5F748FEF794FE012010BD10B5F448B1
:1025B000FEF7D8FE012010BD00B585B002AB6A461B
:1025C000F0A10AF05DFD0228BEBF002005B000BDED
:1025D0009DE80F00FFF7B9FE05B0012000BD00B572
:1025E00085B002AB6A46ECA10AF04AFD0228BEBFE4
:1025F000002005B000BD9DE80F00FFF726FF05B0E5
:10260000012000BD08B56A46E8A10AF039FD00289E
:10261000CCBF0120002008BD10B5FEF7BDFE012093
:1026200010BD2DE9F04107460C460D1ED8BFBDE890
:10263000F0810126012DACBF4FF00008BDE8F0810C
:10264000DC4908200AF08BFE07F80480641E761C23
:10265000B542F5DABDE8F081A0F16101192985BF25
:102660004138192801200020704730380A282CBF33
:102670000020012070470021CF4A137843B1535CFA
:10268000834201D101207047491C535C002BF6D1D5
:1026900000207047A0F130010A2924BFA0F1610198
:1026A000192984BFA0F14101192906D9C249002284
:1026B0000B7843B18B5C834201D101207047521CDF
:1026C0008B5C002BF6D1002070472DE9F04789463E
:1026D00005464FF00008FFF724FBB84E002734688A
:1026E000312C09DB082807D02F55B5A00AF0F8FADD
:1026F0002320FFF75BFB68E0A0F130010A2920D31B
:10270000A0F16102192A84BFA0F14101192918D949
:10271000A94A0021034692F800C0BCF1000F09D07D
:1027200012F801C09C450CD0491C12F801C0BCF144
:10273000000FF5D14FF002081946A7A00AF0D0FA11
:102740002EE0082810D01B2818D024282AD00D28C5
:1027500018BF0A2844D02855FFF728FB3068401CD2
:1027600030604046BDE8F087002CFADD9149082032
:102770000AF0F5FD30682F54401EF1E7AA46251EE9
:102780000EDD4FF00109012D0ADB8A4908200AF00D
:10279000E6FD0AF80470641E09F101094D45F4DAFA
:1027A0003760DEE795F83200A0B1AA46251E0CDDA1
:1027B0000126012D09DB7F4908200AF0D0FD0AF827
:1027C0000470641E761CB542F5DA494684A00AF00E
:1027D00087FAC6E783A00AF083FA4FF00308DFE721
:1027E0002F554FF001083760DAE7F0B5074683B0A0
:1027F00000206A463D6804E01154401C6D1C052809
:1028000004DA2978202918BF0029F5D100210028F1
:1028100018BF115400247B4E307870B104EB441083
:1028200006EB800168460AF0C1FD60B1641C04EB50
:10283000441016F820000028F0D1681E386003B05C
:102840004FF0FF30F0BD03B02046F0BD026800231A
:1028500092F800C0BCF1300F18BFBCF1310F04D0AA
:10286000BCF1200F1CBF002070470CF0FF0C521C65
:10287000ACF1300C1CF0FF0C14BFBCF1010F0CEBE1
:10288000430392F800C0BCF1300F1CBFBCF1310F04
:10289000BCF1200FE9D00B6002600120704770B5D9
:1028A0000468054614F8010B202804D0002808BF4E
:1028B00070BD2E28F6D101225FF0000314F8010B41
:1028C000A0F1300CBCF10A0F09D348281ED04228D1
:1028D0000DD0442804D020780028EFD170BD641EAC
:1028E0000A4649A120460AF0CBFBC2B225E094F883
:1028F00000C00020BCF1300F18BFBCF1310F0CD06C
:10290000BCF1200F18BF1A4607D016E00A463FA1B7
:1029100020460AF0B5FBC2B20FE014F8013B303B91
:1029200013F0FF0314BF012B03EB40002378302B7F
:102930001CBF312B202BF0D008602078202818BF36
:10294000002803D02E2818BF641CF6D110462C6036
:1029500070BD70B52B4C0025607978B105EB451042
:1029600004EB8000411D2AA00AF0BAF96D1C05EBAA
:10297000451004EB800040790028EFD1012070BDA4
:102980007C0700204150205820256C6C6420592081
:10299000256C6C6400000000534350205820256CC7
:1029A0006C64205920256C6C64000000534D202578
:1029B00064000000A0000020B4F00008880000209F
:1029C0000A5741524E494E4721206275666665722C
:1029D0002066756C6C210A00307825780A000000AA
:1029E000257300000A5479706520612076616C6956
:1029F0006420636F6D6D616E64206669727374210B
:102A000000000000C0F00008256C7500256C58001F
:102A100025730A0010B502A00AF062F9012010BD6A
:102A200056657273E36F20302E312C204461766935
:102A3000642043657264656972612C2067727570E9
:102A40006F20342C204C50493220554D20444549AC
:102A50002032303135210A0070B588B001210220C2
:102A600000F0D9FF834E07220621304606F01CFCF9
:102A700007221146304606F017FCC02004900220C1
:102A80008DF8140000248DF8164001258DF817509C
:102A900003208DF8150004A9304606F040F8012106
:102AA000102001F034F84FF4E13000900C20ADF824
:102AB0000A00714EADF80640ADF80C40ADF8084084
:102AC000ADF804406946304604F0F3FE25208DF849
:102AD00018008DF819408DF81A408DF81B5006A883
:102AE00006F08FFC012240F22551304605F034FCFF
:102AF0000121304605F00AF86048C4600461446072
:102B000084600470447008B070BD5C480169C2689C
:102B10009142FBD058498A8922F020028A81C268FA
:102B2000DFF85CC102F03F03521CC26013F80C00D6
:102B30008A8942F020028A817047504A1178002920
:102B400018BF704753784FF0010C4B493BB98B8944
:102B500043F080038B8182F801C08880704730B4D5
:102B60008B8923F080038B819368464D03F03F04EB
:102B70005B1C9360605590685368584010F03F0F9D
:102B800008BF82F800C0888940F08000888130BC8E
:102B9000704730B5394C05460A2805D121780029FF
:102BA000FCD10D20FFF7C9FF21780029FCD1284670
:102BB000FFF7C3FF284630BD70B5044600780028F3
:102BC00014BF2E4D70BD26780A2E05D12878002816
:102BD000FCD10D20FFF7B1FF28780028FCD130464A
:102BE000FFF7ABFF14F8010F0028ECD170BD2248AD
:102BF00018B40188009111F0200F204916D00288E6
:102C000022F020020280CA680B6940329A4204BF57
:102C100018BC70478288086900F03F03DFF860C085
:102C2000401C086103F80C2018BC7047009A12F091
:102C3000800F04BF18BC7047028822F08002028017
:102C40004A68D1F808C0002362450BD04A680D4C91
:102C500002F03F0C521C4A601CF8042082800B706A
:102C600018BC70474B70818921F08001818118BCAC
:102C70007047000000040240001001408C0000205A
:102C8000684800202848002010B5FFF7E5FE002026
:102C9000FFF77FFFBDE810400AA10C480AF02CB8EE
:102CA00010B504460AA109480AF026F8FFF72DFFDF
:102CB0003E2818BF10BD2246BDE8104009A10348B8
:102CC0000AF01AB80A41540A00000000A4000020CB
:102CD00041542B43495053454E443D302C2032350E
:102CE000350A0D0025730A00104A914202D1C0B284
:102CF000FFF74FBF0E4AC0B2914201D100F0BDB8FC
:102D0000FFF754B80B49884201D1FFF7FEBE0A49CC
:102D1000884201D100F06CB8FFF703B8C0B2FFF7EA
:102D200045B84FF0FF307047FEE70000A4000020D8
:102D3000AC000020A8000020B000002070B588B0D2
:102D40000121042000F067FE854E07220A2130464B
:102D500006F0AAFA07220B21304606F0A5FA4FF436
:102D60004060049002208DF8140000248DF8164075
:102D700001258DF8175003208DF8150004A9304661
:102D800005F0CDFE0121880400F0A2FE4FF4E130F1
:102D900000900C20ADF80A00724EADF80640ADF878
:102DA0000C40ADF80840ADF804406946304604F0E8
:102DB00080FD27208DF818008DF819408DF81A40F5
:102DC0008DF81B5006A806F01CFB012240F225518D
:102DD000304605F0C1FA0121304604F097FE624802
:102DE000C4600461446084600470447008B070BDC5
:102DF0005D480169C2689142FBD05C490A8822F0B3
:102E000020020A80C268DFF868C102F03F03521C4A
:102E1000C26013F80C000A8842F020020A80704752
:102E2000514A1178002918BF704753784FF0010CB0
:102E30004E4943B90B8843F080030B8082F801C0F0
:102E40004C490880704730B40B8823F080030B8016
:102E50009368494D03F03F045B1C93606055906894
:102E60005368584010F03F0F08BF82F800C0088830
:102E700040F08000088030BC704730B53A4C0546C1
:102E80000A2805D121780029FCD10D20FFF7C8FFC1
:102E900021780029FCD12846FFF7C2FF284630BD23
:102EA00070B504460078002814BF2F4D70BD2678F9
:102EB0000A2E05D128780028FCD10D20FFF7B0FF9D
:102EC00028780028FCD13046FFF7AAFF14F8010F3C
:102ED0000028ECD170BD234918B40888009010F088
:102EE000200F214801F1040216D00B8823F02003A3
:102EF0000B80C16803694031994204BF18BC704718
:102F00001288016901F03F03DFF864C0491C0161C8
:102F100003F80C2018BC7047009B13F0800F04BF0F
:102F200018BC70470B8823F080030B804168D0F8F1
:102F300008C0002361450BD041680F4C01F03F0CE5
:102F4000491C41601CF804101180037018BC7047C4
:102F500043700648018821F08001018018BC704749
:102F60000008024000480040B40000200C48004027
:102F7000E848002004480040A8480020FFF7DEBED3
:102F800010B50446D4E916010BF088FF00EE100AD4
:102F9000D4ED150A94F8640030EEC01A94ED0C0AD2
:102FA000002845D1D4ED060A94ED112AD4ED031A78
:102FB00060EE810A32EE012A41EE820AC4ED0E0A69
:102FC000D4ED122AE06CD4ED0B1A71EE622A0028BF
:102FD00008BF41EEA20A09D061EEA21AD4ED142A6C
:102FE00094ED0F3A42EE831A71EEA00AC4ED0E0A78
:102FF000D4ED101A70EEA11AF8EEC00AC4ED0E1A44
:10300000F4EEE01AF1EE10FAA8BFF8EEC00A0DDAFD
:10301000D4ED0D0AF8EEE02AF4EEE21AF1EE10FA21
:1030200094BFF8EEE00A84ED112A01D8C4ED0E0A2F
:10303000D4ED0E0AC4ED0F0A84ED121AB8EEC01AD0
:1030400080EE810A10BD30B585B00121022000F06C
:103050003FFD42F21070ADF8000000244FF4FA700A
:103060002F4D0190ADF80840ADF802408DF80A40B0
:103070006946284601F02DF81D208DF80C008DF8CA
:103080000D4001218DF80E108DF80F1003A806F0E9
:10309000B8F901221146284603F03DFC01212846DB
:1030A00001F07EFC05B030BD0FB4A1202DE9F04F3A
:1030B0008BB0FEF77BFE2C980BF0C2FE8046894653
:1030C00022980BF0BDFE83460F461E980BF0B8FE0B
:1030D00006468A461A980BF0B3FE04460D4616982B
:1030E0000BF0AEFE41EC100B9DF8B400CDF8208043
:1030F000CDE90990279853EC102BCDE905708DE8A8
:10310000700C08A009F0ECFDA120FEF74FFE0BB0FB
:103110000A20BDE8F00F5DF814EBFEF747BE000093
:10312000000400404B69203A25660A4B70203A257E
:10313000660A4B64203A25660A55203A25660A4EEF
:10314000203A25640A46726571203A25660A4D6F59
:10315000646F203A25640A00534882B0016841F444
:10316000700101605148016841F00101016050495E
:1031700000230B60026822F4102222F080720260A9
:1031800000F1040C4B4ACCF80020026822F48022A3
:1031900002600A1D136001930093026842F48032BA
:1031A0000260026802F400320092019A521C0192FD
:1031B000009A1AB9019AB2F5A06FF2D1026812F41E
:1031C000003F08BF009331D0012200923A4A1368B1
:1031D00043F080531360394A136843F4804313600B
:1031E0000A680A600A6842F400420A600A6842F407
:1031F000A0520A60324ACCF80020026842F0807285
:103200000260026812F0007FFBD02E4A40F2056097
:103210001060086820F003000860086840F00200B1
:103220000860086800F00C000828FAD126494FF021
:103230000060086002B07047DFF874C030B4DCF89A
:103240000000224B10F00C01214806D0214C04292B
:1032500008BF046002D008290CD00360DCF800101D
:103260001D4AC1F30311515C026822FA01F10160A9
:1032700030BC704719490A68C2F380550A68002DAE
:1032800002F03F0214BFB4FBF2F2B3FBF2F20B68A0
:103290000968C3F388135A43C1F30141491C49002B
:1032A000B2FBF1F10160D9E788ED00E0003802409F
:1032B00008380240103000244038024000700040BE
:1032C00008544007003C024008ED00E000B4C4048C
:1032D000C800002000127A00CC0000200438024010
:1032E0007047FEE7FEE7FEE7FEE77047704770476E
:1032F000FDF73EBBFDF7B1BC014809F04EBA000036
:103300004C010020FC48016841F001010160FB4ACA
:1033100000211160026822F4102222F08072026003
:10332000031DF74A1A60026822F480220260F54801
:103330000160704710B504001CBF012C052C03D0A0
:10334000F121F1A0FDF713FBFE480021017004708C
:1033500010BD70B500250446212818BF312C19D0A6
:10336000392C18BF412C15D0612C18BF792C11D0E5
:103370007A2C18BF7B2C0DD07C2C18BF7D2C09D04B
:103380007E2C1CBF7F2C3B2C04D040F29D61EEA014
:10339000FDF7EDFA6009012804BFD748006804D0A2
:1033A00002280CBFF748F848006804F01F0101220A
:1033B00002FA01F1014218BF0125284670BD81B013
:1033C0000020CD49009000200A6812F4003F18BF89
:1033D0000120009A521C0092B2F5A06F01D0002883
:1033E000F1D0086810F4003018BF012001B0704718
:1033F00010B504461F2804D940F22911C2A0FDF7D8
:10340000B6FABD48016821F0F80141EAC401016043
:1034100010BD10B5040018BF012C04D04FF4A671E4
:10342000B9A0FDF7A4FAD948046010BD10B5040096
:103430001CBF012C042C04D040F26511B2A0FDF792
:1034400096FAD048002101700170012C08BF0121BB
:1034500003D0042C0CBF052110BD017010BD10B5A8
:10346000040018BF012C04D040F28D11A6A0FDF776
:103470007EFAC748046010BD2DE9F0411C46DDF816
:10348000188016460F46050018BFB5F5800F04D00A
:103490004FF4DC719CA0FDF76AFA3F2F04D940F28B
:1034A000B91199A0FDF763FAA6F1C000F02804D97C
:1034B0004FF4DD7194A0FDF75AFA022C18BF042CCA
:1034C00008D0062C18BF082C04D040F2BB118EA0E7
:1034D000FDF74DFAA8F104000B2804D94FF4DE7172
:1034E00089A0FDF744FAAB4A610847EA861002EB6F
:1034F00001410843A849284340EA08600860BDE844
:10350000F08110B5040018BF012C04D040F2CF1197
:103510007DA0FDF72CFA9D48046610BD70B50546E8
:10352000C0380C46F02804D940F2E91176A0FDF726
:103530001EFAA01E052804D94FF4F57172A0FDF7FC
:1035400016FA9649A80140EA0470086070BD10B5EB
:10355000040018BF012C04D04FF4FC716AA0FDF7E1
:1035600006FA8A48846610BD10B5040018BF012C05
:1035700004D040F20A2164A0FDF7F9F98348C4643D
:1035800010BD70B50C46050018BFB5F5001F0AD078
:10359000B5F5800F18BFB5F5C00F04D040F2252156
:1035A00059A0FDF7E4F9002C18BFB4F1806F0CD0DE
:1035B000B4F1A06F1CBFB4F1C06FB4F1E06F04D0E0
:1035C00040F2262150A0FDF7D2F94C48016845EAA7
:1035D000040221F0EC611143016070BD70B50C462E
:1035E000050018BFB5F1804F0AD0B5F1004F18BFE4
:1035F000B5F1404F04D040F24B2143A0FDF7B7F99D
:10360000002C18BFB4F1005F0CD0B4F1205F1CBFD8
:10361000B4F1405FB4F1605F04D04FF413713AA08D
:10362000FDF7A5F93548016845EA040221F0784123
:103630001143016070BD10B504001CBF012C022CA9
:1036400004D040F2B52130A0FDF791F92B48016874
:1036500021F003012143016010BD2848006800F0FB
:103660000C00704710B5040018BF802C11D0902CAE
:1036700018BFA02C0DD0B02C18BFC02C09D0D02C56
:103680001CBFE02CF02C04D040F2EA211EA0FDF774
:103690006EF91A48016821F0F0012143016010BD64
:1036A00010B5040018BFB4F5805F0CD0B4F5A05F6E
:1036B0001CBFB4F5C05FB4F5E05F04D040F20A313E
:1036C00011A0FDF754F90D48016821F4E0512143A0
:1036D000016010BD10B5040018BFB4F5805F61D063
:1036E000B4F5A05F1CBFB4F5C05FB4F5E05F59D07E
:1036F00040F2293104A053E000380240083802406B
:10370000103000240C3802402E2E5C4C696272612D
:10371000726965735C53544D3332463478785F5325
:1037200074645065726970685F4472697665725C32
:103730007372635C73746D3332663478785F72636E
:10374000632E6300023802402E2E5C4C6962726167
:10375000726965735C53544D3332463478785F53E5
:1037600074645065726970685F4472697665725CF2
:103770007372635C73746D3332663478785F72632E
:10378000632E6300703802407438024000004742E4
:10379000800E47420000FFFF043802408438024098
:1037A000FDF7E5F8F948016821F4604141EAC401F8
:1037B000016010BDF54A30B41168F54B11F00C01F1
:1037C00006D0F44C042908BF046002D008291ED09A
:1037D000036011680F2303EA1111EF4B595CD0F815
:1037E00000C02CFA01F14160D2F800C0072404EABD
:1037F0009C2C13F80CC021FA0CFCC0F808C012680D
:1038000004EA52329A5CD140C16030BC7047E3494F
:10381000D1F800C0CCF38055D1F800C0002D0CF0D9
:103820003F0C14BFB4FBFCF3B3FBFCF3D1F800C0B6
:103830000968CCF3881C03FB0CF3C1F30141491C5C
:103840004900B3FBF1F10160C3E710B50446B0F5E0
:10385000807F18BFB4F5007F7CD0A4F50030B0F5B0
:1038600040701CBFA4F54030B0F5407072D0A4F594
:103870008020B0F540701CBFA4F5A020B0F54070CA
:1038800068D0A4F5C020B0F540701CBFA4F5E020BE
:10389000B0F540707FD0A4F50020B0F540701CBF9B
:1038A000A4F51020B0F5407075D0A4F52020B0F537
:1038B00040701CBFA4F53020B0F540706BD0A4F56B
:1038C0004020B0F540701CBFA4F55020B0F540700A
:1038D00061D0A4F56020B0F540701CBFA4F5702045
:1038E000B0F5407057D0A4F58010B0F540701CBF03
:1038F000A4F58810B0F540704DD0A4F59010B0F547
:1039000040701CBFA4F59810B0F5407043D0A4F5EA
:10391000A010B0F540701CBFA4F5A810B0F5407021
:1039200039D0A4F5B010B0F540701CBFA4F5B810A4
:10393000B0F540702FD0A4F5C010B0F540701CBF9A
:10394000A4F5C810B0F5407025D0A4F5D010B0F59E
:10395000407000E01FE01CBFA4F5D810B0F5407027
:1039600019D0A4F5E010B0F540701CBFA4F5E81024
:10397000B0F540700FD0A4F5F010B0F540701CBF4A
:10398000A4F5F810B0F5407005D040F2DA31AFF28E
:103990008820FCF7ECFF4FF44070A04309D17B482E
:1039A000016824F4407221F4F81122F070421143AE
:1039B00001607B480168C4F30B021143016010BD34
:1039C00010B5040018BF012C05D04FF47E71AFF282
:1039D000C820FCF7CCFF7348046010BD10B504008C
:1039E00018BF012C05D040F20941AFF2E420FCF7EA
:1039F000BEFF6D48046010BD10B5040018BF012C57
:103A000005D040F21A41AFF20030FCF7B0FF674832
:103A1000C0F85C4110BD70B5054665480E460542CC
:103A200000D12DB940F24141AFF22430FCF79FFFA5
:103A3000604C002E04BF2068A84309D0012E05D099
:103A400040F24341AFF24030FCF791FF2068284339
:103A5000206070BD70B505460E4630F0F10000D113
:103A60002DB940F26141AFF26030FCF780FF524C5B
:103A7000002E04BF2068A84309D0012E05D040F2D3
:103A80006241AFF27C30FCF772FF2068284320606F
:103A900070BD70B505460E4630F0010000D12DB95D
:103AA00040F27C41AFF2A030FCF761FF434C002EA6
:103AB00004BF2068A84309D0012E05D040F27D4103
:103AC000AFF2BC30FCF753FF20682843206070BD84
:103AD00070B505463A480E46054200D12DB940F270
:103AE000AE41AFF2DC30FCF742FF364C002E04BF93
:103AF0002068A84309D0012E05D040F2AF41AFF2B3
:103B0000F830FCF734FF20682843206070BD70B5A2
:103B100005462D480E46054200D12DB940F2D6414A
:103B2000AFF21C40FCF723FF284C002E04BF206896
:103B3000A84309D0012E05D040F2D741AFF238405A
:103B4000FCF715FF20682843206070BD70B505465E
:103B50001F480E46054200D12DB940F2FD41AFF29B
:103B60005840FCF704FF1B4C002E04BF2068A843FC
:103B700009D0012E05D040F2FE41AFF27440FCF7AF
:103B8000F6FE20682843206070BD0000083802401F
:103B900000B4C40400127A00DC00002004380240A3
:103BA000703802403C0E4742400E474200004742F8
:103BB00000EE8B8130380240343802403838024001
:103BC000003601C940380240CCA0F8FF443802401A
:103BD00000EE9FDD1038024070B505460E4630F00D
:103BE000F10000D12DB940F21A51AFF2E440FCF7D8
:103BF000BEFEAD4C002E04BF2068A84309D0012EA4
:103C000005D040F21B51AFF20050FCF7B0FE206827
:103C10002843206070BD70B505460E4630F00100A7
:103C200000D12DB940F23251AFF22450FCF79FFE83
:103C30009E4C002E04BF2068A84309D0012E05D059
:103C400040F23351AFF24050FCF791FE2068284318
:103C5000206070BD70B5054695480E46054200D1FE
:103C60002DB940F26151AFF26050FCF780FE914CEB
:103C7000002E04BF2068A84309D0012E05D040F2D1
:103C80006251AFF27C50FCF772FE2068284320603E
:103C900070BD70B5054688480E46054200D12DB965
:103CA00040F28551AFF2A050FCF761FE834C002E2C
:103CB00004BF2068A84309D0012E05D040F28651E8
:103CC000AFF2BC50FCF753FE20682843206070BD63
:103CD00070B505467A480E46054200D12DB940F22E
:103CE000B351AFF2DC50FCF742FE764C002E04BF1D
:103CF0002068A84309D0012E05D040F2B451AFF29C
:103D0000F850FCF734FE20682843206070BD70B581
:103D100005460E4630F0F10000D12DB940F2D351E6
:103D2000AFF21C60FCF723FE674C002E04BF206836
:103D3000A84309D0012E05D040F2D451AFF238602B
:103D4000FCF715FE20682843206070BD70B505465D
:103D50000E4630F0010000D12DB940F2EE51AFF225
:103D60005860FCF704FE594C002E04BF2068A8439D
:103D700009D0012E05D040F2EF51AFF27460FCF78C
:103D8000F6FD20682843206070BD70B505464848A0
:103D90000E46054200D12DB94FF4C461AFF29860D0
:103DA000FCF7E5FD4A4C002E04BF2068A84309D06B
:103DB000012E05D040F22161AFF2B460FCF7D7FDCF
:103DC00020682843206070BD70B5054641480E4606
:103DD000054200D12DB94FF4C961AFF2D460FCF7B0
:103DE000C6FD3D4C002E04BF2068A84309D0012E1B
:103DF00005D040F24961AFF2F060FCF7B8FD2068F1
:103E00002843206070BD70B50E46054610F0C00F07
:103E100000D12DB940F27561AFF21470FCF7A7FD27
:103E20002E4C002E04BF2078A84309D0012E05D0C7
:103E300040F27661AFF23070FCF799FD20782843AC
:103E4000207070BD2648016841F0807101607047A4
:103E500070B500250446012818BF022C0ED0042C92
:103E600018BF082C0AD0102C1CBF802C202C05D089
:103E700040F2DB61AFF27070FCF779FD1948006821
:103E8000204218BF0125284670BD10B5044610F029
:103E9000400F00D12CB940F2FA61AFF29470FCF7F8
:103EA00066FD1148047010BD1438024018380240F5
:103EB000003601C920380240CCA6F8FF2438024061
:103EC000006E988150380240543802405838024001
:103ED00060380240CCA0F8FF643802400D38024040
:103EE000743802400C3802400E3802402DE9F05F71
:103EF0000446A0F18040B0F580304DD0B4F1804F41
:103F000040D0DFF8F4B3FD4DFD4EFE4FDFF8F883EF
:103F1000DFF8F893DFF8F8A35C4518BFAC4225D072
:103F2000B44218BFBC4221D0444518BF4C451DD0F7
:103F300054451CBFA4F18040B0F5A23016D0A4F1C6
:103F40008040B0F5A4301FBFA4F18040B0F5C05050
:103F5000A4F18040B0F5E05008D0A4F18040B0F565
:103F600000507DD0C621EBA0FCF701FD5C451DD1C2
:103F700001210220FFF76EFEBDE8F05F0021022064
:103F8000FFF768BE01210846FFF764FEBDE8F05F59
:103F900000210120FFF75EBE01210846FFF779FEF0
:103FA000BDE8F05F00210120FFF773BEAC4209D1EC
:103FB00001210420FFF74EFEBDE8F05F0021042040
:103FC000FFF748BEB44209D101210820FFF742FEA5
:103FD000BDE8F05F00210820FFF73CBEBC4209D1DC
:103FE00001211020FFF736FEBDE8F05F0021102010
:103FF000FFF730BE444509D101212020FFF72AFEFA
:10400000BDE8F05F00212020FFF724BE4C4509D118
:1040100001210220FFF73DFEBDE8F05F00210220F4
:10402000FFF737BE54450AD101210804FFF731FEDE
:10403000BDE8F05F00214FF48030FFF72ABEA4F105
:104040008040B0F5A2301AD0B0F5806022D010F5D3
:1040500098302AD0B0F5806031D0B0F5806000E0B3
:1040600002E018BFBDE8F09F01210802FFF7F2FD52
:10407000BDE8F05F00214FF48070FFF7EBBD012138
:104080004804FFF706FEBDE8F05F00214FF4003062
:10409000FFF7FFBD01218804FFF7FBFDBDE8F05FDE
:1040A00000214FF48020FFF7F4BD01214020FFF7ED
:1040B000D1FDBDE8F05F00214020FFF7CBBD01211D
:1040C0008020FFF7C7FDBDE8F05F00218020FFF7EB
:1040D000C1BD2DE9F05F9E4EDFF81C82DFF81C9217
:1040E000DFF81CA2894F0D4604464FEAB64BB0429A
:1040F00018BFB4F1804F31D0444518BF4C452DD086
:10410000544518BF5C4529D0A4F18040B0F5A050BB
:1041100018BFBC4222D0A4F18040B0F5A0301CBF33
:10412000A4F18040B0F5A23018D0A4F18040B0F5E1
:10413000A4301CBFA4F18040B0F5C0500ED0A4F153
:104140008040B0F5E0501CBFA4F18040B0F50050B5
:1041500004D04FF490716FA0FCF709FC6888002828
:1041600018BF102809D020281CBF4028602804D080
:1041700040F2211167A0FCF7FAFB288900281CBF38
:10418000B0F5807FB0F5007F04D04FF4917161A04D
:10419000FCF7EDFB2088B44218BFBC4208D0B4F154
:1041A000804F18BF444503D04C4518BF544503D138
:1041B000698820F0700008435C451CBFA4F1804171
:1041C000B1F5A05103D0298920F440700843208024
:1041D0006868E06228882085B44212BFBC42A87A91
:1041E00020860120A082BDE8F09F4FF0FF314160A2
:1041F00000210180018141808172704770B50446C1
:10420000A0F1804015460E46B0F5803018BFB4F1DD
:10421000804F40D0A4F18040B0F580601CBFA4F175
:104220008040B0F5006036D0A4F18040B0F5406029
:104230001CBFA4F18040B0F580502CD0A4F1804088
:10424000B0F5A0501CBFA4F18040B0F5823022D060
:10425000A4F18040B0F5A0301CBFA4F18040B0F5BF
:10426000A23018D0A4F18040B0F5A4301CBFA4F156
:104270008040B0F5C0500ED0A4F18040B0F5E050C1
:104280001CBFA4F18040B0F5005004D04FF4B371CE
:1042900020A0FCF76CFB002D18BF012D04D040F2CC
:1042A00067111CA0FCF763FB2685A58270BD70B565
:1042B0000446A0F180400D46B0F5803018BFB4F13F
:1042C000804F18D0A4F18040B0F580601CBFA4F1ED
:1042D0008040B0F500600ED0A4F18040B0F54060A1
:1042E0001CBFA4F18040B0F5823004D040F27F11B1
:1042F00008A0FCF73CFB2DE0000400400008004053
:10430000000C004000100040001400400004014078
:10431000004001402E2E5C4C6962726172696573C7
:104320005C53544D3332463478785F53746450652F
:10433000726970685F4472697665725C7372635CFF
:1043400073746D3332663478785F74696D2E6300F0
:1043500000000140002D18BF102D0AD0202D1CBFD9
:10436000402D602D05D04FF4C071AFF25800FCF71E
:10437000FEFA208820F070002843208070BD70B5C0
:104380000446A0F180400D46B0F5803018BFB4F16E
:10439000804F41D0A4F18040B0F580601CBFA4F1F3
:1043A0008040B0F5006037D0A4F18040B0F54060A7
:1043B0001CBFA4F18040B0F580502DD0A4F1804006
:1043C000B0F5A0501CBFA4F18040B0F5823023D0DE
:1043D000A4F18040B0F5A0301CBFA4F18040B0F53E
:1043E000A23019D0A4F18040B0F5A4301CBFA4F1D4
:1043F0008040B0F5C0500FD0A4F18040B0F5E0503F
:104400001CBFA4F18040B0F5005005D040F29711D8
:10441000AFF20010FCF7ABFA656270BD70B50446F0
:10442000A0F180400D46B0F5803018BFB4F1804F48
:1044300041D0A4F18040B0F580601CBFA4F1804061
:10444000B0F5006037D0A4F18040B0F540601CBFEB
:10445000A4F18040B0F580502DD0A4F18040B0F59B
:10446000A0501CBFA4F18040B0F5823023D0A4F14D
:104470008040B0F5A0301CBFA4F18040B0F5A23060
:1044800019D0A4F18040B0F5A4301CBFA4F1804045
:10449000B0F5C0500FD0A4F18040B0F5E0501CBF83
:1044A000A4F18040B0F5005005D04FF4D371AFF2C5
:1044B0009C10FCF75CFAE56270BD10B50446A0F1F3
:1044C0008040B0F5803018BFB4F1804F41D0A4F1E6
:1044D0008040B0F580601CBFA4F18040B0F5006062
:1044E00037D0A4F18040B0F540601CBFA4F18040FB
:1044F000B0F580502DD0A4F18040B0F5A0501CBF85
:10450000A4F18040B0F5823023D0A4F18040B0F512
:10451000A0301CBFA4F18040B0F5A23019D0A4F1A6
:104520008040B0F5A4301CBFA4F18040B0F5C0506D
:104530000FD0A4F18040B0F5E0501CBFA4F1804042
:10454000B0F5005005D04FF4DA71AFF23820FCF727
:104550000EFA606A10BD10B50446A0F18040B0F5B7
:10456000803018BFB4F1804F41D0A4F18040B0F545
:1045700080601CBFA4F18040B0F5006037D0A4F18A
:104580008040B0F540601CBFA4F18040B0F5805081
:104590002DD0A4F18040B0F5A0501CBFA4F1804004
:1045A000B0F5823023D0A4F18040B0F5A0301CBF1C
:1045B000A4F18040B0F5A23019D0A4F18040B0F54C
:1045C000A4301CBFA4F18040B0F5C0500FD0A4F1BE
:1045D0008040B0F5E0501CBFA4F18040B0F5005021
:1045E00005D04FF4E171AFF2D420FCF7C0F9208D73
:1045F00010BD70B50446A0F180400D46B0F5803086
:1046000018BFB4F1804F41D0A4F18040B0F5806074
:104610001CBFA4F18040B0F5006037D0A4F1804009
:10462000B0F540601CBFA4F18040B0F580502DD0A3
:10463000A4F18040B0F5A0501CBFA4F18040B0F5BB
:10464000823023D0A4F18040B0F5A0301CBFA4F18B
:104650008040B0F5A23019D0A4F18040B0F5A4306C
:104660001CBFA4F18040B0F5C0500FD0A4F1804031
:10467000B0F5E0501CBFA4F18040B0F5005005D06B
:104680004FF4E971AFF27430FCF771F9002D04BFFB
:10469000208820F002000AD0012D05D040F2D3116D
:1046A000AFF29030FCF763F9208840F002002080E0
:1046B00070BD70B50446A0F180400D46B0F5803065
:1046C00018BFB4F1804F41D0A4F18040B0F58060B4
:1046D0001CBFA4F18040B0F5006037D0A4F1804049
:1046E000B0F540601CBFA4F18040B0F580502DD0E3
:1046F000A4F18040B0F5A0501CBFA4F18040B0F5FB
:10470000823023D0A4F18040B0F5A0301CBFA4F1CA
:104710008040B0F5A23019D0A4F18040B0F5A430AB
:104720001CBFA4F18040B0F5C0500FD0A4F1804070
:10473000B0F5E0501CBFA4F18040B0F5005005D0AA
:1047400040F2EF11AFF23440FCF711F9002D04BF35
:10475000208820F004000AD0012D05D04FF4F87114
:10476000AFF25040FCF703F9208840F004002080AD
:1047700070BD70B50446A0F180400D46B0F58030A4
:1047800018BFB4F1804F41D0A4F18040B0F58060F3
:104790001CBFA4F18040B0F5006037D0A4F1804088
:1047A000B0F540601CBFA4F18040B0F580502DD022
:1047B000A4F18040B0F5A0501CBFA4F18040B0F53A
:1047C000823023D0A4F18040B0F5A0301CBFA4F10A
:1047D0008040B0F5A23019D0A4F18040B0F5A430EB
:1047E0001CBFA4F18040B0F5C0500FD0A4F18040B0
:1047F000B0F5E0501CBFA4F18040B0F5005005D0EA
:104800004FF40271AFF2F440FCF7B1F8002D04BF91
:10481000208820F080000AD0012D05D040F2092127
:10482000AFF21050FCF7A3F8208840F08000208001
:1048300070BD70B50446A0F180400D46B0F58030E3
:1048400018BFB4F1804F41D0A4F18040B0F5806032
:104850001CBFA4F18040B0F5006037D0A4F18040C7
:10486000B0F540601CBFA4F18040B0F580502DD061
:10487000A4F18040B0F5A0501CBFA4F18040B0F579
:10488000823023D0A4F18040B0F5A0301CBFA4F149
:104890008040B0F5A23019D0A4F18040B0F5A4302A
:1048A0001CBFA4F18040B0F5C0500FD0A4F18040EF
:1048B000B0F5E0501CBFA4F18040B0F5005005D029
:1048C00040F22321AFF2B450FCF751F8082D18BF85
:1048D000002D05D04FF40971AFF2C850FCF747F82E
:1048E000208820F00800208020882843208070BD88
:1048F00070B50446A0F180400D46B0F5803018BF79
:10490000B4F1804F37D0A4F18040B0F580601CBF77
:10491000A4F18040B0F500602DD0A4F18040B0F546
:1049200040601CBFA4F18040B0F5823023D0A4F1D8
:104930008040B0F5A0301CBFA4F18040B0F5A2309B
:1049400019D0A4F18040B0F5A4301CBFA4F1804080
:10495000B0F5C0500FD0A4F18040B0F5E0501CBFBE
:10496000A4F18040B0F5005005D040F23A21AFF2FA
:104970005C60FBF7FCFF002D1CBFB5F5807FB5F533
:10498000007F05D040F23B21AFF27860FBF7EFFFEC
:10499000208820F44070208020882843208070BD2B
:1049A00070B50446A0F180400D46B0F5803018BFC8
:1049B000B4F1804F41D0A4F18040B0F580601CBFBD
:1049C000A4F18040B0F5006037D0A4F18040B0F58C
:1049D00040601CBFA4F18040B0F580502DD0A4F100
:1049E0008040B0F5A0501CBFA4F18040B0F58230EB
:1049F00023D0A4F18040B0F5A0301CBFA4F18040CA
:104A0000B0F5A23019D0A4F18040B0F5A4301CBF9D
:104A1000A4F18040B0F5C0500FD0A4F18040B0F5B3
:104A2000E0501CBFA4F18040B0F5005005D040F22A
:104A30004E21AFF22070FBF79AFF002D04BF2088B3
:104A400020F001000AD0012D05D040F24F21AFF235
:104A50003C70FBF78CFF208840F00100208070BD87
:104A60002DE9F047DFF8C48CDFF8C49C0D460446FE
:104A7000404518BFB4F1804F34D0A4F18040B0F568
:104A800080601CBFA4F18040B0F500602AD0A4F182
:104A90008040B0F5406018BF4C4523D0A4F1804061
:104AA000B0F5A0301CBFA4F18040B0F5A23019D001
:104AB000A4F18040B0F5A4301CBFA4F18040B0F553
:104AC000C0500FD0A4F18040B0F5E0501CBFA4F15D
:104AD0008040B0F5005005D040F29F21AFF2CC707D
:104AE000FBF745FF2888002818BF10280DD0202884
:104AF00018BF302809D0602818BF702805D04FF49F
:104B00002871AFF2F070FBF732FF6888002818BFF9
:104B1000012805D040F2A121AFF60800FBF727FFDE
:104B2000A889002818BF022805D040F2A221AFF6BC
:104B30001C00FBF71CFF208C20F001002084208C3F
:104B4000A788218B2A8821F0730142EA010AA989EA
:104B500020F0020008436988444541EA000618BF76
:104B60004C453DD1A888002818BF042805D040F244
:104B7000BF21AFF66000FBF7FAFEE889002818BFF6
:104B8000082805D04FF43071AFF67800FBF7EFFE40
:104B9000688AB0F5007F18BF002805D040F2C12117
:104BA000AFF69000FBF7E3FE288AB0F5807F18BFD0
:104BB000002805D040F2C221AFF6A800FBF7D7FECF
:104BC000E98926F008000843A98820F0040041EA9A
:104BD0000006298A27F440700843698A41EA0007E1
:104BE000A780A4F818A0A86860632684BDE8F087B1
:104BF0002DE9F05FDFF8349BDFF834AB0D46044657
:104C0000484518BFB4F1804F20D0A4F18040B0F5E2
:104C100080601CBFA4F18040B0F5006016D0A4F104
:104C20008040B0F5406018BF54450FD0A4F18040DB
:104C3000B0F5A0301CBFA4F18040B0F5C05005D045
:104C40004FF43C71AFF63410FBF791FE2888002832
:104C500018BF10280DD0202818BF302809D0602890
:104C600018BF702805D040F2F121AFF65810FBF7BD
:104C70007EFE6888002818BF012805D040F2F22186
:104C8000AFF67010FBF773FEA889002818BF022842
:104C900005D040F2F321AFF68410FBF768FE208CBC
:104CA00020F010002084208CB4F80480218B2A8806
:104CB0004FF6FF7621F4E64106EA022242EA010BB2
:104CC000A98920F0200006EA0111084369884C45B3
:104CD00006EA011141EA000718BF544545D1A888EA
:104CE000002818BF042805D040F21131AFF6DC10BF
:104CF000FBF73DFEE889002818BF082805D040F2E0
:104D00001231AFF6F010FBF732FE688AB0F5007F83
:104D100018BF002805D040F21331AFF60820FBF78A
:104D200026FE288AB0F5807F18BF002805D04FF4F2
:104D30004571AFF62020FBF71AFEE98927F08000C5
:104D400006EA01110843A98820F0400006EA011193
:104D500041EA0007298A28F4406006EA81010843F5
:104D6000698A06EA810141EA0008A4F80480A4F8EF
:104D700018B0A868A0632784BDE8F09F2DE9F05F14
:104D8000DFF8A899DFF8A8A90D460446484518BFE2
:104D9000B4F1804F16D0A4F18040B0F580601CBF04
:104DA000A4F18040B0F500600CD0A4F18040B0F5D3
:104DB000406018BF544505D040F24131AFF6AC20F9
:104DC000FBF7D5FD2888002818BF10280DD0202813
:104DD00018BF302809D0602818BF702805D040F2CD
:104DE0004231AFF6D020FBF7C2FD6888002818BF1B
:104DF000012805D040F24331AFF6E820FBF7B7FDBC
:104E0000A889002818BF022805D04FF45171AFF6C9
:104E1000FC20FBF7ACFD208C20F480702084208CDB
:104E2000B4F80480A18B2A8821F0730142EA010BB7
:104E3000A9894FF6FF7620F4007006EA01210843A5
:104E400069884C4506EA012141EA000718BF54452C
:104E500045D1A888002818BF042805D040F2613148
:104E6000AFF65030FBF783FDE889002818BF08280B
:104E700005D040F26231AFF66430FBF778FD688A06
:104E8000B0F5007F18BF002805D040F26331AFF6BF
:104E90007C30FBF76CFD288AB0F5807F18BF0028B6
:104EA00005D04FF45971AFF69430FBF760FDE989F6
:104EB00027F4006006EA01210843A98820F48060F5
:104EC00006EA012141EA0007298A28F4405006EA4F
:104ED00001110843698A06EA011141EA0008A4F8B1
:104EE0000480A4F81CB0A868E0632784BDE8F09FA4
:104EF0002DE9F05FDFF83488DFF834980D4604467A
:104F0000404518BFB4F1804F16D0A4F18040B0F5F1
:104F100080601CBFA4F18040B0F500600CD0A4F10B
:104F20008040B0F5406018BF4C4505D040F291314B
:104F3000AFF62040FBF71BFD2888002818BF10287B
:104F40000DD0202818BF302809D0602818BF70283D
:104F500005D040F29231AFF64440FBF708FD688877
:104F6000002818BF012805D040F29331AFF65C400D
:104F7000FBF7FDFCA889002818BF022805D04FF4D4
:104F80006571AFF67040FBF7F2FC208C20F4805086
:104F90002084208CA788A18B2A884FF6FF7621F4E5
:104FA000E64106EA022242EA010AA98920F40050F9
:104FB00006EA013108436988444506EA013141EABD
:104FC000000B18BF4C4512D1288AB0F5807F18BF5E
:104FD000002805D040F2B231AFF6C840FBF7C7FC5D
:104FE000298A27F4804006EA811141EA0007A78058
:104FF000A4F81CA0A8682064A4F820B0BDE8F09F25
:10500000002101804180818081608181C181018294
:105010004182704770B50446A0F1804015460E46A7
:10502000B0F5803018BFB4F1804F37D0A4F1804084
:10503000B0F580601CBFA4F18040B0F500602DD0B9
:10504000A4F18040B0F540601CBFA4F18040B0F5F1
:10505000823023D0A4F18040B0F5A0301CBFA4F171
:105060008040B0F5A23019D0A4F18040B0F5A43052
:105070001CBFA4F18040B0F5C0500FD0A4F1804017
:10508000B0F5E0501CBFA4F18040B0F5005005D051
:1050900040F2F531AFF68450FBF769FC002E18BFE3
:1050A000042E09D0082E18BF0C2E05D040F2F63180
:1050B000AFF6A050FBF75BFC002D18BF102D11D0F0
:1050C000202D18BF302D0DD0602D18BF702D09D0A8
:1050D000502D18BF402D05D040F2F731AFF6CC501F
:1050E000FBF745FC0121228C04F11800B14022EAB3
:1050F00001012184002E18BF082E10D0311FC1F3EA
:105100004E010844016848F6FF72114001600168D1
:105110004FF6FF7202EA05221143016070BD00EBF9
:10512000560001684FF68F721140016001682943F3
:10513000F3E770B50446A0F180400D46B0F580302D
:1051400018BFB4F1804F37D0A4F18040B0F5806033
:105150001CBFA4F18040B0F500602DD0A4F18040C8
:10516000B0F540601CBFA4F18040B0F5823023D080
:10517000A4F18040B0F5A0301CBFA4F18040B0F590
:10518000A23019D0A4F18040B0F5A4301CBFA4F126
:105190008040B0F5C0500FD0A4F18040B0F5E05091
:1051A0001CBFA4F18040B0F5005005D04FF48461DD
:1051B000AFF6A060FBF7DBFB656370BD70B504461E
:1051C000A0F180400D46B0F5803018BFB4F1804F9B
:1051D00023D0A4F18040B0F580601CBFA4F18040D2
:1051E000B0F5006019D0A4F18040B0F540601CBF5C
:1051F000A4F18040B0F582300FD0A4F18040B0F52A
:10520000A0301CBFA4F18040B0F5C05005D04FF4D1
:105210008661AFF60070FBF7AAFBA56370BD70B5A1
:105220000446A0F180400D46B0F5803018BFB4F1BF
:10523000804F19D0A4F18040B0F580601CBFA4F16C
:105240008040B0F500600FD0A4F18040B0F5406020
:105250001CBFA4F18040B0F5823005D040F23F4140
:10526000AFF65070FBF783FBE56370BD70B5044685
:10527000A0F180400D46B0F5803018BFB4F1804FEA
:1052800019D0A4F18040B0F580601CBFA4F180402B
:10529000B0F500600FD0A4F18040B0F540601CBFB5
:1052A000A4F18040B0F5823005D040F24E41AFF617
:1052B0009C70FBF75CFB256470BD70B50446A0F1E3
:1052C00080400D46B0F5803018BFB4F1804F36D025
:1052D000A4F18040B0F580601CBFA4F18040B0F51F
:1052E00000602CD0A4F18040B0F540601CBFA4F158
:1052F0008040B0F5823022D0A4F18040B0F5A030DB
:105300001CBFA4F18040B0F5A23018D0A4F18040B9
:10531000B0F5A4301CBFA4F18040B0F5C0500ED051
:10532000A4F18040B0F5E0501CBFA4F18040B0F57E
:10533000005004D040F26241FE48FBF718FB502DAC
:1053400018BF402D04D040F26341FA48FBF70FFB31
:10535000208B20F070002843208370BD70B5044678
:10536000A0F180400D46B0F5803018BFB4F1804FF9
:1053700022D0A4F18040B0F580601CBFA4F1804031
:10538000B0F5006018D0A4F18040B0F540601CBFBB
:10539000A4F18040B0F582300ED0A4F18040B0F589
:1053A000A0301CBFA4F18040B0F5C05004D040F242
:1053B0007F41E048FBF7DBFA502D18BF402D04D0A9
:1053C0004FF49061DB48FBF7D2FA208B4FF6FF7168
:1053D00020F4E04001EA05210843208370BD70B548
:1053E0000446A0F180400D46B0F5803018BFB4F1FE
:1053F000804F18D0A4F18040B0F580601CBFA4F1AC
:105400008040B0F500600ED0A4F18040B0F540605F
:105410001CBFA4F18040B0F5823004D040F29B4123
:10542000C448FBF7A4FA502D18BF402D04D040F219
:105430009C41C048FBF79BFAA08B20F070002843EA
:10544000A08370BD70B50446A0F180400D46B0F554
:10545000803018BFB4F1804F18D0A4F18040B0F56F
:1054600080601CBFA4F18040B0F500600ED0A4F1B4
:105470008040B0F540601CBFA4F18040B0F58230A0
:1054800004D04FF49761AB48FBF771FA502D18BF69
:10549000402D04D040F2B941A648FBF768FAA08B32
:1054A0004FF6FF7120F4E04001EA05210843A08394
:1054B00070BD70B50446A0F180400D46B0F5803057
:1054C00018BFB4F1804F36D0A4F18040B0F58060B1
:1054D0001CBFA4F18040B0F500602CD0A4F1804046
:1054E000B0F540601CBFA4F18040B0F5823022D0FE
:1054F000A4F18040B0F5A0301CBFA4F18040B0F50D
:10550000A23018D0A4F18040B0F5A4301CBFA4F1A3
:105510008040B0F5C0500ED0A4F18040B0F5E0500E
:105520001CBFA4F18040B0F5005004D040F2D4413B
:105530008048FBF71CFA082D18BF002D04D040F25C
:10554000D5417C48FBF713FA208B20F00800284354
:10555000208370BD70B50446A0F180400D46B0F5C3
:10556000803018BFB4F1804F22D0A4F18040B0F554
:1055700080601CBFA4F18040B0F5006018D0A4F199
:105580008040B0F540601CBFA4F18040B0F582308F
:105590000ED0A4F18040B0F5A0301CBFA4F1804033
:1055A000B0F5C05004D040F2F2416248FBF7DFF999
:1055B000082D18BF002D04D040F2F3415D48FBF7E1
:1055C000D6F9208B4FF6FF7120F4006001EA052127
:1055D0000843208370BD70B50446A0F180400D469D
:1055E000B0F5803018BFB4F1804F18D0A4F18040DE
:1055F000B0F580601CBFA4F18040B0F500600ED013
:10560000A4F18040B0F540601CBFA4F18040B0F52B
:10561000823004D040F20F514648FBF7A8F9082D1C
:1056200018BF002D04D04FF4A2614248FBF79FF948
:10563000A08B20F008002843A08370BD70B50446FD
:10564000A0F180400D46B0F5803018BFB4F1804F16
:1056500018D0A4F18040B0F580601CBFA4F1804058
:10566000B0F500600ED0A4F18040B0F540601CBFE2
:10567000A4F18040B0F5823004D040F22C512D4886
:10568000FBF775F9082D18BF002D04D040F22D51FD
:105690002848FBF76CF9A08B4FF6FF7120F40060EF
:1056A00001EA05210843A08370BD70B50446A0F14E
:1056B00080400D46B0F5803018BFB4F1804F3DD02A
:1056C000A4F18040B0F580601CBFA4F18040B0F52B
:1056D000006033D0A4F18040B0F540601CBFA4F15D
:1056E0008040B0F5823029D0A4F18040B0F5A030E0
:1056F0001CBFA4F18040B0F5A2301FD0A4F18040BF
:10570000B0F5A4301CBFA4F18040B0F5C05015D056
:10571000A4F18040B0F5E0501CBFA4F18040B0F58A
:1057200000500BD040F24951024805E00000014012
:105730000004014014430008FBF719F9042D18BFB9
:10574000002D04D040F24A51FE48FBF710F9208B9F
:1057500020F004002843208370BD70B50446A0F1FA
:1057600080400D46B0F5803018BFB4F1804F22D094
:10577000A4F18040B0F580601CBFA4F18040B0F57A
:10578000006018D0A4F18040B0F540601CBFA4F1C7
:105790008040B0F582300ED0A4F18040B0F5A0304A
:1057A0001CBFA4F18040B0F5C05004D04FF4AD61EF
:1057B000E448FBF7DCF8042D18BF002D04D040F2BC
:1057C0006951E048FBF7D3F8208B4FF6FF7120F4C6
:1057D000806001EA05210843208370BD70B504464E
:1057E000A0F180400D46B0F5803018BFB4F1804F75
:1057F00018D0A4F18040B0F580601CBFA4F18040B7
:10580000B0F500600ED0A4F18040B0F540601CBF40
:10581000A4F18040B0F5823004D040F28651C948EE
:10582000FBF7A5F8042D18BF002D04D040F28751D6
:10583000C448FBF79CF8A08B20F004002843A08309
:1058400070BD70B50446A0F180400D46B0F58030C3
:1058500018BFB4F1804F18D0A4F18040B0F580603B
:105860001CBFA4F18040B0F500600ED0A4F18040D0
:10587000B0F540601CBFA4F18040B0F5823004D088
:1058800040F2A451AF48FBF772F8042D18BF002D69
:1058900004D040F2A551AB48FBF769F8A08B4FF656
:1058A000FF7120F4806001EA05210843A08370BDE8
:1058B00070B50446A0F180400D46B0F5803018BFA9
:1058C000B4F1804F36D0A4F18040B0F580601CBFA9
:1058D000A4F18040B0F500602CD0A4F18040B0F578
:1058E00040601CBFA4F18040B0F5823022D0A4F10A
:1058F0008040B0F5A0301CBFA4F18040B0F5A230CC
:1059000018D0A4F18040B0F5A4301CBFA4F18040B1
:10591000B0F5C0500ED0A4F18040B0F5E0501CBFEF
:10592000A4F18040B0F5005004D040F2C251854847
:10593000FBF71DF8802D18BF002D04D040F2C35195
:105940008048FBF714F8208B20F080002843208348
:1059500070BD70B50446A0F180400D46B0F58030B2
:1059600018BFB4F1804F22D0A4F18040B0F5806020
:105970001CBFA4F18040B0F5006018D0A4F18040B5
:10598000B0F540601CBFA4F18040B0F582300ED06D
:10599000A4F18040B0F5A0301CBFA4F18040B0F568
:1059A000C05004D04FF4BC616648FAF7E0FF802D88
:1059B00018BF002D04D040F2E1516248FAF7D7FF3A
:1059C000208B4FF6FF71C0F30E0001EA052108435A
:1059D000208370BD70B50446A0F180400D46B0F53F
:1059E000803018BFB4F1804F18D0A4F18040B0F5DA
:1059F00080601CBFA4F18040B0F500600ED0A4F11F
:105A00008040B0F540601CBFA4F18040B0F582300A
:105A100004D040F2FD514B48FAF7A9FF802D18BF82
:105A2000002D04D040F2FE514648FAF7A0FFA08BAB
:105A300020F080002843A08370BD70B50446A0F11B
:105A400080400D46B0F5803018BFB4F1804F18D0BB
:105A5000A4F18040B0F580601CBFA4F18040B0F597
:105A600000600ED0A4F18040B0F540601CBFA4F1EE
:105A70008040B0F5823004D040F21A613148FAF724
:105A800076FF802D18BF002D04D040F21B612D48F9
:105A9000FAF76DFFA08B4FF6FF71C0F30E0001EA1D
:105AA00005210843A08370BD70B50446A0F1804075
:105AB0000D46B0F5803018BFB4F1804F36D0A4F158
:105AC0008040B0F580601CBFA4F18040B0F500605C
:105AD0002CD0A4F18040B0F540601CBFA4F1804000
