:020000040800F2
:10000000A051002051BF0008B5230008B723000805
:10001000BB230008BF230008C32300080000000022
:10002000000000000000000000000000C7230008DE
:10003000C923000800000000CB230008CD230008DE
:1000400075BF000875BF000875BF000875BF0008C0
:1000500075BF000875BF00082505000875BF0008BA
:1000600075BF000875BF000875BF000875BF0008A0
:1000700075BF000875BF000875BF000875BF000890
:1000800075BF000875BF000875BF000875BF000880
:1000900075BF000875BF000875BF000875BF000870
:1000A00075BF000875BF000875BF000875BF000860
:1000B000D5230008FF15000875BF000875BF0008AC
:1000C00075BF000875BF000875BF000875BF000840
:1000D00075BF0008F91F00081914000875BF000853
:1000E00075BF000875BF000875BF000875BF000820
:1000F00075BF000875BF000875BF000875BF000810
:1001000075BF000875BF0008C30B000875BF000865
:1001100075BF000875BF000875BF000875BF0008EF
:1001200075BF000875BF000875BF000875BF0008DF
:1001300075BF000875BF000875BF000875BF0008CF
:1001400075BF000875BF000875BF0008DD230008F3
:1001500075BF000875BF000875BF000875BF0008AF
:1001600075BF000875BF000875BF000875BF00089F
:1001700075BF000875BF000875BF000875BF00088F
:1001800075BF000875BF000800F002F800F060F8C5
:100190000AA090E8000C82448344AAF10107DA45E2
:1001A00001D100F055F8AFF2090EBAE80F0013F0D4
:1001B000010F18BFFB1A43F001031847F0E20000DB
:1001C00010E30000103A24BF78C878C1FAD852076B
:1001D00024BF30C830C144BF04680C6070470000C1
:1001E0000023002400250026103A28BF78C1FBD840
:1001F000520728BF30C148BF0B60704766290DF019
:10020000D78503681B0A28BF41F0800164290BF0E1
:100210002D8778290BF0A487E4290BF063877329D5
:100220000CF0A085002070471FB50DF0BCFD0CF050
:10023000FFFD0400002000210DF0F8FC401C606070
:10024000002000210DF0DCFCE0601FBD10B510BDEA
:100250000DF0A4F81146FFF7E7FF00F05FF80DF08E
:10026000EFF803B4FFF7F2FF03BC01F095FF0000C5
:1002700001B5BA490098086000BFB8480068002876
:10028000FBD108BD10B504460121204600F0C5FC95
:1002900010B1B3A00BF084FE0221204600F0BDFC9B
:1002A00010B1B1A00BF07CFE0421204600F0B5FC9B
:1002B00010B1AFA00BF074FE0821204600F0ADFC99
:1002C00010B1ADA00BF06CFE1021204600F0A5FC93
:1002D00010B1ABA00BF064FE2021204600F09DFC85
:1002E00010B1A9A00BF05CFE4021204600F095FC67
:1002F00010B1A7A00BF054FE8021204600F08DFC29
:1003000010B1A5A00BF04CFE4FF48071204600F018
:1003100084FC10B1A2A00BF043FE10BDA0B00025DC
:1003200000F012FE4FF400519F4807F002FC00F06D
:1003300097FF9EA00BF034FE07A8069002A802F0DB
:10034000D5FA4FF47A720398B0FBF2F1B1F1807FE5
:1003500000D31DE021F07F40401E4FF0E0225061AD
:1003600050170F22002807DA13071F0E954B00F0D5
:100370000F06361F9F5503E013071E0E924B1E54A7
:1003800000BF00204FF0E02290610720106100BF05
:100390008E488F4B8F4A012100908F4808F06CFDEA
:1003A0008E4800F019FC8B498B4808F09AFF8B4867
:1003B00000F012FC01F095FE6420FFF759FF88A0C1
:1003C0000BF0EEFD88A00BF0EBFD4FF400517648EA
:1003D00007F0E0FB00F0F4FB232000F0FCFF52E00C
:1003E0008548006878B17B497B4808F07AFF7B48F4
:1003F00000F070FB0646FFF745FF784800F06AFB07
:100400000120FFF735FF7D4800687D490968884273
:1004100039D007A8069901F07BFB0446002C32D0A6
:100420000A2000F0D8FF012C23D106A801F0E8FB38
:100430000546002D19DB05EB4510724A02EB8000E2
:10044000D0F880100698884748B905EB45106D4AEA
:1004500002EB8000411D6CA00BF0A2FD0EE007A98D
:100460000DF14E000CF059F908E068A00BF098FD72
:1004700004E0022C02D16AA00BF092FD232000F0D0
:10048000AAFF07A80690ABE70FB470B52DED028B5D
:1004900082B09FED680AB0EE408A9FED670AF0EEE9
:1004A000408A5648006856490968884234D000F0AE
:1004B00037FF04462B2C06D19FED600A38EE000A68
:1004C000B0EE408A28E02D2C06D19FED5C0A38EE74
:1004D000400AB0EE408A1FE0752C06D19FED570A06
:1004E00038EE800AF0EE408A16E0642C06D19FEDCB
:1004F000530A38EEC00AF0EE408A0DE0632C0BD1AF
:10050000099841690069CDE900010998D0E90253D1
:100510002A464BA00BF044FD02B0BDEC028B70BC30
:100520005DF814FB10B5012006F0C1FF50B10120A9
:1005300007F013F83048006808B9012000E00020F7
:100540002D49086010BD00BFFEE70448006820B1D7
:1005500002480068401E0149086070470000002002
:100560004652210A00000000494C210A0000000008
:100570004D52210A000000004D4C210A00000000ED
:100580004252210A00000000424C210A00000000F3
:100590005544210A000000005253210A00000000C7
:1005A0004C53210A00000000000C02405379737480
:1005B000656D20496E697469616C697A696E672E30
:1005C0002E2E0A0018ED00E000E400E010000020EC
:1005D000E0000020CC060020200100205007002071
:1005E000446F6E65210A000053797374656D205263
:1005F000656164790A0000000400002068000020A2
:100600006C00002018DF000825730000556E6B6E2B
:100610006F776E20436F6D6D616E64210A0000007C
:10062000496E76616C6964206368617261637465A8
:1006300072210A00000000009A99193FCDCC4C3D70
:10064000507820256C6C640A507920256C6C640A03
:100650000A00000008B500214FF0006007F0ADFC73
:100660004FF4A06007F03CFC1C208DF80000012036
:100670008DF801008DF802008DF80300684607F040
:100680004AFC0121084602F013FB08BD1CB50446D4
:100690000121084602F046FA4FF4D850009003209A
:1006A0008DF8050002208DF8040000208DF806006A
:1006B0008DF807006946744807F012F80A220821ED
:1006C000714807F04CFB0A2209216F4807F047FBED
:1006D0000A220B216C4807F042FB0A220C216A48CF
:1006E00007F03DFB4FF48060009001208DF806007C
:1006F0008DF8070003208DF805006946624806F072
:10070000EFFF0A221146604807F029FB0121880308
:1007100002F0F7FA0121802002F02DFAFFF79AFF8C
:100720001CBD38B504464FF4C06007F0D9FB432028
:100730008DF8000001208DF8010003208DF80200E3
:1007400001208DF80300684607F0E5FB38BD70B561
:1007500005460C4624B901214C4807F0EAF903E0AC
:1007600001214A4807F016FA70BD3EB50446002143
:100770004FF0804003F06EF900220121880704F059
:10078000ABFF022C02D10B20019004E0012C02D11E
:1007900042F6DF6001900520ADF800000020ADF8C2
:1007A0000800ADF8020069464FF0804002F0B8FD45
:1007B0000121880705F02DF90121880703F059F878
:1007C00001221146900704F087FF0121880703F0FA
:1007D00041F93EBD70B505460C462D4805602046E2
:1007E000FFF7C3FF00BF2A4800680028FBD10021A3
:1007F0004FF0804003F02EF970BD10B50446012182
:100800002046FFF7E7FF10BD1CB504460121042078
:1008100002F088F90120009003208DF805000120E6
:100820008DF8040000208DF806008DF80700694659
:10083000164806F055FF0121144807F07AF9C82040
:10084000FFF7DBFF1CBD10B5044602212046FFF771
:10085000C1FF10BD10B50121880705F07DF888B1F2
:100860000121880705F0D5F80948006828B1084833
:100870000068401E0649086004E000214FF08040F7
:1008800003F0E8F810BD000000000240000802403C
:100890000C000020704710B54FA00BF081FB10BD7D
:1008A000704710B551A00BF07BFB10BD704710B521
:1008B000044624B9534954A00BF072FB11E0012CFB
:1008C00004D1524950A00BF06BFB0AE0022C04D17A
:1008D0004F494DA00BF064FB03E04E494AA00BF0DA
:1008E0005FFB10BD70B50446254629894AA00BF070
:1008F00057FB69894CA00BF053FB70BD70472DE985
:10090000F04106460C46174625466879082804D16A
:1009100049493DA00BF044FB06E06879032803D168
:10092000464939A00BF03CFBBDE8F08110B5044608
:10093000214643A00BF034FB10BD10B50446214600
:1009400044A00BF02DFB10BD10B50446214645A078
:100950000BF026FB10BD10B547A00BF021FB10BD1E
:1009600010B54AA00BF01CFB10BD10B500244EA022
:100970000BF016FB0124204610BD704700205049A3
:100980000870487000214E4A9160D1601161516138
:10099000704730B50246137858B2537859B2484C74
:1009A000207061702346D3E902532D1843EBE073A6
:1009B000C4E902532346D3E904536D1843EBE173B2
:1009C000C4E9045330BD704710B5044621463DA02C
:1009D0000BF0E6FA10BD7047446576696365204107
:1009E00074746163686564200A0000004465766978
:1009F000636520446973636F6E6E6563746564201C
:100A00000A00000013DE000825730A0031DE00082A
:100A10004FDE00086CDE0008564944203A2025309D
:100A20003458680A00000000504944203A2025301C
:100A30003458680A000000007DDE00089EDE0008D1
:100A40004D616E756661637475726572203A20251A
:100A5000730A000050726F64756374203A20257326
:100A60000A00000053657269616C204E756D626505
:100A700072203A2025730A00456E756D65726174A7
:100A8000696F6E20646F6E6521200A004465766987
:100A90006365206973206E6F7420737570706F7258
:100AA00074656421200A0000555342485F55535233
:100AB0005F55736572496E70757421200A000000DD
:100AC000680700204B657920636F646520255820F6
:100AD0000A00000070B5044600255B4801683F200D
:100AE0008843054300F0C2F95848B0F9040058495A
:100AF000884201DA45F0400525826068D0E902109D
:100B0000544AC2E916106068D0E90410524AC2E99A
:100B10001610284670BD70B52DED048B8CB00446C0
:100B2000206890ED010A10EE101A08460DF09AF8B0
:100B300041EC180B206890ED000A10EE101A0846E0
:100B40000DF090F841EC190BA06800F5FA50A1687F
:100B500001F54051D1F8801E00EBC10003C8CDE97A
:100B60000A014FF47A50A168405801EBC00003C855
:100B7000CDE90801208A06908DED048B8DED029B56
:100B8000606841690069CDE900016068D0E90253FD
:100B90002A4632480BF004FA0CB0BDEC048B70BD51
:100BA0007CB50446606841690069CDE90001606870
:100BB000D0E902532A462AA00BF0F2F97CBD704717
:100BC000704710B502212B4804F0C6FE18B102216F
:100BD000284804F01EFF10BD10B5044626482060CA
:100BE000264860602648A0600020208200F0D5FDE5
:100BF000B2EE040A174880ED060AB2EE040A16485F
:100C000080ED060A00F0A8F900F074F800F025FA6B
:100C1000FFF7D5FF00F057FE10BD10B50246194B87
:100C20001B78534001EA02042340D8B202EA0103D0
:100C30001BB1144B1B880B4302E0124B1B888B43E8
:100C4000104C238010BD0000100402405A00002008
:100C5000B4FBFFFF980800200009002068E40008AA
:100C6000507820256C6C640A507920256C6C640ADD
:100C70000A000000000C0040A007002068070020C8
:100C8000680900205800002070B504460D46082170
:100C90008E4806F07FFF00BF02218D4807F0DEFF7F
:100CA0000028F9D021468A4807F0BEFE00BF012186
:100CB000874807F0D3FF0028F9D0854807F09AFE4F
:100CC00000BF0221824807F0C9FF0028F9D0294659
:100CD0007F4807F0A9FE00BF01217D4807F0BEFF55
:100CE0000028F9D07A4807F085FE0821774806F0F9
:100CF00020FF70BD00B587B00121080302F001F8A4
:100D00000121084601F00EFF0121102001F00AFF29
:100D10000020ADF808004FF48270ADF80A00002002
:100D2000ADF80C000220ADF80E000120ADF8100067
:100D30004002ADF812003820ADF814000020ADF8E4
:100D400016000120ADF81800614807F085FA02A9E5
:100D50005F4807F0B5FAE020009002208DF804000B
:100D60008DF8050000208DF806008DF80700694613
:100D7000584806F0B5FC0820009001208DF80400CA
:100D800002208DF8050001208DF8070000208DF865
:100D9000060069464D4806F0A3FC052211464D4861
:100DA00006F0DDFF052206214A4806F0D8FF05229D
:100DB0000721484806F0D3FF0821444806F0B9FE51
:100DC0000121434807F068FC01212520FFF75CFF63
:100DD000C9212320FFF758FF67212020FFF754FF88
:100DE00067212020FFF750FF67212020FFF74CFFED
:100DF00020212420FFF748FF07B000BD10B50446AE
:100E00000821324806F0C6FE44F0800400BF0221EB
:100E10002F4807F023FF0028F9D021462C4807F07F
:100E200003FE00BF01212A4807F018FF0028F9D06F
:100E3000274807F0DFFD00BF0221254807F00EFF1D
:100E40000028F9D00021224807F0EEFD00BF012163
:100E50001F4807F003FF0028F9D008211B4806F0BF
:100E600068FE1B4807F0C6FDC0B210BD10B52820B3
:100E7000FFF7C4FF184908802920FFF7BFFF164974
:100E8000098841EA002000B2134908802A20FFF7B0
:100E9000B5FF114948802B20FFF7B0FF0E49498864
:100EA00041EA002000B20C4948802C20FFF7A6FF41
:100EB000094988802D20FFF7A1FF0749898841EA69
:100EC000002000B20449888010BD000000100240DC
:100ED00000300140000002405A00002000B585B0FB
:100EE0000121084601F01EFE0121880301F009FFDF
:100EF00000208DF810008DF813000120039003A945
:100F0000144806F0EDFB0021084607F0FDF801202B
:100F1000019000208DF8080008208DF809000120BC
:100F20008DF80A0001A806F0D3F906208DF800001C
:100F300001208DF801008DF802008DF8030068464D
:100F400006F0E9FF05B000BD10B5FFF7C7FF00F0E0
:100F50001DF810BD000002401CB53F20009001218B
:100F6000022001F0DFFD00208DF804008DF806005E
:100F700001208DF8070002208DF80500694602481F
:100F800006F0AEFB1CBD0000000402401CB50121B0
:100F9000082001F0C7FD4FF47040009001208DF84B
:100FA000040000208DF806008DF8070003208DF85E
:100FB00005006946014806F093FB1CBD000C024089
:100FC0001CB50121082001F0ADFD02220C219E4834
:100FD00006F0C5FE02220D219B4806F0C0FE02224B
:100FE0000E21994806F0BBFE02220F21964806F01A
:100FF000B6FE4FF47040009002208DF804008DF88A
:10100000050001208DF8070069468F4806F068FB4F
:101010001CBD10B560208D490880FFF7D1FF01206D
:101020008A4948800020888110BD10B504460121FE
:10103000042001F03DFE002085490880488046F6E6
:101040007D004860002008818872824802F068F9BB
:101050000121804802F0FEFC10BD10B54FF4FA707B
:10106000FFF7E3FFFFF7D5FF10BD01467848406862
:10107000401C48436422B0FBF2F0704710B52DEDE0
:10108000028BB0EE408ABDEEC80A10EE100AFFF7E0
:10109000ECFF6E4988606F4802F026FD08216D481C
:1010A00003F058FABDEC028B10BD10B52DED028B8C
:1010B000B0EE408ABDEEC80A10EE100AFFF7D5FF69
:1010C00062498860634802F0D2FE0821614803F05B
:1010D000B5FABDEC028B10BD10B52DED028BF0EE14
:1010E000408AB0EE608AB7EE000AF4EEC08AF1EEF4
:1010F00010FA06DCBFEE000AF4EEC08AF1EE10FA38
:1011000003D20020BDEC028B10BDB7EE000AB4EE96
:10111000C08AF1EE10FA06DCBFEE000AB4EEC08A17
:10112000F1EE10FA01D20020ECE74B48C0ED008A46
:1011300080ED018AB5EEC08AF1EE10FA1FDB9FED5B
:10114000470A28EE000ABDEEC00A10EE100AFFF7AB
:101150008CFF3E4988603F4802F096FD08213D48DB
:1011600003F036FA0020FFF780FF384988603948DD
:1011700002F04DFF0821374803F0A4FA27E0B5EE4E
:10118000C08AF1EE10FA22D2B1EE480AB0EE408ADF
:101190009FED320A28EE000ABDEEC00A10EE100ADA
:1011A000FFF763FF294988602A4802F030FF0821D1
:1011B000284803F087FA0020FFF757FF234988608B
:1011C000244802F061FD0821224803F001FAF5EEFF
:1011D000C08AF1EE10FA16DBDFED200A68EE200A75
:1011E000B0EE600AFFF74AFFDFED1C0A68EE200A46
:1011F000B7EE001A31EE681A60EE810AB0EE600AAE
:10120000FFF753FF1EE0F5EEC08AF1EE10FA19D297
:10121000B1EE680AF0EE408ADFED100A68EE200AAF
:10122000B0EE600AFFF741FFDFED0C0A68EE200A1E
:10123000B7EE001A31EE681A60EE810AB0EE600A6D
:10124000FFF71CFF01205DE7000C02408007002033
:101250009407002000080040A00700200000C842BA
:1012600000B587B00121084601F05CFC072202218D
:10127000914806F074FD072203218F4806F06FFDA8
:101280000C20059002208DF8180000208DF81A001F
:1012900001208DF81B0003208DF8190005A9864850
:1012A00006F01EFA0121480401F002FD8348019076
:1012B0000020ADF810000C20ADF80E000020ADF8B5
:1012C0000C00ADF80A00ADF8080001A97C4805F053
:1012D000FAF826208DF8000000208DF801008DF826
:1012E000020001208DF80300684606F014FE01227A
:1012F00040F22551724805F0C0FD0121704805F00B
:101300002BFA00206F4908606F4908606F49086038
:101310006F4908606F4908706F49087007B000BDD9
:1013200000BF69490968674A12689142F9D0644967
:101330000C31098821F02001614A0C321180614A88
:1013400011684A1C5F4B1A6001F03F02634B985CC6
:101350005B490C31098841F02001594A0C32118057
:1013600070475C490978A9BB5B49097871B9544950
:101370000C31098841F08001514A0C321180012161
:10138000554A11704E49091D088023E04C490C3123
:10139000098821F080014A4A0C3211804C4A1168B8
:1013A0004A1C4B4B1A6001F03F024D4B9854484980
:1013B0000968464A1268514001F03F0111B9012104
:1013C000444A11703E490C31098841F080013C4A81
:1013D0000C321180704710B504460A2C07D100BFAB
:1013E0003C4800780028FBD10D20FFF7BAFF00BF72
:1013F000384800780028FBD12046FFF7B2FF20468E
:1014000010BD10B5044603E02078FFF7E4FF641C2C
:1014100020780028F8D110BD08B529480088009030
:10142000009800F02000D0B12548008820F020006E
:1014300023490880234800684030234909688842CE
:1014400038D01F49091D0988CAB21F490868411CC4
:101450001D4B196000F03F01204B5A542AE00098C0
:1014600000F0800030B31648008820F08000144956
:101470000880164800681649096888420FD0134949
:101480000868411C114A116000F03F01144A515C88
:101490000B4A121D118000200E4908700AE000203E
:1014A0000D49087006480C30008820F0800004497F
:1014B0000C31088008BD00000000024080841E003E
:1014C00000440040680000206C0000206000002004
:1014D000640000207000002071000020EC07002054
:1014E000AC07002010B52DED028B0446D4E916217F
:1014F00010460CF0E5FB00EE100AD4ED150A30EEB4
:10150000C00AB0EE408A94F86400002866D194EDD9
:10151000060A20EE080A84ED0E0A94ED0E0AD4EDB8
:10152000030A94ED111A31EE081A00EE810A84EDD7
:101530000E0AE06CA0B194ED0B0AD4ED120A78EE1D
:10154000600A20EE200AD4ED140A94ED0F1A00EE82
:10155000810AD4ED0E0A30EE200A84ED0E0A0BE06B
:1015600094ED0E0AD4ED0B0A94ED121A38EE411ADE
:1015700000EE810A84ED0E0A94ED0E0AD4ED100AF5
:1015800030EE200A84ED0E0AD4ED0E0A94ED0C0A1A
:10159000B8EEC00AF4EEC00AF1EE10FA06DB94EDE4
:1015A0000C0AB8EEC00A84ED0E0A17E0D4ED0E0A5C
:1015B00094ED0D0AB8EEC00AF4EEC00AF1EE10FA8E
:1015C00006D894ED0D0AB8EEC00A84ED0E0A05E0C7
:1015D00094ED110A30EE080A84ED110A94ED0E0A1A
:1015E00084ED0F0A84ED128AD4ED0E0A94ED0C0AF4
:1015F000B8EEC01A80EE810ABDEC028B10BD30B58A
:101600002DED028B81B00121F14804F0A5F90028ED
:101610007DD00121EE4804F0FCF9EE48FFF762FFAF
:10162000F0EE408AEC48FFF75DFFB0EE408A68EECE
:10163000A80AB0EE600A08EE080AB5EEC00AF1EE9C
:1016400010FA04DDF1EEC00ACDED000A04E0DFED92
:10165000E30ACDED000A00BF9DED000ADFEDE00AD0
:10166000B4EEE00AF1EE10FA33D2DE48D0F8801E74
:10167000D0F8840E81422CD0DA48D0F8800E401C7D
:10168000D849C1F8800E0846D0F8800E4FF47A7120
:10169000B0FBF1F201FB1200D34901EBC000D0E92D
:1016A000004120460CF009FBCA494865CD48D0F8F6
:1016B000800E4FF47A71B0FBF1F201FB1201CB48BE
:1016C00000EBC100D0E9004120460CF0F6FAC24917
:1016D00048659DED000AF7EE000AB4EEE00AF1EE6F
:1016E00010FA03DDB7EE000A8DED000AB5EEC08AF0
:1016F000F1EE10FA05DD9DED000AB1EE400A8DED28
:10170000000A0120BA490870DDED000A00E003E09C
:10171000B0EE680AFFF7E0FC01B0BDEC028B30BD13
:101720000021B34A117047F6FF7101629FEDAB0AC9
:1017300080ED0A0A4A42426201609FEDA80A80EDEC
:10174000020A11464160490C01619FEDA40A80ED37
:10175000060A426101639FEDA10A80ED0E0A426311
:101760009FED9E0A80ED100A9FED9C0A80ED120A03
:101770009FED9A0A80ED110A0021C1649FED970A3E
:1017800080ED140A9FED950A80ED150A80F864102B
:101790009FED920A80ED180A704700B58D48FFF75B
:1017A000BFFF8D48FFF7BCFF00218E48C0F8801EA8
:1017B000C0F8841E00BD1FB50121022001F078FA97
:1017C00042F21070ADF804000020ADF806004FF4AE
:1017D000FA7002900020ADF80C008DF80E0001A9FF
:1017E0007B4801F09DFD1D208DF8000000208DF844
:1017F000010001208DF802008DF80300684606F014
:101800008AFB01221146724803F066FF01217048ED
:1018100002F020F91FBD7748C06CE8B1754890ED23
:10182000181AF7EE001AC1EE810AD0ED0A1A90EDEF
:10183000131AB8EEC11A81EE810A90ED0A1A70EE01
:10184000201A81EE212A80ED0B2A30EE201AC0EEFC
:10185000011AC0ED141A08E0664890ED0A1AD0ED9E
:10186000181A21EE211A80ED0B1A624890ED021A27
:10187000D0ED181A81EE212A80ED032A70477047B7
:1018800070B5584CD4F8844E641C564DC5F8844E3F
:101890002C46D4F8844E4FF47A75B4FBF5F605FB6C
:1018A0001644514D05EBC40403C44E4CD4F8844E89
:1018B0004FF47A75B4FBF5F605FB16454B4C04EB7B
:1018C000C5040CC470BD70B5FFF7D9FFFFF7A3FFC7
:1018D000FFF771FF00214348C0F8801EC0F8801E4A
:1018E000D0F8800E4FF47A71B0FBF1F201FB1200D8
:1018F0003D4901EBC000D0E9004120460CF0DDF984
:10190000344948653748D0F8800E4FF47A71B0FBFF
:10191000F1F201FB1201354800EBC101D1E90041B0
:1019200020460CF0CAF92C49486570BD00203049AA
:101930000870704700202E49087070470FB400B53A
:101940002DED0A8B8BB09DED2E0A10EE101A084675
:101950000CF088F941EC180B9DED240A10EE101ADA
:1019600008460CF07FF941EC190B9DED200A10EEB2
:10197000101A08460CF076F941EC1A0B9DED1C0A82
:1019800010EE101A08460CF06DF941EC1B0B9DEDA2
:10199000180A10EE101A08460CF064F941EC1C0B02
:1019A0009DF8BC000A908DED088B299806908DED6E
:1019B000049B8DED02AB8DED00BB53EC1C2B0EA0F8
:1019C0000AF0EEFA0BB0BDEC0A8B5DF814FB0000D8
:1019D00000040040980800200009002000000000DA
:1019E0000AD7233C6839002068090020A828002075
:1019F00072000020300800204B69203A25660A4B0F
:101A000070203A25660A4B64203A25660A55203A2A
:101A100025660A4E203A25640A46726571203A25E9
:101A2000660A4D6F646F203A25640A0010B50446BB
:101A3000DC48FFF770F8012010BD10B50446D94806
:101A4000FFF7AEF8012010BD7FB5044600256B46B8
:101A500002AAD5A120460AF07FFC0546022D02DA33
:101A6000002004B070BDDDE90023DDE90201FFF7CD
:101A700007FF0120F5E770B505460C4607E0CF49A2
:101A800008200AF048FE00222046641E2A54002C3A
:101A9000F5DC70BD0146612903DB7A2901DC0120F8
:101AA0007047412903DB5A2901DC0120F8E70020B7
:101AB000F6E70146302901DB392901DD00207047B6
:101AC0000120FCE70246002106E0BD48405C904250
:101AD00001D101207047491CB948405C0028F4D16D
:101AE00000BFF7E700B503461846FFF7E2FF08B16D
:101AF000012000BD1846FFF7CDFF08B10120F8E72F
:101B00001846FFF7DFFF08B10120F2E70020F0E7F9
:101B10002DE9F04105460F460026FFF701FC04467B
:101B2000A8480068312810DB082C0ED00020A549F9
:101B300009686854A4A00AF033FA2320FFF74BFC8D
:101B40003946A7A00AF02CFA53E02046FFF7CAFF57
:101B500028B902262146A3A00AF022FA49E0082C5F
:101B600011D198480068002843DD944908200AF004
:101B7000D2FD002093490968685492480068401ECD
:101B80009049086035E01B2C08D18E480168284632
:101B9000FFF771FF00208B4908602AE0242C11D147
:101BA00095F8320020B991A00AF0FAF9032620E056
:101BB000844801682846FFF75EFF394688A00AF08E
:101BC000EFF916E00D2C01D00A2C07D100207D4939
:101BD0000968685401267B4908600AE07948006872
:101BE0002C542046FFF7F7FB76480068401C7549E7
:101BF000086016B10020734908603046BDE8F081E6
:101C00007CB506460024356805E015F8012B204612
:101C1000641C0DF80020052C05DA2878202802D055
:101C200028780028F1D114B100200DF80400002418
:101C30000BE004EB4410754A02EB800168460AF0A1
:101C400091FD08B920467CBD641C04EB44106F492B
:101C500011F820000028ECD1681E054630604FF0D6
:101C6000FF30F0E730B503460D46196800240878C8
:101C7000302807D00878312804D00878202801D0EF
:101C8000002030BD09E011F8012BA2F13000C2B2F2
:101C90000AB1012A01D16400144408783028F2D036
:101CA00008783128EFD008782028ECD02C60196013
:101CB0000120E6E7F8B505460E462868009000BF0B
:101CC000009810F8014B0090202C02D00CB12E2C63
:101CD000F6D10CB90020F8BD00BF009810F8014BF8
:101CE00000902046FFF7E5FE18B144240098401EFE
:101CF0000090482C07D0422C05D0442C03D00098EB
:101D000000780028E9D1422C11D0442C08D0482C6E
:101D100013D132463EA100980AF01EFBC4B20EE079
:101D200032463CA100980AF017FBC4B207E03146E6
:101D30006846FFF797FF044601E00020CBE700BFAD
:101D400002E00098401C009000980078202806D0FF
:101D50000098007818B1009800782E28F1D10098EA
:101D600028602046B7E770B50546002409E004EB7B
:101D70004410264A02EB8000411D27A00AF010F90A
:101D8000641C04EB4410214901EB800040790028D9
:101D9000EDD1012070BD10B5044620A00AF000F975
:101DA000012010BD500700204150205820256C6CA8
:101DB00064205920256C6C64000000008000002025
:101DC0000CDF0008740000200A5741524E494E476C
:101DD00021206275666665722066756C6C210A004A
:101DE00025730000307825780A0000000A547970C5
:101DF0006520612076616C696420636F6D6D616E32
:101E000064206669727374210000000018DF000806
:101E1000256C5800256C750025730A005665727391
:101E2000E36F20302E312C204461766964204365B5
:101E30007264656972612C20677275706F20342C32
:101E4000204C50493220554D2044454920323031F4
:101E500035210A0000B587B00121022000F062FEA2
:101E6000C020059002208DF8180000208DF81A007F
:101E700001208DF81B0003208DF8190005A9844866
:101E800005F02EFC07220621814805F068FF072295
:101E900011467F4805F063FF0121102000F031FF5B
:101EA0004FF4E13001900020ADF810000C20ADF8A7
:101EB0000E000020ADF80C00ADF80A00ADF80800E7
:101EC00001A9744804F0FFFA25208DF800000020D5
:101ED0008DF801008DF8020001208DF8030068469E
:101EE00006F019F8012240F225516A4804F0C5FFB6
:101EF0000121684804F030FC0020674908706749F8
:101F00000870674908706749087067490870674931
:101F1000087007B000BD00BF604909785E4A1278BA
:101F20009142F9D05B49898921F02001594A918178
:101F3000594A11784A1C584B1A7001F01F025C4B29
:101F4000985C5449898941F02001524A9181704737
:101F50005549097871BB5549097859B94D4989895D
:101F600041F080014B4A91810121504A1170494949
:101F700088801FE04749898921F08001454A918185
:101F8000484A11784A1C474B1A7001F01F02494B0E
:101F9000985444490978424A1278514001F01F018F
:101FA00011B90121404A11703A49898941F08001F3
:101FB000384A9181704710B504460A2C07D100BFFA
:101FC000394800780028FBD10D20FFF7C1FF00BF82
:101FD000354800780028FBD12046FFF7B9FF20469E
:101FE00010BD10B5044603E02078FFF7E4FF641C41
:101FF00020780028F8D110BD08B526480088009048
:10200000009800F02000C8B12248008820F020008D
:1020100020490880204800782030204909788842EB
:1020200034D01C498988CAB21C490878411C1B4B12
:10203000197000F01F011E4B5A5427E0009800F061
:10204000800018B31348008820F0800011490880F0
:10205000134800781349097888420ED0104908784F
:10206000411C0F4A117000F01F01124A515C094ACD
:10207000918000200C49087008E000200B4908708E
:102080000448808920F080000249888108BD000052
:1020900000040240001001407A0000207B00002074
:1020A00078000020790000207C0000207D000020C6
:1020B00010480020F047002038B5044612A1174808
:1020C00009F07AFF6A4616A116480AF039F99DF818
:1020D00000003E2804D1224613A1104809F06CFFED
:1020E00038BD10B5FFF7B6FE0020FFF764FF10A162
:1020F0000A4809F061FF0FA1084809F05DFF0FA031
:10210000FFF7DAFF10BD000041542B4349505345FF
:102110004E443D302C203235350A0D008800002019
:10212000256300008C00002025730A0D00000000CC
:102130000A0D000041540A0D000000004C4F4F4FA3
:102140004F4F4F4F4F4F4F4C0000000070B50446AB
:102150000D461248854203D1E0B2FFF72CFF70BD57
:10216000E0B2FFF738F9FAE770B504460C4884424C
:1021700002D1FFF7D0FE70BDFFF7D2F80546FFF79A
:102180002AF9F8E710B50446E0B2FFF724F910BDCC
:1021900001464FF0FF30704700BFFEE78800002087
:1021A0008C0000200CB5002001900090764800685B
:1021B00040F480307449086000BF7348006800F440
:1021C000003000900198401C0190009818B90198C7
:1021D000B0F5A06FF1D16C48006800F4003010B188
:1021E0000120009001E0002000900098012846D1D5
:1021F00065484030006840F08050634940310860D5
:102200006248006840F48040604908605E480830D9
:1022100000685D49083108600846006840F40040E5
:1022200008600846006840F4A05008605848091F3C
:102230000860081F006840F08070091F086000BF38
:102240005148006800F000700028F9D040F20560A5
:10225000504908604C480830006820F003004A49A3
:10226000083108600846006840F00200086000BFBE
:1022700045480830006800F00C000828F8D10CBD73
:1022800010B54548006840F47000434908603E4876
:10229000006840F001003C49086000203A490831DC
:1022A0000860394800683D490840374908603C48A3
:1022B000091D0860081F006820F48020091F0860BD
:1022C000002031490C310860FFF76CFF4FF00060CF
:1022D00031498039086010BD70B50020002202230A
:1022E00000240221284D08352D6805F00C0020B18E
:1022F000042806D0082834D107E02A4D2A4E35603C
:1023000033E02A4D284E35602FE01F4D2D1D2D68DE
:10231000C5F380541C4D2D1D2D6805F03F0154B1AF
:10232000224DB5FBF1F5184E361D3668C6F38816FA
:1023300005FB06F209E01B4DB5FBF1F5124E361D0B
:102340003668C6F3881605FB06F20F4D2D1D2D6865
:10235000C5F301456D1C6B00B2FBF3F5124E356001
:1023600003E0104D104E356000BF00BF064D08352C
:102370002D68C5F303150E4E705D0B4D2D68C540DD
:10238000094E356070BD000000380240007000400A
:1023900008544007003C024088ED00E0FFFFF6FED5
:1023A0001030002400B4C4049000002000127A0011
:1023B00094000020704700BFFEE700BFFEE700BFAB
:1023C000FEE700BFFEE770477047704710B5FEF7A5
:1023D000BCF810BD10B5FEF73DFA10BD10B50248AF
:1023E00009F05BFA10BD000020010020F9480068E8
:1023F00040F00100F74908600020F6490831086004
:10240000F4480068F4490840F2490860F348091D9F
:102410000860081F006820F48020091F0860002061
:10242000EC490C310860704710B504461CB1012C12
:1024300001D0052C00D103E0F121E9A0FEF783F8DB
:102440000020E449891C08700846047010BD2DE97D
:10245000F0410446002500260027212C17D0312CFE
:1024600015D0392C13D0412C11D0612C0FD0792CE0
:102470000DD07A2C0BD07B2C09D07C2C07D07D2C56
:1024800005D07E2C03D07F2C01D03B2C00D104E062
:1024900040F29D61D2A0FEF756F86511012D02D1E0
:1024A000CC48066808E0022D03D1CA48703006689F
:1024B00002E0C8487430066804F01F050120A840F7
:1024C000304008B1012700E000273846BDE8F08120
:1024D00038B5002000900024002500BF3120FFF710
:1024E000B6FF05460098401C00900098B0F5A06F1C
:1024F00001D0002DF2D03120FFF7A9FF08B101244F
:1025000000E00024204638BD70B5044600251F2C8D
:1025100000DC04E040F22911B1A0FEF714F8AD4848
:10252000056825F0F80545EAC405056070BD10B5DD
:1025300004460CB1012C00D104E04FF4A671A8A010
:10254000FEF701F8B548046010BD10B504461CB193
:10255000012C01D0042C00D104E040F26511A0A0B0
:10256000FDF7F1FF00209B49703108700870012CC5
:1025700002D0042C0AD104E0012096497031087081
:1025800005E0052093497031087000E000BF00BFEE
:1025900010BD10B504460CB1012C00D104E040F28E
:1025A0008D118FA0FDF7CFFF9D48046010BD2DE970
:1025B000F04105460F4616461C46DDF8188015B159
:1025C000B5F5800F00D104E04FF4DC7184A0FDF775
:1025D000BAFF3F2F00D804E040F2B91180A0FDF708
:1025E000B2FFC02E03D3B6F5D87F00D804E04FF475
:1025F000DD717BA0FDF7A7FF022C05D0042C03D0D2
:10260000062C01D0082C00D104E040F2BB1174A0CC
:10261000FDF799FFB8F1040F03D3B8F10F0F00D8FD
:1026200004E04FF4DE716EA0FDF78DFF47EA8610DF
:102630000121C1EB540140EA0140284340EA08600F
:102640006449091D0860BDE8F08110B504460CB16D
:10265000012C00D104E040F2CF1161A0FDF773FF1F
:102660006E48046610BD70B505460C46C02D03D3F8
:10267000B5F5D87F00D804E040F2E91158A0FDF785
:1026800062FF022C02D3072C00D804E04FF4F5714E
:1026900053A0FDF758FFA80140EA04704D4984316A
:1026A000086070BD10B504460CB1012C00D104E0E7
:1026B0004FF4FC714AA0FDF746FF5848846610BDF0
:1026C00010B504460CB1012C00D104E040F20A21FF
:1026D00043A0FDF738FF5148C46410BD70B50546EE
:1026E0000C46002645B1B5F5001F05D0B5F5800FA5
:1026F00002D0B5F5C00F00D104E040F2252138A08A
:10270000FDF721FF5CB1B4F1806F08D0B4F1A06F88
:1027100005D0B4F1C06F02D0B4F1E06F00D104E095
:1027200040F226212EA0FDF70EFF2A480830066849
:1027300026F0EC6645EA04000643264808300660A9
:1027400070BD70B505460C46002645B1B5F1804F09
:1027500005D0B5F1004F02D0B5F1404F00D104E0F3
:1027600040F24B211EA0FDF7EEFE5CB1B4F1005F1C
:1027700008D0B4F1205F05D0B4F1405F02D0B4F1CD
:10278000605F00D104E04FF4137115A0FDF7DBFE8C
:1027900010480830066826F0784645EA04000643EB
:1027A0000C480830066070BD70B5044600251CB1A9
:1027B000012C01D0022C00D104E040F2B52108A088
:1027C000FDF7C1FE03480830056825F003052543E1
:1027D000056070BD00380240FFFFF6FE1030002497
:1027E0002E2E5C4C69627261726965735C53544D44
:1027F0003332463478785F53746450657269706818
:102800005F4472697665725C7372635C73746D3376
:1028100032663478785F7263632E6300000047424B
:10282000800E4742F948006800F00C00704770B510
:10283000044600257CB1802C0DD0902C0BD0A02C10
:1028400009D0B02C07D0C02C05D0D02C03D0E02C60
:1028500001D0F02C00D105E040F2EA21AFF2800077
:10286000FDF771FEE948056825F0F0052543056090
:1028700070BD70B5044600255CB1B4F5805F08D02A
:10288000B4F5A05F05D0B4F5C05F02D0B4F5E05F49
:1028900000D105E040F20A31AFF2BC00FDF753FE73
:1028A000DA48056825F4E0552543056070BD70B52C
:1028B000044600255CB1B4F5805F08D0B4F5A05F94
:1028C00005D0B4F5C05F02D0B4F5E05F00D105E0FB
:1028D00040F22931AFF2F800FDF735FECB4805682C
:1028E00025F4604545EAC405056070BDF0B50021DA
:1028F00000220024022500260223C44F3F6807F06F
:102900000C0121B1042905D0082937D105E0C04FB9
:10291000076036E0BF4F076033E0BC4F3F1F3F68A2
:10292000C7F38056B94F3F1F3F6807F03F036EB1B2
:10293000B84FB7FBF3F7DFF8D4C2ACF1040CDCF806
:1029400000C0CCF3881C07FB0CF40CE0B04FB7FBC5
:10295000F3F7DFF8B8C2ACF1040CDCF800C0CCF33C
:10296000881C07FB0CF4A94F3F1F3F68C7F30147C2
:102970007F1C7D00B4FBF5F7076002E0A44F076001
:1029800000BF00BFA14F3F6807F0F0010909A24F47
:102990007A5C0768D74047609C4F3F6807F4E05176
:1029A000890A9D4F7A5C4768D7408760974F3F6898
:1029B00007F46041490B984F7A5C4768D740C7607D
:1029C000F0BD70B504460025B4F5807F5CD0B4F549
:1029D000007F59D09148844256D09148844253D0C8
:1029E0009048844250D0904884424DD08F488442D1
:1029F0004AD08F48844247D08E48844244D08E4883
:102A0000844241D08D4884423ED08D4884423BD0A0
:102A10008C48844238D08C48844235D08B488442DC
:102A200032D08B4884422FD08A4884422CD08A48A6
:102A3000844229D08948844226D08948844223D0C0
:102A40008848844220D0884884421DD087488442E8
:102A50001AD08748844217D08648844214D08648CA
:102A6000844211D0854884420ED0854884420BD0E0
:102A70008448844208D08448844205D083488442F4
:102A800002D08348844200D105E040F2DA31AFF24F
:102A9000B020FDF758FD04F44070B0F5407F09D137
:102AA0005A48056825F4F8157A4904EA01000543F7
:102AB00056480560554868300068C4F30B01084368
:102AC00052496831086070BD10B504460CB1012C44
:102AD00000D105E04FF47E71AFF2FC20FDF733FD2D
:102AE0006D48046010BD10B504460CB1012C00D136
:102AF00005E040F20941AFF21830FDF724FD6648C9
:102B0000001D046010BD10B504460CB1012C00D1AD
:102B100005E040F21A41AFF23830FDF714FD5F488E
:102B2000046010BD70B504460D465D48204008B9EC
:102B300004B105E040F24141AFF25C30FDF703FD26
:102B40000DB1012D00D105E040F24341AFF27030EC
:102B5000FDF7F9FC3DB12D482830006820432B4992
:102B60002831086006E0294828300068A04327493A
:102B70002831086070BD70B504460D4624F0F100A0
:102B800008B904B105E040F26141AFF2AC30FDF7A5
:102B9000DAFC0DB1012D00D105E040F26241AFF247
:102BA000C030FDF7D0FC3DB118482C300068204300
:102BB00016492C31086006E014482C300068A04308
:102BC00012492C31086070BD70B504460D4624F0E2
:102BD000010008B904B105E040F27C41AFF20040C9
:102BE000FDF7B1FC0DB1012D00D105E040F27D41B2
:102BF000AFF21440FDF7A7FC3DB104483030006847
:102C0000204302493031086051E04BE0083802406F
:102C100000B4C40400127A00A400002000030200E3
:102C20000003030000030400000305000003060086
:102C300000030700000308000003090000030A0066
:102C400000030B0000030C0000030D0000030E0046
:102C500000030F0000031000000311000003120026
:102C60000003130000031400000315000003160006
:102C700000031700000318000003190000031A00E6
:102C800000031B0000031C0000031D0000031E00C6
:102C900000031F00FFFCFF0F3C0E47425C01474250
:102CA00000EE8B81F8480068A043F749086070BDCA
:102CB00070B504460D46F548204008B904B105E05A
:102CC00040F2AE41AFF2E840FDF73DFC0DB1012D01
:102CD00000D105E040F2AF41AFF2FC40FDF733FC1C
:102CE0003DB1E948083000682043E74908310860F1
:102CF00006E0E54808300068A043E3490831086071
:102D000070BD70B504460D46E148204008B904B1D5
:102D100005E040F2D641AFF23850FDF714FC0DB19A
:102D2000012D00D105E040F2D741AFF24C50FDF744
:102D30000AFC3DB1D4480C3000682043D2490C3124
:102D4000086006E0D0480C300068A043CE490C3142
:102D5000086070BD70B504460D46CE48204008B9E5
:102D600004B105E040F2FD41AFF28C50FDF7EBFB02
:102D70000DB1012D00D105E040F2FE41AFF2A050AF
:102D8000FDF7E1FB3DB1C048283800682043BE494B
:102D90002839086006E0BC4828380068A043BA49D2
:102DA0002839086070BD70B504460D4624F0F10066
:102DB00008B904B105E040F21A51AFF2DC50FDF75A
:102DC000C2FB0DB1012D00D105E040F21B51AFF265
:102DD000F050FDF7B8FB3DB1AB4824380068204304
:102DE000A9492439086006E0A74824380068A043B0
:102DF000A5492439086070BD70B504460D4624F01D
:102E0000010008B904B105E040F23251AFF2306080
:102E1000FDF799FB0DB1012D00D105E040F23351D2
:102E2000AFF24460FDF78FFB3DB197482038006852
:102E3000204395492039086006E09348203800680F
:102E4000A04391492039086070BD70B504460D4615
:102E50008E48204008B904B105E040F26151AFF25C
:102E60008060FDF770FB0DB1012D00D105E040F24F
:102E70006251AFF29460FDF766FB3DB182481838AD
:102E80000068204380491839086006E07E481838F9
:102E90000068A0437C491839086070BD70B50446CD
:102EA0000D467D48204008B904B105E040F2855147
:102EB000AFF2D460FDF747FB0DB1012D00D105E065
:102EC00040F28651AFF2E860FDF73DFB3DB16E4840
:102ED0001438006820436C491439086006E06A48D9
:102EE00014380068A04368491439086070BD70B593
:102EF00004460D466948204008B904B105E040F297
:102F0000B351AFF22470FDF71EFB0DB1012D00D1BE
:102F100005E040F2B451AFF23870FDF714FB3DB15B
:102F2000594818300068204357491831086006E0B6
:102F3000554818300068A04353491831086070BDE7
:102F400070B504460D4624F0F10008B904B105E05F
:102F500040F2D351AFF27870FDF7F5FA0DB1012DC3
:102F600000D105E040F2D451AFF28C70FDF7EBFADE
:102F70003DB145481C300068204343491C3108607E
:102F800006E041481C300068A0433F491C310860FE
:102F900070BD70B504460D4624F0010008B904B1B7
:102FA00005E040F2EE51AFF2C870FDF7CCFA0DB17A
:102FB000012D00D105E040F2EF51AFF2DC70FDF7DA
:102FC000C2FA3DB130482030006820432E492031FC
:102FD000086006E02C4820300068A0432A492031D0
:102FE000086070BD70B504460D462848204008B9F9
:102FF00004B105E04FF4C461AFF61C00FDF7A3FA7D
:103000000DB1012D00D105E040F22161AFF6300095
:10301000FDF799FA3DB11C482830006820431A4951
:103020002831086006E0184828300068A043164997
:103030002831086070BD70B504460D461448204024
:1030400008B904B105E04FF4C961AFF66C00FDF7B3
:103050007AFA0DB1012D00D105E040F24961AFF6D9
:103060008000FDF770FA3DB107482C30006820431E
:1030700005492C31086006E003482C300068A04365
:1030800001492C31086070BD38380240003601C952
:10309000CCA0F8FF00EE9FDDCCA6F8FF006E988173
:1030A00070B504460D4604F0C00008B904B105E04F
:1030B00040F27561AFF6D800FDF745FA0DB1012D6C
:1030C00000D105E040F27661AFF6EC00FDF73BFA87
:1030D0002DB12448007820432249087004E021489B
:1030E0000078A0431F49087070BD1E486730006813
:1030F00040F080701B4967310860704770B5044626
:103100000025012C0BD0022C09D0042C07D0082C50
:1031100005D0102C03D0802C01D0202C00D105E04C
:1031200040F2DB61AFF64810FDF70DFA0D48401E86
:103130000068204008B1012500E00025284670BD48
:1031400010B5044604F0400008B904B105E040F2AF
:10315000FA61AFF67410FDF7F6F90248401C0470EE
:1031600010BD00000D38024010B50446FE488442F0
:1031700026D0B4F1804F23D0FC48844220D0FC48B4
:1031800084421DD0FB4884421AD0FB48844217D0A9
:10319000FA48844214D0FA48844211D0F948844253
:1031A0000ED0F94884420BD0F848844208D0F84841
:1031B000844205D0F748844202D0F748844200D1C7
:1031C00003E0C621F5A0FDF7BEF9E748844208D127
:1031D00001210846FFF762FE00210120FFF75EFE95
:1031E0009DE0B4F1804F08D101210846FFF72DFE84
:1031F00000210120FFF729FE91E0DC48844208D13C
:1032000001210220FFF721FE00210220FFF71DFE11
:1032100085E0D748844208D101210420FFF715FE3C
:1032200000210420FFF711FE79E0D248844208D142
:1032300001210820FFF709FE00210820FFF705FE05
:103240006DE0CD48844208D101211020FFF7FDFD3B
:1032500000211020FFF7F9FD61E0C848844208D141
:1032600001212020FFF7F1FD00212020FFF7EDFDD7
:1032700055E0C348844208D101210220FFF70EFE29
:1032800000210220FFF70AFE49E0BE48844209D12E
:1032900001210804FFF702FE00214FF48030FFF700
:1032A000FDFD3CE0B848844209D101214804FFF704
:1032B000F5FD00214FF40030FFF7F0FD2FE0B3489B
:1032C000844209D101218804FFF7E8FD00214FF471
:1032D0008020FFF7E3FD22E0AD48844208D10121C0
:1032E0004020FFF7B2FD00214020FFF7AEFD16E0C1
:1032F000A848844208D101218020FFF7A6FD0021C3
:103300008020FFF7A2FD0AE0A348844207D10121F3
:103310008015FFF79AFD0021A015FFF796FD10BD5F
:1033200070B504460D4600268F48844226D0B4F17D
:10333000804F23D08D48844220D08D4884421DD0B8
:103340008C4884421AD08C48844217D08B488442DF
:1033500014D08B48844211D08A4884420ED08A48C7
:1033600084420BD08948844208D08948844205D0E1
:103370008848844202D08848844200D104E04FF457
:10338000907186A0FDF7DFF8688858B1688810282A
:1033900008D06888202805D06888402802D068882E
:1033A000602800D104E040F221117CA0FDF7CBF8A9
:1033B000288938B12889B0F5807F03D02889B0F5F5
:1033C000007F00D104E04FF4917174A0FDF7BBF8C9
:1033D0002688654884420ED0694884420BD0B4F1F7
:1033E000804F08D06148844205D06148844202D0B1
:1033F0006048844204D14FF68F70064068880643C7
:103400005D48844207D05D48844204D04FF6FF40B7
:1034100006402889064326806868E062288820855F
:103420005148844202D05648844201D1A87A20866D
:103430000120A08270BD4FF0FF314160002101806A
:10344000018141808172704770B504460E46154671
:103450004548844226D0B4F1804F23D0434884426B
:1034600020D0434884421DD0424884421AD042486A
:10347000844217D04148844214D04148844211D03C
:10348000404884420ED0404884420BD03F4884429A
:1034900008D03F48844205D03E48844202D03E488E
:1034A000844200D104E04FF4B3713CA0FDF74BF827
:1034B0000DB1012D00D104E040F2671137A0FDF7F6
:1034C00042F82685A58270BD70B504460D460026DB
:1034D000254884420ED0B4F1804F0BD0234884425B
:1034E00008D02348844205D02248844202D0244890
:1034F000844200D104E040F27F1128A0FDF723F8B8
:103500003DB1102D05D0202D03D0402D01D0602DD0
:1035100000D104E04FF4C07120A0FDF714F8268814
:103520004FF68F7006402E43268070BD70B504465E
:103530000D460D4884425FD0B4F1804F5CD00B48FB
:10354000844259D00A48844256D00A48844253D013
:103550000948844250D0094884424DD008488442EA
:103560004AD00848844237E000000140000400408F
:1035700000080040000C0040001000400014004013
:103580000004014000400140004401400048014067
:1035900000180040001C0040002000402E2E5C4C13
:1035A00069627261726965735C53544D333246349B
:1035B00078785F5374645065726970685F447269AB
:1035C0007665725C7372635C73746D3332663478E3
:1035D000785F74696D2E63000ED0FE4884420BD074
:1035E000FD48844208D0FD48844205D0FC4884420E
:1035F00002D0FC48844200D105E040F29711AFF2BE
:103600006400FCF7A0FF656270BD70B504460D460E
:10361000F548844226D0B4F1804F23D0F348844249
:1036200020D0F34884421DD0F24884421AD0F24898
:10363000844217D0F148844214D0F148844211D01A
:10364000F04884420ED0E34884420BD0E2488442E2
:1036500008D0E248844205D0E148844202D0E148E3
:10366000844200D105E04FF4D371AFF2D000FCF7F3
:103670006AFFE56270BD10B50446DB48844226D07F
:10368000B4F1804F23D0D948844220D0D848844216
:103690001DD0D84884421AD0D748844217D0D74882
:1036A000844214D0D648844211D0D64884420ED0E9
:1036B000C84884420BD0C848844208D0C7488442D6
:1036C00005D0C748844202D0C648844200D105E0F4
:1036D0004FF4DA71AFF23C10FCF735FF606A10BDB1
:1036E00010B50446C048844226D0B4F1804F23D0A0
:1036F000BE48844220D0BE4884421DD0BD4884428A
:103700001AD0BD48844217D0BC48844214D0BC486B
:10371000844211D0BB4884420ED0AE4884420BD0C4
:10372000AD48844208D0AD48844205D0AC488442BC
:1037300002D0AC48844200D105E04FF4E171AFF211
:10374000A410FCF700FF208D10BD70B504460D4697
:10375000A548844226D0B4F1804F23D0A3488442A8
:1037600020D0A34884421DD0A24884421AD0A24847
:10377000844217D0A148844214D0A148844211D079
:10378000A04884420ED0934884420BD09248844291
:1037900008D09248844205D09148844202D0914892
:1037A000844200D105E04FF4E971AFF21020FCF73C
:1037B000CAFE0DB1012D00D105E040F2D311AFF2E8
:1037C0002420FCF7C0FE25B1208840F002002080B4
:1037D00004E020884FF6FD710840208070BD70B570
:1037E00004460D468048844226D0B4F1804F23D051
:1037F0007E48844220D07E4884421DD07D48844249
:103800001AD07D48844217D07C48844214D07C482A
:10381000844211D07B4884420ED06E4884420BD043
:103820006D48844208D06D48844205D06C4884427B
:1038300002D06C48844200D105E040F2EF11AFF2B3
:10384000A420FCF780FE0DB1012D00D105E04FF45E
:10385000F871AFF2B820FCF776FE25B1208840F071
:103860000400208004E020884FF6FB71084020808F
:1038700070BD70B504460D465B48844226D0B4F155
:10388000804F23D05948844220D0594884421DD0CB
:10389000584884421AD05848844217D05748844226
:1038A00014D05748844211D0564884420ED049481B
:1038B00084420BD04848844208D04848844205D00E
:1038C0004748844202D04748844200D105E04FF483
:1038D0000271AFF23830FCF736FE0DB1012D00D188
:1038E00005E040F20921AFF24C30FCF72CFE25B187
:1038F000208840F08000208004E020884FF67F710F
:103900000840208070BD70B504460D46364884429C
:1039100026D0B4F1804F23D03448844220D034489C
:1039200084421DD0334884421AD03348844217D091
:103930003248844214D03248844211D03148844203
:103940000ED0244884420BD02348844208D0234818
:10395000844205D02248844202D02248844200D1C9
:1039600005E040F22321AFF2CC30FCF7ECFD082D4E
:1039700000D005B905E04FF40971AFF2E030FCF773
:10398000E2FD20884FF6F771084020802088284308
:10399000208070BD70B504460D46134884423BD06C
:1039A000B4F1804F38D01148844235D01048844259
:1039B00032D0104884422FD0114884422CD0114874
:1039C000844229D00348844226D00348844223D02D
:1039D000024819E00044014000480140001800403E
:1039E000001C004000200040000001400004004096
:1039F00000080040000C004000100040001400408F
:103A00000004014000400140844205D0FE48844249
:103A100002D0FE48844200D105E040F23A21AFF2E4
:103A20008440FCF790FD2DB1B5F5807F02D0B5F54F
:103A3000007F00D105E040F23B21AFF2A040FCF74F
:103A400082FD20884FF6FF410840208020882843CF
:103A5000208070BD70B504460D46ED48844226D0E6
:103A6000B4F1804F23D0EB48844220D0EA4884420E
:103A70001DD0EA4884421AD0E948844217D0E94868
:103A8000844214D0E848844211D0E84884420ED0E1
:103A9000E74884420BD0E748844208D0E648844295
:103AA00005D0D948844202D0D848844200D105E0EC
:103AB00040F24E21AFF21C50FCF745FD0DB1012D37
:103AC00000D105E040F24F21AFF23050FCF73BFD52
:103AD00025B1208840F00100208004E020884FF6C6
:103AE000FE710840208070BD2DE9F04105460C466E
:103AF0004FF0000800260027C548854220D0B5F1C8
:103B0000804F1DD0C34885421AD0C348854217D084
:103B1000C248854214D0C448854211D0C34885426A
:103B20000ED0C34885420BD0C248854208D0C24857
:103B3000854205D0B448854202D0B448854200D1C0
:103B400005E040F29F21AFF2AC50FCF7FCFC20886E
:103B500070B1208810280BD02088202808D0208819
:103B6000302805D02088602802D02088702800D115
:103B700005E04FF42871AFF2DC50FCF7E4FC6088FC
:103B800010B16088012800D105E040F2A121AFF218
:103B9000F450FCF7D8FCA08910B1A089022800D10C
:103BA00005E040F2A221AFF20C60FCF7CCFC288CBF
:103BB0004FF6FE71084028842E8CAF88B5F8188027
:103BC0004FF68F7008EA0008881E08EA000820886F
:103BD00040EA0808481E0640A0890643608806435C
:103BE0008B48854202D09048854245D1A08810B1CB
:103BF000A088042800D105E040F2BF21AFF2646044
:103C0000FCF7A1FCE08910B1E089082800D105E0AB
:103C10004FF43071AFF27C60FCF795FC608AB0F530
:103C2000007F01D0608A00B905E040F2C121AFF207
:103C30009460FCF788FC208AB0F5807F01D0208A50
:103C400000B905E040F2C221AFF2B060FCF77BFCA6
:103C50004FF6F7700640E08906434FF6FB700640CA
:103C6000A08806434FF6FF6007404FF6FF5007401D
:103C7000208A0743608A0743AF80A5F81880A068B0
:103C800068632E84BDE8F0812DE9F04105460C46BD
:103C90004FF00008002600275D48854214D0B5F19A
:103CA000804F11D05B4885420ED05B4885420BD0D7
:103CB0005A48854208D05C48854205D05B48854219
:103CC00002D05D48854200D105E04FF43C71AFF26F
:103CD0003470FCF738FC208870B1208810280BD095
:103CE0002088202808D02088302805D02088602807
:103CF00002D02088702800D105E040F2F121AFF217
:103D00006470FCF720FC608810B16088012800D145
:103D100005E040F2F221AFF27C70FCF714FCA089C0
:103D200010B1A089022800D105E040F2F321AFF2E2
:103D30009470FCF708FC288C4FF6EF71084028843B
:103D40002E8CAF88B5F8188048F6FF7008EA000896
:103D50004FF6FF4008EA000820884FF6FF7101EA9D
:103D6000002040EA08084FF6DF700640A08901EA0B
:103D700000100643608801EA00100643244885428B
:103D800002D0294885426AD1A08810B1A0880428B1
:103D900000D105E040F21131AFF60000FCF7D3FB93
:103DA000E08910B1E089082800D105E040F2123125
:103DB000AFF61800FCF7C7FB608AB0F5007F01D0B2
:103DC000608A00B905E040F21331AFF63000FCF72D
:103DD000BAFB208AB0F5807F01D0208A00B905E0C7
:103DE0004FF44571AFF64C00FCF7ADFB4FF67F701A
:103DF0000640E0894FF6FF7101EA001006434FF6D6
:103E0000BF700640A08819E0001C00400020004060
:103E1000000001400004004000080040000C004089
:103E20000010004000140040000401400040014028
:103E300000440140004801400018004001EA001021
:103E400006434FF6FF3007404FF2FF700740208ACD
:103E500001EA80000743608A01EA80000743AF80DF
:103E6000A5F81880A068A8632E84BDE8F0812DE92C
:103E7000F04105460C464FF0000800260027FE489A
:103E800085420ED0B5F1804F0BD0FC48854208D05A
:103E9000FB48854205D0FB48854202D0FA4885425E
:103EA00000D105E040F24131AFF61010FCF74BFBBA
:103EB000208870B1208810280BD02088202808D0B6
:103EC0002088302805D02088602802D020887028DB
:103ED00000D105E040F24231AFF64010FCF733FB71
:103EE000608810B16088012800D105E040F24331BC
:103EF000AFF65810FCF727FBA08910B1A089022863
:103F000000D105E04FF45171AFF67010FCF71BFBC8
:103F1000288C4FF6FF61084028842E8CAF88B5F8B6
:103F20001C804FF68F7008EA00084FF6FC7008EA14
:103F30000008208840EA08084FF6FF500640A08994
:103F40004FF6FF7101EA00200643608801EA002075
:103F50000643C948854202D0CB4885424FD1A0884C
:103F600010B1A088042800D105E040F26131AFF61D
:103F7000D410FCF7E8FAE08910B1E089082800D1F4
:103F800005E040F26231AFF6EC10FCF7DCFA608A33
:103F9000B0F5007F01D0608A00B905E040F26331DE
:103FA000AFF60820FCF7CFFA208AB0F5807F01D069
:103FB000208A00B905E04FF45971AFF62020FCF7D4
:103FC000C2FA4FF2FF700640E0894FF6FF7101EA36
:103FD000002006434FF6FF300640A08801EA00208B
:103FE00006434EF6FF7007404DF6FF700740208AEB
:103FF00001EA00100743608A01EA00100743AF801E
:10400000A5F81C80A068E8632E84BDE8F0812DE946
:10401000F04104460D4600270026B04696488442EB
:104020000ED0B4F1804F0BD09448844208D094480D
:10403000844205D09348844202D09348844200D100
:1040400005E040F29131AFF6AC20FCF77CFA28880D
:1040500070B1288810280BD02888202808D02888FC
:10406000302805D02888602802D02888702800D100
:1040700005E040F29231AFF6DC20FCF764FA688884
:1040800010B16888012800D105E040F29331AFF605
:10409000F420FCF758FAA88910B1A889022800D1A9
:1040A00005E04FF46571AFF60C30FCF74CFA208C4C
:1040B0004EF6FF7108402084268CB4F80480A78B4C
:1040C00048F6FF7007404FF6FF40074028884FF63C
:1040D000FF7101EA002007434DF6FF700640A889F2
:1040E00001EA00300643688801EA0030064362486E
:1040F000844202D06448844217D1288AB0F5807F78
:1041000001D0288A00B905E040F2B231AFF6743030
:10411000FCF719FA4BF6FF7008EA0008288A4FF6F8
:10412000FF7101EA801040EA0808A4F80480A78320
:10413000A86820642684BDE8F081002101804180C8
:10414000818081608181C1810182418270472DE936
:10415000F04104460F4615460026B04646488442C4
:1041600020D0B4F1804F1DD0444884421AD0444836
:10417000844217D04348844214D04348844211D02B
:10418000424884420ED0424884420BD04148844287
:1041900008D04148844205D04048844202D040487B
:1041A000844200D105E040F2F531AFF61040FCF753
:1041B000CAF92FB1042F03D0082F01D00C2F00D142
:1041C00005E040F2F631AFF62C40FCF7BCF96DB1DA
:1041D000102D0BD0202D09D0302D07D0602D05D00B
:1041E000702D03D0502D01D0402D00D105E040F2BC
:1041F000F731AFF65840FCF7A6F9264618360120ED
:10420000B8401FFA80F8208C20EA080020840FB103
:10421000082F0AD106EB670630684FF68F71084009
:1042200030603068284330600FE0381FC0F34E0024
:104230000644306848F6FF710840306030684FF639
:10424000FF7101EA052108433060BDE8F08170B5D7
:1042500004460D460848844237D0B4F1804F34D02C
:104260000648844231D0064884422ED00548844214
:104270002BD00548844215E00000014000040040B6
:1042800000080040000C00400004014000400140D4
:10429000004401400048014000180040001C00405C
:1042A0000020004011D0FB4884420ED0FA488442DE
:1042B0000BD0FA48844208D0F948844205D0F94826
:1042C000844202D0F848844200D105E04FF4846172
:1042D000AFF63850FCF737F9656370BD70B504462A
:1042E0000D46F248844214D0B4F1804F11D0F0480A
:1042F00084420ED0EF4884420BD0EF48844208D06D
:10430000EE48844205D0E348844202D0E448844227
:1043100000D105E04FF48661AFF68050FCF713F949
:10432000A56370BD70B504460D46E04884420ED0CA
:10433000B4F1804F0BD0DE48844208D0DD4884427F
:1043400005D0DD48844202D0DC48844200D105E03B
:1043500040F23F41AFF6BC50FCF7F5F8E56370BDA5
:1043600070B504460D46D14884420ED0B4F1804F5A
:104370000BD0CF48844208D0CE48844205D0CE48E6
:10438000844202D0CD48844200D105E040F24E4143
:10439000AFF6F850FCF7D7F8256470BD70B5044649
:1043A0000D460026C148844220D0B4F1804F1DD074
:1043B000BF4884421AD0BF48844217D0BE488442C6
:1043C00014D0BE48844211D0B24884420ED0B248C4
:1043D00084420BD0B148844208D0B148844205D011
:1043E000B048844202D0B048844200D105E040F297
:1043F0006241AFF65860FCF7A6F8502D01D0402D71
:1044000000D105E040F26341AFF67060FCF79BF825
:10441000268B4FF68F7006402E43268370BD70B5F5
:1044200004460D460026A148844214D0B4F1804FC2
:1044300011D09F4884420ED09E4884420BD09E48A3
:10444000844208D09D48844205D09248844202D0DC
:104450009348844200D105E040F27F41AFF6C4604A
:10446000FCF771F8502D01D0402D00D105E04FF43C
:104470009061AFF6D860FCF766F8268B48F6FF70BF
:1044800006404FF6FF7000EA05200643268370BD04
:1044900070B504460D460026844884420ED0B4F11F
:1044A000804F0BD08248844208D08248844205D095
:1044B0008148844202D08148844200D105E040F224
:1044C0009B41AFF62870FCF73EF8502D01D0402DEF
:1044D00000D105E040F29C41AFF64070FCF733F8A4
:1044E000A68B4FF68F7006402E43A68370BD70B525
:1044F00004460D4600266D4884420ED0B4F1804F2C
:104500000BD06B48844208D06A48844205D06A4880
:10451000844202D06948844200D105E04FF497619B
:10452000AFF68870FCF70FF8502D01D0402D00D168
:1045300005E040F2B941AFF69C70FCF704F8A68B99
:1045400048F6FF7006404FF6FF7000EA052006436C
:10455000A68370BD70B504460D46002653488442BC
:1045600020D0B4F1804F1DD0514884421AD0514818
:10457000844217D05048844214D05048844211D00D
:10458000444884420ED0444884420BD0434884427D
:1045900008D04348844205D04248844202D0424871
:1045A000844200D104E040F2D4414548FBF7CBFF00
:1045B000082D00D005B904E040F2D5414048FBF792
:1045C000C2FF268B4FF6F77006402E43268370BD40
:1045D00070B504460D4600263448844214D0B4F128
:1045E000804F11D0324884420ED0324884420BD0E2
:1045F0003148844208D03148844205D0254884425D
:1046000002D02748844200D104E040F2F2412C4815
:10461000FBF799FF082D00D005B904E040F2F34103
:104620002748FBF790FF268B4FF2FF7006404FF6AE
:10463000FF7000EA05200643268370BD70B504466E
:104640000D460026194884420ED0B4F1804F0BD09D
:104650001748844208D01748844205D0164884423F
:1046600002D01648844200D104E040F20F511448B1
:10467000FBF769FF082D00D005B904E04FF4A261F3
:104680000F48FBF760FFA68B4FF6F77006402E43EE
:10469000A68370BD00400140004401400048014035
:1046A00000180040001C00400020004000000140B5
:1046B0000004004000080040000C004000040140DD
:1046C0009C35000870B504460D460026F948844222
:1046D0000ED0B4F1804F0BD0F748844208D0F74891
:1046E000844205D0F648844202D0F648844200D184
:1046F00004E040F22C51F448FBF725FF082D00D0D0
:1047000005B904E040F22D51EF48FBF71CFFA68BE2
:104710004FF2FF7006404FF6FF7000EA0520064397
:10472000A68370BD70B504460D460026E14884425C
:1047300020D0B4F1804F1DD0DF4884421AD0DF482A
:10474000844217D0DE48844214D0DE48844211D01F
:10475000DE4884420ED0DE4884420BD0DD488442DD
:1047600008D0DD48844205D0DC48844202D0DC48D1
:10477000844200D104E040F24951D348FBF7E3FE04
:10478000042D00D005B904E040F24A51CE48FBF7B1
:10479000DAFE268B4FF6FB7006402E43268370BD53
:1047A00070B504460D460026C248844214D0B4F1C8
:1047B000804F11D0C04884420ED0C04884420BD0F4
:1047C000BF48844208D0BF48844205D0BF488442D5
:1047D00002D0C148844200D104E04FF4AD61BA4830
:1047E000FBF7B1FE042D00D005B904E040F2695199
:1047F000B548FBF7A8FE268B4FF6FF3006404FF674
:10480000FF7000EA05200643268370BD70B504469C
:104810000D460026A74884420ED0B4F1804F0BD03D
:10482000A548844208D0A548844205D0A4488442C3
:1048300002D0A448844200D104E040F28651A2484C
:10484000FBF781FE042D00D005B904E040F287514A
:104850009D48FBF778FEA68B4FF6FB7006402E4373
:10486000A68370BD70B504460D460026914884426B
:104870000ED0B4F1804F0BD08F48844208D08F48BF
:10488000844205D08E48844202D08E48844200D1B2
:1048900004E040F2A4518C48FBF755FE042D00D0F3
:1048A00005B904E040F2A5518748FBF74CFEA68B02
:1048B0004FF6FF3006404FF6FF7000EA0520064332
:1048C000A68370BD70B504460D4600267948844223
:1048D00020D0B4F1804F1DD0774884421AD0774859
:1048E000844217D07648844214D07648844211D04E
:1048F000764884420ED0764884420BD07548844274
:1049000008D07548844205D07448844202D0744867
:10491000844200D104E040F2C2516B48FBF713FE21
:10492000802D00D005B904E040F2C3516648FBF782
:104930000AFE268B4FF67F7006402E43268370BDFD
:1049400070B504460D4600265A48844214D0B4F18E
:10495000804F11D0584884420ED0584884420BD022
:104960005748844208D05748844205D0574884426B
:1049700002D05948844200D104E04FF4BC6152484F
:10498000FBF7E1FD802D00D005B904E040F2E151D4
:104990004D48FBF7D8FD268BC6F30E064FF6FF7089
:1049A00000EA05200643268370BD70B504460D4617
:1049B0000026404884420ED0B4F1804F0BD03E48D0
:1049C000844208D03D48844205D03D48844202D00C
:1049D0003C48844200D104E040F2FD513A48FBF7E4
:1049E000B2FD802D00D005B904E040F2FE513648FA
:1049F000FBF7A9FDA68B4FF67F7006402E43A683DA
:104A000070BD70B504460D4600262A4884420ED07B
:104A1000B4F1804F0BD02848844208D02748844204
:104A200005D02748844202D02648844200D104E0C1
:104A300040F21A612448FBF786FD802D00D005B9AD
:104A400004E040F21B612048FBF77DFDA68BC6F316
:104A50000E064FF6FF7000EA05200643A68370BDE0
:104A600070B504460D4600261248844220D0B4F1A9
:104A7000804F1DD0104884421AD01048844217D06D
:104A80000F48844214D00F48844211D00F4884420A
:104A90000ED00F4884420BD00E48844208D00E48F6
:104AA000844205D00D48844202D00D48844219D179
:104AB0001DE000000000014000040040000800402C
:104AC000000C0040000401409C35000800400140FB
:104AD000004401400048014000180040001C004014
:104AE0000020004040F23761FA48FBF72CFD0DB181
:104AF000022D00D104E04FF4C761F648FBF723FD17
:104B0000268C4FF6FD7006402E43268470BD70B58E
:104B100004460D460026F048844202D0EF48844205
:104B200000D104E040F25161EA48FBF70CFD0DB101
:104B3000082D00D104E040F25261E648FBF703FD86
:104B4000268C4FF6F77006402E43268470BD70B554
:104B500004460D460026E048844214D0B4F1804F4C
:104B600011D0DF4884420ED0DE4884420BD0DE48AC
:104B7000844208D0D948844205D0DC48844202D01F
:104B8000DB48844200D104E040F26D61D148FBF77C
:104B9000DAFC0DB1022D00D104E040F26E61CD4887
:104BA000FBF7D1FC268C4FF6DF7006404FF6FF7006
:104BB00000EA05100643268470BD70B504460D4614
:104BC0000026C548844202D0C448844200D104E093
:104BD0004FF4D161BF48FBF7B6FC0DB1082D00D1F1
:104BE00004E040F28961BB48FBF7ADFC268C4FF630
:104BF0007F7006404FF6FF7000EA051006432684DA
:104C000070BD70B504460D460026B34884420ED0F0
:104C1000B4F1804F0BD0B248844208D0B1488442EE
:104C200005D0B148844202D0AC48844200D104E0AF
:104C300040F2A361A748FBF786FC0DB1022D00D11D
:104C400004E040F2A461A348FBF77DFC268C4FF6FC
:104C5000FF5006404FF6FF7000EA05200643268409
:104C600070BD70B504460D4600269B48844202D0B4
:104C70009A48844200D104E040F2BE619548FBF7B7
:104C800062FC0DB1082D00D104E040F2BF619148F3
:104C9000FBF759FC268C4FF2FF7006404FF6FF7071
:104CA00000EA05200643268470BD70B504460D4613
:104CB0000026894884420ED0B4F1804F0BD088483A
:104CC000844208D08748844205D08748844202D075
:104CD0008248844200D104E040F2D9617D48FBF76C
:104CE00032FC0DB1022D00D104E040F2DA617948C6
:104CF000FBF729FC268C4DF6FF7006404FF6FF703F
:104D000000EA05300643268470BD2DE9F0410446D3
:104D10000D46164600277048844220D0B4F1804FDB
:104D20001DD06F4884421AD06E48844217D06E4816
:104D3000844214D06948844211D06C4884420ED019
:104D40006C4884420BD06C48844208D06848844246
:104D500005D06A48844202D06948844200D104E008
:104D60004FF4DF615B48FBF7EEFB2DB1042D03D060
:104D7000082D01D00C2D00D104E040F2F961554816
:104D8000FBF7E1FB012E00D006B904E040F2FA6126
:104D90005048FBF7D8FB0120A84087B2208CB843CD
:104DA0002084208C06FA05F189B208432084BDE8EE
:104DB000F0812DE9F04104460D461646002746488D
:104DC000844202D04548844200D104E040F216718A
:104DD0004048FBF7B8FB1DB1042D01D0082D00D1D0
:104DE00004E040F217713B48FBF7ADFB042E00D006
:104DF00006B904E04FF4E3613648FBF7A4FB042056
:104E0000A84087B2208CB8432084208C06FA05F194
:104E100089B208432084BDE8F08170B504460D4690
:104E20002D4884420ED0B4F1804F0BD02C488442E0
:104E300008D02C48844205D02B48844202D0274811
:104E4000844200D104E040F672012248FBF77BFB6C
:104E50002DB1042D03D0082D01D00C2D00D104E07C
:104E600040F673011B48FBF76EFBA08B4FF2FF313E
:104E70000840A083A08B4FF6FF7101EA052108438B
:104E8000A08370BDF0B50C46154600210022002617
:104E9000078C4EF6FF7C07EA0C070784818B028C97
:104EA0004FF6FF7707EA043640F6FF4739404FF6E2
:104EB000FF7707EA052739434FF6FF7707EA0337FD
:104EC000394345F6FF773A4046F480573A438183A9
:104ED0000284F0BD9C350008000001400004014040
:104EE0000004004000080040000C00400040014069
:104EF000001800400044014000480140001C0040F0
:104F00000020004070B504460D46FD4884420ED096
:104F1000B4F1804F0BD0FB48844208D0FA48844259
:104F200005D0FA48844202D0F948844200D104E016
:104F300040F65A01F748FBF706FB2DB1042D03D0CC
:104F4000082D01D00C2D00D104E040F65B01F148A2
:104F5000FBF7F9FAA08B4FF6F3710840A083A08B02
:104F60002843A08370BDF0B50C46154600210022F1
:104F70000026078C4FF6FF6C07EA0C070784818B2D
:104F8000028C4FF6FF7707EA04264FF60C7739407C
:104F90004FF6FF7707EA03172F4339434FF2FF57C6
:104FA0003A4046F480773A4381830284F0BD70B57D
:104FB00004460D46D248844214D0B4F1804F11D03B
:104FC000D04884420ED0D04884420BD0CF4884428F
:104FD00008D0CF48844205D0CF48844202D0CF4881
:104FE000844200D104E040F64201CA48FBF7ABFA24
:104FF0002DB1042D03D0082D01D00C2D00D104E0DB
:1050000040F64301C348FBF79EFA208B4FF2FF3175
:1050100008402083208B4FF6FF7101EA05210843E9
:10502000208370BDF0B50C461546002100220026F5
:10503000078C4FF6EF7C07EA0C070784018B028C84
:105040004FF6FF7707EA041640F6FF4739404FF660
:10505000FF7707EA033739434FF6FF7707EA05275B
:1050600039434FF65F773A4046F010073A430183E1
:105070000284F0BD70B504460D46A148844220D09C
:10508000B4F1804F1DD09F4884421AD09E4884427C
:1050900017D09E48844214D09D48844211D09E4827
:1050A00084420ED09E4884420BD09E48844208D051
:1050B0009A48844205D09C48844202D09B4884424E
:1050C00000D104E040F629019248FBF73CFA2DB1EB
:1050D000042D03D0082D01D00C2D00D104E040F6A2
:1050E0002A018C48FBF72FFA208B4FF6F37108400A
:1050F0002083208B2843208370BDF0B50C461546D5
:1051000000210022068C4FF6FE773E400684018B7C
:10511000028C4FF60C7631407E1C06EA03162E43B5
:1051200031434FF6F576324044F0010632430183B5
:105130000284F0BD70B504460D467148844220D00B
:10514000B4F1804F1DD06F4884421AD06E4884421B
:1051500017D06E48844214D06D48844211D06E48F6
:1051600084420ED06E4884420BD06E48844208D0F0
:105170006A48844205D06C48844202D06B4884421D
:1051800000D104E040F266716248FBF7DCF9688800
:1051900028B16888022802D068880A2800D104E073
:1051A00040F267715B48FBF7CEF9A888012805D06B
:1051B000A888022802D0A888032800D104E04FF470
:1051C000ED615448FBF7BFF9E88840B1E88804284E
:1051D00005D0E888082802D0E8880C2800D104E02F
:1051E00040F269714B48FBF7AEF928890F2800DCC3
:1051F00004E040F26A714748FBF7A5F9288850B9E6
:105200002B89AA8869882046FFF777FFE98820461E
:10521000FFF730FF73E02888042828D138488442FB
:1052200014D0B4F1804F11D0364884420ED03648A5
:1052300084420BD03548844208D03548844205D09A
:105240003548844202D03548844200D104E04FF40E
:10525000EF613048FBF777F92B89AA8869882046E7
:10526000FFF7E0FEE9882046FFF7A1FE47E0288827
:10527000082822D1224884420ED0B4F1804F0BD0AE
:105280002048844208D02048844205D01F488442E8
:1052900002D01F48844200D104E040F282711D48D0
:1052A000FBF751F92B89AA8869882046FFF75BFE36
:1052B000E9882046FFF726FE21E0114884420ED0FF
:1052C000B4F1804F0BD00F48844208D00E4884427E
:1052D00005D00E48844202D00D48844200D104E03B
:1052E00040F28C710B48FBF72EF92B89AA8869884C
:1052F0002046FFF7C7FDE9882046FFF78EFD70BD09
:10530000000001400004004000080040000C004084
:10531000000401409C350008004001400018004096
:105320000044014000480140001C004000200040B3
:10533000002101804180012181800021C180018103
:1053400070472DE9F04105460C4600260127FA4832
:10535000854214D0B5F1804F11D0F84885420ED067
:10536000F74885420BD0F748854208D0F648854279
:1053700005D0F648854202D0F548854200D104E0C8
:1053800040F2B471F348FBF7DEF8608808B90226F2
:1053900000E00026A088012801D1022700E00127B3
:1053A0002088A0B92389A28861882846FFF7A5FE36
:1053B000E1882846FFF75EFE23893A4631462846B3
:1053C000FFF730FEE1882846FFF7F1FD13E023895F
:1053D000A28861882846FFF725FEE1882846FFF766
:1053E000E6FD23893A4631462846FFF786FEE188E6
:1053F0002846FFF73FFEBDE8F08110B50446CE48D1
:10540000844220D0B4F1804F1DD0CC4884421AD0C1
:10541000CB48844217D0CB48844214D0CA48844237
:1054200011D0CA4884420ED0CB4884420BD0CB481E
:10543000844208D0C648844205D0C948844202D07C
:10544000C848844200D104E040F2EA71C148FBF749
:105450007AF8606B10BD10B50446B748844214D08A
:10546000B4F1804F11D0B54884420ED0B448844284
:105470000BD0B448844208D0B348844205D0B34826
:10548000844202D0B248844200D104E040F2F97173
:10549000B048FBF758F8A06B10BD10B50446A648FD
:1054A00084420ED0B4F1804F0BD0A448844208D07F
:1054B000A348844205D0A348844202D0A248844233
:1054C00000D104E040F60701A248FBF73CF8E06B8E
:1054D00010BD10B50446984884420ED0B4F1804FF8
:1054E0000BD09648844208D09548844205D0954810
:1054F000844202D09448844200D104E040F6150171
:105500009448FBF720F8206C10BD70B505460C469A
:105510008948854202D08C48854200D104E040F69B
:10552000A7018C48FBF70FF82088B0F5006F01D079
:10553000208800B904E040F6A8018648FBF703F88C
:105540006088B0F5806F01D0608800B904E040F653
:10555000A9018048FAF7F7FFA08858B1A088B0F5F4
:10556000807F07D0A088B0F5007F03D0A088B0F579
:10557000407F00D104E040F6AA017648FAF7E3FF45
:105580002089B0F5805F01D0208900B904E040F6A1
:10559000AB017048FAF7D7FF608918B16089B0F5A0
:1055A000005F00D104E040F6AC016A48FAF7CBFF97
:1055B000A089B0F5804F01D0A08900B904E040F681
:1055C000AD016448FAF7BFFF208861880843A188CD
:1055D0000843E18808432189084361890843A18978
:1055E0000843A5F8440070BD0021018041808180FE
:1055F000C180018141818181704770B504460D46AB
:105600004D48844202D05048844200D104E040F624
:10561000D3015048FAF797FF0DB1012D00D104E0F6
:1056200040F6D4014B48FAF78EFF35B1B4F8440088
:1056300040F40040A4F8440005E0B4F84400C0F38E
:105640000E00A4F8440070BD70B504460D463A48FB
:10565000844202D03C48844200D104E040F6EC0190
:105660003C48FAF770FF0DB1012D00D104E040F67F
:10567000ED013848FAF767FF25B1A08840F0040033
:10568000A08004E0A0884FF6FB710840A08070BDA8
:1056900070B504460D462848844202D02A48844208
:1056A00000D104E040F605112A48FAF74CFF0DB18D
:1056B000012D00D104E040F606112648FAF743FF19
:1056C00025B1A08840F00100A08004E0A0884FF63A
:1056D000FE710840A08070BD70B504460D461646A8
:1056E0001548844226D0B4F1804F23D01348844219
:1056F00020D0134884421DD0124884421AD01A4840
:10570000844217D01948844214D00F48844211D0E3
:105710000E4884420ED0104884420BD00F48844279
:1057200008D00B48844205D00D48844202D00D4871
:1057300084421DD121E0000000000140000400402F
:1057400000080040000C00400004014000400140FF
:10575000001800409C35000800440140004801400A
:10576000001C0040002000400010004000140040D9
:1057700040F63E11FE48FAF7E6FE05F47F4008B910
:1057800005B104E040F63F11F948FAF7DCFE0EB12E
:10579000012E00D104E04FF41461F548FAF7D3FE6E
:1057A0001EB1A0892843A08102E0A089A843A0815E
:1057B00070BD70B504460D46EE48844226D0B4F163
:1057C000804F23D0EC48844220D0EC4884421DD046
:1057D000EB4884421AD0EB48844217D0EA4884420E
:1057E00014D0EA48844211D0E94884420ED0E948F6
:1057F00084420BD0E848844208D0E848844205D06F
:10580000E748844202D0E748844200D104E040F6F1
:105810006411D748FAF797FE05F47F4008B905B13F
:1058200004E040F66511D248FAF78DFEA58270BDFE
:1058300070B504460D460026CE48844226D0B4F109
:10584000804F23D0CC48844220D0CC4884421DD005
:10585000CB4884421AD0CB48844217D0CA488442ED
:1058600014D0CA48844211D0C94884420ED0C948D5
:1058700084420BD0C848844208D0C848844205D02E
:10588000C748844202D0C748844200D104E040F6B1
:105890008611B748FAF757FE012D19D0022D17D0FF
:1058A000042D15D0082D13D0102D11D0202D0FD080
:1058B000402D0DD0802D0BD0B5F5007F08D0B5F56B
:1058C000806F05D0B5F5006F02D0B5F5805F00D1CF
:1058D00004E040F68711A648FAF735FE208A2840F2
:1058E00008B1012600E00026304670BD70B50446C0
:1058F0000D46A048844226D0B4F1804F23D09E4864
:10590000844220D09D4884421DD09D4884421AD0B4
:105910009C48844217D09C48844214D09B488442BF
:1059200011D09B4884420ED09A4884420BD09A48AA
:10593000844208D09948844205D09948844202D0D4
:105940009848844200D104E040F6AF118848FAF745
:10595000FAFDE843208270BD2DE9F04104460D4672
:1059600000260027B0468348844226D0B4F1804FF9
:1059700023D08148844220D0804884421DD0804872
:1059800084421AD07F48844217D07F48844214D082
:105990007E48844211D07E4884420ED07D488442A5
:1059A0000BD07D48844208D07C48844205D07C4896
:1059B000844202D07B48844200D104E040F6CD11FD
:1059C0006B48FAF7C0FD012D0DD0022D0BD0042D30
:1059D00009D0082D07D0102D05D0202D03D0402D43
:1059E00001D0802D00D104E040F6CE116048FAF7D6
:1059F000AAFD208A00EA0507A08900EA050827B168
:105A0000B8F1000F01D0012600E000263046BDE8C5
:105A1000F08170B504460D465648844226D0B4F154
:105A2000804F23D05448844220D0544884421DD013
:105A3000534884421AD05348844217D05248844273
:105A400014D05248844211D0514884420ED051485B
:105A500084420BD05048844208D05048844205D03C
:105A60004F48844202D04F48844200D104E040F6BF
:105A7000F4113F48FAF767FDE843208270BD70B526
:105A800006460C4615463B4886420ED0B6F1804F7E
:105A90000BD03948864208D03848864205D038486D
:105AA000864202D03948864200D104E040F61921EE
:105AB0002F48FAF748FD2CB3012C23D0022C21D01B
:105AC000032C1FD0042C1DD0052C1BD0062C19D064
:105AD000072C17D0082C15D0092C13D00A2C11D064
